:020000021000EC
:10F800000C9446FC0C9465FC0C9465FC0C9465FC13
:10F810000C9465FC0C9465FC0C9465FC0C9465FCE4
:10F820000C9465FC0C9465FC0C9465FC0C9465FCD4
:10F830000C9465FC0C9465FC0C9465FC0C9465FCC4
:10F840000C9465FC0C9465FC0C9465FC0C9465FCB4
:10F850000C9465FC0C9465FC0C9465FC0C9465FCA4
:10F860000C9465FC0C9465FC0C9465FC0C9465FC94
:10F870000C9465FC0C9465FC0C9465FC0C9465FC84
:10F880000C9465FC0C9465FC0C9465FC11241FBE63
:10F89000CFEFD0E4DEBFCDBF11E0A0E0B1E0E6E005
:10F8A000FFEF01E00BBF02C007900D92A230B1073D
:10F8B000D9F712E0A2E0B1E001C01D92AD30B1076E
:10F8C000E1F70E945FFD0C9481FF0C9400FC909185
:10F8D0000201913039F49091C00095FFFCCF8093E4
:10F8E000C6000895923031F49091C80095FFFCCF86
:10F8F0008093CE0008951F93982F95959595959593
:10F900009595905D182F1F701A3014F0195A01C088
:10F91000105D892F0E9467FC812F0E9467FC1F9158
:10F920000895EF92FF920F931F938091020181300F
:10F93000F1F4EE24FF24870113C00894E11CF11CAC
:10F94000011D111D81E0E81682E1F8068AE708072B
:10F9500080E0180728F0E0910401F0910501099575
:10F960008091C00087FFE9CF8091C60021C082301E
:10F97000F1F4EE24FF24870113C00894E11CF11C6C
:10F98000011D111D81E0E81682E1F8068AE70807EB
:10F9900080E0180728F0E0910401F0910501099535
:10F9A0008091C80087FFE9CF8091CE0001C080E040
:10F9B0001F910F91FF90EF9008951F930E9491FC6B
:10F9C000182F0E9467FC113614F0175503C010332E
:10F9D0000CF01053812F1F9108951F930E94DDFC9E
:10F9E000182F0E94DDFC1295107F810F1F91089542
:10F9F0009091020112C0913039F42091C00027FF8C
:10FA0000FCCF2091C60008C0923031F42091C8008C
:10FA100027FFFCCF2091CE008150882361F7089505
:10FA20001F93182F0E9491FC803251F484E10E94B0
:10FA300067FC812F0E9467FC80E10E9467FC0CC07C
:10FA4000809103018F5F80930301853029F4E09159
:10FA50000401F091050109951F9108950E9491FC00
:10FA6000803239F484E10E9467FC80E10E9467FCE7
:10FA70000895809103018F5F80930301853029F4FD
:10FA8000E0910401F09105010995089515C0289AA7
:10FA90002FEF31EE44E0215030404040E1F700C00C
:10FAA000000028982FEF31EE44E0215030404040D4
:10FAB000E1F700C000008150882349F70895BF9204
:10FAC000CF92DF92EF92FF920F931F93CF93DF932A
:10FAD00094B714BE8091600088618093600010929A
:10FAE000600091FD05C0E0910401F09105010995C8
:10FAF00081E08093020180E18093C4001092C500F0
:10FB00001092C00086E08093C20088E18093C1001B
:10FB1000209A84E00E9446FDBB24B3940E9491FC8D
:10FB2000803309F441C08133E1F40E9491FC8032BA
:10FB300009F0C3C184E10E9467FC81E40E9467FC74
:10FB400086E50E9467FC82E50E9467FC80E20E94D5
:10FB500067FC89E40E9467FC83E50E9467FC80E5FE
:10FB600029C1803439F40E9491FC8638E8F00E9463
:10FB700091FC1AC0813499F40E9491FC803811F4F0
:10FB800082E098C1813811F481E094C1823811F487
:10FB900080E190C1883909F08CC183E08BC1823447
:10FBA00031F484E10E94F8FC0E942EFDB7CF853429
:10FBB00011F485E0F7CF8035B9F38235A9F38135AB
:10FBC00031F40E942EFD88E080936000FFCF8535E0
:10FBD00049F40E9491FC809306010E9491FC80935D
:10FBE0000701E2CF8635C9F40E9491FC803389F485
:10FBF0000E9491FC0E9491FC082F0E9491FC00231E
:10FC000011F48EE157C1013011F487E953C185E049
:10FC100051C183E00E94F8FC4CC1843609F0D0C089
:10FC20000E9491FC809309020E9491FC809308023B
:10FC300080910C028E7F80930C020E9491FC85348F
:10FC400029F480910C02816080930C0258E0C52E4B
:10FC500051E0D52E760100E010E007C00E9491FC33
:10FC6000F70181937F010F5F1F4F809108029091F0
:10FC700009020817190790F30E9491FC803209F0DD
:10FC80001CC180910C0280FF29C0809106019091D7
:10FC90000701880F991F909307018093060100E0E8
:10FCA00010E014C0F60161916F01809106019091FE
:10FCB00007010E9473FF8091060190910701019650
:10FCC00090930701809306010F5F1F4F80910802F8
:10FCD000909109020817190728F36BC0809107015A
:10FCE000880F880B8B2180930B028BBF80910601BC
:10FCF00090910701880F991F909307018093060147
:10FD00008091080280FF09C0809108029091090249
:10FD100001969093090280930802F894F999FECF16
:10FD20001127E0910601F0910701C8E0D1E0809130
:10FD3000080290910902103091F40091570001706F
:10FD40000130D9F303E000935700E8950091570084
:10FD500001700130D9F301E100935700E895099053
:10FD600019900091570001700130D9F301E0009320
:10FD70005700E8951395103898F011270091570017
:10FD800001700130D9F305E000935700E895009128
:10FD9000570001700130D9F301E100935700E89555
:10FDA0003296029709F0C7CF103011F00296E5CFD6
:10FDB000112484E10E9467FC80E10E9467FCAECEC2
:10FDC000843709F063C00E9491FC809309020E946D
:10FDD00091FC809308028091060190910701209187
:10FDE0000C0297FF02C0226001C02D7F20930C02FD
:10FDF000880F991F90930701809306010E9491FC40
:10FE000020910C02853411F4216001C02E7F2093D3
:10FE10000C020E9491FC803209F080CE84E10E94A5
:10FE200067FC00E010E02AC080910C0280FF07C050
:10FE300080910601909107010E946BFF12C0E09132
:10FE40000601F091070181FD02C084910AC0CF0133
:10FE5000A0E0B0E080509040AF4FBF4FABBFFC017F
:10FE600087910E9467FC809106019091070101969D
:10FE700090930701809306010F5F1F4F8091080246
:10FE8000909109020817190778F296CF853779F40F
:10FE90000E9491FC803289F484E10E9467FC8EE12B
:10FEA0000E9467FC87E90E9467FC85E083CF863764
:10FEB00021F480E00E9410FD31CE809103018F5F1C
:10FEC00080930301853009F029CEE0910401F0917F
:10FED0000501099523CEF999FECF92BD81BDF89A0F
:10FEE000992780B50895262FF999FECF1FBA92BDA4
:10FEF00081BD20BD0FB6F894FA9AF99A0FBE01960B
:06FF00000895F894FFCF04
:02FF0600800079
:040000031000F800F1
:00000001FF
