:020000021000EC
:10F000004BC0000077C0000075C0000073C0000056
:10F0100071C000006FC000006DC000006BC0000038
:10F0200069C0000067C0000028C2000063C0000083
:10F0300061C000005FC000005DC000005BC0000058
:10F0400059C0000057C0000055C0000053C0000068
:10F0500051C000004FC000004DC000004BC0000078
:10F0600049C0000047C0000045C0000043C0000088
:10F0700041C000003FC000003DC000003BC0000098
:10F0800039C0000037C0000035C0000033C00000A8
:10F0900031C000002FC0000011241FBECFEFD0E20E
:10F0A000DEBFCDBF04B603FE0EC080915401909127
:10F0B000550182349C4D39F410925501109254013F
:10F0C000E0E0F0E0099511E0A0E0B1E0E8E2F8EF5F
:10F0D00001E00BBF02C007900D92AA34B107D9F727
:10F0E00021E0AAE4B1E001C01D92A435B207E1F726
:10F0F00002D098C385CF84B7877F84BF88E10FB6DD
:10F10000F89480936000109260000FBE81E085BF8C
:10F1100082E085BF97D1789480910001882311F017
:10F1200066D3FACF8091E00081608093E00082E4B2
:10F130009CED90935501809354012CE088E190E080
:10F140000FB6F894A895809360000FBE20936000DE
:10F15000FFCF42E361EC81E002C1CF92DF92EF92F8
:10F16000FF921F93CF93DF9380914C018F77813271
:10F1700009F075C080914D01893009F070C080910F
:10F18000E800877F8093E8008091E80082FFFCCF51
:10F190009091F1008091F100492F582F60E070E0CC
:10F1A000B62FA52F942F88274F3F5F4F19F4109249
:10F1B00000013EC023E0FC01A0935B0020935700B8
:10F1C000E89507B600FCFDCF20E030E011E040916B
:10F1D000F2005091F300452B09F437C05091F10033
:10F1E0004091F100C52FD42FA901440F551F6C0188
:10F1F0007D01C40ED51EE11CF11C0E01F601E0924A
:10F200005B0010935700E89511242F5F3F4F203883
:10F210003105E9F625E0FC01A0935B00209357003F
:10F22000E89507B600FCFDCF81E180935700E89593
:10F230008091E8008B778093E800DF91CF911F9158
:10F24000FF90EF90DF90CF909EC04091E8004B7709
:10F250004093E8004091E80042FFFCCFBFCFDF9130
:10F26000CF911F91FF90EF90DF90CF900895913054
:10F2700049F0923061F0913279F489E090E023E135
:10F2800031E00EC082E190E023E231E009C082E289
:10F2900090E021E031E004C085E190E025E331E039
:10F2A000FA01318320830895209152013091530156
:10F2B0002617370748F06115710539F42091E800E9
:10F2C0002E772093E80001C0B901FC0120E0611510
:10F2D000710591F18EB38823E1F18530E1F18091E0
:10F2E000E80083FD3AC08091E80082FF06C080916B
:10F2F000E80082FF24C080E008958091E80080FF4C
:10F30000E6CF8091F2009091F3006115710551F004
:10F310008830910538F421912093F10061507109F2
:10F320000196F3CF21E0089709F020E08091E800F2
:10F330008E778093E800CBCF2111CCCFD8CF8EB37E
:10F34000882339F0853039F08091E80083FFCFCFF2
:10F3500004C082E0089583E0089581E008958F70ED
:10F360008093E900EBEEF0E0808181608083EDEE38
:10F37000F0E010826093EC0040838091EE00881FE3
:10F380008827881F089580914C0187FD05C08091D2
:10F39000E80080FF0DC010C08091E80082FD04C02D
:10F3A0008EB38111F9CF08958091E8008B7707C063
:10F3B0008EB38111ECCF08958091E8008E77809311
:10F3C000E80008950F931F93CF93DF9349D050D057
:10F3D000C8EDD0E088818F778883888180688883B2
:10F3E00088818F7D8883E7EDF0E08081806880836D
:10F3F00019BC1EBA10924A0100EE10E0F80180819B
:10F400008B7F808388818160888342E060E080E038
:10F41000A6DFE1EEF0E080818E7F8083E2EEF0E017
:10F42000808181608083808188608083F801808111
:10F430008E7F8083888180618883DF91CF911F9147
:10F440000F910895E8EDF0E080818F7E8083E7EDF5
:10F45000F0E080818160808381E080934B01B2CFB6
:10F46000E8EDF0E080818C7F80831092E2000895C7
:10F470001092DA001092E10008951F920F920FB6D9
:10F480000F9211240BB60F922F933F934F935F93DC
:10F490006F937F938F939F93AF93BF93EF93FF935C
:10F4A0008091DA0080FF1BC08091D80080FF17C0D8
:10F4B0008091DA008E7F8093DA008091D90080FFFE
:10F4C0000BC084E189BD86E189BD09B400FEFDCF92
:10F4D00081E08EBB8BD103C019BC1EBA87D180914D
:10F4E000E10080FF17C08091E20080FF13C080918F
:10F4F000E2008E7F8093E2008091E2008061809341
:10F50000E2008091D80080628093D80019BC85E029
:10F510008EBB6CD18091E10084FF2EC08091E2000F
:10F5200084FF2AC084E189BD86E189BD09B400FE5B
:10F53000FDCF8091D8008F7D8093D8008091E1002D
:10F540008F7E8093E1008091E2008F7E8093E200C5
:10F550008091E20081608093E20080914A018823DB
:10F5600011F084E007C08091E30087FF02C083E0D0
:10F5700001C081E08EBB3AD18091E10083FF21C0C0
:10F580008091E20083FF1DC08091E100877F80931E
:10F59000E10082E08EBB10924A018091E1008E7FF3
:10F5A0008093E1008091E2008E7F8093E200809161
:10F5B000E20080618093E20042E060E080E0CFDE24
:10F5C00015D1FF91EF91BF91AF919F918F917F9155
:10F5D0006F915F914F913F912F910F900BBE0F90C4
:10F5E0000FBE0F901F9018951F93CF93DF9300D0FD
:10F5F000CDB7DEB7ECE4F1E08091F100819381E0DA
:10F60000E435F807C9F7A9DD8091E80083FFDAC087
:10F6100090914C0180914D01853009F465C030F422
:10F62000813059F168F0833041F1CCC0883009F461
:10F630009CC0893009F4ABC0863009F0C3C075C0E6
:10F64000903881F0923809F0BDC0809150018F70E0
:10F650008093E9009091EB0095FB992790F9109227
:10F66000E90001C090E08091E800877F8093E80086
:10F670009093F1001092F10083C0292F2D7F09F0A3
:10F68000A1C0923009F09EC090914E01911126C008
:10F69000209150012F7009F495C02093E9009091BA
:10F6A000EB0090FF1BC0833021F48091EB0080625F
:10F6B00013C08091EB0080618093EB0081E090E0CB
:10F6C000022E01C0880F0A94EAF78093EA00109294
:10F6D000EA008091EB0088608093EB001092E900D3
:10F6E0008091E800877F4FC091116CC010914E014E
:10F6F0001F778091E3008078812B8093E3008091D5
:10F70000E800877F8093E8003EDE8091E80080FF7C
:10F71000FCCF8091E30080688093E300112311F017
:10F7200083E001C082E08EBB4DC09058923008F05B
:10F7300049C0AE014F5F5F4F6091500180914E0113
:10F7400090914F0194DD009709F43CC02091E800AE
:10F75000277F2093E800BC0189819A81A5DD8091F3
:10F76000E8008B778093E8002DC0903859F58091A0
:10F77000E800877F8093E80080914A018093F10040
:10F780008091E8008E778093E800FDDD1BC0911129
:10F7900019C090914E019230A8F48091E800877FC3
:10F7A0008093E80090934A01EEDD80914A01811137
:10F7B00004C08091E30087FF02C084E001C081E0C3
:10F7C0008EBBC7DC8091E80083FF0AC08091E8000F
:10F7D000877F8093E8008091EB0080628093EB004C
:10F7E0000F900F90DF91CF911F9108950895CF93BF
:10F7F0008EB38823A9F08091E9008F709091EC007E
:10F8000090FF02C090E801C090E0C92FC82B109271
:10F81000E9008091E80083FDE7DECF70C093E90046
:08F82000CF910895F894FFCF89
:10F8280001090222000101008032090400000103DD
:10F8380000000009211101000122150007058103BC
:10F848004000051201100100000008EB03672001C9
:10F85800000000000106DCFF09FBA10109021500F8
:0AF8680025FF75089602019102C009
:040000031000F000F9
:00000001FF
