:020000021000EC
:10F000004BC0000066C0000064C0000062C0000089
:10F0100060C000005EC000005CC000005AC000007C
:10F0200058C0000056C00000ACC4000052C0000030
:10F0300050C000004EC000004CC000004AC000009C
:10F0400048C0000046C0000044C0000042C00000AC
:10F0500040C000003EC000003CC000003AC00000BC
:10F0600038C0000036C0000034C0000032C00000CC
:10F0700030C000002EC000002CC000002AC00000DC
:10F0800028C0000026C0000024C0000022C00000EC
:10F0900020C000001EC0000011241FBECFEFD0E230
:10F0A000DEBFCDBF11E0A0E0B1E0E4EAFEEF01E099
:10F0B0000BBF02C007900D92AC38B107D9F711E031
:10F0C000ACE8B1E001C01D92AD39B107E1F72FD333
:10F0D000E7C696CF84E08093E9000DC08091E800F8
:10F0E0008B778093E80003C08EB3882359F080911A
:10F0F000E80082FFF9CF8091E80085FFEFCF809193
:10F10000F100089580E0089593E09093E9009091D4
:10F11000E80095FD0DC09091E8009E779093E8007F
:10F1200003C09EB3992331F09091E80090FFF9CF8E
:10F130008093F100089584B7877F84BF88E10FB67C
:10F14000F89480936000109260000FBE90E080E819
:10F150000FB6F89480936100909361000FBE81E038
:10F1600085BF82E085BFF7C382E061EC42E079D3DE
:10F1700083E061E842E175D384E060E842E171C375
:10F18000809196018032B1F0813239F580919501FC
:10F19000813A19F58091E800877F8093E80088E044
:10F1A00091E067E070E0BAD58091E8008B778093BA
:10F1B000E800089580919501813279F48091E8000A
:10F1C000877F8093E80088E091E067E070E001D6F7
:10F1D0008091E8008E778093E80008952F923F9207
:10F1E0005F926F927F928F929F92AF92BF92CF92D7
:10F1F000DF92EF92FF920F931F93DF93CF930F92C3
:10F20000CDB7DEB784E08093E9008091E80082FF0B
:10F210007BC210928C015EDF182F8C3409F421C25E
:10F22000803509F41EC2843529F0853429F4109202
:10F230000F0117C24FDF15C2843711F484E448C0B0
:10F24000813611F489E536C28134F1F443DF382F79
:10F25000330F20E079010027F7FC0095102FE09292
:10F260008F01F0929001009391011093920132DF8F
:10F2700090E0880F991FAA2797FDA095BA2F8E2995
:10F280009F29A02BB12BE5C1803711F483E512C271
:10F29000833559F400E011E0D8018D918D0134DF00
:10F2A000B1E007301B07C1F706C2863521F481E3C0
:10F2B0002BDF80E3FFC1833731F482E825DF87E964
:10F2C00023DF8EE1F7C1823631F489E51DDF81E06D
:10F2D0001BDF80E0EFC1853621F580E090E0DC01A6
:10F2E00033E025E0FC01A0935B0030935700E895E4
:10F2F00007B600FCFDCFFC01A0935B0020935700F4
:10F30000E89507B600FCFDCF8F5F9E4FAF4FBF4F14
:10F310008F3EE0EF9E07E1E0AE07E0E0BE0711F7A9
:10F32000A0C18C3651F4D6DE809599E0E1E0F0E0A2
:10F33000082E90935700E89594C1823719F4E1E0C4
:10F34000F0E00EC0863419F4E0E0F0E009C08E343D
:10F3500019F4E3E0F0E004C0813539F4E2E0F0E0D4
:10F3600089E0809357008491A5C18334A1F4E09093
:10F370008F01F09090010091910110919201AADE0D
:10F3800090E021E00C01F70100935B00209357000F
:10F39000E895112466C18336E1F4E0908F01F09086
:10F3A0009001009191011091920181E090E0A0E024
:10F3B000B0E0E82AF92A0A2B1B2B8CDE90E021E032
:10F3C0000C01F70100935B0020935700E89511248E
:10F3D00035C18D3699F480918F0190919001A09163
:10F3E0009101B091920125E0FC01A0935B00209374
:10F3F0005700E89507B600FCFDCF33C1823419F001
:10F40000873609F0F7C066DEE82E64DE082F62DE7C
:10F41000982E8554823008F04CC13E2D20E0202EDD
:10F420003324222A332A173609F058C081E1809309
:10F430005700E89510E001E04CC020918F01309119
:10F4400090014091910150919201992D963419F5B6
:10F45000812F90E0A0E0B0E0822B932BA42BB52B62
:10F46000ABBFFC01879150DE112399F080918F0191
:10F4700090919001A0919101B09192010296A11DED
:10F48000B11D80938F0190939001A0939101B0934F
:10F49000920110271BC0DA01C901B695A79597956F
:10F4A0008795E8D431DE80918F0190919001A091F1
:10F4B0009101B09192010296A11DB11D80938F011F
:10F4C00090939001A0939101B09392010894210828
:10F4D00031082114310409F0B0CFEDC0A0908F01A4
:10F4E000B0909001C0909101D0909201A92DA634C6
:10F4F00009F069C083E0F501C0925B00809357007A
:10F50000E89507B600FCFDCF5EC0B92DB63491F585
:10F51000222361F1E0908F01F09090010091910120
:10F5200010919201D7DD782E6624282D30E026290F
:10F5300037290901F70100935B0050925700E895C5
:10F54000112480918F0190919001A0919101B0912F
:10F5500092010296A11DB11D80938F01909390019D
:10F56000A0939101B093920120E029C0B3DD882ED1
:10F5700021E025C0E0908F01F09090010091910171
:10F580001091920116950795F794E7942983A2DDCF
:10F59000682FC70177D480918F0190919001A0913D
:10F5A0009101B09192010296A11DB11D80938F012E
:10F5B00090939001A0939101B093920129810894B6
:10F5C0002108310804C0882420E0552453942114D4
:10F5D000310409F09ACFE92DE63409F042C085E004
:10F5E000F501C0925B0080935700E89507B600FCD8
:10F5F000FDCF37C0823581F480918F0190919001C9
:10F60000A0919101B0919201ABBFFC0107911691BD
:10F61000812F7ADD802F4EC0843429F5E0908F0150
:10F62000F09090010091910110919201169507952B
:10F63000F794E7944FDD682FC70124D480918F01A0
:10F6400090919001A0919101B09192010296A11D1B
:10F65000B11D80938F0190939001A0939101B0937D
:10F6600092018DE027C0843611F580918F01909131
:10F670009001A0919101B0919201B695A7959795AF
:10F680008795F8D341DD80918F0190919001A091F1
:10F690009101B09192010296A11DB11D80938F013D
:10F6A00090939001A0939101B093920104C08B318B
:10F6B00011F08FE329DD83E08093E9009091E80069
:10F6C0008091E8008E778093E80095FF04C010C019
:10F6D0008EB38823C9F08091E80080FFF9CF809134
:10F6E000E8008E778093E80003C08EB3882361F032
:10F6F0008091E80080FFF9CF84E08093E900809159
:10F70000E8008B778093E8000F90CF91DF911F91F5
:10F710000F91FF90EF90DF90CF90BF90AF909F90B0
:10F720008F907F906F905F903F902F900895EF9211
:10F73000FF920F931F93DF93CF930F92CDB7DEB756
:10F7400084B714BE9091600098619093600010920D
:10F75000600010928C0190E0FC01E270F07081FD7D
:10F760000BC0859194912FEF8F3F920729F0E09184
:10F770008D01F0918E010995209A289A6F9A779AB7
:10F780006D9A759A3B9A439AD6DC6F9A779A7894D9
:10F7900081E010E000E0E0E0F0E0E590F49025C0CA
:10F7A00089831CDD55D30F5F8981002311F4180F65
:10F7B000779A011709F477981F3F59F0112351F4F4
:10F7C000813041F080918C018F5F80938C0181E0CA
:10F7D00001C08FEF90918C01923338F09FEFE916C2
:10F7E0009FEFF90611F010920F0190910F019923EC
:10F7F000B9F68091E00081608093E0002CE088E120
:10F8000090E00FB6F894A895809360000FBE209307
:10F810006000FFCF923049F0933061F09130C1F039
:10F8200020E030E080E090E017C02EE330E082E29C
:10F8300091E012C0882331F42091600130E080E62D
:10F8400091E00AC02091640130E084E691E004C0B8
:10F8500022E130E080E191E0FA0191838083C901E7
:10F8600008958093E900EBEEF0E080818160808371
:10F87000EDEEF0E010826093EC0040838091EE00AA
:10F88000881F8827881F08958091950187FF11C0E0
:10F8900003C08EB38823B1F08091E80082FFF9CFD6
:10F8A0008091E8008B778093E80008958EB38823D9
:10F8B00049F08091E80080FFF9CF8091E8008E77D1
:10F8C0008093E800089550D057D08091D800982FA9
:10F8D0009F779093D80080688093D80084E189BD99
:10F8E00089B5826089BD09B400FEFDCF8091D80042
:10F8F0008F7D8093D8008091D70080688093D70057
:10F900001EBA109293018091E0008B7F8093E000FB
:10F910008091D80081608093D80080E060E042E070
:10F92000A0DF8091E1008E7F8093E1008091E20072
:10F9300081608093E2008091E20088608093E20021
:10F940008091E0008E7F8093E0008091D8008061FC
:10F950008093D8000895E7EDF0E080818160808396
:10F9600081E080939401AFCFE8EDF0E080818C7F5F
:10F9700080831092E20008951092DA001092E10064
:10F9800008951F920F920FB60F920BB60F9211248B
:10F990002F933F934F935F936F937F938F939F9397
:10F9A000AF93BF93EF93FF938091DA0080FF13C072
:10F9B0008091D80080FF0FC08091DA008E7F809305
:10F9C000DA008091D90080FF04C081E08EBBA5D110
:10F9D00002C01EBAA2D18091E10080FF1CC08091BC
:10F9E000E20080FF18C08091E1008E7F8093E100EB
:10F9F0008091E2008E7F8093E2008091E20080613E
:10FA00008093E2008091D80080628093D80019BC76
:10FA100085E08EBB82D18091E10084FF2DC0809172
:10FA2000E20084FF29C084E189BD89B5826089BD77
:10FA300009B400FEFDCF8091D8008F7D8093D8005F
:10FA40008091E1008F7E8093E1008091E2008F7EC3
:10FA50008093E2008091E20081608093E2008091D7
:10FA60009301882321F48091E30087FF02C084E0A2
:10FA700001C081E08EBB51D18091E10083FF21C0A4
:10FA80008091E20083FF1DC08091E100877F809319
:10FA9000E10082E08EBB109293018091E1008E7FA5
:10FAA0008093E1008091E2008E7F8093E20080915C
:10FAB000E20080618093E20080E060E042E0D1DE1D
:10FAC0002CD18091E10082FF0AC08091E20082FF88
:10FAD00006C08091E1008B7F8093E1001ED1FF91F1
:10FAE000EF91BF91AF919F918F917F916F915F91B6
:10FAF0004F913F912F910F900BBE0F900FBE0F9023
:10FB00001F9018950F931F93DF93CF9300D0CDB71D
:10FB1000DEB7E5E9F1E08091F100819381E0ED3914
:10FB2000F807C9F78091950190919601953009F4F5
:10FB30006BC0963040F4913061F1913070F09330A9
:10FB400009F0D5C026C0983009F4A3C0993009F453
:10FB5000B2C0963009F0CBC07CC0803809F4C8C070
:10FB6000823809F0C4C08091990187708093E900C0
:10FB70009091EB001092E9008091E800877F8093DC
:10FB8000E80081E095FF80E08093F1001092F100A1
:10FB90008BC0882319F0823009F0A9C08F718230A0
:10FBA00009F0A6C080919701882341F52091990121
:10FBB000277009F49DC02093E9008091EB0080FF3D
:10FBC0001DC080919601833021F48091EB0080620A
:10FBD00013C08091EB0080618093EB0081E090E0A6
:10FBE00002C0880F991F2A95E2F78093EA001092CD
:10FBF000EA008091EB0088608093EB001092E900AE
:10FC00008091E800877F53C0882309F070C010916D
:10FC100097011F770FB7F8948091E800877F809352
:10FC2000E80032DE8091E80080FFFCCF112311F064
:10FC300083E001C082E08EBB8091E3008078812B5D
:10FC40008093E3008091E30080688093E3000FBF1E
:10FC50004FC08058823008F04AC08091970190913F
:10FC6000980160919901AE014F5F5F4FD3DDBC01F8
:10FC7000009709F43DC08091E800877F8093E800F9
:10FC800089819A814BD08091E8008B778093E8003E
:10FC90002FC0803861F58091E800877F8093E8006D
:10FCA000809193018093F1008091E8008E7780939A
:10FCB000E800EADD1DC08823D1F4909197019230CD
:10FCC000B8F48091E800877F8093E80090939301D7
:10FCD000DBDD80919301882321F48091E30087FF8D
:10FCE00002C084E001C081E08EBB3EDA01C048DA88
:10FCF0008091E80083FF0AC08091EB0080628093CE
:10FD0000EB008091E800877F8093E8000F900F90D0
:10FD1000CF91DF911F910F9108950895282F392FCA
:10FD2000F90180919B0190919C018617970718F427
:10FD3000BC0120E035C061157105D9F78091E8005C
:10FD40008E778093E800F5CF8EB38823F1F185306C
:10FD5000C1F18091E80083FD36C08091E80082FD0A
:10FD60002AC08091E80080FF1BC08091F200909132
:10FD7000F30006C021912093F1006150704001967C
:10FD80006115710519F088309105A0F321E08830E4
:10FD9000910509F020E08091E8008E778093E800DB
:10FDA0006115710589F6222379F605C08EB3882383
:10FDB00061F0853061F08091E80082FFF7CF80E04C
:10FDC000089583E0089581E0089582E0089583E036
:10FDD00008956115710529F51FC02EB32223A1F1E5
:10FDE000253071F12091E80023FD2CC02091E8001E
:10FDF00022FFF3CFE82FF92F07C08091F100819304
:10FE0000CF016150704041F0CF012091F20030915C
:10FE1000F3002115310589F72091E8002B77209315
:10FE2000E80061157105C9F605C08EB3882361F03D
:10FE3000853061F08091E80080FFF7CF80E0089581
:10FE400083E0089581E0089582E0089583E00895B5
:10FE50001F938EB3882361F01091E9001770109200
:10FE6000E9008091E80083FF01C04CDE1093E900B7
:10FE70001F910895F999FECF92BD81BDF89A9927F7
:10FE800080B50895262FF999FECF1FBA92BD81BD86
:10FE900020BD0FB6F894FA9AF99A0FBE019608950C
:04FEA000F894FFCF04
:10FEA4004C55464143444300000000000000080153
:10FEB40012011001020000089A2301000100000150
:10FEC400000109023E000201008032090400000121
:10FED4000202010005240010010424020405240682
:10FEE40000010705820308000209040100020A0058
:10FEF400000007050402100000070583021000003B
:10FF04000403090426034100560052002000430064
:10FF140044004300200042006F006F0074006C0036
:0CFF24006F0061006400650072000000C6
:040000031000F000F9
:00000001FF
