:020000021000EC
:10F000004BC0000066C0000064C0000062C0000089
:10F0100060C000005EC000005CC000005AC000007C
:10F0200058C0000056C00000B9C4000052C0000023
:10F0300050C000004EC000004CC000004AC000009C
:10F0400048C0000046C0000044C0000042C00000AC
:10F0500041C000003EC000003CC000003AC00000BB
:10F0600038C0000036C0000034C0000032C00000CC
:10F0700030C000002EC000002CC000002AC00000DC
:10F0800028C0000026C0000024C0000022C00000EC
:10F0900020C000001EC0000011241FBECFEFD0E230
:10F0A000DEBFCDBF11E0A0E0B1E0EEEAFEEF01E08F
:10F0B0000BBF02C007900D92AC38B107D9F711E031
:10F0C000ACE8B1E001C01D92AA39B107E1F778D0F0
:10F0D000ECC696CF1F920F920FB60F9211240F908D
:10F0E0000FBE0F901F90189584E08093E9000DC02B
:10F0F0008091E8008B778093E80003C08EB388236B
:10F1000051F08091E80082FFF9CF8091E80085FFFF
:10F11000EFCF8091F1000895982F83E08093E9006C
:10F120008091E80085FD0DC08091E8008E77809386
:10F13000E80003C08EB3882331F08091E80080FF9F
:10F14000F9CF9093F100089590919201892F8F77D4
:10F15000813249F5809193018032A1F0813219F515
:10F16000913A09F58091E800877F8093E80088E074
:10F1700091E067E070E0C7D48091E8008B778093DE
:10F18000E8000895913279F48091E800877F8093B8
:10F19000E80088E091E067E070E011D58091E80038
:10F1A0008E778093E800089582E061EC42E06AD3B4
:10F1B00083E061E842E166D384E060E842E162C353
:10F1C0002F923F924F925F926F927F928F929F9277
:10F1D000AF92BF92CF92DF92EF92FF920F931F9365
:10F1E000DF93CF9300D000D0CDB7DEB784B7877F51
:10F1F00084BF88E10FB6F89480936000109260009D
:10F200000FBE80E090E020E80FB6F89420936100F4
:10F21000809361000FBE11E015BF82E085BFA8D3C7
:10F2200010936F0083E080938100789479E0672EDB
:10F230008FC224E02093E9008091E80082FF87C21A
:10F2400053DF182F853419F410920F0103C0843551
:10F2500019F44ADF8DE051C28C34E1F38035D1F3EB
:10F26000843711F484E49AC0813611F489E545C2EB
:10F270008134F1F439DF382E330C22247101002758
:10F28000F7FC0095102FE0928C01F0928D01009315
:10F290008E0110938F0128DF90E0880F991FAA2715
:10F2A00097FDA095BA2F8E299F29A02BB12BF6C1CF
:10F2B000803711F483E521C2833559F400E011E071
:10F2C000D8018D918D0128DFB1E007301B07C1F710
:10F2D00015C2863521F481E31FDF80E30EC2833738
:10F2E00031F482E819DF87E917DF8EE106C285363F
:10F2F00029F580E090E0A0E0B0E023E0FC01A093DD
:10F300005B0020935700E89507B600FCFDCF35E081
:10F31000FC01A0935B0030935700E89507B600FC12
:10F32000FDCF80509F4FAF4FBF4F803060EF9607AB
:10F3300061E0A60760E0B60701F78CCF8C3649F490
:10F34000D3DE8095E1E0F0E0082E60925700E8956A
:10F3500081CF823731F4E1E0F0E060925700849190
:10F36000CCC1863431F4E0E0F0E060925700849143
:10F37000C4C18E3431F4E3E0F0E060925700849130
:10F38000BCC1813531F4E2E0F0E060925700849135
:10F39000B4C1823631F489E5BFDE81E0BDDE80E0B4
:10F3A000ACC1823419F0873609F0F5C09DDE082F14
:10F3B0009BDEF82E99DE882E8554823008F09CC1A1
:10F3C0000A8319822F2D30E089819A81282B392BCD
:10F3D0003C832B83173609F055C091E19093570079
:10F3E000E895DD2449C0E0908C01F0908D010091FA
:10F3F0008E0110918F01A6E48A1609F58D2D90E0FB
:10F40000A0E0B0E08E299F29A02BB12BABBFFC015F
:10F41000879182DEDD2081F082E090E0A0E0B0E024
:10F42000E80EF91E0A1F1B1FE0928C01F0928D015D
:10F4300000938E0110938F0191E0D92618C0D80156
:10F44000C701B695A7959795879519D565DE82E092
:10F4500090E0A0E0B0E0E80EF91E0A1F1B1FE0924A
:10F460008C01F0928D0100938E0110938F01AB817E
:10F47000BC811197BC83AB83EB81FC81EF2B09F03E
:10F48000B2CF3CC1A0908C01B0908D01C0908E0194
:10F49000D0908F01F6E48F1609F067C023E0F501E4
:10F4A000C0925B0020935700E89507B600FCFDCFA3
:10F4B0005CC036E4831681F5992049F1E0908C0117
:10F4C000F0908D0100918E0110918F010DDE582E6C
:10F4D0004424872D90E08429952961E00C01F701EF
:10F4E00000935B0060935700E895112482E090E060
:10F4F000A0E0B0E0E80EF91E0A1F1B1FE0928C018D
:10F50000F0928D0100938E0110938F0102C0ECDD0B
:10F51000782E91E0992623C0E0908C01F0908D0127
:10F5200000918E0110918F0116950795F794E7943D
:10F53000DBDD682FC701ABD480918C0190918D01E8
:10F54000A0918E01B0918F010296A11DB11D8093F3
:10F550008C0190938D01A0938E01B0938F01AB81AC
:10F56000BC811197BC83AB8302C077249924EB81C3
:10F57000FC81EF2B09F09DCFF6E48F1609F06ACEDF
:10F5800025E0F501C0925B0020935700E89507B68F
:10F5900000FCFDCF5FCE8334A1F4E0908C01F090AD
:10F5A0008D0100918E0110918F019EDD90E031E080
:10F5B0000C01F70100935B0030935700E89511248C
:10F5C00049CE833639F5E0908C01F0908D010091A1
:10F5D0008E0110918F0188DDA8019701216090E0D4
:10F5E00061E00C01F90140935B0060935700E895DE
:10F5F000112482E090E0A0E0B0E0E80EF91E0A1FBE
:10F600001B1FE0928C01F0928D0100938E011093EC
:10F610008F0120CE8D3699F480918C0190918D01CF
:10F62000A0918E01B0918F0125E0FC01A0935B00B9
:10F6300020935700E89507B600FCFDCF0BCE82352E
:10F6400081F4E0908C01F0908D0100918E01109179
:10F650008F010BBFF701E790F6908F2D5DDD8E2DAA
:10F660004CC0843421F5E0908C01F0908D01009124
:10F670008E0110918F0116950795F794E79434DD6C
:10F68000682FC70104D480918C0190918D01A091C5
:10F690008E01B0918F010296A11DB11D80938C0146
:10F6A00090938D01A0938E01B0938F01D3CD8436BA
:10F6B00009F5E0908C01F0908D0100918E01109180
:10F6C0008F01D801C701B695A79597958795D7D390
:10F6D00023DD82E090E0A0E0B0E0E80EF91E0A1F12
:10F6E0001B1FE0928C01F0928D0100938E0110930C
:10F6F0008F0104C08B3111F08FE30EDD93E0909306
:10F70000E9009091E8008091E8008E778093E8000E
:10F7100095FF04C010C08EB38823C9F08091E80023
:10F7200080FFF9CF8091E8008E778093E80003C0D6
:10F730008EB3882361F08091E80080FFF9CFA4E0C8
:10F74000A093E9008091E8008B778093E80085D34F
:10F7500080910F01882309F06CCD8091E0008160D9
:10F760008093E0002CE088E190E00FB6F894A89533
:10F77000809360000FBE20936000FFCF9B01AC011F
:10F7800007B600FCFDCFF999FECF83E0F901409365
:10F790005B0080935700E89581E180935700E895DE
:10F7A00008959B01AC0107B600FCFDCFF999FECF8F
:10F7B00085E0F90140935B0080935700E89581E173
:10F7C00080935700E89508950F931F938B019C0138
:10F7D00007B600FCFDCFF999FECF81E00A01F801E0
:10F7E00020935B0080935700E89511241F910F919F
:10F7F000089521E2FC01209357002491822F08955F
:10F8000029E0FC01209357002491822F0895E1E024
:10F81000F0E089E08093570084910895982F07B60F
:10F8200000FCFDCFF999FECF909589E0E1E0F0E092
:10F83000092E80935700E8950895FA01923071F0EF
:10F84000933089F0913029F480E191E022E130E0B9
:10F8500015C080E090E020E030E010C082E291E04E
:10F860002EE330E00BC0882329F480E691E024E009
:10F8700030E004C084E691E026E230E091838083AA
:10F88000C90108958093E9008091EB008160809325
:10F89000EB001092ED006093EC004093ED0080913E
:10F8A000EE00881F8827881F089580919201882381
:10F8B0008CF403C08EB38823B1F08091E80082FFFE
:10F8C000F9CF8091E8008B778093E80008958EB39C
:10F8D000882349F08091E80080FFF9CF8091E8000B
:10F8E0008E778093E8000895EF92FF920F931F9315
:10F8F00048D04FD008ED10E0F80180818F778083E9
:10F9000080818068808380818F7D8083E7EDF0E057
:10F9100080818068808319BC1EBA1092900180EEAD
:10F92000E82EF12CF70180818B7F8083F8018081A4
:10F930008160808380E060E042E0A4DFE1EEF0E0FF
:10F9400080818E7F8083E2EEF0E080818160808321
:10F95000808188608083F70180818E7F8083F801B9
:10F960008081806180831F910F91FF90EF900895B7
:10F97000E7EDF0E080818160808381E080939101F8
:10F98000B3CFE8EDF0E080818C7F80831092E200BD
:10F9900008951092DA001092E10008951F920F92DC
:10F9A0000FB60F920BB60F9211242F933F934F93E4
:10F9B0005F936F937F938F939F93AF93BF93EF93D7
:10F9C000FF938091DA0080FF1BC08091D80080FFF8
:10F9D00017C08091DA008E7F8093DA008091D90081
:10F9E00080FF0BC084E189BD86E189BD09B400FEBA
:10F9F000FDCF81E08EBB30D203C019BC1EBA2CD221
:10FA00008091E10080FF17C08091E20080FF13C069
:10FA10008091E2008E7F8093E2008091E20080611D
:10FA20008093E2008091D80080628093D80019BC56
:10FA300085E08EBB11D28091E10084FF2CC08091C3
:10FA4000E20084FF28C084E189BD86E189BD09B454
:10FA500000FEFDCF8091D8008F7D8093D8008091EB
:10FA6000E1008F7E8093E1008091E2008F7E8093A1
:10FA7000E2008091E20081608093E2008091900139
:10FA8000882331F48091E30087FD02C081E001C04A
:10FA900084E08EBBE1D18091E10083FF21C08091A1
:10FAA000E20083FF1DC08091E100877F8093E10029
:10FAB00082E08EBB109290018091E1008E7F809356
:10FAC000E1008091E2008E7F8093E2008091E2006D
:10FAD00080618093E20080E060E042E0D3DEBCD150
:10FAE000FF91EF91BF91AF919F918F917F916F9116
:10FAF0005F914F913F912F910F900BBE0F900FBED2
:10FB00000F901F9018959C01409198015091990178
:10FB10004617570718F4F90190E03CC061157105CC
:10FB200011F0AB01F8CF8091E8008E778093E80068
:10FB300040E050E0F0CF8EB38823E9F18530E9F161
:10FB40008091E80083FF02C081E008958091E80081
:10FB500082FD2BC08091E80080FF1CC02091F20044
:10FB60003091F30007C081918093F10041505040E3
:10FB70002F5F3F4F4115510519F02830310598F39B
:10FB800090E02830310509F491E08091E8008E770B
:10FB90008093E8004115510571F6992361F605C07F
:10FBA0008EB3882341F0853041F08091E80082FFD8
:10FBB000F7CF80E0089582E0089583E008959C01E6
:10FBC0006115710529F48091E8008B778093E80036
:10FBD000F90121C08EB3882369F1853069F18091E4
:10FBE000E80083FF02C081E008958091E80082FF71
:10FBF000F1CF06C08091F10081936150704031F0E7
:10FC00008091F2009091F300892BA1F78091E80098
:10FC10008B778093E80061157105E1F605C08EB31E
:10FC2000882341F0853041F08091E80080FFF7CFD4
:10FC300080E0089582E0089583E008950F931F9374
:10FC4000DF93CF9300D0CDB7DEB7E2E9F1E080914A
:10FC5000F100819381E0EA39F807C9F775DA8091FC
:10FC6000E80083FFE4C08091920190919301953068
:10FC700009F46DC0963040F4913081F1913070F00C
:10FC8000933009F0D4C02AC0983009F4A3C0993049
:10FC900009F4B2C0963009F0CAC07CC0803809F4BB
:10FCA000C6C0823809F0C3C0809196018F708093DE
:10FCB000E9008091EB001092E9002091E800277F95
:10FCC0002093E80090E025E0969587952A95E1F746
:10FCD00081708093F1001092F10087C0882319F0A1
:10FCE000823009F0A4C08F71823009F0A0C08091E9
:10FCF0009401882331F5209196012F7009F497C063
:10FD00002093E9008091EB0080FF1BC0933021F429
:10FD10008091EB00806213C08091EB008061809342
:10FD2000EB0081E090E002C0880F991F2A95E2F76E
:10FD30008093EA001092EA008091EB008860809343
:10FD4000EB001092E9008091E800877F51C0882382
:10FD500009F06DC0109194011F770FB7F89480914E
:10FD6000E800877F8093E800A0DD8091E80080FFB5
:10FD7000FCCF8091E3008078812B8093E300806842
:10FD80008093E300112311F482E001C083E08EBB75
:10FD90000FBF4DC08058823008F049C08091940157
:10FDA0009091950160919601AE014F5F5F4F45DDE7
:10FDB000BC01009709F43BC08091E800877F8093E5
:10FDC000E80089819A819FDE8091E8008B7780939B
:10FDD000E8002DC0803859F58091E800877F809336
:10FDE000E800809190018093F1008091E8008E7787
:10FDF0008093E8005ADD1BC08823C9F490919401D8
:10FE00009230A8F48091E800877F8093E800909377
:10FE100090014BDD80919001882331F48091E300C3
:10FE200087FD02C081E001C084E08EBBBDD9809116
:10FE3000E80083FF0AC08091EB0080628093EB00B2
:10FE40008091E800877F8093E8000F900F90CF911A
:10FE5000DF911F910F91089508951F938EB388230A
:10FE600061F01091E9001092E9008091E80083FFB1
:10FE700001C0E4DE1F701093E9001F910895F99905
:10FE8000FECF92BD81BDF89A992780B50895262F9F
:10FE9000F999FECF1FBA92BD81BD20BD0FB6F8946F
:0EFEA000FA9AF99A0FBE01960895F894FFCFD2
:10FEAE004C55464143444300000000000000080149
:10FEBE001201100102000008EB034A2000010001AC
:10FECE00000109023E000201008032090400000117
:10FEDE000202010005240010010424020605240676
:10FEEE000001070582030800FF09040100020A0051
:10FEFE00000007050402100001070583021000012F
:10FF0E00040309042603410056005200200043005A
:10FF1E0044004300200042006F006F0074006C002C
:0CFF2E006F0061006400650072000000BC
:10FFE000CDCBDFCBF1CB05CC0BCC11CC17CC0000AB
:10FFF0000000000000000000000000000000FBDC2A
:040000031000F000F9
:00000001FF
