:100000000C94F2150C946C560C9441560C941656A4
:100010000C94EB550C94C0550C9495550C946A5562
:100020000C943F550C945C340C944D340C943E3439
:100030000C9423160C9497560C9423160C942316A8
:100040000C9423160C94E5680C9423160C94231638
:100050000C9423160C9423160C94929F0C94D5A9FF
:100060000C9423160C94E3380C9423160C9423164A
:100070000C9423160C9423160C9423160C9423161C
:100080000C94746F0C9423160C9423160C94231662
:100090000C9423160C9423160C9423160C94828C27
:1000A0000C9423160C9423160C94466F0C94231670
:1000B0000C9423160C9423160C9423160C942316DC
:1000C0000C9423160C9423160C9423160C942316CC
:1000D0000C9423160C9423160C9423160C942316BC
:1000E0000C94231619392039343941394B39653983
:1000F0005039653955395A3965396239DEABFBAB50
:1001000018AC39AC5AACE0AD7BAC9AACB9ACDAAC5B
:10011000FBAC1CAD3DAD5EADE0AD7FADA0ADC0AD07
:1001200067B06AB072B075B079B06FB07CB07FB0B4
:1001300083B086B089B08DB090B093B06FB097B0F7
:100140009AB09DB0478C4A8C398C3D8C438C818C05
:100150004E8C528C588C5C8C608C668C6A8C6E8C4D
:10016000818C748C788C7C8C498E4E8E538E5D8EF7
:10017000678EE08E718E798E818E8B8E958E9F8E9E
:10018000AE8EB88EE08EC28ECC8ED68E084AD73B0D
:100190003BCE016E84BCBFFDC12F3D6C74319ABD56
:1001A00056833DDA3D00C77F11BED9E4BB4C3E917A
:1001B0006BAAAABE000000803F072C7AA5BA6CC5C6
:1001C00090DA3B9365FC8BBC53F810FD3C56928350
:1001D0004DBD879D3AB63DCBC9BF5BBE73DA0FC933
:1001E0003F05A84CCDB2D44EB93836A9020C50B94F
:1001F000918688083CA6AAAA2ABE000000803F007B
:100200000C94E08E0C94DAAC0C94FD8B0C94498E1B
:100210000C94398C0C94FBAC0C949F8E0C947BAC9E
:100220000C9465390C949AAC0C94C0AD0C946E8C03
:100230000C94862F0C943DAD0C947FAD0C94668C81
:100240000C9462390C94A0AD0C94958E0C9479B0FA
:100250000C94D68E0C941CAD0C9441390C94718E78
:100260000C94A18B0C94818E0C94608C0C946AB0CD
:100270000C9493B00C946A8C0C945AAC0C944B393B
:100280000C9455390C941A550C94C28E0C94B18B65
:100290000C94E0AD0C944A8C0C949AB00C943D8C68
:1002A0000C94678E0C9497B00C94FBAB0C945A3959
:1002B0000C94A28B0C945C8C0C94788C0C9443B7AB
:1002C0000C9467B00C94438C0C94CC8E0C946FB04F
:1002D0000C9472B00C94798E0C94D52F0C949DB024
:1002E0000C944E8E0C948B8E0C94588C0C9439ACD0
:1002F0000C947C8C0C9475B00C947FB00C94DEAB99
:100300000C9450390C9419390C94B88E0C94CD8BF4
:100310000C9483B00C945D8E0C9418AC0C944E8CA1
:100320000C94AE8E0C94478C0C945EAD0C94538E52
:100330000C94B9AC0C94748C0C9486B00C948DB065
:100340000C947CB00C9420390C94528C0C9489B091
:100350000C9434390C94818C0C94C58B0C9490B013
:10036000534341524132005343415241004C4556A0
:10037000454C494E4700434F4D4D554E494341541E
:10038000494F4E0044525952554E004552524F5219
:100390005300494E464F004543484F0047322F47D0
:1003A000332062616420706172616D65746572737F
:1003B0000A005269676874004C65667400534341D3
:1003C00052412041726D204F7269656E746174698B
:1003D0006F6E3A2000204C656E6774683A002041C9
:1003E0006E676C653A00205A3A0020593A00546F03
:1003F0006F6C204F666673657420583A00205A3A35
:10040000200020593A200042656420583A200046D6
:100410004F414D20435554544552204F4E0A004CF5
:1004200041534552204F4E0A004C41534552204FF4
:1004300046460A00464F414D2043555454455220EC
:100440004F46460A002569730025696D20256973AA
:10045000002569682025696D202569730025696478
:10046000202569682025696D202569730025697933
:1004700020256964202569682025696D2025697318
:10048000005072696E742074696D653A2000507274
:100490006F7465637465642050696E0A00446F6E02
:1004A000652E0A0050756C73696E672050696E3A4C
:1004B000200020756E746F75636865642E0A0053A2
:1004C000656E7369746976652050696E3A20005ACA
:1004D0005F454E4453544F505F534552564F5F4E05
:1004E00052206E6F742073657475700A00576174C2
:1004F0006368696E672070696E730A0061626C657B
:10050000640A00656E6473746F70206D6F6E697439
:100510006F722000970392038B03840376036D03AD
:10052000670360036F66660044454255473A006FB3
:100530006B003F0A0020573A004361703A454D4531
:100540005247454E43595F5041525345523A310A42
:10055000004361703A544F47474C455F4C49474808
:1005600054533A300A004361703A534F465457414E
:1005700052455F504F5745523A300A004361703A36
:100580004C4556454C494E475F444154413A310A27
:10059000004361703A5A5F50524F42453A310A0067
:1005A0004361703A4155544F4C4556454C3A310AD7
:1005B000004361703A50524F47524553533A300A04
:1005C000004361703A4155544F5245504F52545F69
:1005D00054454D503A310A004361703A45455052F6
:1005E0004F4D3A310A004649524D574152455F4EF0
:1005F000414D453A4D61726C696E2062756766695E
:10060000782D312E312E782028476974687562293B
:1006100020534F555243455F434F44455F55524C1D
:100620003A68747470733A2F2F6769746875622E14
:10063000636F6D2F4D616B657241726D2F4D6172ED
:100640006C696E2050524F544F434F4C5F56455289
:1006500053494F4E3A312E30204D414348494E4583
:100660005F545950453A4D616B657241726D20453A
:10067000585452554445525F434F554E543A3220D8
:10068000555549443A32326233316232642D323147
:1006900033342D346531612D383234632D363037A3
:1006A0006235396535633035380A007A5F6D696EB9
:1006B0003A20005265706F7274696E6720656E64CF
:1006C00073746F70207374617475730A005365746A
:1006D00074696E672054726176656C20416363654E
:1006E0006C65726174696F6E3A2000536574746949
:1006F0006E67205265747261637420416363656C38
:1007000065726174696F6E3A200053657474696E26
:1007100067205072696E7420416363656C65726115
:1007200074696F6E3A200053657474696E67205067
:1007300072696E7420616E642054726176656C20FB
:10074000416363656C65726174696F6E3A20002065
:100750005A00205900580020204D61783A2000208E
:100760005A00205900580020204D696E3A20004F51
:10077000666600536F667420656E6473746F707381
:100780003A200043290A0061626C656420286D6983
:100790006E2074656D702000436F6C642065787402
:1007A0007275646573206172652000426564204C37
:1007B0006576656C696E6720004661696C656420CA
:1007C000746F20656E61626C6520426564204C65C3
:1007D00076656C696E670A00546F6F2066617220DF
:1007E00066726F6D207265666572656E63652070F6
:1007F0006F696E740A00000000000000C84300002A
:100800000000206279746573290A00536574746965
:100810006E67732053746F7265642028004E6F20DA
:1008200063617365206C696768740A004163746969
:1008300076652045787472756465723A20003C3C98
:100840003C2067636F64655F540A00203A2041468C
:100850005445520A00202063757272656E745F7091
:100860006F736974696F6E3D00203A204245464FB0
:1008700052450A00202063757272656E745F706F56
:10088000736974696F6E3D003E3E3E2067636F641E
:10089000655F542800556E6B6E6F776E20636F6DC9
:1008A0006D616E643A2022004B494C4C45442E2029
:1008B000002C20002C2000203A2073796E635F709A
:1008C0006C616E5F706F736974696F6E5F6B696E78
:1008D000656D617469630A00202063757272656ECC
:1008E000745F706F736974696F6E3D00656E7175CA
:1008F000657565696E672022004E6F204C696E65D4
:10090000204E756D62657220776974682063686532
:10091000636B73756D2C204C617374204C696E652C
:100920003A20005072696E7465722073746F707033
:1009300065642064756520746F206572726F7273D0
:100940002E2046697820746865206572726F722067
:10095000616E6420757365204D39393920746F20BC
:10096000726573746172742E202854656D7065729F
:1009700061747572652069732072657365742E20C9
:1009800053657420697420616674657220726573A2
:1009900074617274696E67290A004E6F204368653E
:1009A000636B73756D2077697468206C696E652060
:1009B0006E756D6265722C204C617374204C696E8B
:1009C000653A2000636865636B73756D206D6973AC
:1009D0006D617463682C204C617374204C696E6582
:1009E0003A20004C696E65204E756D626572206913
:1009F00073206E6F74204C617374204C696E652097
:100A00004E756D6265722B312C204C617374204CD5
:100A1000696E653A20004D313130005A5F535445BC
:100A2000505F50494E005A5F4D494E5F50494E004D
:100A30005A5F454E41424C455F50494E005A5F4413
:100A400049525F50494E00595F535445505F5049D9
:100A50004E00595F4D494E5F50494E00595F454E1B
:100A600041424C455F50494E00595F4449525F50E6
:100A7000494E00585F535445505F50494E00585FEF
:100A80004D494E5F50494E00585F454E41424C45DE
:100A90005F50494E00585F4449525F50494E0054E0
:100AA000454D505F4245445F50494E0054454D50BE
:100AB0005F325F50494E0054454D505F315F5049A1
:100AC0004E0054454D505F305F50494E0053535FC8
:100AD00050494E005350494E444C455F4449525F83
:100AE00050494E0053484946545F4F5554005348AF
:100AF0004946545F4C440053484946545F454E00B4
:100B000053484946545F434C4B00534552564F336C
:100B10005F50494E00534552564F325F50494E0088
:100B2000534552564F315F50494E00534552564F30
:100B3000305F50494E0053445353005344410053D7
:100B4000434C0053434B5F50494E0050535F4F4E50
:100B50005F50494E004D4F53495F50494E004D493B
:100B6000534F5F50494E004C45445F50494E00483A
:100B700045415445525F4245445F50494E00484507
:100B8000415445525F325F50494E004845415445FB
:100B9000525F315F50494E004845415445525F30E5
:100BA0005F50494E0046414E315F50494E0046412C
:100BB0004E5F50494E0045325F535445505F504997
:100BC0004E0045325F454E41424C455F50494E0014
:100BD00045325F4449525F50494E0045315F53549E
:100BE00045505F50494E0045315F454E41424C45AE
:100BF0005F50494E0045315F4449525F50494E00B5
:100C000045305F535445505F50494E0045305F4575
:100C10004E41424C455F50494E0045305F44495279
:100C20005F50494E0042544E5F454E430042544E81
:100C30005F454E320042544E5F454E3100424545BD
:100C40005045525F50494E004156525F53535F50DA
:100C5000494E004156525F53434B5F50494E00414D
:100C600056525F4D4F53495F50494E004156525FB7
:100C70004D49534F5F50494E005458440052584418
:100C800000202020496E70757420203D20004F7593
:100C900074707574203D20003C756E757365642F0B
:100CA000756E6B6E6F776E3E004F75747075742045
:100CB0003D2000496E70757420203D200070726FD9
:100CC00074656374656420007D0CF703F903790C87
:100CD000F903F9036C0C320001005F0C33000100D2
:100CE000530C34000100480C350001003D0C3D0060
:100CF0000100350C2C0001002D0C2D000100250CED
:100D0000210001001A0C1B0001000C0C1D00010049
:100D1000000C1C000100F50B18000100E70B1A0085
:100D20000100DB0B19000100D00B3C000100C20BDD
:100D300017000100B60B16000100AE0B0600010003
:100D4000A50B07000100980B020001008B0B0900A6
:100D500001007E0B080001006F0B0A000100670B09
:100D60000D0001005E0B32000100550B3300010045
:100D70004B0B0C000100430B340001003F0B15002E
:100D800001003B0B14000100360B350001002B0B5A
:100D90002E000100200B2F000100150B3000010078
:100DA0000A0B31000100000B2B000100F70A2C0098
:100DB0000100EE0A23000100E40A22000100D40A27
:100DC00018000100CD0A35000100C20A45000000EC
:100DD000B70A43000000AC0A420000009F0A44002A
:100DE0000000950A39000100880A3B0001007E0AD4
:100DF00025000100730A3A000100690A1100010090
:100E00005C0A04000100520A29000100470A05009B
:100E100001003D0A0B000100300A03000100260A10
:100E2000120001001B0A100001005374616E64611E
:100E3000726420446576696174696F6E3A2000209F
:100E400052616E67653A2000204D61783A2000209B
:100E50004D696E3A20004D65616E3A200046696E1C
:100E6000697368656421002072616E67653A2000CD
:100E7000206D61783A2000206D696E3A2000207361
:100E800069676D613A2000206D65616E3A20003A15
:100E9000207A3A2000206F662000205A0020590056
:100EA000205800476F696E6720746F3A00436C6F7B
:100EB000636B776973650A00436F756E7465722D95
:100EC0000020446972656374696F6E3A20002020C7
:100ED00020616E676C653A20005374617274696EAC
:100EE00067207261646975733A2000506F7369748A
:100EF000696F6E696E67207468652070726F6265D5
:100F00002E2E2E0A003F4E756D626572206F662090
:100F10006C65677320696E206D6F76656D656E74A4
:100F2000206E6F7420706C61757369626C65202827
:100F3000302D3135292E0A00590058003F53616D7C
:100F4000706C652073697A65206E6F7420706C61B7
:100F5000757369626C652028342D3530292E0A009E
:100F60004D3438205A2D50726F626520526570657D
:100F700061746162696C69747920546573740A00E4
:100F80003F2856296572626F7365206C6576656CC3
:100F900020697320696D706C61757369626C65207E
:100FA00028302D34292E0A0020403A00202F00201E
:100FB000543A0020746F6F206C6F6E6720657874F0
:100FC000727573696F6E2070726576656E74656494
:100FD0000A0020636F6C6420657874727573696FA2
:100FE0006E2070726576656E7465640A0020706F9D
:100FF000736974696F6E206F7574206F66207261FB
:101000006E67652E0A003F50726F626520003C3C9F
:101010003C2067636F64655F4732390A0020636F65
:1010200072726563746564205A3A004732392075DC
:101030006E636F72726563746564205A3A00203A79
:10104000203E2070726F62696E6720636F6D706CF6
:101050006574650A00202063757272656E745F7036
:101060006F736974696F6E3D0052756E6E696E675D
:1010700020696E204452592D52554E206D6F646583
:101080000A00473239204175746F20426564204C54
:101090006576656C696E670A0028422961636B009A
:1010A000284629726F6E7400285229696768740097
:1010B000284C29656674003F2856296572626F7353
:1010C00065206C6576656C20697320696D706C6154
:1010D000757369626C652028302D34292E0A004210
:1010E0006164205A2076616C75650A004E6F20623B
:1010F000696C696E65617220677269640A00203AE2
:10110000203E3E3E2067636F64655F4732390A00C8
:10111000202063757272656E745F706F7369746995
:101120006F6E3D002020206E6F6E2D7374616E64B3
:101130006172642050574D206D6F646500433A2002
:1011400000423A2000413A200020202020434F4D09
:1011500000202020636F6D7061726520696E746578
:10116000727275707420656E61626C656400202017
:10117000206F766572666C6F7720696E7465727227
:1011800075707420656E61626C6564003A200020A1
:1011900020202054494D534B00423A20002020206B
:1011A000205443435200413A200020202020544341
:1011B0004352002020202043533A200020202020AA
:1011C00057474D3A200047004800000088008A0039
:1011D0008C00B300B400000098009A009C00A800A6
:1011E000AA00AC0028012A012C012020202054490B
:1011F0004D455200440045006E00800081006F00A4
:10120000B000B1007000900091007100A000A1003A
:10121000720020012101730054494D455231432091
:10122000697320616C736F207469656420746F202A
:10123000746869732070696E000A202E00202000F7
:101240002020506F72743A2000024B494C4C4544A8
:101250002E2000202D20496E76616C69642065780F
:10126000747275646572206E756D62657220210AF4
:10127000004572726F723A002020506C616E6E658C
:101280007242756666657242797465733A20002011
:1012900046726565204D656D6F72793A2000436F27
:1012A0006D70696C65643A204D6179202038203278
:1012B0003031370A00207C20417574686F723A2003
:1012C0002853524C2C204D616B657241726D563122
:1012D000290A004D61792020382032303137002032
:1012E0004C61737420557064617465643A200062C7
:1012F00075676669782D312E312E780A004D61723E
:101300006C696E0020536F66747761726520526558
:101310007365740A00205761746368646F672052B4
:10132000657365740A002042726F776E206F757462
:101330002052657365740A002045787465726E6189
:101340006C2052657365740A00506F776572557032
:101350000A0073746172740A00205A3A0020593AE4
:101360000020583A00656E6473746F70732068696A
:10137000743A200020496E76616C69642065787447
:10138000727564657220000A20736F66745F656E03
:101390006473746F705F6D6178203D20000A207364
:1013A0006F66745F656E6473746F705F6D696E20D5
:1013B0003D20000A20706F736974696F6E5F7368F7
:1013C000696674203D200020617869733A0A2068BC
:1013D0006F6D655F6F6666736574203D2000466FB4
:1013E0007220000000C8430000C8430000524300C0
:1013F00000C8C30000000000000000203A20707206
:1014000065706172655F756E696E746572706F6C20
:10141000617465645F6D6F76655F746F5F6465733B
:1014200074696E6174696F6E0A002020646573745C
:10143000696E6174696F6E3D003C3C3C20646F5F77
:10144000626C6F636B696E675F6D6F76655F746FFB
:101450000A003E3E3E20646F5F626C6F636B696E94
:10146000675F6D6F76655F746F00203A20736574F7
:1014700075705F666F725F656E6473746F705F6FB7
:10148000725F70726F62655F6D6F76650A00202013
:1014900063757272656E745F706F736974696F6E75
:1014A0003D00203A20636C65616E5F75705F616618
:1014B0007465725F656E6473746F705F6F725F7076
:1014C000726F62655F6D6F76650A002020637572CA
:1014D00072656E745F706F736974696F6E3D0064DE
:1014E0006F5F70726F62655F726169736528006417
:1014F00065706C6F793A2000203A207365745F70D4
:10150000726F62655F6465706C6F7965640A002054
:101510002063757272656E745F706F736974696F42
:101520006E3D00203A203C3C3C20646F5F70726F3F
:1015300062655F6D6F76650A002020637572726563
:101540006E745F706F736974696F6E3D00203A202E
:101550003E3E3E20646F5F70726F62655F6D6F76B6
:10156000650A00202063757272656E745F706F7318
:101570006974696F6E3D00203A203C3C3C207275D6
:101580006E5F7A5F70726F62650A00202063757209
:1015900072656E745F706F736974696F6E3D002061
:1015A0003A203E3E3E2072756E5F7A5F70726F62C7
:1015B000650A00202063757272656E745F706F73C8
:1015C0006974696F6E3D003C3C3C2070726F6265CF
:1015D0005F70740A00205A3A200020593A200042D5
:1015E000656420583A2000203A200A0020206375C4
:1015F0007272656E745F706F736974696F6E3D00AF
:1016000073746F77290A002C20002C20003E3E3E88
:101610002070726F62655F70742800726573657404
:101620005F6265645F6C6576656C0A002028646F94
:101630006E65290A004578747261706F6C6174651B
:10164000205B00205900203D2050726F62652058B9
:1016500000205900456E642058004D616B65724151
:10166000726D20486F6D6520302034303020300A94
:101670000041424C2041646A7573746D656E74203C
:101680005A002028656E61626C6564290A00202872
:1016900064697361626C6564290A0042494C494E71
:1016A000454152004175746F20426564204C657657
:1016B000656C696E673A2000204E6F7A7A6C6529F6
:1016C0000A0020262041626F7665002026205361A3
:1016D0006D65205A2061730020262042656C6F776B
:1016E000002D46726F6E740020284D6964646C652D
:1016F00000205A3A0020593A0050726F6265204F1C
:10170000666673657420583A004649585F4D4F55D8
:101710004E5445445F50524F42450A0050726F622A
:10172000653A200053434152410A004D61636869A4
:101730006E6520547970653A2000203A2073796EE6
:10174000635F706C616E5F706F736974696F6E0A4E
:1017500000202063757272656E745F706F736974B8
:10176000696F6E3D003C3C3C207365745F61786935
:10177000735F69735F61745F686F6D652800203AFD
:10178000200A00202063757272656E745F706F733B
:101790006974696F6E3D005D203D20003E20686FDA
:1017A0006D655F6F66667365745B003E207A70726C
:1017B0006F62655F7A6F6666736574203D20002AEC
:1017C0002A2A205A20484F4D454420574954482042
:1017D00050524F424520285A5F4D494E5F50524F5C
:1017E00042455F555345535F5A5F4D494E5F454EE5
:1017F0004453544F505F50494E29202A2A2A0A0048
:101800003E3E3E207365745F617869735F69735F04
:1018100061745F686F6D6528003C3C3C20686F6DAB
:1018200065617869732800486F6D65203220536CBC
:101830006F773A0A004D6F766520417761793A0AF1
:10184000000000A0400000A0400000004000004850
:10185000440000C84300005243486F6D65203120AA
:10186000466173743A0A00FFFFFF3E3E3E20686FF8
:101870006D656178697328003C3C3C205A5F534198
:1018800046455F484F4D494E470A005A2070726FD7
:101890006265206F75742E206265640A00203A200C
:1018A0005A5F534146455F484F4D494E470A002015
:1018B0002064657374696E6174696F6E3D005A5F70
:1018C000534146455F484F4D494E47203E3E3E0AF4
:1018D00000473238205A20466F7262696464656E30
:1018E0000A003C3C3C2067636F64655F4732380AFE
:1018F00000203A203E2028686F6D655F616C6C5F48
:1019000061786973207C7C20686F6D655A29203E60
:101910002066696E616C0A00202063757272656EC4
:10192000745F706F736974696F6E3D00203A203E7A
:1019300020686F6D65590A00202063757272656EAC
:10194000745F706F736974696F6E3D00203A203E5A
:1019500020686F6D65580A00202063757272656E8D
:10196000745F706F736974696F6E3D005261697363
:1019700065205A20286265666F726520686F6D6900
:101980006E672920746F20003E20656E6473746F4B
:1019900070732E656E61626C652874727565290AB4
:1019A000003E3E3E2067636F64655F4732380A0041
:1019B00024F4D43050C38E20C2A24017828B701101
:1019C000127A910D816CD90AA861E108C75866079F
:1019D000615143061E4B5D05C145A7041A41110420
:1019E000093D9803713931034036DB0265339102BA
:1019F000D4305402802E1D02632CEE01752AC501DD
:101A0000B028A001102781018F2564012B244B01F0
:101A1000E0223401AC211F018D200D01801FFC004C
:101A2000841EED00971DDF00B81CD200E61BC60027
:101A3000201BBC00641AB200B219A8000A19A00049
:101A40006A189900D117910040178B00B5168400D1
:101A500031167E00B31579003A157300C7146F0074
:101A600058146A00EE1366008813630025135E00A5
:101A7000C7125B006C12570015125400C1115100BF
:101A800070114F0021114B00D61049008D104700F6
:101A90004610440002104200C00F4000800F3E007C
:101AA000420F3C00060F3B00CB0E3800930E370070
:101AB0005C0E3500270E3400F30D3200C10D3100ED
:101AC000900D3000600D2E00320D2D00050D2C0004
:101AD000D90C2B00AE0C2900850C29005C0C2700CA
:101AE000350C27000E0C2600E80B2400C40B240044
:101AF000A00B23007D0B23005A0B2100390B210082
:101B0000180B2000F80A1F00D90A1E00BB0A1E008D
:101B10009D0A1D00800A1D00630A1C00470A1B0065
:101B20002C0A1B00110A1A00F7091A00DD09190016
:101B3000C4091900AB091900920917007B091800A4
:101B4000630917004C091600360916002009160013
:101B50000A091500F5081500E0081400CC08140067
:101B6000B8081400A4081400900813007D0812009F
:101B70006B081300580812004608120034081100C0
:101B8000230811001208110001081100F0071000CD
:101B9000E0071000D0071000C0071000B0070F00CA
:101BA000A107100091070E0083070F0074070F00B4
:101BB00065070E0057070E0049070E003B070D0092
:101BC0002E070E0020070D0013070D0006070D005D
:101BD000F9060C00ED060D00E0060C00D4060C0022
:101BE000C8060C00BC060C00B0060C00A4060B00D6
:101BF00099060C008D060B0082060B0077060B0081
:101C00006C060B0061060A0057060B004C060A0022
:101C100042060A0038060A002E060A0024060A00B8
:101C20001A060A001006090007060A00FD05090049
:101C3000F4050900EB050900E2050900D9050900D2
:101C4000D0050900C7050900BE050900B505080053
:101C5000AD050800A50509009C05080094050800CD
:101C60008C050800840508007C0508007405080040
:101C70006C050700650508005D05070056050800AE
:101C80004E05070047050700400508003805070016
:101C9000310507002A050700230507001C0506007B
:101CA000160507000F0507000805060002050700D6
:101CB000FB040600F5040700EE040600E804060035
:101CC000E2040700DB040600D5040600CF0406008A
:101CD000C9040600C3040600BD040600B7040600DC
:101CE000B1040500AC040600A6040600A00405002B
:101CF0009B04060095040500900406008A04050074
:101D000085040500800406007A04050075040500BA
:101D1000700405006B0405006604050061040500FD
:101D20005C04050057040500520405004D0405003D
:101D300048040500430405003E0404003A0405007D
:101D400035040500300404002C04050027040400B9
:101D5000230405001E0404001A04040016040500F0
:101D6000110404000D040400090405000404040027
:101D700000040400FC030400F8030400F40304005E
:101D8000F0030400EC030400E8030400E40304008F
:101D9000E0030400DC030400D8030400D4030400BF
:101DA000D0030400CC030400C8030300C5030300F0
:101DB00024F404D9201BC40C5C0E9804C4095F02EF
:101DC00065077101F405F900FB04B30048048700BE
:101DD000C10369005803550003034500BE023A00E1
:101DE0008402310053022A00290225000402200047
:101DF000E4011C00C8011900AF011700980114008C
:101E000084011300710110006101100051010E00E6
:101E100043010D0036010B002B010B0020010B00CC
:101E2000150109000C01090003010800FB0008006E
:101E3000F3000800EB000700E4000600DE000600E7
:101E4000D8000600D2000600CC000500C70005003F
:101E5000C2000500BD000400B9000400B500040084
:101E6000B1000400AD000400A9000400A5000300B7
:101E7000A20003009F0004009B00030098000300E1
:101E80009500020093000300900003008D00020003
:101E90008B0003008800020086000200840003001B
:101EA000810002007F0002007D0002007B00020032
:101EB0007900020077000100760002007400020041
:101EC00072000100710002006F0002006D0001004D
:101ED0006C0002006A000100690002006700010056
:101EE000660001006500010064000200620001005C
:101EF00061000100600001005F0002005D00010060
:101F00005C0001005B0001005A0001005900010063
:101F10005800010057000100560001005500010063
:101F20005400010053000000530001005200010062
:101F300051000100500001004F0001004E00000060
:101F40004E0001004D0001004C0001004B0000005C
:101F50004B0001004A000100490001004800000058
:101F60004800010047000100460000004600010053
:101F7000450000004500010044000100430000004E
:101F80004300010042000000420001004100000047
:101F900041000100400001003F0000003F0001003F
:101FA0003E0000003E0001003D0000003D00010039
:101FB0003C0000003C0000003C0001003B00000031
:101FC0003B0001003A0000003A0001003900000027
:101FD000390001003800000038000000380001001E
:101FE0003700000037000100360000003600000016
:101FF000360001003500000035000000350001000A
:102000003400000034000000340001003300000000
:1020100033000000330001003200000032000000F5
:1020200032000100310000003100000031000100E9
:102030003000000030000000300001002F000000E0
:102040002F0000002F0000002F0001002E000000D4
:102050002E0000002E0001002D0000002D000000C9
:102060002D0000002D0001002C0000002C000000BD
:102070002C0000002C0001002B0000002B000000B1
:102080002B0000002B0001002A0000002A000000A5
:102090002A0000002A000100290000002900000099
:1020A000290000002900000029000100280000008C
:1020B000280000002800000028000000280001007F
:1020C0002700000027000000270000002700000074
:1020D0002700010026000000260000002600000066
:1020E0002600000026000100250000002500000059
:1020F000250000002500000025000000250001004B
:10210000240000002400000024000000240000003F
:102110002400010023000000230000002300000031
:102120002300000023000000230000002300010022
:102130002200000022000000220000002200000017
:102140002200000022000100210000002100000008
:1021500021000000210000002100000021000000FB
:1021600021000100200000002000000020000000ED
:1021700020000000200000002000000020000000DF
:10218000200001001F0000001F0000001F000000D1
:102190001F0000001F0000001F0000001F000100C2
:1021A0001E0000001E0000001E0000001E000000B7
:1021B00042696C696E656172204C6576656C696E0A
:1021C0006720477269643A0A003C3C3C20646F5FB8
:1021D000686F6D696E675F6D6F766528002C2000F3
:1021E0002C20003E3E3E20646F5F686F6D696E6715
:1021F0005F6D6F7665280020746F6F206C6F6E675F
:1022000020657874727573696F6E2070726576657B
:102210006E7465640A0020636F6C64206578747264
:102220007573696F6E2070726576656E7465640A89
:10223000004D6F766520746F0052656C617469762D
:10224000652000203A20706C616E5F64697265637E
:10225000745F737465707065725F6D6F766520660C
:10226000726F6D0A0020207461726765743D0048CA
:10227000617264636F6465642044656661756C7443
:102280002053657474696E6773204C6F6164656474
:102290000A0020204D383531205A005A2D50726FD7
:1022A0006265204F666673657420286D6D293A0A51
:1022B0000020440020490020204D333031205000C0
:1022C0005049442073657474696E67733A0A00203C
:1022D0005A0020204D3432302053004175746F2055
:1022E000426564204C6576656C696E673A0A002029
:1022F0005A0020590020204D323036205800486FB7
:102300006D65206F66667365743A0A00204500208B
:102310005A0020590020580020420020540020205C
:102320004D323035205300416476616E6365643A06
:1023300020533C6D696E5F66656564726174653ECD
:1023400020543C6D696E5F74726176656C5F666582
:102350006564726174653E20423C6D696E5F7365B1
:10236000676D656E745F74696D655F6D733E20584F
:102370003C6D61785F78795F6A65726B3E205A3C8C
:102380006D61785F7A5F6A65726B3E20453C6D6176
:10239000785F655F6A65726B3E0A002054002052C8
:1023A0000020204D323034205000416363656C655D
:1023B000726174696F6E2028756E6974732F733241
:1023C000293A20503C7072696E745F616363656C7A
:1023D0003E20523C726574726163745F6163636531
:1023E0006C3E20543C74726176656C5F616363651A
:1023F0006C3E0A0020450020204D32303120540030
:10240000205A0020590020204D3230312058004DF4
:102410006178696D756D20416363656C6572617487
:10242000696F6E2028756E6974732F7332293A0AAA
:102430000020450020204D323033205400205A0027
:1024400020590020204D3230332058004D617869EA
:102450006D756D206665656472617465732028759D
:102460006E6974732F73293A0A0020450020204DAD
:102470003932205400205A0020590020204D393292
:1024800020580053746570732070657220756E69F2
:10249000743A0A0020204D3230302044300A0020A7
:1024A000204D32303020543120440020204D323035
:1024B000302044002044697361626C65640A004600
:1024C000696C616D656E742073657474696E677391
:1024D0003A002020473231203B20556E697473202A
:1024E000696E206D6D0A0A004B494C4C45442E2004
:1024F000004B494C4C206361757365642062792000
:10250000746F6F206D75636820696E61637469769E
:10251000652074696D65202D2063757272656E7417
:1025200020636F6D6D616E643A20005072696E7445
:1025300065722068616C7465642E206B696C6C2810
:10254000292063616C6C6564210A004572726F72A8
:102550002077726974696E6720746F204545505208
:102560004F4D210A00454550524F4D206368656329
:102570006B73756D206D69736D617463680A0020FB
:102580006279746573290A002073746F7265642020
:1025900073657474696E67732072657472696576A9
:1025A0006564202800204D61726C696E3D5633379A
:1025B000290A0028454550524F4D3D00454550528F
:1025C0004F4D2076657273696F6E206D69736D6112
:1025D0007463682000205A3A0020423A0020436F7A
:1025E000756E7420413A002020205073692B546886
:1025F0006574613A005343415241205468657461E7
:102600003A0020453A00205A3A0020593A00583AF8
:102610000020646174613A002062797465733A0045
:102620003A2066726F6D3A0020006932632D726540
:10263000706C7900206F7574206F662072616E6710
:10264000650A00536572766F20003A2000205365BA
:1026500072766F200000002100240027002A002D40
:10266000003000330001010000040107010A0100ED
:10267000002200250028002B002E0031003400022B
:10268000010000050108010B0100002000230026C5
:102690000029002C002F0032000001000003010679
:1026A00001090105050505070508080808020202D9
:1026B000020A0A08080404040401010101010101DD
:1026C000010303030303030303040707070C0C0CB4
:1026D0000C0C0C0C0C02020202060606060606068C
:1026E000060B0B0B0B0B0B0B0B0102102020080829
:1026F0001020401020408002010201080402010164
:10270000020408102040808040201008040201804C
:1027100004020180402010080402010804020101A3
:1027200002040810204080010204081020408000AC
:10273000000A0B02090C0D0E08070304010000003B
:102740000000000000000000000000000000000089
:102750000000000000000000000000121110000046
:102760000000000000000000000000000000000069
:1027700000000000002066697273740A005A005954
:10278000005800486F6D6520004261642049324363
:1027900020616464726573732028382D31323729C3
:1027A0000A006563686F3A00544845524D414C2019
:1027B00052554E4157415900546865726D616C2005
:1027C00052756E6177617900466F616D2043757453
:1027D00074657200506C6F7474657200536F6C6432
:1027E0006572005069636B6572004D696C6C696E4F
:1027F00067004C6173657200457874727564657228
:102800000020643A0020693A0020703A0023646591
:1028100066696E65202044454641554C545F4B64C3
:10282000200023646566696E652020444546415555
:102830004C545F4B69200023646566696E652020F7
:1028400044454641554C545F4B702000504944204C
:102850004175746F74756E652066696E697368651D
:1028600064212050757420746865206C6173742035
:102870004B702C204B6920616E64204B6420636F89
:102880006E7374616E74732066726F6D2062656C16
:102890006F7720696E746F20436F6E66696775721B
:1028A0006174696F6E2E680A005049442041757446
:1028B0006F74756E65206661696C6564212074694A
:1028C0006D656F75740A00504944204175746F74CA
:1028D000756E65206661696C6564212054656D7054
:1028E0006572617475726520746F6F2068696768BE
:1028F0000A00204B643A2000204B693A2000204B0C
:10290000703A20000A20436C617373696320504958
:1029100044200A002054753A2000204B753A2000CC
:10292000206D61783A2000206D696E3A20002064A5
:102930003A200020626961733A200057726F6E6717
:1029400020746F6F6C20666F72205049442074753C
:102950006E696E670A004D34323120726571756997
:1029600072656420706172616D6574657273206D4B
:10297000697373696E670A004D65736820706F69CB
:102980006E742063616E6E6F742062652072657371
:102990006F6C7665640A00F827F227EA27E327DCE4
:1029A00027D427C827546F6F6C3A20003A20007A4A
:1029B0005F6D696E3A20202D3230207A5F6D61782C
:1029C0003A20203230005A204F666673657420002A
:1029D00010005E01C001FA00F001F5003002F000C5
:1029E0007002EB00A002E600C002E1001003DC0070
:1029F0005003D700E003D2007004CD00E004C8000B
:102A0000E005BE006006B9004007AA00F008A0007B
:102A1000700B9600F00D8C00E0108200E01378003F
:102A2000F0176E00D0196900701B6400401E5F0033
:102A300010205A00F025500080294600D0303C007C
:102A4000A03237001035320020392D0020392800FF
:102A5000703A2300A03B1E00A03C1900203D160048
:102A6000003F0300F03F00006265640A002C207301
:102A7000797374656D2073746F707065642120487C
:102A800065617465725F49443A2000486561746904
:102A90006E67206661696C65640048656174696E83
:102AA00067206661696C6564000A0A0020205A5F2D
:102AB0004D494E3A004572723A204D494E54454DAB
:102AC00050004D494E54454D5020747269676765FA
:102AD000726564004572723A204D415854454D501C
:102AE000004D415854454D502074726967676572B6
:102AF000656400526573656E643A20006F6B002058
:102B00003A20534341524120464B0A002020636142
:102B1000727465733D0020636F735F61623A0020D9
:102B200073696E5F61623A0020636F735F613A00A0
:102B30002073696E5F613A0020746F6F6C5F6F661F
:102B4000667365745F616E676C653A0020623A0077
:102B50002020534341524120464B20613A002050EF
:102B600068693A0020423A0020202020416E676CBC
:102B7000652041203A0020593A0020202020532D82
:102B8000537061636520583A00205A3A0020593A40
:102B9000002020534341524120494B204C6F67692C
:102BA00063616C20583A004E414E494E4954594990
:102BB0004E46CDCCCC3D0AD7233C17B7D13877CC85
:102BC0002B329595E6241FB14F0A000020410000EA
:102BD000C84200401C4620BCBE4CCA1B0E5AAEC5A3
:102BE0009D7443B711241FBECFEFD1E2DEBFCDBF2E
:102BF00000E00CBF14E0A0E0B2E0E6E9F9E801E093
:102C00000BBF02C007900D92A037B107D9F720E1A2
:102C1000A0E7B4E001C01D92A738B207E1F715E1C3
:102C2000C2EFD5E100E006C021970109802FFE0127
:102C30000E942CB8C13FD10780E00807A9F70E9485
:102C4000F1B00C94C9C40C9400002F923F924F92A3
:102C50005F926F927F928F929F92AF92BF92CF922C
:102C6000DF92EF92FF920F931F93CF93DF93CDB735
:102C7000DEB7C456D1090FB6F894DEBF0FBECDBF84
:102C80002DB73EB7A3963FAF2EAFA39780914C07C9
:102C900030E6839FC001112485589B4F9093970C79
:102CA0008093960C8091D80680FF1BC0E2EAF7E281
:102CB00084918F010F5F1F4F882321F00E946E3592
:102CC000F801F6CF0091960C1091970CD8018D91D8
:102CD0008D01882319F00E946E35F8CF8AE00E949A
:102CE0006E35E091960CF091970C8081803231F432
:102CF0003196F093970CE093960CF3CF8E3469F0F5
:102D00001091960C0091970C6AE270E0812F902F41
:102D10000E947DBB009721F52AC0818190ED980F1C
:102D20009A3010F08D3261F73296F093970CE09361
:102D3000960CE091960CF091970C808180538A302C
:102D400010F43196F2CFE091960CF091970C8081BF
:102D50008032B1F63196F093970CE093960CF3CF56
:102D6000FC0131968291803231F08A3221F0A12F1C
:102D7000B02F9D9102C01082F5CFFD018081119688
:102D80008032D9F380538A3010F00C94482FE12C14
:102D9000F12C2AE02E9DB0012F9D700D11247B0196
:102DA000B0E3EB1AF1088191E80EF11C87FDFA946B
:102DB000808180538A3070F38F013196D8018C91D5
:102DC0008032D1F310937A04009379049D3409F48E
:102DD000E3C4943511F40C943F2C973411F00C9407
:102DE000482FB8E0EB16F10409F424C210F5F4E022
:102DF000EF16F10468F422E0E216F10408F049C08D
:102E0000C701A1E08A2781700E94D4730C948D2C95
:102E100036E0E316F10409F405C208F007C254E0F5
:102E2000E516F10411F00C948D2C0E9457710C944E
:102E30008D2C8DE1E816F10409F493C388F4AAE01F
:102E4000EA16F10409F459C208F4F8C1ECE1EE16EF
:102E5000F10411F00C948D2C0E948E610C948D2C39
:102E6000FAE5EF16F10409F455C438F43EE1E3162F
:102E7000F10409F47AC30C948D2C4BE5E416F104AB
:102E800009F44CC45CE5E516F10409F44CC40C9457
:102E90008D2C80917502882311F40C948D2C11E0F7
:102EA000B2E0EB16F10409F010E00E9449731982B8
:102EB0001A821B821C821D821E821F82188682E556
:102EC0000E947633882309F45EC10E94D0336B01DF
:102ED0007C0120915A0E30915B0E40915C0E509116
:102EE0005D0E28962CAF3DAF4EAF5FAF2897809018
:102EF0005E0E90905F0EA090600EB090610E80917B
:102F00005D0D90915E0DA0915F0DB091600D2C96BE
:102F10008CAF9DAFAEAFBFAF2C972091610D3091BC
:102F2000620D4091630D5091640D60962CAF3DAFE2
:102F30004EAF5FAF609720E030E0A901C701B60156
:102F40000E9472C0882309F434C128962CAD3DAD8F
:102F50004EAD5FAD28972C966CAD7DAD8EAD9FAD1F
:102F60002C970E9472C081110DC0A501940160963A
:102F70006CAD7DAD8EAD9FAD60970E9472C0882311
:102F800009F417C120E030E0A901C701B6010E9491
:102F900072C0881F8827881F18130BC080E090E03C
:102FA000A0E8BFE3A0968CAF9DAFAEAFBFAFA09738
:102FB0000AC020E030E040E85FEBA0962CAF3DAFC8
:102FC0004EAF5FAFA09728962CAD3DAD4EAD5FAD37
:102FD00028972C966CAD7DAD8EAD9FAD2C970E9441
:102FE00045B868966CAF7DAF8EAF9FAF6897A5016F
:102FF000940160966CAD7DAD8EAD9FAD60970E94E3
:1030000045B86C966CAF7DAF8EAF9FAF6C976896EE
:103010002CAD3DAD4EAD5FAD6897CA01B9010E94C0
:10302000D8C02B013C016C962CAD3DAD4EAD5FADD3
:103030006C97CA01B9010E94D8C09B01AC01C301C1
:10304000B2010E9446B80E9414BB64966CAF7DAF7B
:103050008EAF9FAF649720E030E040E05FE30E94D6
:10306000D8C02B013C01A7019601C701B6010E94FF
:10307000D8C06B017C01A3019201C301B2010E947F
:10308000D8C09B01AC01C701B6010E9445B80E949F
:1030900014BB9B01AC01A0966CAD7DAD8EAD9FAD18
:1030A000A0970E94D8C06B017C012C962CAD3DAD41
:1030B0004EAD5FAD2C9728966CAD7DAD8EAD9FADBE
:1030C00028970E9446B820E030E040E05FE30E948D
:1030D000D8C02B013C016C966CAD7DAD8EAD9FAD23
:1030E0006C97905864962CAD3DAD4EAD5FAD649736
:1030F0000E9440B99B01AC01C701B6010E94D8C033
:103100009B01AC01C301B2010E9446B828962CADC8
:103110003DAD4EAD5FAD28970E9445B869837A8377
:103120008B839C8360962CAD3DAD4EAD5FAD6097BB
:10313000C501B4010E9446B820E030E040E05FE302
:103140000E94D8C02B013C0164962CAD3DAD4EAD24
:103150005FAD649768966CAD7DAD8EAD9FAD6897A1
:103160000E9440B99B01AC01C701B6010E94D8C0C2
:103170009B01AC01C301B2010E9446B8A5019401B4
:103180000E9445B812C089E40E947633882331F04A
:103190000E94D03369837A838B839C838AE40E9464
:1031A0007633882331F00E94D0336D837E838F8302
:1031B000988720E030E0A90169817A818B819C8128
:1031C0000E9472C081110BC020E030E0A9016D8126
:1031D0007E818F8198850E9472C0882349F0612F7B
:1031E000CE0101960E9479920E9463350C948D2C39
:1031F000E1E7F2E184918F010F5F1F4F882321F0F7
:103200000E946E35F801F6CFECE9F3E084918F016E
:103210000F5F1F4F882311F40C948D2C0E946E3584
:10322000F801F4CF0E94E76F0C948D2C0E94506639
:103230000C948D2C0E94B4650C948D2C8CE40E940F
:103240007633811110924F1082E50E9476338823E5
:1032500019F081E080934F10EDEBF3E084918F0142
:103260000F5F1F4F882321F00E946E35F801F6CFC3
:1032700080914F10811103C0E8EBF3E002C0E2EB54
:10328000F3E084918F010F5F1F4F882389F10E9423
:103290006E35F801F6CF8091D8069091D906892B2A
:1032A00011F40C94E222F4E1AF2EF5E0BF2EE12CF4
:1032B000F12C80E0CC24C394D12C2091D8063091FD
:1032C000D906A6010E2C02C0440F551F0A94E2F73E
:1032D00024233523232B11F00C94C922FFEFEF1A7E
:1032E000FF0A22E0A20EB11C38E0E316F10429F730
:1032F0008AE00E946E350C948D2C8091030690918B
:103300000406A0910506B09106062C968CAF9DAFE1
:10331000AEAFBFAF2C973BEFE32E35E0F32E0BE9BA
:1033200012E043E0D42ED00ED8018D918D010E9481
:103330007633882339F00E94D033F701608371839C
:1033400082839383F4E0EF0EF11CD012EDCFC09096
:10335000FB05D090FC05E090FD05F090FE0520E017
:1033600030E0A901C701B6010E9472C08090FF053C
:1033700090900006A0900106B0900206882309F400
:1033800076C020E030E048E453E4C501B4010E9477
:1033900046B8A70196010E94C5B820E030E044E39A
:1033A00053E40E94D8C02BED3FE049E450E40E9472
:1033B00040B920E030E044EB52E40E9446B82B01D3
:1033C0003C0160934B1070934C1080934D10909380
:1033D0004E1020E030E0A901C701B6010E9472C082
:1033E00087FD0BC020E030E040E85FE328962CAF7B
:1033F0003DAF4EAF5FAF28970AC080E090E0A0E8F5
:10340000BFEB28968CAF9DAFAEAFBFAF28972BED2B
:103410003FE049E450E4C301B2010E94D8C020E07B
:1034200030E044E353E40E9440B90E9406BB2B0104
:103430003C01A50194015F7728966CAD7DAD8EAD02
:103440009FAD28970E94D8C0A30192010E9440B965
:1034500020E030E048E453E40E9446B86093501006
:1034600070935110809352109093531010C010928B
:103470004B1010924C1010924D1010924E108092E2
:10348000501090925110A0925210B0925310B70168
:10349000A6018EEE93E00E94C83F4091FF05509137
:1034A000000660910106709102068AEE93E00E9488
:1034B000C83FC0900306D0900406E0900506F09047
:1034C0000606B701A60186EE93E00E94C83F409130
:1034D0004B1050914C1060914D1070914E108EED2C
:1034E00093E00E94C83F409150105091511060915C
:1034F00052107091531085ED93E00E94C83F8AE00E
:103500000E946E352C962CAD3DAD4EAD5FAD2C9727
:10351000C701B6010E9445B89B01AC016091620EE3
:103520007091630E8091640E9091650E0E9446B872
:103530006093620E7093630E8093640E9093650E99
:103540000E9493A68CE0EFE3F0E1AAE5BEE00190D3
:103550000D928A95E1F70E94D5380E94968A0C94C4
:103560008D2C0E94264F0C948D2C60915A0E7091D8
:103570005B0E80915C0E90915D0EC0905E0ED090BF
:103580005F0EE090600EF090610E9B01AC010E9416
:10359000D8C04B015C01A7019601C701B6010E948A
:1035A000D8C09B01AC01C501B4010E9446B820E01F
:1035B00030E44CE158E40E94C6BA18167CF06AE583
:1035C0007EE0CE0146960E941A857E888F88988C70
:1035D000A98CBA8CCB8CDC8C1D8D08C0B12CC12C75
:1035E000D12C10E0712C812C912CA12C88E50E940B
:1035F0007633882331F00E94D033762E872E982E92
:10360000A92E89E50E947633882331F00E94D033B9
:10361000B62EC72ED82E192F872D982DA92DBA2D4D
:1036200089839A83AB83BC838B2D9C2DAD2DB12FC9
:103630008D839E83AF83B88720E030E0A90160913D
:1036400023077091240780912507909126070E94F7
:1036500046B869877A878B879C8761E0CE0101969F
:103660000E949371082F882311F40C948D2C80E014
:103670000E949F570E94FA5983E50E94763388235F
:1036800019F00E942A34082FEE24E394F12C2B2DFC
:103690003C2D4D2D512F672D782D892D9A2D0E946F
:1036A000835D1B012C012CEA35EC47E257E3672DC3
:1036B000782D892D9A2D0E9446B8AB01BC0187E078
:1036C00094E00E94CA6F2CEA35EC47E257E36B2D79
:1036D0007C2D8D2D912F0E9446B8AB01BC0182E05C
:1036E00094E00E94CA6F2CEA35EC47E257E3C2012E
:1036F000B1010E9446B8AB01BC018DEF93E00E947E
:10370000CA6F8AE00E946E350E94D4590E94968A40
:103710000C948D2C109278040C948D2C81E0809365
:1037200078040C948D2C85E40E947633082F811147
:1037300002C00E9405A28BE9A82E82E0B82E9AE56D
:10374000E92E9EE0F92ED12C10E0D5018D915D017E
:103750000E947633882359F00E94D033F7016083AA
:10376000718382839383133011F0DD24D3941F5F20
:10377000F4E0EF0EF11C143041F7DD2019F00E9447
:10378000D53806C0002321F086E69EE00E949A907C
:103790000E94968A0C948D2C2DECE216F10411F403
:1037A0000C946E2608F00AC145E5E416F10411F404
:1037B0000C94E92308F07DC08AE2E816F10409F4CC
:1037C00001C550F5A5E0EA16F10460F4B3E0EB168C
:1037D000F10408F061C3E2E0EE16F10408F4E6C279
:1037E0000C948D2CF1E1EF16F10409F4F5C338F4D3
:1037F00035E0E316F10409F4A9C30C948D2C42E1E1
:10380000E416F10411F40C94BA235FE1E516F10417
:1038100009F4E9C30C948D2C8DE4E816F10409F445
:1038200040C6C8F4A0E3EA16F10409F418C638F457
:10383000EBE2EE16F10409F422C50C948D2CFBE4A6
:10384000EF16F10409F40FC62CE4E216F10409F4B2
:103850000EC60C948D2C32E5E316F10409F481C7F1
:10386000E0F451E5E516F10411F00C948D2C0E9462
:10387000E89E0E9405A20E948C851092D5061092A7
:10388000D4061092D7061092D60668EE73E080E058
:1038900090E00E9436570C948D2C83E5E816F104D5
:1038A00009F463C794E5E916F10409F463C70C94BD
:1038B0008D2CA3E7EA16F10411F40C949A24E8F590
:1038C000EBE6EE16F10409F434C7C8F428E6E21674
:1038D000F10409F4EAC538F44CE5E416F10409F4FE
:1038E0008BC70C948D2C59E6E516F10409F48DC6AE
:1038F0008AE6E816F10409F4F2C60C948D2C9EE6D3
:10390000E916F10409F400C638F4BDE6EB16F1043B
:1039100009F4C0C60C948D2CEFE6EE16F10409F400
:103920000FC6F2E7EF16F10411F00C948D2C0E94F3
:1039300005A20E94968A0C948D2C2BE9E216F104C4
:1039400009F47DC6F0F448E7E416F10411F40C9490
:103950003A2550F487E7E816F10411F00C948D2C09
:10396000E3EBF6E00C94132599E7E916F10411F462
:103970000C944025ACE8EA16F10409F431C60C9425
:103980008D2CB9ECEB16F10411F40C94AA2540F43B
:10399000F8ECEF16F10411F40C9445250C948D2CE1
:1039A0002BECE216F10411F40C94DB253CECE3164D
:1039B000F10411F40C9404260C948D2C4CEAE416BA
:1039C00041E0F40611F40C94F32808F094C08CE262
:1039D000E81681E0F80611F40C94E32708F04BC0D8
:1039E000ADEDEA16F10411F40C94A72710F5E3ED00
:1039F000EE16F10411F40C941227FCEDEF16F1040D
:103A000011F40C949A272EECE216F10411F00C94A8
:103A10008D2C7BE9A72E72E0B72EEAE5CE2EEEE0E4
:103A2000DE2EFEE7EF2EFCE0FF2E00E010E00C940F
:103A3000D92634E0E31631E0F30611F40C940C2897
:103A400040F452EEE516F10411F40C94C0270C94E6
:103A50008D2C85E0E81681E0F80611F40C940F280F
:103A600098E1E91691E0F90611F00C948D2C0E9472
:103A7000C7870C948D2CA0E9EA16A1E0FA0611F490
:103A80000C948C28E0F4EEE2EE16E1E0FE0611F470
:103A90000C94122810F40C9409282FE2E21621E06D
:103AA000F20611F40C94892833E6E31631E0F306AC
:103AB00011F00C948D2CE1E7F2E10C941A2C42E900
:103AC000E41641E0F40611F40C94932810F40C94DD
:103AD0008F2884EAE81681E0F80611F40C94972800
:103AE00095EAE91691E0F90611F00C948D2C0E94EC
:103AF000C2970C948D2CA2E2EA16A3E0FA0608F015
:103B000026C1B0E2EB16B3E0FB0610F00C94E82BF4
:103B1000E6ECEE16E1E0FE0611F40C94E12B20F544
:103B200023ECE21621E0F20611F40C94D92B48F4B0
:103B300042ECE41641E0F40611F40C94CD2B0C9405
:103B40008D2C54ECE51651E0F50611F40C94DD2BA8
:103B500085ECE81681E0F80611F00C948D2C82E0DB
:103B60000E94F0960C948D2C95EFE91691E0F906E1
:103B700011F40C94BB2B08F0DAC0B4EFEB16B1E0F3
:103B8000FB0611F00C948D2C1EA61FA618AA19AACC
:103B900080E390E3A0E3B0E08AA79BA7ACA7BDA712
:103BA00084E690E09BAF8AAF1092A00C44E050E016
:103BB000BE01665D7F4FCE01CA960E9492808AAD9B
:103BC0009BAD02969BAF8AAF1092AA0C1092A90CE3
:103BD00082E024968FAF249741E050E0BE016D5BF8
:103BE0007F4FCE01CA960E94928044E150E064E487
:103BF0007EE0CE01CA960E94928044E150E068EBDC
:103C000076E0CE01CA960E94928044E150E06EEECA
:103C100076E0CE01CA960E94928044E050E060EBCC
:103C200076E0CE01CA960E94928044E050E064EBB8
:103C300076E0CE01CA960E94928044E050E06CEAA1
:103C400076E0CE01CA960E94928044E050E060ED9A
:103C500076E0CE01CA960E94928044E050E06CEC7F
:103C600076E0CE01CA960E94928044E050E06AE875
:103C70007CE0CE01CA960E94928040E150E06CE95F
:103C800076E0CE01CA960E9492804CE050E06EE74A
:103C90007CE0CE01CA960E94928080919606909117
:103CA0009706A0919806B09199068EA39FA3A8A706
:103CB000B9A744E050E0BE016A5D7F4FCE01CA96CD
:103CC0000E94928023961FAE23971EA61FA618AAB5
:103CD00019AA83E022968FAF229721968FAF219762
:103CE00041E050E0BE016E5B7F4FCE01CA960E945C
:103CF000928044E050E0BE01625D7F4FCE01CA96E3
:103D00000E94928041E050E0BE016F5B7F4FCE0188
:103D1000CA960E94928041E050E0BE01605C7F4FF5
:103D2000CE01CA960E9492801AE00C94F829E6EF20
:103D3000EE16E1E0FE0611F40C94BE2BF7EFEF1641
:103D4000F1E0FF0611F40C94C12B0C948D2C2AE2A7
:103D5000E21623E0F20680F438E2E31633E0F306DD
:103D600010F00C94022CC70184529340029710F477
:103D70000C94F52B0C948D2C43E5E41643E0F406EB
:103D800011F40C94E52B48F48CE2E81683E0F80675
:103D900010F40C940C2C0C948D2C97EEE91693E0F7
:103DA000F90611F40C94312C0C948D2C80E50E94B2
:103DB0007633882361F00E94C5336B017C01BB24FC
:103DC000B394672B682B692B31F4B12C04C0B12C50
:103DD000C12CD12C760183E50E947633882311F41F
:103DE0000C94902C0E94F9336B017C01B11020C01F
:103DF000672B682B692BE1F4D8018C918823C1F0E3
:103E0000E2EAF7E284915F01BFEFAB1ABB0A8823B5
:103E100021F00E946E35F501F5CFF80181918F01F7
:103E2000882319F00E946E35F8CF8AE00E946E3523
:103E300081E0809370040E9405A20E946335C11442
:103E4000D104E104F10409F18091980C9091990C4E
:103E5000A0919A0CB0919B0CC80ED91EEA1EFB1EB5
:103E60000E94C9A9DC01CB018C199D09AE09BF09CB
:103E7000B7FD04C0109270040C948D2C80917004D6
:103E80008823C1F30E94C785EBCF809170048823FB
:103E900089F30E94C785F9CF0E9405A28091650F22
:103EA0009091660F8130910541F0069711F00C94C6
:103EB0008D2C749AE2EAF7E231C083E50E947633F2
:103EC000882321F00E948933182F01C01FEF8091B1
:103ED000D80683FD02C0812F01C080E00E946B34B0
:103EE000112311F40C948D2CE2EAF7E284918F01F6
:103EF0000F5F1F4F882321F00E946E35F801F6CF27
:103F0000EFE1F4E084918F010F5F1F4F882311F4DC
:103F10000C94952C0E946E35F801F4CF84918F019A
:103F20000F5F1F4F882321F00E946E35F801F6CFF6
:103F3000EFE0F4E084918F010F5F1F4F882311F4AD
:103F40000C94952C0E946E35F801F4CF0E9405A2C6
:103F50008091650F9091660F8130910541F0069731
:103F600011F00C948D2C7498E2EAF7E21DC080E009
:103F70000E946B34E2EAF7E284918F010F5F1F4FDA
:103F8000882321F00E946E35F801F6CFE9E2F4E0D3
:103F900084918F010F5F1F4F882311F40C948D2C97
:103FA0000E946E35F801F4CF84918F010F5F1F4F8F
:103FB000882321F00E946E35F801F6CFE4E3F4E0A7
:103FC00084918F010F5F1F4F882311F40C948D2C67
:103FD0000E946E35F801F4CF8D98A59875981798C2
:103FE00014980C948D2C8091220F9091230F01979F
:103FF00019F40E94C9A908C060912C0F70912D0F6F
:1040000080912E0F90912F0F0091280F1091290F62
:1040100020912A0F30912B0F601B710B820B930B99
:1040200028EE33E040E050E00E9466C48091240F07
:104030009091250FA091260FB091270FBC01CD01C3
:10404000620F731F841F951F0CE3C02ED12CE12C2F
:10405000F12CA70196010E9466C4B62EA72ECA01B4
:10406000B901A70196010E9466C46B017C01CA01D7
:10407000B90128E130E040E050E00E9466C42B0125
:104080003C01C9016DE671E00E9404B88E010F5F2A
:104090001F4F61157105E1F0AF92BF92DF92CF9291
:1040A0005F924F929F938F937F936F938DE694E0EF
:1040B0009F938F931F930F930E9442C02DB73EB7DB
:1040C000225F3F4F0FB6F8943EBF0FBE2DBF37C0E3
:1040D0000097D1F0AF92BF92DF92CF925F924F9252
:1040E0009F938F938DE594E09F938F931F930F93EE
:1040F0000E9442C04DB75EB7445F5F4F0FB6F89461
:104100005EBF0FBE4DBF1BC041145104610471045A
:10411000C9F0AF92BF92DF92CF925F924F9281E54A
:1041200094E09F938F931F930F930E9442C08DB78B
:104130009EB70A960FB6F8949EBF0FBE8DBFE2EAF7
:10414000F7E22BC0C114D104E104F104A9F0AF924D
:10415000BF92DF92CF9289E494E09F938F931F9355
:104160000F930E9442C0ADB7BEB718960FB6F89431
:10417000BEBF0FBEADBFE3CFAF92BF9285E494E068
:104180009F938F931F930F930E9442C00F900F90A5
:104190000F900F900F900F90D2CF84917F01BFEFBF
:1041A000EB1AFB0A882321F00E946E35F701F5CF48
:1041B000B80181E894E00E941A408AE00E946E35BE
:1041C0000C948D2C83E50E947633882311F40C9493
:1041D0008D2C0E94B8337C018F3F910519F010F0AF
:1041E0000C948D2C80E50E947633882339F00E9450
:1041F000B8338C0197FF04C00C948D2C0DE010E0B7
:10420000802F0E94E1B08823D1F0E1E7F2E18491B0
:104210008F010F5F1F4F882321F00E946E35F80138
:10422000F6CFEEE8F4E084918F010F5F1F4F8823F3
:1042300011F40C948D2C0E946E35F801F4CF61E0DE
:10424000802F0E94E48D6E2D802F0E94B48DB701C7
:10425000802F0E94208E0630110559F0073011057D
:1042600011F00C948D2CF092D706E092D6060C94A7
:104270008D2CF092D506E092D4060C948D2C84E51A
:104280000E947633882309F463C089E40E94763360
:10429000082F882319F00E942A34082F82E50E94F3
:1042A0007633882321F00E94B8336C0103C0CC24FC
:1042B000C394D12C83E50E947633882321F00E9499
:1042C000B833182F01C010E085E40E9476338823AC
:1042D00021F00E94B8335C0103C0B5E4AB2EB12CD1
:1042E00087E50E947633882319F00E94B83302C014
:1042F00084EF91E02C01990F66087708612F70E038
:10430000A616B706BCF001110C94DA2C812FA496E6
:104310006FAFA497A5967FAFA5970E94E1B0A49632
:104320006FADA497A5967FADA59781110C94092D2B
:104330000C94DA2CEDE9F4E084918F010F5F1F4FAC
:10434000882311F40C948D2C0E946E35F801F4CF63
:1043500085E40E947633882379F10E942A34809381
:104360005F0FE3E0F5E084918F010F5F1F4F88231B
:1043700021F00E946E35F801F6CF80915F0F811118
:1043800003C00BEA13E002C001EB13E0D8018D91EA
:104390008D01882319F00E946E35F8CFECEFF4E020
:1043A00084918F010F5F1F4F882311F40C948D2C83
:1043B0000E946E35F801F4CF83E50E94763388239E
:1043C000D1F0E1E7F2E184918F010F5F1F4F882365
:1043D00021F00E946E35F801F6CFEFECF4E0849105
:1043E0008F010F5F1F4F882311F40C948D2C0E94B6
:1043F0006E35F801F4CF80E50E947633882321F0F2
:104400000E948933782E01C0712C80E50E9476339A
:10441000811107C0B5E4B71510F40C948D2C05E498
:1044200001C0072D89E40E947633682E882319F095
:104430000E942A34682E87E50E947633882329F06B
:104440000E942A3481110C941A2D41E0662D872D8B
:104450000E942CAA73940715C0F70C948D2C0E940F
:10446000FF390C948D2C0E94A0910C948D2C80917E
:10447000220F9091230F019711F00C948D2C82E064
:1044800090E09093230F8093220F0E94C9A960931C
:104490002C0F70932D0F80932E0F90932F0F0C9451
:1044A0008D2C0E946F8F0C948D2C88E690E00E94DA
:1044B000626081110C948D2C8091D80683FF02C01C
:1044C0000C948D2C909173048091590E98130C9438
:1044D0008D2C83E50E947633882391F00E94B833B7
:1044E0009093610F8093600F80E00E94B59E0E94C0
:1044F000B8338234910514F40E946F8F0E94B83350
:104500000E940AAE0C948D2C8EE40E947633882390
:1045100011F40C948D2C80917104909172044AE0F6
:1045200050E060E070E001960E9496BD6093331009
:104530007093341080933510909336100C948D2C1A
:1045400083E50E947633882321F00E94893390E02E
:1045500002C080E090E09093D9068093D806E2EA0A
:10456000F7E284918F010F5F1F4F882321F00E9493
:104570006E35F801F6CFE8E2F5E084918F010F5F28
:104580001F4F882311F40C944B190E946E35F801CB
:10459000F4CF99249394980E882319F08CE20E940A
:1045A0006E35F50125913491F901849189010F5FF0
:1045B0001F4F882321F00E946E359801F5CF892D79
:1045C0000C946E19E4E2F5E084918F010F5F1F4FA8
:1045D000882311F40C9478190E946E35F801F4CFF9
:1045E0008091D80683FF02C00C948D2C83E50E9435
:1045F0007633882311F40C948D2C0E94B833909359
:104600005B0F80935A0F0C948D2C89E690E00E94EA
:10461000626081110C94632FEFE2F5E084918F01C9
:104620000F5F1F4F882321F00E946E35F801F6CFEF
:104630000E94B5398AE00E946E350C94632F83E5A1
:104640000E947633882311F40C948D2C0E948933B8
:104650008093950C8D3318F08CE38093950C0E9419
:10466000C9A96B017C012091950C30E0A8EEB3E064
:104670000E94BAC4DC01CB018C0D9D1DAE1DBF1D77
:104680008093910C9093920CA093930CB093940C04
:104690000C948D2C8DE690E00E94626081110C9448
:1046A0008D2C8091D80683FF02C00C948D2C9091A4
:1046B00073048091590E98130C948D2C83E50E94FD
:1046C00076332D968FAF2D9781110C948D2D82E529
:1046D0000E94763381110C948D2D0C948D2C83E5E2
:1046E0000E947633882321F00E941FAA8C0102C009
:1046F0000FEF10E080E50E947633882341F00E949E
:104700001FAA8230910510F00C948D2C02C080E01D
:1047100090E0FC01EE0FFF1FEC52F94F98010F3FA4
:10472000110519F010F02FEF30E0318320830C9445
:104730008D2C80E50E947633882341F00E941FAAC9
:104740008230910510F00C948D2C02C080E090E036
:10475000880F991FFC01EC52F94F118210820C94C2
:104760008D2C109277040C948D2C81E0809377042B
:104770000C948D2C83E50E947633882361F00E948F
:10478000F93360936302709364028093650290939F
:1047900066020C948D2C88E50E94763381110C946E
:1047A000FB2E89E50E94763381110C94FB2E8AE55D
:1047B0000E94763381110C94FB2E85E40E9476339F
:1047C00081110C94FB2E0E9405A20E948C850C94F2
:1047D0008D2C83E50E947633882311F40C948D2C64
:1047E0000E94F93360939C0C70939D0C80939E0CF7
:1047F00090939F0C0C948D2C8CE590E00E9462604D
:1048000081110C948D2CABE9B2E02696BFAFAEAF10
:10481000269744E4C42E4EE0D42EF12C2696EEAD1D
:10482000FFAD269781912696FFAFEEAF26970E94A7
:104830007633882309F473C0F3E0FF1268C00E9446
:10484000D0332B013C0120E030E040EA51E40E94EB
:1048500072C0E090730487FF4FC00E2D10E00D5F13
:104860001F4F000F111F000F111FF801EC5BF14FDC
:10487000A301920160817181828193810E9440B97C
:104880004B015C019B01AC016091A8067091A906E7
:104890008091AA069091AB060E94D8C06093A806AA
:1048A0007093A9068093AA069093AB0698012854AA
:1048B000394F1901A5019401D1016D917D918D911F
:1048C0009C910E94D8C0F10160837183828393839D
:1048D0000652194FD8016D917D918D919C910E9446
:1048E00077C0A50194010E94D8C00E94B9B9F8010F
:1048F000608371838283938324E0E29EF00111241C
:10490000E05BF14F408251826282738208C00E9454
:10491000D033D6016D937D938D939C931397F3942D
:10492000B4E0CB0ED11CE4E0FE1278CF0E94C84068
:104930000C948D2CE6EEF5E084918F010F5F1F4FF4
:10494000882321F00E946E35F801F6CFE8EDF5E0FE
:1049500084918F010F5F1F4F882321F00E946E35D5
:10496000F801F6CFE1ECF5E084918F010F5F1F4F66
:10497000882321F00E946E35F801F6CFE1EBF5E0D7
:1049800084918F010F5F1F4F882321F00E946E35A5
:10499000F801F6CFE0EAF5E084918F010F5F1F4F39
:1049A000882321F00E946E35F801F6CFE1E9F5E0A9
:1049B00084918F010F5F1F4F882321F00E946E3575
:1049C000F801F6CFECE7F5E084918F010F5F1F4F00
:1049D000882321F00E946E35F801F6CFE6E6F5E077
:1049E00084918F010F5F1F4F882321F00E946E3545
:1049F000F801F6CFE1E5F5E084918F010F5F1F4FDD
:104A0000882321F00E946E35F801F6CFE9E3F5E046
:104A100084918F010F5F1F4F882309F47EC70E9486
:104A20006E35F801F5CF84918F010F5F1F4F8823FA
:104A300021F00E946E35F801F6CFEBEAF6E08491A2
:104A40008F010F5F1F4F882321F00E946E35F80100
:104A5000F6CF4B9B03C00FEA13E002C004EB13E058
:104A6000D8018D918D01882311F40C9478190E943E
:104A70006E35F6CF81E080935D0F80937D0C4DC73E
:104A800010925D0F10927D0C48C788EC90E00E9458
:104A90006260811142C784E40E947633882309F45E
:104AA00056C00E94D03311E020E030E0A9010E94FE
:104AB00072C0811101C010E010938E0C112309F413
:104AC00046C00091730410E00E94D033000F111F04
:104AD000000F111FF801E55AFD4F60837183828337
:104AE000938320E030E0A90160915B0270915C0249
:104AF00080915D0290915E020E9472C081110CC093
:104B000080E090E0A0E4B0E480935B0290935C02CC
:104B1000A0935D02B0935E0220E030E0A9016091B5
:104B20005F027091600280916102909162020E9426
:104B300072C081110CC080E090E0A0E4B0E48093EA
:104B40005F0290936002A0936102B09362020E94A0
:104B500012A2E3C689EC90E00E9462608111DDC67A
:104B6000BBE9EB2EB2E0FB2ED12CF70181917F0146
:104B70000E9476338823C1F0F3E0DF1203C0009176
:104B8000730401C000E00E94D0330D0D24E0029FA9
:104B9000800111240251194F0E94B9B9D8016D93B7
:104BA0007D938D939C931397D394B4E0DB12DDCF68
:104BB0000E944240B2C68BEC90E00E94626081117C
:104BC000ACC6ABE9EA2EA2E0FA2E00E0F701819133
:104BD0007F010E947633882399F0033019F41091F5
:104BE000730401C010E00E94D033100F24E0129F24
:104BF000F0011124E854F94F608371838283938319
:104C00000F5F043019F789C683E50E947633882345
:104C1000D9F00E94D033AB01BC014093B006509351
:104C2000B1066093B2067093B3064093AC065093FE
:104C3000AD066093AE067093AF0687E297E00E94E0
:104C4000C83F8AE00E946E3580E50E947633882353
:104C500099F00E94D033AB01BC014093B006509351
:104C6000B1066093B2067093B3068AE097E00E94A3
:104C7000C83F8AE00E946E3582E50E947633882321
:104C800099F00E94D033AB01BC014093B40650931D
:104C9000B5066093B6067093B7068BEE96E00E9459
:104CA000C83F8AE00E946E3584E50E9476338823EF
:104CB00009F433C60E94D033AB01BC014093AC066B
:104CC0005093AD066093AE067093AF068DEC96E000
:104CD0000E94C83F8AE00E946E351FC683E50E948D
:104CE0007633882351F00E94D0336093D0067093BE
:104CF000D1068093D2069093D30684E50E94763342
:104D0000882351F00E94D0336093CC067093CD0677
:104D10008093CE069093CF0682E40E947633882358
:104D200051F00E94C53360938A0C70938B0C809372
:104D30008C0C90938D0C88E50E947633882351F07B
:104D40000E94D03360939C0670939D0680939E06CC
:104D500090939F0689E50E947633882351F00E9444
:104D6000D0336093A0067093A1068093A20690931F
:104D7000A3068AE50E947633882351F00E94D0333F
:104D80006093A4067093A5068093A6069093A70649
:104D900085E40E947633882309F4BFC50E94D0338E
:104DA0006093A8067093A9068093AA069093AB0619
:104DB000B4C5D5018D915D010E947633882311F130
:104DC0000E94D0332B013C01F701208131814281C7
:104DD00053810E9445B89B01AC01D6016D917D9134
:104DE0008D919C910E9446B8F60160837183828305
:104DF0009383D7014D925D926D927C921397C80177
:104E00000E94BC5F0F5F1F4FB4E0CB0ED11CE4E0EB
:104E1000EE0EF11C0330110561F60E94D5380E9498
:104E2000968A7BC5E2EAF7E284918F010F5F1F4FFC
:104E3000882321F00E946E35F801F6CFE3E7F7E012
:104E400084918F010F5F1F4F882321F00E946E35E0
:104E5000F801F6CFEFE6F7E084918F010F5F1F4F67
:104E6000882321F00E946E35F801F6CFE7E6F7E0DF
:104E700084918F010F5F1F4F882321F00E946E35B0
:104E8000F801F6CF40910D0250910E0260910F0291
:104E90007091100285E697E00E94C83F4091110290
:104EA00050911202609113027091140282E697E011
:104EB0000E94C83F4091150250911602609117025E
:104EC000709118028FE597E00E94C83FE7E5F7E090
:104ED00084918F010F5F1F4F882321F00E946E3550
:104EE000F801F6CF40910102509102026091030255
:104EF0007091040285E597E00E94C83F4091050249
:104F000050910602609107027091080282E597E0D5
:104F10000E94C83F4091090250910A0260910B0221
:104F200070910C028FE497E00E94C83F8AE00E94D3
:104F30006E35F3C483E50E947633882309F4EDC40B
:104F40000E94B8339093680280936702E6C48DEDA7
:104F500090E00E9462608111E0C483E50E94763394
:104F6000882309F4DAC40091730410E00E94B83376
:104F7000000F111FF801EB5DFD4F91838083CDC4BD
:104F800080E50E947633882309F4C7C40E94B833B1
:104F90008C0183E50E947633882321F00E94B83388
:104FA0007C0103C0EE24EA94FE2CC701019603970E
:104FB00008F0B3C417FDB1C4D02E802F0E94E1B019
:104FC0008111ABC43BC783E50E947633882319F077
:104FD0000E941FAA02C084E091E09F8B8E8B80E527
:104FE0000E947633882349F00E941FAA8938F3E192
:104FF0009F0728F088E893E102C088EE93E09A8347
:105000008983BE016A5E7F4FCE0101960E94DC90CB
:1050100084C40E94149C81C40E94FC897EC40E94A6
:1050200030897BC483E50E947633082F8823D1F032
:105030000E94B833BC01990F880B990B0E9479C06C
:1050400060932102709322028093230290932402A2
:1050500011E020E030E0A9010E9472C0811110E04F
:1050600010939B0680E50E947633182F8823A9F0C1
:1050700020E030E0A901609121027091220280912C
:105080002302909124020E9472C0882319F00E948A
:105090002A34182F10939B0640C401113EC4E2EA43
:1050A000F7E284918F010F5F1F4F882321F00E9448
:1050B0006E35F801F6CF80919B06811103C06BEA33
:1050C00073E002C061EB73E088E997E00E941A4048
:1050D00020E030E040E05FE3609121027091220225
:1050E00080912302909124020E9446B80E94B2B996
:1050F00087E897E00E94E53FE3E8F7E084918F01BD
:105100000F5F1F4F882309F408C40E946E35F80111
:10511000F5CF0E943D9801C40E9405A2FEC381E024
:105120000E94235DFAC380E00E94235DF6C386E5FA
:105130000E947633882341F08091A50C9091A60CB3
:10514000892B11F00E9487B683E50E94763388236D
:1051500031F00E942A34182F0E949F5701C010E09E
:105160008AE50E947633882321F00E94D0330E9482
:105170005A57F0909A06111103C0E2EAF7E21AC0FA
:10518000F110FBCFE1E7F2E184918F010F5F1F4F38
:10519000882321F00E946E35F801F6CFE9EBF7E0A5
:1051A00084918F010F5F1F4F882339F30E946E3562
:1051B000F801F6CF84918F010F5F1F4F882321F0F4
:1051C0000E946E35F801F6CFF11003C062EC73E077
:1051D00002C06EEB73E08BEA97E00E941A408AE00F
:1051E0000E946E359AC32EE73CE026963FAF2EAF65
:1051F00026974AE5242E4EE0342E41E35EE02A96BF
:105200005FAF4EAF2A9700E010E02A968EAD9FADBB
:105210002A9781539E402E969FAF8EAF2E972A9647
:10522000AEADBFAD2A978D912A96BFAFAEAF2A978C
:10523000882309F4A9C0F801EF5FFD4F2081318177
:1052400042815381F801E35FFD4F6081718182816A
:1052500093810E9446B820E030E040E05FE30E9486
:10526000D8C09B01AC01F101608171818281938181
:105270000E94C6BA181634F4C8018A50984F0E948A
:10528000383403C060E070E0CB01D1018D909D9077
:10529000AD90BC90F801E55EF84F208131814281EC
:1052A00053810E9446B89B01AC01C501B4010E9424
:1052B00045B86B017C0120E030E040EA51EC0E94EF
:1052C000C6BA87FD39C020E030E040EA51E4C701AA
:1052D000B6010E9472C018167CF12696EEADFFADA5
:1052E00026974080518062807380A7019601C30198
:1052F000B2010E9445B86B017C01A30192010E949A
:1053000045B89B01AC01C501B4010E9446B8D1016A
:105310006D937D938D939C9313972696EEADFFAD81
:105320002697C082D182E282F3822E968EAD9FAD07
:105330002E970E94BC5F28C0E1E7F2E184918F01C3
:105340000F5F1F4F882321F00E946E35F801F6CFC2
:10535000E8EDF7E084918F010F5F1F4F882321F064
:105360000E946E35F801F6CF88E290E09A83898337
:1053700088EC90E09F8B8E8BBE016F5F7F4FCE01DC
:1053800046960E94DC90C9C226962EAD3FAD269768
:105390002C5F3F4F26963FAF2EAF26970C5F1F4FD7
:1053A00034E0230E311C0C30110509F02ECF0E9481
:1053B000D5380E94968A83E992E09F8B8E8B04E613
:1053C00010E01A830983BE016A5E7F4FCE01019609
:1053D0000E94DC908AEB92E09F8B8E8B1A8309836C
:1053E000BE016A5E7F4FCE0101960E94DC9095C29D
:1053F000115044E050E041F0BE01625D7F4FCE01AC
:10540000CA960E949280F4CF6DE672E0CE01CA96F1
:105410000E9492801EA61FA618AA19AA1AE011506F
:1054200051F044E050E0BE01625D7F4FCE01CA966C
:105430000E949280F4CF87E08FAF8EAF41E050E0C2
:10544000BE01615C7F4FCE01CA960E94928041E00E
:1054500050E0BE01625C7F4FCE01CA960E949280EE
:1054600044E050E065EA7CE0CE01CA960E9492805A
:1054700044E050E061EA7CE0CE01CA960E9492804E
:1054800044EC50E06DE67DE0CE01CA960E94928029
:105490001DAE1EA61FA618AA19AA8FEF8CAF41E059
:1054A00050E0BE01635C7F4FCE01CA960E9492809D
:1054B00044E050E0BE01625D7F4FCE01CA960E947B
:1054C000928041E050E0BE01645C7F4FCE01CA96FD
:1054D0000E9492801EA61FA618AA19AA1DE01150AC
:1054E00051F044E050E0BE01625D7F4FCE01CA96AC
:1054F0000E949280F4CF84EB90E09BA38AA380EF7C
:1055000090E09DA38CA386E490E09F8B8E8B8EE62B
:1055100090E0998F888F1A8219821C821B8244E046
:1055200050E0BE016E5D7F4FCE01CA960E94928010
:1055300044E050E0BE016A5E7F4FCE01CA960E94F1
:10554000928044E050E0BE016F5F7F4FCE01CA966B
:105550000E949280C12C20E8D22E2BE3E22E25E47B
:10556000F22E812C912C30E8A32E3FE3B32E1111A3
:1055700026C044E050E06AE772E0CE01CA960E947D
:10558000928044E050E066E772E0CE01CA960E9445
:10559000928044E050E06EE772E0CE01CA960E942D
:1055A00092808EA69FA6A8AAB9AA44E050E0BE01A8
:1055B000625D7F4FCE01CA960E9492801EC0CEA629
:1055C000DFA6E8AAF9AA44E050E0BE01625D7F4F81
:1055D000CE01CA960E9492801EA61FA618AA19AADA
:1055E00004E0015051F044E050E0BE01625D7F4FA5
:1055F000CE01CA960E949280F4CF1F5F153009F049
:10560000B6CF84E190E099AF88AF42E050E0BE01B0
:10561000685C7F4FCE01CA960E94928080E090E83D
:10562000ABE3B5E48EA79FA7A8ABB9AB14E01150CC
:1056300051F044E050E0BE01625D7F4FCE01CA965A
:105640000E949280F4CF80E290E09FAB8EAB42E06C
:1056500050E0BE016A5C7F4FCE01CA960E949280E4
:1056600041E050E06EE87CE0CE01CA960E94928054
:105670009BE5E92E92E0F92E123048F4F701808183
:105680009181A281B3818EA79FA7A8ABB9AB44E05B
:1056900050E0BE01625D7F4FCE01CA960E949280AB
:1056A0001F5FF4E0EF0EF11C153031F71DAA1CAAA4
:1056B0001BE042E050E0BE016C5C7F4FCE01CA9619
:1056C0000E9492801150A9F71EA61FA618AA19AA17
:1056D00044E050E0BE01625D7F4FCE01CA960E9459
:1056E000928044E050E0BE01625D7F4FCE01CA96D9
:1056F0000E9492808091A00C81110FC18091A90C11
:105700009091AA0C9BAB8AABEAACFBAC84E690E030
:105710009BAF8AAF44E050E061E973E0CE01CA96E6
:105720000E94928042E050E0BE016E5C7F4FCE014D
:10573000CA960E949280E2EAF7E284918F010F5F9D
:105740001F4F882321F00E946E35F801F6CFB70174
:10575000645671098BE098E00E94E53FE2E0F8E0D2
:1057600084918F010F5F1F4F882309F4D6C00E94D8
:105770006E35F801F5CF0E940F81CFC00E94067FE1
:10578000CCC083E50E947633882321F00E942A341E
:1057900091E089270E94E57AC0C083E50E947633B4
:1057A000882319F00E94893301C08FEF0E94F09680
:1057B000B4C080E00E94F096B0C081E00E94F096F4
:1057C000ACC083E00E94F096A8C00E945E96A5C07F
:1057D0000E9405A261E020E2E21623E0F20609F44D
:1057E00060E08DE20E94B48D98C00E9405A261E045
:1057F00034E2E31633E0F30609F460E08BE20E9442
:10580000B48D8BC081E048E2E41643E0F40609F071
:1058100080E00E94CB9681C00E9405A261E05AE21E
:10582000E51653E0F50609F060E061958DE00E9411
:10583000B48D73C084918F010F5F1F4F882321F0B7
:105840000E946E35F801F6CFEDE1F8E084918F010A
:105850000F5F1F4F882309F460C00E946E35F80166
:10586000F5CF81E08093750283E50E94763388232B
:1058700009F40BC30E942A3481114FC006C31E2DA8
:105880008091D80685FF14C0B701772788E898E093
:105890000E94E53F89E20E946E358AE00E946E35E3
:1058A0004AE55EE069E678E084E798E00E94B53872
:1058B0001093590EE2EAF7E284918F010F5F1F4FB8
:1058C000882321F00E946E35F801F6CF6091590EC1
:1058D00070E08CE298E00E94E53F8AE00E946E351D
:1058E0008091D80685FF19C04AE55EE06BE478E058
:1058F00085E598E00E94B538EEE3F8E084918F01E9
:105900000F5F1F4F882349F00E946E35F801F6CFD4
:105910000FB6F8949EBE0FBE8DBE0E945AA9D3C288
:10592000B1100C94181F0C94FC1E80E793E09F8B21
:105930008E8B00E510E01A830983BE016A5E7F4FFB
:10594000CE0101960E94DC901F8A1E8A84E1E82E17
:10595000F12CFA82E982BE016A5E7F4FCE01019688
:105960000E94DC9084EA93E09F8B8E8B84E690E02B
:105970009A838983BE016A5E7F4FCE0101960E94A1
:10598000DC901F8A1E8AFA82E982BE016A5E7F4F1E
:10599000CE0101960E94DC908CED93E09F8B8E8B64
:1059A0001A830983BE016A5E7F4FCE0101960E9471
:1059B000DC90B3CF84EA94E00E94E53F61E0812F60
:1059C0000E94E48DE12CF12CEC14FD04E4F460E081
:1059D000812F0E94B48DC301B2010E94365761E04D
:1059E000812F0E94B48DC301B2010E94365760E03E
:1059F000812F0E94B48DC301B2010E9436573FEF40
:105A0000E31AF30AE1CF8AE00E946E351F5F0C941F
:105A10007E218FEB94E00E94E53FE2EBF4E084917D
:105A20007F012FEFE21AF20A882369F30E946E3594
:105A3000F701F5CF8DB69EB6EDEEF4E084917F01CF
:105A40002FEFE21AF20A882321F00E946E35F70147
:105A5000F5CF10E0C72CD12CC8018C199D090196F7
:105A60004DB75EB7481B590B0FB6F8945EBF0FBE1B
:105A70004DBF8DB79EB701965C01572CE52C052CC8
:105A8000000CFF080E151F054CF0852D0E94E1B09B
:105A90008823A9F1611033C05394F0CF81E0809343
:105AA0007004672CE62C062C000CFF080E151F0551
:105AB000D4F0862D0E94E1B0811113C0862D0E9482
:105AC0001AB7582EEC18FD08EA0CFB1CD7018C9174
:105AD000581639F040E060E0862D0E942CAAF701AC
:105AE00050826394DFCF80917004882309F410CF33
:105AF00064EF71E080E090E00E943657D2CF62E020
:105B0000852D0E94E48DEC18FD08852D0E941AB7A2
:105B1000F501EE0DFF1D8083BFCF0E94B833909337
:105B2000610F8093600F80E00E94B59E0E94B833A1
:105B3000823491051CF40E946F8F02C00E94A091D4
:105B40000E940AAE81E0809300022C961CAE1DAE2E
:105B50001EAE1FAE2C9764961CAE1DAE1EAE1FAEC1
:105B6000649725961FAE259765961FAE65974CE303
:105B700069964FAF69975CE16D965FAF6D9786E46C
:105B8000A1968FAFA197C12CD12C70E8E72EEFEB37
:105B9000FE2E812C912C54016091600F7091610F49
:105BA000072E000C880B990B0E9479C0162F072F27
:105BB000782E692E262F372F482F592FB601C7016F
:105BC0000E9472C08823F1F02091680F3091690F14
:105BD00040916A0F50916B0F612F702F872D962D7A
:105BE0000E9472C0881F8827881F25968FAF25972F
:105BF0002D969FAD2D97992349F0882339F08091F8
:105C000000028BCE1C2D0D2D7E2C6F2C0E94C9A95D
:105C10006B017C01DC01CB0164962CAD3DAD4EAD3A
:105C20005FAD6497821B930BA40BB50BB7FD47C008
:105C3000D701C60188519C4FAF4FBF4F64968CAFC0
:105C40009DAFAEAFBFAF64970E94B539E5E3F5E015
:105C500084912F019FEF491A590A882321F00E944D
:105C60006E35F201F5CF81149104A104B104D1F095
:105C7000D501C401805F984DAF4FBF4FBC01CD012E
:105C80006C197D098E099F0928EE33E040E050E051
:105C90000E9466C4CA01B9010E94DD358AE00E94F3
:105CA0006E350DC0E2E3F5E084912F01AFEF4A1AA3
:105CB0005A0A882321F00E946E35F201F5CF0E9426
:105CC000C7850E9463356091680F7091690F80915C
:105CD0006A0F90916B0F0E94B2B9072E000C880BCF
:105CE000990B0E9479C01B012C019B01AC01612F13
:105CF000702F872D962D0E9445B89F7781149104AF
:105D0000A104B10449F420E030E040E85FE30E94E0
:105D100072C087FF0BC008C020E030E040E450E4D0
:105D20000E94C6BA181614F4460157012596BFAD55
:105D30002597BB2309F443C02C962CAD3DAD4EAD49
:105D40005FAD2C97211531054105510541F0D70173
:105D5000C601821B930BA40BB50BB7FD30C091019C
:105D6000A20165966FAD659769967FAD69976D964F
:105D70008FAD6D97A1969FADA1970E9445B820E089
:105D800030E040EC5FE30E9472C087FD38CFD7015E
:105D9000C601805A9541AF4FBF4F2C968CAF9DAF37
:105DA000AEAFBFAF2C9765962FAE659769963FAEA5
:105DB00069976D964FAE6D97A1965FAEA197809152
:105DC0000002882309F41BCF81149104A104B104BB
:105DD00029F4C12ED02EE72CF62CDECE90E1C91A84
:105DE00097E2D90AE108F108C818D908EA08FB08BF
:105DF000F7FE05CFEECF0E9405A288E50E9476331C
:105E0000882319F08D9A1092180789E50E9476333D
:105E1000882319F0A59A109219078AE50E94763313
:105E2000882319F0759A10921A0785E40E94763338
:105E3000882309F472CD0E940FA26FCD0E9405A2A3
:105E400060E0802F0E94E48D8FEFE816F80659F489
:105E5000802F0E941AB731E020E0892B09F030E052
:105E6000032F122F05C0EA94EF2861F000E010E044
:105E70008D2D0E941AB78017910709F44ECD0E940C
:105E8000C785F6CF01E010E0F3CF0E9479A945CD98
:105E9000E2EAF7E284918F010F5F1F4F882321F020
:105EA0000E946E35F801F6CF6091960C7091970CB8
:105EB00085E998E00E941A4082E20E946E358AE0ED
:105EC0000E946E352ACDA396AEADBFADA3970FB697
:105ED000F894BEBF0FBEADBFCC59DF4F0FB6F894DC
:105EE000DEBF0FBECDBFDF91CF911F910F91FF900D
:105EF000EF90DF90CF90BF90AF909F908F907F906A
:105F00006F905F904F903F902F90089582E0809324
:105F10005E0F08958FB7F894909132102091311050
:105F2000291759F0E92FF0E0EF54F04F208130E0CD
:105F30009F5F9F779093321002C02FEF3FEF8FBF8C
:105F4000C9010895FF920F931F93CF93DF93FC0134
:105F500020812B3319F1D0914D07D430F8F4F62E6F
:105F6000BC01C0912C060C2F10E0F0E6CF9FC001C1
:105F7000112485589B4F0E9488BBF801E95DF84FBA
:105F8000F082CF5FC43018F4C0932C0602C0109288
:105F90002C06DF5FD0934D0781E001C080E0DF91E8
:105FA000CF911F910F91FF9008952F923F924F92A2
:105FB0005F926F927F928F929F92AF92BF92CF9299
:105FC000DF92EF92FF920F931F93CF93DF9300D056
:105FD00000D0CDB7DEB78C010E94C9A9F801C680F8
:105FE000D780E084F184C114D104E104F10409F004
:105FF000F6C22485222309F460C332852150248708
:1060000021E0230F22874585241301C01286F80161
:1060100024E0329FE00DF11D1124C684D784E0886E
:10602000F188F801C282D382E482F582DC01CB01DF
:106030008C0D9D1DA11DB11D86839783A087B187FF
:1060400084819581892B09F438C3FFB7FD83F894C7
:10605000F8012280338004811581809141028D33C3
:1060600021F08F3F09F0B8C205C0E9E4F2E12491C4
:106070002E83EDC08DE380934102E9E4F2E1E491E7
:10608000EF3F09F4A9C2E23009F474C054F5EE23DD
:1060900009F453C0E13009F0D9C010928000109289
:1060A00081008091810088608093810080918100CF
:1060B000816080938100E0EEF6E2E491F0E0EE0F83
:1060C000FF1FE159F94D85919491909314068093A7
:1060D0001306E6E2F7E2E491E093120681E08E8394
:1060E000B9C0E43009F48EC00CF468C0E53009F0A2
:1060F000ADC0109220011092210180912101886091
:106100008093210180912101816080932101E0EE43
:10611000F6E2E491F0E0EE0FFF1FE159F94D8591B1
:10612000949190930B0680930A06E6E2F7E2E491DD
:10613000E093090625E02E838DC014BC15BC84B500
:10614000826084BD85B5816085BDE0EEF6E2E491B4
:10615000F0E0EE0FFF1FE159F94D85919491909376
:10616000170680931606E6E2F7E2E491E09315063F
:106170001E8270C01092B0001092B1008091B000E9
:1061800082608093B0008091B10081608093B10003
:10619000E0EEF6E2E491F0E0EE0FFF1FE159F94D79
:1061A0008591949190930D0780930C07E6E2F7E2B6
:1061B000E491E0930E0792E09E834CC01092900011
:1061C000109291008091910088608093910080915D
:1061D0009100816080939100E0EEF6E2E491F0E0BE
:1061E000EE0FFF1FE159F94D85919491909311069F
:1061F00080931006E6E2F7E2E491E0930F06E3E015
:10620000EE8328C01092A0001092A1008091A100FE
:1062100088608093A1008091A10081608093A1009B
:10622000E0EEF6E2E491F0E0EE0FFF1FE159F94DE8
:106230008591949190930E0680930D06E6E2F7E225
:10624000E491E0930C06F4E0FE8304C0EE838E81BB
:1062500087FDC2C12101612C712C61E08DE30E9498
:10626000E48D4801A12CB12C8E818D7F09F0BDC039
:1062700060E072E18AE790E0A50194010E9488C481
:1062800029833A834B835C8369017A0191E0C91ABF
:10629000D108E108F108EFEFCE16D104E104F104D2
:1062A00009F008F44DC060E472E48FE090E0A501CD
:1062B00094010E9488C469017A01F1E0CF1AD108E3
:1062C000E108F1082E81223001F58FEFC816D104C4
:1062D000E104F10409F008F4EEC160E970ED83E037
:1062E00090E0A50194010E9488C469017A0191E0BF
:1062F000C91AD108E108F108EFEFCE16D104E10484
:10630000F10409F0E0F583E069C0FFEFCF16D10496
:10631000E104F104B9F0B0F068E478EE81E090E0D7
:10632000A50194010E9488C469017A0181E0C81A1C
:10633000D108E108F1089E81992309F49AC190C11E
:1063400081E001C082E09E819923A1F047C089814C
:106350009A81AB81BC812AE0B595A79597958795E1
:106360002A95D1F76C017D01E1E0CE1AD108E10850
:10637000F10885E095B5987F892B85BDA1C068E4BB
:1063800078EE81E090E0A50194010E9488C4690143
:106390007A01F1E0CF1AD108E108F1082FEFC21617
:1063A000D104E104F10409F008F428C164E274EFB7
:1063B00080E090E0A50194010E9488C469017A01FF
:1063C000E1E0CE1AD108E108F108FFEFCF16D104C1
:1063D000E104F10411F008F013C185E09091B100DF
:1063E000987F892B8093B1006BC060E072E18AE7EF
:1063F00090E0A50194010E9488C469017A01E1E05E
:10640000CE1AD108E108F108C114D104F1E0EF0679
:10641000F10488F068E478EE81E090E0A501940151
:106420000E9488C469017A0181E0C81AD108E10894
:10643000F10883E001C081E09E81913071F4909178
:106440008100987F892B8093810045284628472822
:10645000D9F52FEF3FEFA90168C0EE81E33071F469
:1064600090919100987F892B809391004528462830
:10647000472851F52FEF3FEFA90179C0FE81F43095
:1064800071F49091A100987F892B8093A1004528F9
:1064900046284728C9F42FEF3FEFA9017AC02E8183
:1064A000253071F490912101987F892B80932101EF
:1064B00045284628472841F42FEF3FEFA9017BC02C
:1064C00045284628472869F09801220F331FD1013B
:1064D0000E94BAC428EE33E040E050E00E9466C457
:1064E00003C02FEF3FEFA9018E81823081F12CF4A0
:1064F000882361F08130C9F06FC09E81943009F427
:1065000048C0ACF1953009F456C066C0C7BC2093B2
:1065100028063093290640932A0650932B06809133
:106520006E00826080936E0057C0D0928900C09246
:106530008800209324063093250640932606509326
:10654000270680916F00826080936F0045C0C092E3
:10655000B30020930F073093100740931107509317
:1065600012078091700082608093700035C0D092D5
:106570009900C09298002093200630932106409302
:1065800022065093230680917100826080937100EF
:1065900023C0D092A900C092A80020931C0630937B
:1065A0001D0640931E0650931F0680917200826064
:1065B0008093720011C0D0922901C09228012093CB
:1065C00018063093190640931A0650931B068091C3
:1065D0007300826080937300ED81EFBF6EC0DC01B9
:1065E000CB018C199D09AE09BF09B7FD66C08F9814
:1065F000F80116821782108611865FC084E0EECE05
:1066000062E17AE780E090E0A50194010E9488C4ED
:1066100069017A0181E0C81AD108E108F1089FEF09
:10662000C916D104E104F104C9F0C0F089819A814E
:10663000AB81BC815AE0B595A795979587955A95FA
:10664000D1F76C017D0121E0C21AD108E108F108FF
:106650008E81882309F48DCE87E0C0CE86E073CE8C
:10666000EFEFCE16D104E104F10409F048F684E01E
:106670006ACE8FEFC816D104E104F104D1F0C8F05E
:1066800062E17AE780E090E0A50194010E9488C46D
:1066900069017A01F1E0CF1AD108E108F1082FEF82
:1066A000C216D104E104F10411F008F050CE84E0E8
:1066B00061CE83E05FCE82E091CE26960FB6F8944D
:1066C000DEBF0FBECDBFDF91CF911F910F91FF9025
:1066D000EF90DF90CF90BF90AF909F908F907F9082
:1066E0006F905F904F903F902F900895682F880F84
:1066F000770B8091790490917A040E947DBB9C0174
:10670000909372048093710481E0232B09F480E05C
:10671000089580917104909172044AE050E060E025
:1067200070E001960E9496BD97FD1EC08091710495
:10673000909172044AE050E060E070E001960E949F
:1067400096BD6F3F71058105910509F07CF480913C
:106750007104909172044AE050E060E070E00196AC
:106760000E9496BD862F089580E008958FEF0895CA
:1067700080917104909172044AE050E060E070E012
:1067800001960E9496BDCB0108958091710490916D
:1067900072044AE050E060E070E001960C94C1BEE3
:1067A0000F931F93CF93DF93C0917104D091720424
:1067B00065E470E0CE010E947DBB8C01CE010196A4
:1067C0000115110541F460E070E0DF91CF911F9158
:1067D0000F910C9427BCF801108260E070E00E94D9
:1067E00027BC25E4F8012083DF91CF911F910F9101
:1067F00008950E94D03320E030E04AE754E40E943C
:10680000D8C00E94B9B90895E0917104F091720462
:10681000818121E030E0803239F42F5F3F4FDF018A
:10682000A20FB31F8C91F7CF8D3211F08B3231F460
:106830002F5F3F4FDF01A20FB31F8C918E3219F4EF
:10684000E20FF31F818190ED980F81E09A3008F0FC
:1068500080E008950E940434882339F00E9489332F
:1068600091E0811103C090E001C091E0892F08956B
:10687000FC01659175918591949108951F920F92F5
:106880000FB60F9211248F9382E080935E0F8F9149
:106890000F900FBE0F901F9018951F920F920FB67A
:1068A0000F9211248F9382E080935E0F8F910F904F
:1068B0000FBE0F901F9018951F920F920FB60F9258
:1068C00011248F9382E080935E0F8F910F900FBE03
:1068D0000F901F901895282F8091650F9091660F4B
:1068E000019749F5809120018F732223E9F0806898
:1068F00080932001822F90E0A0E0B0E09C01AD01E8
:106900002150310941095109A0E5B0E00E94A7C416
:106910002EEF30E040E050E00E9488C4309329011F
:1069200020932801749A08958093200110922901E0
:1069300010922801749808958F929F92AF92BF92FF
:10694000CF92DF92EF92FF920F931F93CF93DF933B
:10695000CDB7DEB72C970FB6F894DEBF0FBECDBF14
:1069600020919A06222309F49BC08C018090960600
:1069700090909706A0909806B090990620E030E09D
:10698000A901C501B4010E9472C0882309F44AC05C
:106990002091230730912407409125075091260725
:1069A000F80160857185828593850E9445B86B01E9
:1069B0007C01A50194010E94C6BA87FF71C0A7019E
:1069C000960160911D0270911E0280911F029091AC
:1069D00020020E9472C0882389F1C0921D02D092C9
:1069E0001E02E0921F02F092200220914E07309189
:1069F0004F074091500750915107C701B6010E94BF
:106A0000D8C09B01AC0160E070E080E89FE30E9489
:106A100045B86093190270931A0280931B029093F9
:106A20001C020CC080E090E0A0E8BFE38093190254
:106A300090931A02A0931B02B0931C02CE01019600
:106A40002CE0FC0111922A95E9F7F801408151816F
:106A50006281738149835A836B837C83448155812E
:106A6000668177814D835E836F8378870E942EA72E
:106A70002091190230911A0240911B0250911C0280
:106A80000E94D8C09B01AC01F801608571858285A8
:106A900093850E9446B8F801608771878287938743
:106AA0002C960FB6F894DEBF0FBECDBFDF91CF910D
:106AB0001F910F91FF90EF90DF90CF90BF90AF901C
:106AC0009F908F9008950E94C9A96093980C70932D
:106AD000990C80939A0C90939B0C08959091C00010
:106AE00095FFFCCF8093C60008958F929F92AF923E
:106AF000BF92EF92FF921F93CF93DF93CDB7DEB794
:106B0000A0970FB6F894DEBF0FBECDBF611571051B
:106B10008105910581F110E0842E912CA12CB12CDE
:106B2000EE24E394F12CEC0EFD1EE10EF11C17FD9A
:106B3000FA94A50194010E9466C4F7016083B9012B
:106B4000CA011F5F611571058105910549F7115053
:106B500020F1E1E0F0E0EC0FFD1FE10FF11D17FD6A
:106B6000FA9580818A3010F097E301C090E3890F95
:106B70000E946E35ECCF80E3A0960FB6F894DEBF8E
:106B80000FBECDBFDF91CF911F91FF90EF90BF90CF
:106B9000AF909F908F900C946E35A0960FB6F8949E
:106BA000DEBF0FBECDBFDF91CF911F91FF90EF9061
:106BB000BF90AF909F908F900895CF92DF92EF9209
:106BC000FF926B017C0197FF0BC08DE20E946E3536
:106BD000F094E094D094C094C11CD11CE11CF11C31
:106BE0004AE0C701B601FF90EF90DF90CF900C9480
:106BF0007535EF92FF920F931F93CF93DF931F9200
:106C0000CDB7DEB7082F162FE1E7F2E184917F01BF
:106C10002FEFE21AF20A882331F099830E946E3531
:106C2000F7019981F3CFE02FF92F84917F019FEF36
:106C3000E91AF90A882321F00E946E35F701F5CF91
:106C4000609133107091341080913510909136100E
:106C50000E94DD358AE00E946E3511110E9479A9EB
:106C600010929406109293060F90DF91CF911F918E
:106C70000F91FF90EF900895BF92CF92DF92EF9225
:106C8000FF920F931F93CF93DF93CDB7DEB76E972D
:106C90000FB6F894DEBF0FBECDBF60912D06709188
:106CA0002E066115710569F14DE150E0CE010196A6
:106CB0007C010E9419C01E8EF7018F010E191F0959
:106CC000B190BB20A9F19AE0B912F7CF31C0B7015A
:106CD0008CEE98E00E941A4082E20E946E358AE0B3
:106CE0000E946E35BB2009F43BC00F5F1F4F80919F
:106CF0002D0690912E06080F191F10932E06009353
:106D00002D0680912D0690912E06892B09F02FC11A
:106D100080914D07843008F02AC12FB7F8948091F4
:106D20003110909132102FBF891B8F77E1F41FC172
:106D3000F701E00FF11F108260E0C7010E94A22F4F
:106D40008823F9F2E2EAF7E284916F019FEFC91A12
:106D5000D90A882309F4BBCF0E946E35F601F4CF1F
:106D600000E010E0CACF0E948A2F20919306309154
:106D700094068A3019F08D3009F0C8C0109295063B
:106D80002115310509F4C4CFF901ED5CF94F1082EA
:106D9000109294061092930623E336E08901F901DC
:106DA00080812F5F3F4F8032C9F378018E3411F01C
:106DB00000E010E06AE270E0C7010E947DBB6C0158
:106DC0000115110509F473C066E17AE0C7010E945C
:106DD00028C0BB24B394892B11F4B12C09C06EE4F4
:106DE00070E0C70104960E947DBB009709F08C01FA
:106DF0004AE050E060E070E0C80101960E9496BD54
:106E000060932F067093300680933106909332067C
:106E100000913310109134102091351030913610BC
:106E20000F5F1F4F2F4F3F4F601771078207930768
:106E300031F0B11004C061E083EE99E03DC0C114AF
:106E4000D10401F180E010E0F701E80FF11D90811D
:106E50009A3219F08F5F1927F7CF4AE050E060E0CF
:106E600070E0C60101960E9496BD012F10E020E05F
:106E700030E0601771078207930741F061E084EC0E
:106E800099E01AC061E08AE999E016C080912F0666
:106E900090913006A0913106B09132068093331064
:106EA00090933410A0933510B093361008C0892BFE
:106EB00031F060E089EF98E00E94F93558C0809188
:106EC000750281111DC067E470E0C7010E947DBB9F
:106ED0000097B1F04AE050E060E070E001960E9457
:106EE00096BD6430710560F4E3E2F9E084918F01AE
:106EF0000F5F1F4F882321F00E946E35F801F6CFF7
:106F000061E083E396E00E94A22F02CF2F35310586
:106F10000CF0FECE8C35B1F42FB7F894809131107F
:106F2000909132102FBF891B8F7709F4F1CE0E9408
:106F30008A2F909195069111EBCE20919306309176
:106F4000940609C08B3319F491E0909395069091C3
:106F500095069111DDCEA9014F5F5F4F50939406C6
:106F600040939306F901ED5CF94F8083D1CE6E9684
:106F70000FB6F894DEBF0FBECDBFDF91CF911F914A
:106F80000F91FF90EF90DF90CF90BF9008958F9278
:106F90009F92AF92BF92CF92DF92EF92FF92CF93E8
:106FA0006B017C01B42E20E030E0A9010E9472C088
:106FB00087FF07C08DE20E946E35F7FAF094F7F86C
:106FC000F094C0E060E070E080E09FE3CB1541F01A
:106FD0002DEC3CEC4CEC5DE30E94D8C0CF5FF6CFCB
:106FE0009B01AC01C701B6010E9446B86B017C0150
:106FF0000E94B9B94B015C014AE00E947535CC236F
:1070000089F1C501B4010E9477C09B01AC01C701A1
:10701000B6010E9445B86B017C018EE20E946E357C
:1070200020E030E040E251E4C701B6010E94D8C040
:107030004B015C010E94B2B96B01770FEE08FF08AB
:10704000C701B6010E94DD35C701B6010E9479C0B3
:107050009B01AC01C501B4010E9445B86B017C01E4
:10706000C150F1F6CF91FF90EF90DF90CF90BF909D
:10707000AF909F908F9008954F925F926F927F9202
:107080008F929F92AF92BF92CF92DF92EF92FF9238
:107090000F931F93CF93DF9300D01F92CDB7DEB72E
:1070A0004B0129833A834B835C8327013801FC0120
:1070B00084918F010F5F1F4F882321F00E946E354E
:1070C000F801F6CF88E20E946E3542E069817A814C
:1070D0008B819C810E94C737B301A20184EB98E0A9
:1070E0000E94C83FB601A50181EB98E00E94C83F0D
:1070F00089E20E946E358114910459F0F401849163
:107100008F010F5F1F4F8823D9F00E946E35F80161
:10711000F6CF8AE00F900F900F900F90DF91CF91F4
:107120001F910F91FF90EF90DF90CF90BF90AF90A5
:107130009F908F907F906F905F904F900C946E35E2
:107140000F900F900F900F90DF91CF911F910F91A3
:10715000FF90EF90DF90CF90BF90AF909F908F9077
:107160007F906F905F904F900895AF92BF92CF92B3
:10717000DF92EF92FF920F931F93FA01A084B184E4
:10718000C284D384E480F580068117812081318117
:10719000428153810E943C381F910F91FF90EF90E4
:1071A000DF90CF90BF90AF9008958091D80685FF73
:1071B00008C04AE55EE067EB78E088ED98E00E9461
:1071C000B5380C944C901F920F920FB60F92112469
:1071D0000BB60F922F933F934F935F936F937F93D1
:1071E0008F939F93AF93BF93EF93FF939091C600BC
:1071F0002FB7F894E091311081E08E0F8F773091A6
:107200003210831731F0F0E0EF54F04F9083809309
:1072100031102FBF20910706309108062C30310520
:1072200008F053C0F9018827EE58FF4F8F4F0C9498
:107230002CB89D3449F09E34D9F481E090E006C02A
:107240009A3348F09D34C1F582E090E090930806AF
:107250008093070677C0903308F074C0903209F429
:1072600071C09D3249F56EC0913329F0943331F0ED
:10727000903211F567C083E090E0E8CF88E090E0BD
:10728000E5CF903329F09133B9F486E090E0DECF7A
:1072900084E090E0DBCF983379F485E090E0D6CFBE
:1072A000923351F487E090E0D1CF913329F489E013
:1072B00090E0CCCF903319F08BE090E0C7CF8AE01C
:1072C00090E0C4CF9A30F1F539C09A30D9F5273023
:1072D000310559F02A30310561F02530310571F55D
:1072E000109200021092700429C088EA98E00E946F
:1072F000968588E893E190935C0C80935B0C809179
:107300006F008D7F80936F0090919A0E80919B0EFD
:10731000981719F00E94D868F7CF10925A0C109263
:10732000590C80916F00826080936F000E9405A2CB
:1073300084E690E00E9404A70E94D53810920806C7
:1073400010920706FF91EF91BF91AF919F918F919E
:107350007F916F915F914F913F912F910F900BBE55
:107360000F900FBE0F901F901895CF93DF93EFEA09
:10737000FFE08491EF012196882321F00E946E3571
:10738000FE01F7CF6091680F7091690F80916A0FCD
:1073900090916B0F0E94B2B9072E000C880B990BCD
:1073A0000E94DD35ECEAFFE08491EF01219688230D
:1073B00021F00E946E35FE01F7CF6091600F709151
:1073C000610F072E000C880B990B0E94DD35E8EA4F
:1073D000FFE08491EF012196882321F00E946E3511
:1073E000FE01F7CFE0917304F0E0EC59F04F6081BB
:1073F00070E080E090E0DF91CF910C94DD352F922A
:107400003F924F925F926F927F928F929F92AF9234
:10741000BF92CF92DF92EF92FF920F931F93CF9381
:10742000DF93CDB7DEB7EE970FB6F894DEBF0FBE91
:10743000CDBF2DB73EB73BA72AA70E94349181113B
:107440000AC586E50E947633882341F00E9489337D
:107450008D87853088F0E0E8FFE003C031E03D87AC
:107460000EC084918F010F5F1F4F882309F4F3C46E
:107470000E946E35F801F5CF8D85882361F0E0E636
:10748000FFE084918F010F5F1F4F882321F00E943E
:107490006E35F801F6CF80E50E947633882321F01F
:1074A0000E948933182F01C01AE08CEF810F8F32B0
:1074B00068F0ECE3FFE084918F010F5F1F4F88239A
:1074C00009F4C9C40E946E35F801F5CF80915A0EB7
:1074D00090915B0EA0915C0EB0915D0E8D839E83AA
:1074E000AF83B88780915E0E90915F0EA091600E81
:1074F000B091610E89839A83AB83BC8385E40E943B
:1075000076338CA788E50E947633882319F00E9491
:10751000D03309C020E030E0A9016D817E818F81E8
:1075200098850E9446B86B8B7C8B8D8B9E8BC09010
:107530001B07D0901C07E0901D07F0901E0720E06D
:1075400030E048EC53E4C701B6010E9445B89B0106
:10755000AC016B897C898D899E890E94C6BA87FDA2
:1075600012C020E030E048EC53E4C701B6010E94AD
:1075700046B89B01AC016B897C898D899E890E94EC
:1075800072C018161CF48AE39FE043C089E50E948C
:107590007633882319F00E94D0330AC020E030E00F
:1075A00048EE51E469817A818B819C810E9445B8C3
:1075B0006F8B788F898F9A8FC0901F07D09020078C
:1075C000E0902107F090220720E030E0A901C701F8
:1075D000B6010E9446B89B01AC016F89788D898DF8
:1075E0009A8D0E94C6BA87FD12C020E030E048ECB8
:1075F00053E4C701B6010E9446B89B01AC016F89F4
:10760000788D898D9A8D0E9472C018162CF488E3AB
:107610009FE00E94ED4E1FC48CE40E947633082F39
:107620008823C1F00E9489338A8B803168F0E5E0BD
:10763000FFE084918F010F5F1F4F882309F40BC473
:107640000E946E35F801F5CF9A89913021F4A2E0BD
:10765000AA8B01C01A8A83E50E9476338DA78823FE
:1076600021F0011102C0B7E0BA8B2D8523306CF0F8
:10767000EBEEFEE084917F013FEFE31AF30A8823EB
:1076800021F00E946E35F701F5CF80919A068AAB02
:1076900080E00E949F570E94FA599D85E92E990F1C
:1076A000FF080CA52F89388D498D5A8D6B897C89EF
:1076B0008D899E890E94835D0E94C9A9611571050B
:1076C0008105910511F00E941EBCA12F012E000C16
:1076D000BB0BBCABABAB2DB73EB784E01802201997
:1076E000310911240FB6F8943EBF0FBE2DBFADB7C0
:1076F000BEB71196B9A7A8A71FA2B3EFBF8F2FE4FB
:1077000028A333EC39A387EC8AA393EF9B8FAFE4D4
:10771000AC8FB3ECBD8F27E42E8F812C912C5401BC
:10772000240135013A89832F90E0DC011197BAAF2B
:10773000A9AF812F110F990BAA0BBB0B8BAF9CAF7D
:10774000ADAFBEAF3FA1232F30E03CA32BA38BA94D
:107750009CA9281739070CF0EDC29A89911128C00D
:10776000E12CF12C0CA52F89388D498D5A8D6B8910
:107770007C898D899E890E94835D062F372E282E55
:107780009E87EBA1FCA1EE0FFF1FEE0FFF1FA8A528
:10779000B9A5EA0FFB1F862F932DA22DBE858083EE
:1077A0009183A283B38310E0812C912C5401AAC150
:1077B0006AE070E080E090E00E941B550E9479C072
:1077C00020E030E040EA50E40E94C6BA18161CF0EF
:1077D00001E010E002C00FEF1FEF68E671E080E00B
:1077E00090E00E941B550E9479C02B013C016FE57F
:1077F00070E080E090E00E941B556B5F7F4F8F4FE1
:107800009F4F0E9479C06E877F87888B998BBD853B
:10781000B43051F0312CC801110FAA0BBB0B8EA74D
:107820009FA7A8ABB9AB6AC04E855F856889798987
:1078300089ED9EE00E94C83FB301A2018EEC9EE05C
:107840000E94C83FE1ECFEE084917F019FEFE91ABE
:10785000F90A882321F00E946E35F701F5CF013037
:10786000110519F0EDEAFEE00DC0E8EBFEE08491B1
:107870007F01AFEFEA1AFA0A8823A1F30E946E355E
:10788000F701F5CF84917F01BFEFEB1AFB0A882344
:1078900009F4C0CF0E946E35F701F4CF4D815E81AF
:1078A0006F81788580EA9EE00E94C83F49815A81B5
:1078B0006B817C818DE99EE00E94C83F4091620E01
:1078C0005091630E6091640E7091650E8AE99EE09E
:1078D0000E94C83F8AE00E946E3519861A861B8670
:1078E0001C869E01275F3F4F42E65EE0BE016F5F50
:1078F0007F4FCE0105960E94905B3394832D90E0DC
:10790000A9ADBAAD8A179B070CF02ACF2DA522236B
:1079100079F06EA57FA588A999A90E9479C09B01DD
:10792000AC010E9446B820E030E040E952E41CC0BF
:1079300064E170E080E090E00E941B554B015C0127
:107940006EA57FA588A999A90E9479C06B017C01C9
:10795000C501B401675E7F4F8F4F9F4F0E9479C072
:107960009B01AC01C701B6010E94D8C09B01AC01CC
:10797000C301B2010E9446B82B013C0120E030E077
:1079800044EB53E40E94C6BA18164CF420E030E0F1
:1079900044EB53E4C301B2010E9445B8EDCF20E0AF
:1079A00030E0A901C301B2010E9472C087FF0BC081
:1079B00020E030E044EB53E4C301B2010E9446B83A
:1079C0002B013C01ECCF2BED3FE049E450E4C30137
:1079D000B2010E94D8C020E030E044E353E40E94AA
:1079E00040B94B015C010E943BB92E853F85488917
:1079F00059890E94D8C09B01AC016B897C898D8913
:107A00009E890E9446B86B017C01C501B4010E94A9
:107A100006BB6DAB7EAB8FAB98AF20E030E048EE9D
:107A200051E46F89788D898D9A8D0E9446B84B01FB
:107A30005C012E853F85488959896DA97EA98FA94A
:107A400098AD0E94D8C09B01AC01C501B4010E9451
:107A500046B84B015C0120E030E048EC53ECC70134
:107A6000B6010E9472C087FD11C020E030E048ECF2
:107A700053E4C701B6010E94C6BA18166CF4C12CB3
:107A8000D12C98ECE92E93E4F92E06C0C12CD12C10
:107A900028ECE22E23ECF22ECD82DE82EF82F886F5
:107AA00020E030E0A901C501B4010E9472C087FD49
:107AB00011C020E030E048EC53E4C501B4010E945D
:107AC000C6BA181654F4812C912C88ECA82E83E4A5
:107AD000B82E03C0812C912C540189829A82AB82EA
:107AE000BC823D85343009F0F8CEE3EAFEE08491B3
:107AF0008F010F5F1F4F882309F4D0CE0E946E358F
:107B0000F801F5CFE8A5F9A5B4E01B9FE00DF11D44
:107B100011242081318142815381C501B4010E9429
:107B200046B84B015C011F5F2FA1211758F7CBA06E
:107B3000DCA03FEFC31AD30A0D2C000CEE08FF089F
:107B4000C701B6010E9479C06BA37CA38DA39EA33D
:107B50009B01AC01C501B4010E9440B92B013C015D
:107B6000202F332D422D5E856B8D7C8D8D8D9E8DCE
:107B70000E94C6BA18162CF40B8F3C8E2D8E8E8563
:107B80008E8F202F332D422D5E856F8D78A189A198
:107B90009AA10E9472C087FF05C00F8F38A229A248
:107BA0009E859AA310E0812C912C5401E8A5F9A59B
:107BB000A4E01A9FE00DF11D1124A3019201608140
:107BC0007181828193810E9445B89B01AC010E9422
:107BD000D8C09B01AC01C501B4010E9446B84B015D
:107BE0005C011F5FBFA1B11708F72BA13CA14DA1FC
:107BF0005EA10E9440B90E9414BB4B015C012D851F
:107C0000223008F493C0C701B6010E94DD35E5E9D2
:107C1000FEE084917F013FEFE31AF30A882321F00D
:107C20000E946E35F701F5CF6BAD7CAD8DAD9EAD8D
:107C30000E94DD35EFE8FEE084917F019FEFE91AB5
:107C4000F90A882321F00E946E35F701F5CF43E051
:107C5000602F732D822D9E850E94C737AD85A2307F
:107C600009F461C0E7E8FEE084918F010F5F1F4FC8
:107C7000882321F00E946E35F801F6CF44E0C3015D
:107C8000B2010E94C737EEE7FEE084918F010F5FDB
:107C90001F4F882321F00E946E35F801F6CF46E091
:107CA000C501B4010E94C737E7E7FEE084918F0168
:107CB0000F5F1F4F882321F00E946E35F801F6CF29
:107CC00043E06B8D7C8D8D8D9E8D0E94C737E0E7E4
:107CD000FEE084918F010F5F1F4F882321F00E94E7
:107CE0006E35F801F6CF43E06F8D78A189A19AA196
:107CF0000E94C737E7E6FEE084918F010F5F1F4FB8
:107D0000882321F00E946E35F801F6CF2B8D3C8D33
:107D10004D8D5E8D6F8D78A189A19AA10E9445B885
:107D200043E00E94C7378AE00E946E35BFA1BF5F63
:107D3000BFA308CD80E00E94235D81118CC0EDE5DA
:107D4000FEE084918F010F5F1F4F882321F00E9476
:107D50006E35F801F6CF8AE00E946E359D85992335
:107D600009F453C0E6E5FEE084918F010F5F1F4FD9
:107D7000882321F00E946E35F801F6CF46E0C3015A
:107D8000B2010E94C737EFE4FEE084918F010F5FDC
:107D90001F4F882321F00E946E35F801F6CF43E093
:107DA0006B8D7C8D8D8D9E8D0E94C737E8E4FEE043
:107DB00084918F010F5F1F4F882321F00E946E3541
:107DC000F801F6CF43E06F8D78A189A19AA10E94B6
:107DD000C737EFE3FEE084918F010F5F1F4F8823C9
:107DE00021F00E946E35F801F6CF2B8D3C8D4D8D24
:107DF0005E8D6F8D78A189A19AA10E9445B843E05C
:107E00000E94C7378AE00E946E35EAE2FEE0849164
:107E10008F010F5F1F4F882321F00E946E35F801FC
:107E2000F6CF46E0C501B4010E94C7378AE00E9440
:107E30006E358AE00E946E350E94D4598AA90E944C
:107E40009F570E94968AAAA5BBA50FB6F894BEBFFD
:107E50000FBEADBF07C02AA53BA50FB6F8943EBF25
:107E60000FBE2DBF8AA59BA50FB6F8949EBF0FBE6F
:107E70008DBFEE960FB6F894DEBF0FBECDBFDF917B
:107E8000CF911F910F91FF90EF90DF90CF90BF9017
:107E9000AF909F908F907F906F905F904F903F90AA
:107EA0002F9008954F925F926F927F92AF92BF9200
:107EB000CF92DF92EF92FF920F931F93CF93DF93B6
:107EC000009709F456C0FC01208121FD52C0EB014E
:107ED0008C0147A050A461A472A4AFA0B8A4C9A407
:107EE000DAA49501A601C301B2010E9472C087FF06
:107EF00040C0A3019201C301B2010E94D8C02B016E
:107F00003C01F80183A994A9A5A9B6A9BC01CD019A
:107F100090589B01AC010E9446B8F80127A530A9F2
:107F200041A952A90E94D8C09B01AC01C301B20172
:107F30000E9445B80E9414BB7B018C019B01AC01DF
:107F4000B501C6010E9472C087FF02C0750186019B
:107F50009701A801B501C6010E9472C0882349F0AB
:107F6000A701B8014FA358A769A77AA788818160A4
:107F70008883DF91CF911F910F91FF90EF90DF9059
:107F8000CF90BF90AF907F906F905F904F9008958B
:107F9000CF92DF92EF92FF92CF93DF936A017B0142
:107FA000FC018491EF012196882321F00E946E3517
:107FB000FE01F7CF42E0C701B601DF91CF91FF90FC
:107FC000EF90DF90CF900C94C7370F931F93CF9310
:107FD000DF938B01FC018491EF012196882321F02E
:107FE0000E946E35FE01F7CFB801110F880B990B77
:107FF000DF91CF911F910F910C94DD350F931F935B
:10800000CF93DF931F92CDB7DEB7FC0184918F0130
:108010000F5F1F4F882331F069830E946E35F8018E
:108020006981F4CF862F0F90DF91CF911F910F912F
:108030000C946E350F931F93CF93DF931F921F9273
:10804000CDB7DEB7FC0184918F010F5F1F4F811107
:1080500002C08B0108C069837A830E946E35F801E3
:1080600069817A81F0CFF80181918F01882319F01D
:108070000E946E35F8CF0F900F90DF91CF911F9136
:108080000F9108953F924F925F926F927F928F92DD
:108090009F92AF92BF92CF92DF92EF92FF920F9397
:1080A0001F93CF93DF9300D01F92CDB7DEB78090A0
:1080B000590E912C23E0820E911C8EEEE82E86E064
:1080C000F82E94E4C92E9EE0D92E2AEDA22E26E0A9
:1080D000B22E00E010E0312C412C512C320143949F
:1080E000F70161917191819191917F01F601219147
:1080F0003191419151916F0129833A834B835C8384
:108100000E9477C029813A814B815C810E94D8C04E
:108110000E94B9B9F50161937193819391935F01C5
:10812000F2E0F31518F40815190539F44616570648
:108130006806790610F42B013C0133940F5F1F4F42
:1081400025E03212CDCF6FEF7FEFCB01A30192017B
:108150000E9466C4209308073093090740930A07DA
:1081600050930B070F900F900F900F90DF91CF91CE
:108170001F910F91FF90EF90DF90CF90BF90AF9045
:108180009F908F907F906F905F904F903F90089559
:108190000F931F93CF93DF93C4E4DEE00BE217E06D
:1081A000299139914991599160E070E080E89FE30D
:1081B0000E9440B9F80161937193819391938F016B
:1081C000FEE0C835DF0761F70E944C90DF91CF9148
:1081D0001F910F910C9442402F923F924F925F92C9
:1081E0006F927F928F929F92AF92BF92CF92DF92C7
:1081F000EF92FF920F931F93CF93DF9300D01F92C4
:108200001F92CDB7DEB76B017A0119012091590E8B
:1082100029832093580E04E41EE0D8012D913D914E
:108220004D915C91FC0160817181828193810E94FA
:10823000D8C00E94D3BA4B015C01AAE8BEE06D939E
:108240007D938D939C931397F8012481358146810A
:108250005781D6016D917D918D919C910E94D8C0DE
:108260000E94D3BA2B013C0160938E0E70938F0E47
:108270008093900E9093910EF80120853185428570
:108280005385D7016D917D918D919C910E94D8C0AD
:108290000E94D3BA6B017C016093920E7093930E8F
:1082A0008093940E9093950E2981B4E02B9FF0015A
:1082B0001124E05BF14F2081318142815381D10152
:1082C0006D917D918D919C910E94D8C00E94D3BAEE
:1082D0006093960E7093970E8093980E9093990EDC
:1082E0006A837B838C839D830E9405A22FB7F894B9
:1082F000E4E3FEE080829182A282B38244825582CE
:1083000066827782C086D186E286F3866A817B8127
:108310008C819D8164877587868797872FBF109290
:10832000760E1092770E1092780E1092790E80E1F0
:10833000EAE7FEE0DF011D928A95E9F70F900F90C2
:108340000F900F900F90DF91CF911F910F91FF90A1
:10835000EF90DF90CF90BF90AF909F908F907F90E5
:108360006F905F904F903F902F9008952F923F9283
:108370004F925F926F927F928F929F92AF92BF9235
:10838000CF92DF92EF92FF920F931F93CF93DF93E1
:10839000CDB7DEB7C357D1090FB6F894DEBF0FBE15
:1083A000CDBF3B014A015901EFAAFFAE27960FAF9F
:1083B00027972B961FAF2B97CBA62091440E309179
:1083C000450E4091460E5091470EDC016D917D9116
:1083D0008D919C910E94D8C00E94D3BAAC966CAF8C
:1083E0007DAF8EAF9FAFAC972091480E3091490E74
:1083F00040914A0E50914B0EF30160817181828150
:1084000093810E94D8C00E94D3BAE0966CAF7DAF32
:108410008EAF9FAFE09720914C0E30914D0E409162
:108420004E0E50914F0ED4016D917D918D919C9186
:108430000E94D8C00E94D3BAE4966CAF7DAF8EAFD5
:108440009FAFE4972C2C312C81010D5F1F4F269696
:108450001FAF0EAF2697000F111F000F111F1CAF8B
:108460000BAFF801EC5BF14FC080D180E280F3806C
:10847000D5012D913D914D915C91C701B6010E94AE
:10848000D8C00E94D3BA66966CAF7DAF8EAF9FAF57
:1084900066970091580E1BA50117C1F110E00D5F02
:1084A0001F4F000F111F000F111FF801EC5BF14F60
:1084B0002081318142815381C701B6010E9472C07F
:1084C000882321F16091960E7091970E8091980EFD
:1084D0009091990E0E9479C0A70196010E94D8C080
:1084E000F801E55DF84F20813181428153810E947E
:1084F000D8C00E94D3BA6093960E7093970E809363
:10850000980E9093990E0BA50093580E80918A0EA9
:1085100090918B0EA0918C0EB0918D0EAC96CCAC40
:10852000DDACEEACFFACAC97C81AD90AEA0AFB0A7C
:1085300080918E0E90918F0EA091900EB091910E21
:10854000E0962CAD3DAD4EAD5FADE097281B390BED
:108550004A0B5B0B2FA738AB49AB5AAB8091920EFD
:108560009091930EA091940EB091950EE4960CAD5F
:108570001DAD2EAD3FADE497081B190B2A0B3B0B2D
:108580000BAB1CAB2DAB3EAB8091D80683FF0EC06E
:1085900066962CAD3DAD4EAD5FAD66972093960EC1
:1085A0003093970E4093980E5093990E8091960EAB
:1085B0009091970EA091980EB091990E66968CAC02
:1085C0009DACAEACBFAC6697881A990AAA0ABB0AE2
:1085D00009F496C08091650F9091660F892B09F080
:1085E00092C080919B06811145C06091680F709187
:1085F000690F80916A0F90916B0F0E94B2B9072E9C
:10860000000C880B990B0E9479C0209121023091B7
:10861000220240912302509124020E9472C087FFDF
:1086200029C066968CAD9DADAEADBFAD669780930B
:10863000960E9093970EA093980EB093990EE2EA3F
:10864000F7E284918F010F5F1F4F882321F00E9472
:108650006E35F801F6CFE2EDFFE084918F010F5FF8
:108660001F4F882321F00E946E35F801F6CF812C30
:10867000912C540124013501B7FE07C04424552430
:108680003201481859086A087B08EBADFCADEC5B79
:10869000F14F60817181828193810E94B2B99B0107
:1086A000AC01A8ECB0E00E94A7C46415750586056E
:1086B00097054CF566960CAD1DAD2EAD3FAD66979A
:1086C0000093960E1093970E2093980E3093990E68
:1086D000E2EAF7E284918F010F5F1F4F882321F0B8
:1086E0000E946E35F801F6CFE3EBFFE084918F0135
:1086F0000F5F1F4F882321F00E946E35F801F6CFDF
:10870000812C912C5401D701C6018827B7FD839590
:108710009927AA27BB27182F2FA538A949A95AA9F5
:1087200057FD12608BA99CA9ADA9BEA9B7FD146025
:10873000B7FC1860C501B4010E9479C0F101EE0FC9
:10874000FF1FEE0FFF1FE75DFD4F2081318142814A
:1087500053810E94D8C04B015C01F101EE0FFF1F55
:10876000EB5DFD4F60817181072E000C880B990B2A
:108770000E9479C09B01AC01C501B4010E94D8C020
:108780002AE037ED43E25CE30E94D8C04B015C0174
:1087900020E030E0A9010E94C6BA18164CF420E08F
:1087A00030E040E05FE3C501B4010E9446B808C074
:1087B000A501940160E070E080E09FE30E9445B86D
:1087C0000E94B2B924966CAF7DAF8EAF9FAF249755
:1087D00080919A0E8F5F8F70A1968FAFA197809135
:1087E0009B0EA1960FADA197801303C00E94C78571
:1087F000F6CFE0919A0E2E2F30E03AA729A73FE45A
:10880000E39FF0011124EC59F84F108212A3D70115
:10881000C601F7FE07C088279927DC018C199D093E
:10882000AE09BF0982839383A483B5838FE409A52E
:108830001AA5809FF001819FF00D1124EC59F84F8B
:108840008FA598A9A9A9BAA9B7FF07C0B095A09507
:10885000909581959F4FAF4FBF4F86839783A08799
:10886000B1878FE409A51AA5809FF001819FF00DC3
:108870001124EC59F84F8BA99CA9ADA9BEA9B7FF4B
:1088800007C0B095A095909581959F4FAF4FBF4F72
:1088900082879387A487B5878FE409A51AA5809F4F
:1088A000F001819FF00D1124EC59F84F24962CAD66
:1088B0003DAD4EAD5FAD249726873787408B518BFA
:1088C00042815381648175810681178120853185BC
:1088D000041715072607370714F48A019B018FE454
:1088E000A9A5BAA58A9FF0018B9FF00D1124EC5920
:1088F000F84F82859385A485B58580179107A207D7
:10890000B30774F424968CAD9DADAEADBFAD249786
:1089100080179107A207B30774F4D901C80111C0E9
:1089200024960CAD1DAD2EAD3FAD24970817190749
:108930002A073B0734F024968CAD9DADAEADBFAD9C
:1089400024972FE409A51AA5209FF001219FF00D7F
:108950001124EC59F84F828B938BA48BB58B06971F
:10896000A105B10510F40C94544EDF01A95BBF4F73
:108970008091D4069091D50611969C938E93129671
:108980008091D6069091D7068D939C931BA5118359
:10899000452B462B472B09F08D988FE409A51AA586
:1089A000809FF001819FF00D1124EC59F84F8681D2
:1089B0009781A085B185892B8A2B8B2B09F0A598EF
:1089C0008FE409A51AA5809FF001819FF00D112465
:1089D000EC59F84F82859385A485B585892B8A2B20
:1089E0008B2B09F0759824962CAD3DAD4EAD5FAD47
:1089F0002497232B242B252B81F180910607882394
:108A000019F081508093060780910707882319F099
:108A10008150809307070BA5002319F0013059F00E
:108A200013C0179880E28093060780910707811191
:108A30000BC0149A09C0149880E2809307078091B4
:108A40000607811101C0179A2090D0063090D106F8
:108A50001091D2060091D30608C02090CC06309029
:108A6000CD061091CE060091CF069101412F502FD7
:108A70006FA97FAD27968FAD27972B969FAD2B972C
:108A80000E9472C087FD02C00C944A4EC701B60115
:108A90000E9479C020912B0730912C0740912D071F
:108AA00050912E070E94D8C02B013C01698B7A8B14
:108AB0008B8B9C8B6FA578A989A99AA90E9479C0F4
:108AC00020912F07309130074091310750913207A4
:108AD0000E94D8C06FAB78AF89AF9AAF6D8B7E8B99
:108AE0008F8B988F6BA97CA98DA99EA90E9479C0B4
:108AF0002091330730913407409135075091360764
:108B00000E94D8C06B017C01698F7A8F8B8F9C8FFC
:108B1000EBADFCADE55DF84F2081318142815381A1
:108B2000C501B4010E94D8C06D8F7E8F8F8F98A32E
:108B30002FE449A55AA5249FF001259FF00D11248B
:108B4000EC59F84F22813381448155812FA738ABEE
:108B500049AB5AAB2630310541055105E4F4868016
:108B60009780A084B18436E083169104A104B104F7
:108B700094F482849384A484B58446E0841691049A
:108B8000A104B10444F4DC01CB01BF7787A790AB0B
:108B9000A1ABB2AB34C0A3019201C301B2010E94E8
:108BA000D8C02B013C012FA938AD49AD5AADCA013F
:108BB000B9010E94D8C09B01AC01C301B2010E945F
:108BC00046B84B015C01A7019601C701B6010E949E
:108BD000D8C09B01AC01C501B4010E9446B80E94F7
:108BE00014BB2FE4A9A5BAA52A9FF0012B9FF00D75
:108BF0001124EC59F84F67A770AB81AB92AB2FE40F
:108C0000E9A5FAA52E9FC0012F9F900D11249C016C
:108C10002C59384F7901D9019F968D919D910D90D6
:108C2000BC91A02D6E968CAF9DAFAEAFBFAF6E97CF
:108C30009C01AD0160E070E080E89FE30E9440B9D4
:108C40002A966CAF7DAF8EAF9FAF2A979B01AC0188
:108C5000B101812F902F0E94D8C04B015C018091FF
:108C60009A0E90919B0E891B8F7067968FAF6797B6
:108C7000A50194016E966CAD7DAD8EAD9FAD6E97E6
:108C80000E94D8C02E966CAF7DAF8EAF9FAF2E974F
:108C9000F70163A374A385A396A30289138924898A
:108CA00035890BAB1CAB2DAB3EABC901B8010E94A3
:108CB00077C06BAF7CAF8DAF9EAFA50194010E94D2
:108CC000D8C00E9424B90E94B9B962966CAF7DAF3A
:108CD0008EAF9FAF6297F70167AB70AF81AF92AF76
:108CE00010E0212C312C00E80FAB0FE30FAF0BA5E8
:108CF0000D5F0BA7EE24E394F12CEC0EFD1E24E097
:108D0000129FE00CF11C1124D70150962D913D913A
:108D10004D915C915397C501B4010E94D8C0F701F1
:108D200060837183828393836B017C01E894F7F8FD
:108D3000133009F41BA504E0109FF0011124E8543E
:108D4000F94F4080518062807380A3019201C70176
:108D5000B6010E94C6BA1816B4F4A7019601C30161
:108D6000B2010E9440B97B01082FD92E9B01482FE8
:108D7000592FB1018FA99FAD0E94C6BA18161CF4D5
:108D800017010FABDFAE1F5F143008F4B3CF20E044
:108D900030E040E85FE3B1018FA99FAD0E9472C04F
:108DA00087FF4AC08E010F5F1F4F7E0121E1E20E57
:108DB000F11C91014FA95FADD8016D917D918D910D
:108DC0009C910E94D8C0F801619371938193919313
:108DD0008F01EE15FF0569F78FE429A53AA5829F5B
:108DE0008001839F100D11240C59184F91014FA938
:108DF0005FAD2E966CAD7DAD8EAD9FAD2E970E9472
:108E0000D8C0D80193966D937D938D939C9396973C
:108E100062966CAD7DAD8EAD9FAD62970E9477C0BE
:108E200091014FA95FAD0E94D8C00E94B9B9F80165
:108E300067AB70AF81AF92AF2A962CAD3DAD4EAD12
:108E40005FAD2A976BAD7CAD8DAD9EAD0E94D8C055
:108E50006BA77CA78DA79EA70FA518A929A93AA93A
:108E6000012B022B032B59F58FE409A51AA5809F2E
:108E7000F001819FF00D1124EC59F84F8681978104
:108E8000A085B185892B8A2B8B2BC9F4828593858C
:108E9000A485B585892B8A2B8B2B89F42091B40668
:108EA0003091B5064091B6065091B7066BA57CA5EA
:108EB0008DA59EA50E94D8C00E9424B941C22496C7
:108EC0002CAD3DAD4EAD5FAD2497232B242B252B30
:108ED00049F06091B0067091B1068091B206909110
:108EE000B30608C06091AC067091AD068091AE06E5
:108EF0009091AF062BA53CA54DA55EA50E94D8C0BC
:108F00000E9424B90E94B9B96B017C0180910807C5
:108F100090910907A0910A07B0910B070BA91CA912
:108F20002DA93EA980179107A207B30708F4EFC047
:108F30002FA538A949A95AA9232B242B252B61F148
:108F40002091DA063091DB064091DC065091DD0677
:108F50002C153D054E055F05F8F46BA97CA98DA97C
:108F60009EA90E9456C44B015C01A70196016FA502
:108F700078A989A99AA90E9456C486169706A806B8
:108F8000B90650F4C501B4012FA538A949A95AA9B9
:108F90000E9466C469017A018FE409A51AA5809F21
:108FA000F001819FF00D1124EC59F84F86809780D5
:108FB000A084B18481149104A104B10441F12091F1
:108FC000DE063091DF064091E0065091E1062C1557
:108FD0003D054E055F05D8F46BA97CA98DA99EA916
:108FE0000E9456C42B013C01A7019601C501B401A2
:108FF0000E9456C4461657066806790640F4C30117
:10900000B201A50194010E9466C469017A018FE44E
:1090100009A51AA5809FF001819FF00D1124EC593C
:10902000F84F82849384A484B58481149104A104AC
:10903000B10441F12091E2063091E3064091E4064B
:109040005091E5062C153D054E055F05D8F46BA93A
:109050007CA98DA99EA90E9456C42B013C01A701A1
:109060009601C501B4010E9456C44616570668060B
:10907000790640F4C301B201A50194010E9466C4BF
:1090800069017A018FE409A51AA5809FF001819FEB
:10909000F00D1124EC59F84F86849784A088B1888C
:1090A00081149104A104B10409F44EC12696EEADD9
:1090B000FFAD2697EE0FFF1FEE0FFF1FE652F94F91
:1090C00020813181428153812C153D054E055F057C
:1090D00008F03AC16BA97CA98DA99EA90E9456C42B
:1090E0002B013C01A7019601C501B4010E9456C4A1
:1090F000461657066806790608F026C1C301B20174
:10910000A50194010E9466C469017A011DC12FA5C1
:1091100038A949A95AA9232B242B252BB9F16091F1
:10912000DA067091DB068091DC069091DD066C1505
:109130007D058E059F0550F50E9477C02BAD3CAD97
:109140004DAD5EAD0E94D8C04B015C016FA578A902
:1091500089A99AA90E9479C02B013C01C701B601D7
:109160000E9477C0A30192010E94D8C0A50194017A
:109170000E94C6BA181654F4A3019201C501B401A5
:109180000E9440B90E94B9B96B017C018FE409A526
:109190001AA5809FF001819FF00D1124EC59F84F22
:1091A00046805780608471844114510461047104C5
:1091B000A9F16091DE067091DF068091E006909142
:1091C000E1066C157D058E059F0540F50E9477C070
:1091D0002BAD3CAD4DAD5EAD0E94D8C04B015C01E6
:1091E000C301B2010E9479C02B013C01C701B60145
:1091F0000E9477C0A30192010E94D8C0A5019401EA
:109200000E94C6BA181654F4A3019201C501B40114
:109210000E9440B90E94B9B96B017C018FE409A595
:109220001AA5809FF001819FF00D1124EC59F84F91
:10923000428453846484758441145104610471042C
:10924000A9F16091E2067091E3068091E4069091A5
:10925000E5066C157D058E059F0540F50E9477C0DB
:109260002BAD3CAD4DAD5EAD0E94D8C04B015C0155
:10927000C301B2010E9479C02B013C01C701B601B4
:109280000E9477C0A30192010E94D8C0A501940159
:109290000E94C6BA181654F4A3019201C501B40184
:1092A0000E9440B90E94B9B96B017C018FE409A505
:1092B0001AA5809FF001819FF00D1124EC59F84F01
:1092C00086849784A088B18881149104A104B10494
:1092D000D9F12696EEADFFAD2697EE0FFF1FEE0FEC
:1092E000FF1FE652F94F60817181828193816C1575
:1092F0007D058E059F0540F50E9477C02BAD3CADE6
:109300004DAD5EAD0E94D8C02B013C01C501B4013A
:109310000E9479C04B015C01C701B6010E9477C071
:10932000A50194010E94D8C0A30192010E94C6BA6F
:10933000181654F4A5019401C301B2010E9440B96A
:109340000E94B9B96B017C018FE429A53AA5829FDF
:109350008001839F100D11240C59184FF801ED5B0B
:10936000FF4FC082D182E282F382C701B6010E9420
:1093700077C06B017C012BA53CA54DA55EA50E9485
:1093800040B9A5966CAF7DAF8EAF9FAFA597D801C2
:10939000D3966D937D938D939C93D69720E030E088
:1093A00040E85BE4C701B6010E94D8C020E034E287
:1093B00044EF59E40E9440B90E94B2B9F801668FA7
:1093C000778F80A391A3F3A1FBA7D8019496BC91BA
:1093D0002196BFAF2197F801F5A1FFA7D801969676
:1093E000BC91BBAB8E010F5F1F4FA0961FAF0EAF9E
:1093F000A0970CE916E0A8961FAF0EAFA8972E0114
:1094000011E1410E511C3CE9232E36E0332EA0968B
:109410006EAC7FACA0970BA50BAF21961FAD21972B
:109420001FABFFAF2596BFAF259710E0D3018D90FE
:109430009D90AD90BD903D01E894B7F8F101C190C9
:10944000D190E190F1901F01A7019601C501B401EF
:109450000E94C6BA181694F5112349F12BA521963E
:109460003FAD21974FA55BA9C701B6010E94D8C0A7
:109470006B017C012BAD3FA94FAD25965FAD2597C4
:10948000C501B4010E94D8C0A70196010E94C6BAC6
:1094900018169CF4A5019401C701B6010E9440B9B9
:1094A0006BAF7FAB8FAF25969FAF259706C0CBAE36
:1094B000DFAAEFAE2596FFAE259711E06414750480
:1094C00009F0B4CF67960FAD6797023008F47AC100
:1094D0003090760E2090770E1091780E0091790ED4
:1094E00027E137EB41ED58E3632D722D812F902F4B
:1094F0000E94C6BA18160CF065C121E0A6962FAFDF
:10950000A6972BA521963FAD21974FA55BA9632D6B
:10951000722D812F902F0E94C6BA1816B4F0A6960D
:109520001FAEA6972BA521963FAD21974FA55BA90E
:10953000632D722D812F902F0E9440B96A966CAFD7
:109540007DAF8EAF9FAF6A9718C0232D322D412F6C
:10955000502F6BA521967FAD21978FA59BA90E94C7
:1095600040B96A966CAF7DAF8EAF9FAF6A973BA450
:1095700021962FAC21971FA50BA94AE75EE06096C4
:109580005FAF4EAF609780E090E0A0E8BFE32A961F
:109590008CAF9DAFAEAFBFAF2A972B961FAE2B9768
:1095A0006096AEADBFAD6097CD90DD90ED90FD9033
:1095B0006096BFAFAEAF6097A096EEADFFADA0973F
:1095C00081909190A190B190A096FFAFEEAFA0973F
:1095D000A696FFADA697FF2361F06A962CAD3DAD30
:1095E0004EAD5FAD6A97C701B6010E94D8C06B014E
:1095F0007C012B962FAD2B972223C1F02A962CAD00
:109600003DAD4EAD5FAD2A97C701B6010E94D8C0EF
:109610006B017C012A962CAD3DAD4EAD5FAD2A9716
:10962000C501B4010E94D8C04B015C01A5019401A1
:10963000C701B6010E94C6BA20E030E0A9011816A1
:109640002CF5C501B4010E94C6BA18164CF020E0F2
:1096500030E0A901C701B6010E9472C087FF05C0B2
:10966000A5019401C701B60124C02401350177FA90
:10967000709477F87094A3019201C701B6010E941B
:10968000C6BA18165CF52601370128C0C501B40119
:109690000E9472C087FD09C020E030E0A901C70127
:1096A000B6010E94C6BA18164CF4A7019601C5016E
:1096B000B4010E9445B82B013C0110C026013701BE
:1096C00077FA709477F87094A5019401C301B20100
:1096D0000E94C6BA181614F024013501A896AEAD42
:1096E000BFADA897CD90DD90ED90FD90A896BFAF4F
:1096F000AEAFA897A7019601C301B2010E94C6BAF6
:109700001816ECF4A3019201C701B6010E9440B9FA
:109710009B01AC012A966CAD7DAD8EAD9FAD2A97B5
:109720000E94D8C02A966CAF7DAF8EAF9FAF2A97AC
:109730002B96BFAD2B97BF5F2B96BFAF2B97609635
:10974000EEADFFAD6097EA58FE4009F029CF2B96A9
:109750003FAD2B97332381F02A962CAD3DAD4EAD16
:109760005FAD2A97632D722D812F902F0E94D8C054
:10977000362E272E182F092F24EA30E74DE75FE316
:10978000632D722D812F902F0E94D8C06B017C0118
:109790009B01AC016091020770910307809104075F
:1097A000909105070E94C6BA1816FCF4A70196010D
:1097B0006BAD7FA98FAD25969FAD25970E94C6BA48
:1097C00018169CF48FE409A51AA5809FF001819FCB
:1097D000F00D1124EC59F84F8081846080833BACFC
:1097E0002FA81FAD25960FAD25978FE429A53AA583
:1097F000829FF001839FF00D1124EC59F84F832DC7
:10980000922DA12FB02F83A794A7A5A7B6A7A596A1
:109810006CAD7DAD8EAD9FADA59790589B01AC0111
:109820000E9446B86E962CAD3DAD4EAD5FAD6E97C5
:109830000E94D8C09B01AC016BE077ED83E29BE313
:109840000E9445B80E9414BB6B017C019B01AC01D6
:10985000632D722D812F902F0E9472C087FD04C04E
:109860003C2C2D2C1E2D0F2D8FE449A55AA5849F2D
:10987000F001859FF00D1124EC59F84F832D922DA6
:10988000A12FB02F87A390A7A1A7B2A7B080960160
:10989000A7016BA521967FAD21978FA59BA90E945B
:1098A00072C0181614F481E001C083E09FE4A9A5FA
:1098B000BAA59A9F90019B9F300D1124F901EC5994
:1098C000F84F7F01B82AB08280E1FE013196AAE705
:1098D000BEE001900D928A95E1F78BA521969FAD90
:1098E0002197AFA5BBA98093760E9093770EA09396
:1098F000780EB093790E8BAD9FA9AFAD2596BFAD15
:1099000025978093020790930307A0930407B093D1
:1099100005072BA521963FAD21974FA55BA9BC015B
:10992000CD010E9440B96DA37EA38FA398A72BA55C
:1099300021963FAD21974FA55BA9632D722D812FF5
:10994000902F0E9440B969A37AA38BA39CA3AE0178
:109950004B5D5F4FBE016F5D7F4FC7010E94B578C1
:10996000A1960FADA19700939A0EAC962CAD3DAD8C
:109970004EAD5FADAC9720938A0E30938B0E409323
:109980008C0E50938D0EE0968CAD9DADAEADBFADFF
:10999000E09780938E0E90938F0EA093900EB093CD
:1099A000910EE4960CAD1DAD2EAD3FADE497009346
:1099B000920E1093930E2093940E3093950E66960C
:1099C0002CAD3DAD4EAD5FAD66972093960E3093B6
:1099D000970E4093980E5093990E80919A0E909105
:1099E0009B0E891B8F70843048F410919B0EF12CD4
:1099F00000E080E090E02FE4E22E9EC040909B0EBD
:109A000080919A0E83508F70F82EA12CB12C00E01B
:109A100010E09FE4592EF41441F30115110521F0D3
:109A2000D8018C9182FDE1CF8FEF8F0D8F70F82ED2
:109A3000589EC0011124FC01EC59F84FFAA7E9A780
:109A40000115110509F474C0A114B10409F470C022
:109A5000D8019B967C909B979C96CC909C979D96CA
:109A6000DC909D979E96EC909E97272D3C2D4D2D3A
:109A70005E2D97966D917D918D919C919A970E9404
:109A800072C0882309F454C0F801608061FC42C0B0
:109A9000D50197968D909D90AD90BC909A97A50119
:109AA0009401672D7C2D8D2D9E2D0E9472C018165D
:109AB0008CF5A5019401C501B4010E94D8C04B01E9
:109AC0005C01F80183A994A9A5A9B6A9BC01CD019F
:109AD00090589B01AC010E9446B8D8019F962D91E9
:109AE0003D914D915C91D2970E94D8C09B01AC01F1
:109AF000C501B4010E9445B80E9414BB1B015C0162
:109B00009B01AC01672D7C2D8D2D9E2D0E9472C076
:109B100087FF04C0272C3C2CAD2CBE2CC101D501E5
:109B2000F80187A390A7A1A7B2A7862D81608083A3
:109B3000580109A51AA56FCF20919A0E121791F01E
:109B4000E19E90011124A9014C59584F6A016F2DD3
:109B5000702F0E94523F1F5F1F708F2D902FFC2C83
:109B60000D2DEACF6F2D702F0E94523FF0909B0E6B
:109B700000E010E08FE4E82E4F2D0F2C000C550B69
:109B800080919A0E90E04817590709F44DC0E49E61
:109B9000C001E59E900D1124DC01AC59B84F6D0158
:109BA00001151105D9F1F801808180FD03C08C9168
:109BB00080FF34C0D80193968D909D90AD90BC905D
:109BC0009697E49EF001E59EF00D1124EC59F84FB4
:109BD000A501940167A170A581A592A50E9440B935
:109BE00069A37AA38BA39CA3A5019401F80167A1A3
:109BF00070A581A592A50E9440B96DA37EA38FA3F5
:109C000098A7AE014F5D5F4FBE016B5D7F4FC801EE
:109C10000E94B578D8018C918E7F8C9381E08F0D56
:109C20008F70F82E8601A8CF0115110569F1F80192
:109C3000C3A0D4A0E5A0F6A0A70196016DEC7CEC32
:109C40008CE49DE30E9440B969A37AA38BA39CA3F3
:109C5000A7019601D80197966D917D918D919C9168
:109C60009A970E9440B96DA37EA38FA398A7AE01D7
:109C70004F5D5F4FBE016B5D7F4FC8010E94B5789D
:109C8000F80180818E7F808380916F008260809355
:109C90006F000AC02FA83FAC27961FAD27972B96C1
:109CA0000FAD2B970C944645CD58DF4F0FB6F89467
:109CB000DEBF0FBECDBFDF91CF911F910F91FF90FF
:109CC000EF90DF90CF90BF90AF909F908F907F905C
:109CD0006F905F904F903F902F9008954F925F92BA
:109CE0006F927F928F929F92AF92BF92CF92DF92AC
:109CF000EF92FF92CF93DF9320919A06222309F4EB
:109D00005DC0EC01C0909606D0909706E090980652
:109D1000F090990620E030E0A901C701B6010E9449
:109D200072C08823A1F0209123073091240740912D
:109D3000250750912607688579858A859B850E942D
:109D400045B8A70196010E94C6BA87FF37C0CE0169
:109D50000E942EA74B015C01C0909606D0909706FA
:109D6000E0909806F09099062091230730912407FF
:109D70004091250750912607688579858A859B85BE
:109D80000E9445B8A50194010E9445B89B01AC0111
:109D9000C701B6010E94D8C02B013C01A501940166
:109DA000C701B6010E9445B89B01AC01C301B201D5
:109DB0000E9440B9688779878A879B87DF91CF9116
:109DC000FF90EF90DF90CF90BF90AF909F908F90DB
:109DD0007F906F905F904F900895EF92FF921F9346
:109DE000CF93DF931F92CDB7DEB7182FE6E0F0E1F7
:109DF00084917F012FEFE21AF20A882331F09983D0
:109E00000E946E35F7019981F3CFE12FF92F8491EC
:109E10007F019FEFE91AF90A882321F00E946E352D
:109E2000F701F5CFEDEEFFE084917F012FEFE21A0D
:109E3000F20A882321F00E946E35F701F5CF0F90CA
:109E4000DF91CF911F91FF90EF9008952F923F9255
:109E50004F925F926F927F928F929F92AF92BF923A
:109E6000CF92DF92EF92FF920F931F93CF93DF93E6
:109E7000CDB7DEB7E9970FB6F894DEBF0FBECDBF02
:109E800081E50E947633F82E0091D8061091D9060C
:109E9000882331F0C80180629093D9068093D80658
:109EA0008091D80685FF0AC04AE55EE06EEF70E15A
:109EB00080E191E10E94B5380E94A36011271093C0
:109EC000D9060093D806F1109CC583E40E9476332E
:109ED0008B8F882319F00E942A348B8F0E94349133
:109EE00081118FC520919A06298F87E50E947633CC
:109EF000882309F450C18091A50C9091A60C892B60
:109F0000C9F4E1E7F2E184918F010F5F1F4F8823CD
:109F100021F00E946E35F801F6CFECEEF0E184916D
:109F20008F010F5F1F4F882309F46BC50E946E35A8
:109F3000F801F5CF8AE50E947633811103C0E1E78D
:109F4000F2E11BC00E9404348823C9F30E94D0337D
:109F50004B015C0120E030E040E251EC0E94C6BAC7
:109F600087FDEDCF20E030E040E251E4C501B401CF
:109F70000E9472C018161CF317C084918F010F5FE6
:109F80001F4F882321F00E946E35F801F6CFEFEDC8
:109F9000F0E184918F010F5F1F4F882309F431C5D1
:109FA0000E946E35F801F5CF88E50E94763388234C
:109FB00049F00E940434882329F00E94D0332B01F9
:109FC0003C0108C060E8462E6FE4562E63EC662E16
:109FD00067E4762E89E50E947633882349F00E9453
:109FE0000434882329F00E94D0336B017C0108C01F
:109FF00050E8C52E5FE4D52E53ECE52E57E4F52E40
:10A0000089E40E947633882341F00E940434882337
:10A0100021F00E948933182F01C01FEF8AE40E94AB
:10A020007633882341F00E940434882321F00E9473
:10A030008933082F01C00FEF20E03FE443EC57E4E1
:10A04000C301B2010E9472C087FF86C020E03FE4D6
:10A0500043EC57E4C701B6010E9472C087FF7CC081
:10A060006091A10C7091A20C072E000C880B990B2B
:10A070000E9479C020911B0730911C0740911D0759
:10A0800050911E070E9446B89B01AC01C301B2016A
:10A090000E9445B86D8B7E8B8F8B988F20E030E0CF
:10A0A00040E05FE3412C512C3201C301B2010E9418
:10A0B000D8C09B01AC016D897E898F89988D0E94E3
:10A0C00046B8A30192010E9440B90E94B2B9162F6E
:10A0D0006091A30C7091A40C072E000C880B990BB7
:10A0E0000E9479C020911F073091200740912107DD
:10A0F000509122070E9446B89B01AC01C701B601EE
:10A100000E9445B82B013C0120E030E040E05FE3D5
:10A11000C12CD12C7601C701B6010E94D8C09B0189
:10A12000AC01C301B2010E9446B8A70196010E948A
:10A1300040B90E94B2B917FD06C017300CF016E006
:10A1400067FF04C008C067FD59C410E0062F6730E0
:10A150001CF006E001C000E0173008F052C40830DF
:10A1600008F04FC480E00E949F5737E01302F001CF
:10A170001124E00FF11D07FDFA95EE0FFF1FEE0F02
:10A18000FF1FE359F24F80829182A282B382898DB0
:10A190000E949F5736C48AE40E947633882319F0C0
:10A1A0000E94E1572EC486E50E947633882349F049
:10A1B0000E940434882329F00E94B8339D8F8C8F2D
:10A1C00002C01D8E1C8E8C8D9D8D059768F0E7EB6F
:10A1D000F0E184918F010F5F1F4F882309F411C4B0
:10A1E0000E946E35F801F5CF84E40E94763388230F
:10A1F00021F00E942A348D8B01C01D8A8AE50E94BD
:10A200007633882339F00E94D0336BA37CA38DA3CF
:10A210009EA304C01BA21CA21DA21EA283E50E9435
:10A220007633882349F00E94D03320E030E040E7C5
:10A2300052E40E9440B904C060E070E088E492E417
:10A2400060933D0270933E0280933F0290934002E0
:10A250008CE40E947633882319F00E94D0330EC01C
:10A2600020E030E048E453E460911B0770911C0744
:10A2700080911D0790911E070E9445B80E94B2B9B7
:10A280001B0182E50E947633882319F00E94D033A7
:10A290000EC020E030E048E453E460911B07709169
:10A2A0001C0780911D0790911E070E9446B80E94CE
:10A2B000B2B97C8B6B8B86E40E947633882319F0CD
:10A2C0000E94D0330EC020E030E04CE053E46091B7
:10A2D0001F077091200780912107909122070E940B
:10A2E00046B80E94B2B93B0182E40E9476338823CB
:10A2F00019F00E94D0330EC020E030E048EC53E467
:10A3000060911F077091200780912107909122078B
:10A310000E9446B80E94B2B92B01B101032C000C77
:10A32000880B990B0E9479C06E8F7F8F88A399A3A9
:10A33000C0901B07D0901C07E0901D07F0901E07EF
:10A3400020E030E048EC53E4C701B6010E9445B874
:10A350009B01AC016E8D7F8D88A199A10E9472C076
:10A3600087FD0AC091E09A8F8B899C8909972816EE
:10A37000390624F41A8E02C0A1E0AA8FEB89FC8969
:10A38000BF01FF0F880B990B0E9479C04B015C0144
:10A3900020E030E048EC53E4C701B6010E9446B823
:10A3A0009B01AC01C501B4010E94C6BA01E01816B8
:10A3B00044F0C10109962B893C89821793070CF45C
:10A3C00000E0B301072C000C880B990B0E9479C0A8
:10A3D0004B015C01C0901F07D0902007E09021073F
:10A3E000F090220720E030E0A901C701B6010E94E9
:10A3F00046B89B01AC01C501B4010E9472C011E0D6
:10A4000087FD06C0C2010997681679060CF410E0B2
:10A41000B201052C000C880B990B0E9479C06F8744
:10A42000788B898B9A8B20E030E048EC53E4C701AD
:10A43000B6010E9446B89B01AC016F857889898975
:10A440009A890E94C6BAFF24F394181634F0C30107
:10A450000996841595050CF4F12C3A8D31110CC038
:10A46000002329F088EA90E10E94ED4E0BC0111103
:10A4700009C0F1100DC014C080EB90E10E94ED4EB8
:10A480000111F0CF112321F080EA90E10E94ED4EFE
:10A49000FF2009F4B6C289E990E10E94ED4EB1C2F5
:10A4A0008C8D9D8D892BD9F0E2E8F0E184918F01AC
:10A4B0000F5F1F4F882321F00E946E35F801F6CF01
:10A4C0009D89992361F0E9E6F0E184918F010F5FA6
:10A4D0001F4F882321F00E946E35F801F6CF0E94AD
:10A4E00005A210929A06AD89A11106C084E690E0FB
:10A4F0000E9404A70E94D538BB8DB11102C00E94F2
:10A50000FA5981E00E94235D882321F0E98DE093D0
:10A510009A0677C28B899C898219930936E0E32ECB
:10A52000F12CB7010E9418B88B01072E000C880B84
:10A53000990B0E9479C06FA378A789A79AA7C20137
:10A5400086199709B7010E9418B87B01072E000CE5
:10A55000880B990B0E9479C06BA77CA78DA79EA73B
:10A560006091A50C7091A60C072E000C880B990B1E
:10A570000E9479C09B01AC016FA178A589A59AA51D
:10A580000E9472C081114EC06091A70C7091A80CFE
:10A59000072E000C880B990B0E9479C09B01AC011F
:10A5A0006BA57CA58DA59EA50E9472C081113AC0A5
:10A5B0006091A10C7091A20C072E000C880B990BD6
:10A5C0000E9479C020911B0730911C0740911D0704
:10A5D00050911E070E9446B89B01AC016E8D7F8D85
:10A5E00088A199A10E9472C081111CC06091A30C26
:10A5F0007091A40C072E000C880B990B0E9479C057
:10A6000020911F0730912007409121075091220788
:10A610000E9446B89B01AC01C501B4010E9472C002
:10A620008823B9F1FD89FF2319F0298D20939A061B
:10A630000E94E1571093A60C0093A50CF092A80C71
:10A64000E092A70C20911B0730911C0740911D0739
:10A6500050911E076E8D7F8D88A199A10E9445B8EB
:10A660000E94B2B97093A20C6093A10C20911F07B5
:10A67000309120074091210750912207C501B40174
:10A680000E9445B80E94B2B97093A40C6093A30CC9
:10A69000198E85E40E9476338FA731E03AA31C8A95
:10A6A0001B8A41E04F8787E08A8F312CDE011196AB
:10A6B000BE87AD874AA181E048274AA38B899C8940
:10A6C000092E000CAA0BBB0B88AB99ABAAABBBAB9A
:10A6D00027E0EB89FC892E9FD0012F9FB00D11241C
:10A6E000BDABACAB2A8D321609F4D2C068A979A9EA
:10A6F0008AA99BA90E9479C09B01AC016FA178A592
:10A7000089A59AA50E94D8C09B01AC016E8D7F8D52
:10A7100088A199A10E9446B82B013C01632D032C0E
:10A72000000C770B880B990B0E9479C09B01AC0140
:10A730006BA57CA58DA59EA50E94D8C09B01AC01F0
:10A74000C501B4010E9446B86B017C0120E030E0F5
:10A75000A901C301B2010E9472C087FD05C020E0BB
:10A7600030E040E05FE303C020E030E0A901C30136
:10A77000B2010E9446B80E94E8B92B013C0120E0DA
:10A7800030E0A901C701B6010E9472C087FD05C073
:10A7900020E030E040E05FE303C020E030E0A901CA
:10A7A000C701B6010E9446B80E94E8B99B01AC01FE
:10A7B0008B899C89039731F496E0391203C0A1E09C
:10A7C000A0934F10ED85FE858CE011928A95E9F7F4
:10A7D00049825A826B827C822D833E834F835887C5
:10A7E00061E0CE0101962EAB3FAB48AF59AF0E945E
:10A7F00093712EA93FA948AD59AD882309F445C0EE
:10A800009B8D992399F069EC70E080E090E00E94C4
:10A810001B5564567109810991090E9479C02FE680
:10A8200032E143E85AE30E94D8C007C0EC8CFD8CAB
:10A830000FA5C301B2010E94835D6B017C019B01E6
:10A84000AC010E9458BB882321F0A98DA0939A06E1
:10A85000D8C00CA91DA9030D111D37FC1A95000FB6
:10A86000111F000F111F0359124F2BA13CA14DA125
:10A870005EA1C701B6010E9446B8F80160837183EA
:10A88000828393830E94C785198EFF853F0E2ACF4E
:10A890008B899C8901969C8B8B8B079781F0BAA141
:10A8A000B11107C0EFEFEF87FFEFFA8F26E0322EEE
:10A8B00001CF21E02F8737E03A8F312CFBCE80E0AB
:10A8C0000E94235D882321F0998D90939A0699C068
:10A8D000AB8DA11102C00E94D4598091D80685FF8A
:10A8E00008C04AE55EE06EE370E185E590E10E9414
:10A8F000B538BD89B11124C013E086E0E82E03E02D
:10A90000FE2CF11ADE2CD01A21E041E0602F812FBD
:10A910000E94B4B421E04FEF602F8F2D0E94B4B499
:10A920002FEF41E06D2D812F0E94B4B42FEF4FEF38
:10A930006D2D8F2D0E94B4B4015020F71150F8F600
:10A940000E9487B60E944878ED89E11138C0809155
:10A95000D80685FF0FC04091620E5091630E609142
:10A96000640E7091650E8BE290E10E94C83F8AE010
:10A970000E946E358AE59EE00E942EA79B01AC01E5
:10A980006091620E7091630E8091640E9091650EDD
:10A990000E9445B8AB01BC014093620E5093630E18
:10A9A0006093640E7093650E8091D80685FF07C092
:10A9B0008DE190E10E94C83F8AE00E946E3580914F
:10A9C000D80685FF0CC0EEE0F0E184918F010F5FA7
:10A9D0001F4F882321F00E946E35F801F6CF0E94A8
:10A9E000968AFD89FF2311F0898D01C081E0809353
:10A9F0009A06882331F00E94D53803C000E010E0A9
:10AA0000B1CBE9960FB6F894DEBF0FBECDBFDF9194
:10AA1000CF911F910F91FF90EF90DF90CF90BF905B
:10AA2000AF909F908F907F906F905F904F903F90EE
:10AA30002F9008950895CF93DF9300D01F92CDB744
:10AA4000DEB7611571058105910579F09B01AC01B7
:10AA500069833A834B835C830E941ABC29813A81C3
:10AA60004B815C810E9488C403C060E070E0CB0130
:10AA70000F900F900F900F90DF91CF9108951F923C
:10AA80000F920FB60F9211240BB60F922F933F9394
:10AA90004F935F936F937F938F939F93AF93BF93E6
:10AAA000EF93FF93E0915402F09155021995FF91B5
:10AAB000EF91BF91AF919F918F917F916F915F9136
:10AAC0004F913F912F910F900BBE0F900FBE0F90A3
:10AAD0001F9018951F920F920FB60F9211240BB66C
:10AAE0000F922F933F934F935F936F937F938F9327
:10AAF0009F93AF93BF93EF93FF93E0915202F09136
:10AB000053021995FF91EF91BF91AF919F918F9152
:10AB10007F916F915F914F913F912F910F900BBE5D
:10AB20000F900FBE0F901F9018951F920F920FB6A7
:10AB30000F9211240BB60F922F933F934F935F9375
:10AB40006F937F938F939F93AF93BF93EF93FF93F5
:10AB5000E0914802F09149021995FF91EF91BF9160
:10AB6000AF919F918F917F916F915F914F913F91A5
:10AB70002F910F900BBE0F900FBE0F901F90189546
:10AB80001F920F920FB60F9211240BB60F922F93B4
:10AB90003F934F935F936F937F938F939F93AF9365
:10ABA000BF93EF93FF93E0914602F091470219950E
:10ABB000FF91EF91BF91AF919F918F917F916F9195
:10ABC0005F914F913F912F910F900BBE0F900FBE51
:10ABD0000F901F9018951F920F920FB60F9211248D
:10ABE0000BB60F922F933F934F935F936F937F9387
:10ABF0008F939F93AF93BF93EF93FF93E091500296
:10AC0000F09151021995FF91EF91BF91AF919F91F2
:10AC10008F917F916F915F914F913F912F910F9005
:10AC20000BBE0F900FBE0F901F9018951F920F92A2
:10AC30000FB60F9211240BB60F922F933F934F93A1
:10AC40005F936F937F938F939F93AF93BF93EF9394
:10AC5000FF93E0914E02F0914F021995FF91EF9111
:10AC6000BF91AF919F918F917F916F915F914F9124
:10AC70003F912F910F900BBE0F900FBE0F901F9022
:10AC800018951F920F920FB60F9211240BB60F92C8
:10AC90002F933F934F935F936F937F938F939F93E4
:10ACA000AF93BF93EF93FF93E0914C02F0914D026D
:10ACB0001995FF91EF91BF91AF919F918F917F91E6
:10ACC0006F915F914F913F912F910F900BBE0F901D
:10ACD0000FBE0F901F9018951F920F920FB60F92F4
:10ACE00011240BB60F922F933F934F935F936F9363
:10ACF0007F938F939F93AF93BF93EF93FF93E091D5
:10AD00004A02F0914B021995FF91EF91BF91AF91DB
:10AD10009F918F917F916F915F914F913F912F9173
:10AD20000F900BBE0F900FBE0F901F9018951F92A3
:10AD30000F920FB60F9211240BB60F922F933F93E1
:10AD40004F935F936F937F938F939F93AF93BF9333
:10AD5000EF93FF9380910F0790911007A091110737
:10AD6000B0911207892B8A2B8B2B59F180910E07FA
:10AD7000E0910C07F0910D079081892780838091E5
:10AD80000F0790911007A0911107B09112071816A4
:10AD900019061A061B060CF056C080910F079091F9
:10ADA0001007A0911107B09112070197A109B109ED
:10ADB00080930F0790931007A0931107B093120789
:10ADC00042C080914102E9E4F2E1E4919FEF909367
:10ADD0004102E230C9F050F4EE2399F0E13081F500
:10ADE00090916F009D7F90936F002AC0E43019F11D
:10ADF000E0F0E53029F5909173009D7F909373000A
:10AE00001FC010926E001CC0909170009D7F9093A7
:10AE1000700091E09093B0009091B100987F9460A1
:10AE20009093B1001092B3000BC0909171009D7F80
:10AE30009093710005C0909172009D7F9093720075
:10AE400060E00E94B48DFF91EF91BF91AF919F910F
:10AE50008F917F916F915F914F913F912F910F90C3
:10AE60000BBE0F900FBE0F901F901895CF92DF92E0
:10AE7000EF92FF926B017C0183E3C816D104E104D9
:10AE8000F10470F082E3C81AD108E108F10862E326
:10AE900070E080E090E00E94088F0E940FA1ECCF4C
:10AEA000C701B6010E94088FFF90EF90DF90CF900E
:10AEB0000C940FA1CF92DF92EF92FF926B017C0175
:10AEC00060939606709397068093980690939906E0
:10AED0002DEB37E346E855EB0E94C6BA87FD0AC062
:10AEE0002DEB37E346E855E3C701B6010E9472C077
:10AEF00018164CF4A701960160E070E080E89FE32B
:10AF00000E9440B903C060E070E0CB0160934E073F
:10AF100070934F07809350079093510780919A0642
:10AF2000882341F082E090E0FF90EF90DF90CF9097
:10AF30000C9404A7FF90EF90DF90CF9008951F939B
:10AF4000CF93DF93CDB7DEB72C970FB6F894DEBF63
:10AF50000FBECDBF882361F02091A50C3091A60CC7
:10AF6000232B29F12091A70C3091A80C232BF9F069
:10AF700090919A068917D9F0182F8CE0E9EFF2E04A
:10AF8000DE01119601900D928A95E1F7CE010196AE
:10AF90000E942EA710939A06111105C082E090E03E
:10AFA0000E9404A704C08AE59EE00E946E4E2C9683
:10AFB0000FB6F894DEBF0FBECDBFDF91CF911F91CA
:10AFC0000895CF92DF92EF92FF92CF93DF9380E0CC
:10AFD0000E949F578091D80685FF0BC0EBE1F6E1F8
:10AFE0008491EF012196882321F00E946E35FE01A5
:10AFF000F7CF1092A80C1092A70C1092A60C1092EA
:10B00000A50C1092A40C1092A30C1092A20C1092FA
:10B01000A10C4DE65DE027E0C12CD12C80ECE82EA0
:10B020008FE7F82E80E090E0FA01E80FF91FC08268
:10B03000D182E282F38204968C319105A9F72150E6
:10B04000445E5F4F2111EECFDF91CF91FF90EF90E3
:10B05000DF90CF9008954F925F926F927F928F9280
:10B060009F92AF92BF92CF92DF92EF92FF920F9397
:10B070001F93CF93DF93CDB7DEB72C970FB6F8941D
:10B08000DEBF0FBECDBF8C01FB0180809180A2800E
:10B09000B380FA01C080D180E280F380A5019401E1
:10B0A000C501B4010E94D8C02B013C01A701960143
:10B0B000C701B6010E94D8C09B01AC01C301B20117
:10B0C0000E9446B820E43AE646E058E40E94C6BA38
:10B0D000181654F4F801108211821282138214821D
:10B0E0001582168217824AC0CE0101962CE0FC011F
:10B0F00011922A95E9F789829A82AB82BC82CD822D
:10B10000DE82EF82F88640E050E068EE71EC0E944B
:10B1100093A26EE67EE08AE69EE00E94FDA4209166
:10B120001F0730912007409121075091220760911D
:10B1300043107091441080914510909146100E94E8
:10B1400046B86B017C0120911B0730911C07409190
:10B150001D0750911E0760913F1070914010809123
:10B160004110909142100E9446B8F80160837183AB
:10B1700082839383C482D582E682F7821086118609
:10B1800012861386C8012C960FB6F894DEBF0FBE48
:10B19000CDBFDF91CF911F910F91FF90EF90DF9086
:10B1A000CF90BF90AF909F908F907F906F905F9067
:10B1B0004F9008954F925F926F927F928F929F92DD
:10B1C000AF92BF92CF92DF92EF92FF920F931F93B5
:10B1D000CF93DF93CDB7DEB760970FB6F894DEBF9D
:10B1E0000FBECDBF8C01FB01C080D180E280F38017
:10B1F000FA0180809180A280B38020E030E048ECAA
:10B2000053E46091501070915110809152109091C0
:10B2100053100E9446B86D877E878F87988BA70151
:10B220009601C701B6010E94D8C02B013C01A501BF
:10B230009401C501B4010E94D8C09B01AC01C301B7
:10B24000B2010E9446B82B013C012D853E854F85F9
:10B250005889CA01B9010E94D8C09B01AC01C30141
:10B26000B2010E94C6BA181654F4F8011082118275
:10B2700012821382148215821682178279C0CE013F
:10B2800001962CE0FC0111922A95E9F7C982DA8235
:10B29000EB82FC828D829E82AF82B88640E050E0D5
:10B2A000BA010E9493A28090501090905110A090EB
:10B2B0005210B0905310C0904B10D0904C10E090B2
:10B2C0004D10F0904E1010924B1010924C101092A6
:10B2D0004D1010924E10109250101092511010926A
:10B2E0005210109253106EE67EE08AE69EE00E94B5
:10B2F000FDA48092501090925110A0925210B092E2
:10B300005310C0924B10D0924C10E0924D10F0921E
:10B310004E1020911F073091200740912107509136
:10B3200022076091431070914410809145109091D4
:10B3300046100E9446B86B017C0120911B0730919A
:10B340001C0740911D0750911E0760913F1070919E
:10B35000401080914110909142100E9446B8F8012F
:10B360006083718382839383C482D582E682F7826D
:10B370001086118612861386C80160960FB6F8945F
:10B38000DEBF0FBECDBFDF91CF911F910F91FF9018
:10B39000EF90DF90CF90BF90AF909F908F907F9075
:10B3A0006F905F904F9008958091D80685FF08C0F8
:10B3B0004AE55EE062EA74E18BEC94E10E94B53804
:10B3C0008091540790915507A0915607B091570767
:10B3D0008093690290936A02A0936B02B0936C020F
:10B3E000809152079091530790936802809367026F
:10B3F0000C9463358091D80685FF08C04AE55EE06D
:10B400006AE674E18EE894E10E94B53880916902A1
:10B4100090916A02A0916B02B0916C0280935407E4
:10B4200090935507A0935607B093570780916702F2
:10B4300090916802909353078093520784E690E0BE
:10B4400090936802809367020C94633580E1EAE58B
:10B45000FEE0ADE5BDE001900D928A95E1F708951B
:10B4600080E1EDE5FDE0AAE5BEE001900D928A9550
:10B47000E1F708958F929F92AF92BF92CF92EF9291
:10B48000FF920F931F93CF93DF93CDB7DEB76097F3
:10B490000FB6F894DEBF0FBECDBF7B018C0180914B
:10B4A000D80685FF08C04DE55DE06BEF73E18AE2E9
:10B4B00094E10E94B53820915D0D30915E0D409170
:10B4C0005F0D5091600D60915A0E70915B0E8091EE
:10B4D0005C0E90915D0E0E9472C081113DC0209162
:10B4E000610D3091620D4091630D5091640D60913A
:10B4F0005E0E70915F0E8091600E9091610E0E94C1
:10B5000072C0811129C02091650D3091660D409166
:10B51000670D5091680D6091620E7091630E80917D
:10B52000640E9091650E0E9472C0811115C0209129
:10B53000690D30916A0D40916B0D50916C0D6091C9
:10B54000660E7091670E8091680E9091690E0E9450
:10B5500072C0882309F4D2C00E9463358091690DBE
:10B5600090916A0DA0916B0DB0916C0D8D879E87A7
:10B57000AF87B88B8091650F9091660F039709F0A4
:10B5800045C040E050E0BA018DE59DE00E9493A2E5
:10B5900020916E0E30916F0E4091700E5091710E91
:10B5A00060916A0E70916B0E80916C0E90916D0E91
:10B5B0000E9446B84B015C0180E090E00E94E7A148
:10B5C0009B01AC01C501B4010E9445B84B015C016F
:10B5D00081E090E00E94E7A19B01AC01C501B401AC
:10B5E0000E9445B89B01AC016091690D70916A0D94
:10B5F00080916B0D90916C0D0E9445B86093690D20
:10B6000070936A0D80936B0D90936C0DC090590EE2
:10B6100020E030E0A901B701C8010E9472C0811189
:10B6200008C0E0906902F0906A0200916B021091EC
:10B630006C026091670270916802072E000C880B03
:10B64000990B0E9479C09B01AC01B701C8010E940F
:10B65000D8C02AE037ED43E25CE30E94D8C04B013A
:10B660005C0180915D0D90915E0DA0915F0DB09198
:10B67000600D89839A83AB83BC838091610D909127
:10B68000620DA091630DB091640D8D839E83AF8395
:10B69000B8878091650D9091660DA091670DB0916E
:10B6A000680D89879A87AB87BC87CE0101960E9477
:10B6B0009C3440E050E0BA01CE0101960E9493A272
:10B6C0008501740129E63DE042E75EE06EE67EE03A
:10B6D0008AE69EE00E94B6418D859E85AF85B88939
:10B6E0008093690D90936A0DA0936B0DB0936C0DD0
:10B6F000CE010D960E949A900E94305A60960FB625
:10B70000F894DEBF0FBECDBFDF91CF911F910F9197
:10B71000FF90EF90CF90BF90AF909F908F90089543
:10B720002F923F924F925F926F927F928F929F9251
:10B73000AF92BF92CF92DF92EF92FF920F931F933F
:10B74000CF93DF9300D01F92CDB7DEB71C017A8371
:10B7500069834A013C832B834090690250906A02BE
:10B7600060906B0270906C028091D80685FF15C0C6
:10B77000FA01A080B180C280D380FB01E080F1801B
:10B7800002811381F101208131814281538160E086
:10B7900070E082E594E10E943C380E94265AF40150
:10B7A000C080D180E280F380A70196016091650D91
:10B7B0007091660D8091670D9091680D0E9472C026
:10B7C00087FF21C0C092650DD092660DE092670D93
:10B7D000F092680DEB81FC81C080D180E280F38023
:10B7E00020E030E0A901C701B6010E9472C08111BA
:10B7F00006C0C12CD12C90E7E92E91E4F92EC701A7
:10B80000B6010E943A5AF10180819181A281B381EF
:10B8100080935D0D90935E0DA0935F0DB093600DCE
:10B82000E981FA8180819181A281B3818093610D48
:10B830009093620DA093630DB093640DEB81FC8136
:10B84000C080D180E280F38020E030E0A901C70110
:10B85000B6010E9472C0811108C0C0903D02D09014
:10B860003E02E0903F02F0904002C701B6010E9404
:10B870003A5AF401C080D180E280F380A70196019A
:10B880006091650D7091660D8091670D9091680DC6
:10B890000E94C6BA18160CF5C092650DD092660DBE
:10B8A000E092670DF092680DEB81FC81C080D18041
:10B8B000E280F38020E030E0A901C701B6010E94D8
:10B8C00072C0811106C0C12CD12C80E7E82E81E422
:10B8D000F82EC701B6010E943A5A0E9405A2409272
:10B8E000690250926A0260926B0270926C028091BF
:10B8F000D80685FF0CC0E9E3F4E184918F010F5F66
:10B900001F4F882321F00E946E35F801F6CF0F906B
:10B910000F900F900F90DF91CF911F910F91FF909B
:10B92000EF90DF90CF90BF90AF909F908F907F90DF
:10B930006F905F904F903F902F9008959B01AC01C6
:10B940006EE57EE08AE59EE00C94905B8F929F927C
:10B95000AF92BF92CF92DF92EF92FF92CF93DF939D
:10B96000CDB7DEB728970FB6F894DEBF0FBECDBFB8
:10B970006B017C018091D80685FF0CC0B701A60140
:10B980008FED94E10E94C83F89E20E946E358AE003
:10B990000E946E352091230730912407409125079E
:10B9A00050912607C701B6010E9446B86B017C0181
:10B9B00069837A838B839C8380906D0290906E0262
:10B9C000A0906F02B090700220E030E0A901C501A4
:10B9D000B4010E9472C087FF0AC0A5019401C7018B
:10B9E000B6010E9445B869837A838B839C8320913A
:10B9F000620E3091630E4091640E5091650E698124
:10BA00007A818B819C810E94C6BA18165CF41D82D3
:10BA10001E821F821886BE016B5F7F4FCE0101968A
:10BA20000E949E5C28960FB6F894DEBF0FBECDBF75
:10BA3000DF91CF91FF90EF90DF90CF90BF90AF90CC
:10BA40009F908F9008951F93CF93DF93CDB7DEB76C
:10BA50002C970FB6F894DEBF0FBECDBF182F809184
:10BA6000D80685FF11C04AE55EE068EF74E18FE01B
:10BA700095E10E94B538612F70E08FEE94E10E944D
:10BA8000E53F8AE00E946E3580911707811781F1AA
:10BA900060E070E080EE90E40E94A65C80915A0E17
:10BAA00090915B0EA0915C0EB0915D0E89879A8794
:10BAB000AB87BC8780915E0E90915F0EA091600E67
:10BAC000B091610E8D839E83AF83B88719821A82ED
:10BAD0001B821C829E012F5F3F4F42E65EE0BE014B
:10BAE0006B5F7F4FCE0109960E94905B1093170702
:10BAF00080E02C960FB6F894DEBF0FBECDBFDF916D
:10BB0000CF911F9108952F923F924F925F926F9223
:10BB10007F928F929F92AF92BF92CF92DF92EF92DD
:10BB2000FF920F931F93CF93DF93CDB7DEB7AC9700
:10BB30000FB6F894DEBF0FBECDBF69A37AA38BA367
:10BB40009CA32DA33EA34FA358A717018091D8060D
:10BB500085FF30C049A15AA16BA17CA18DE096E17F
:10BB60000E94C83F4DA15EA16FA178A58AE096E131
:10BB70000E94C83F011103C06BEF73E002C069ED82
:10BB800073E087E096E10E941A40E0E0F6E18491DC
:10BB90007F019FEFE91AF90A882321F00E946E3590
:10BBA000F701F5CF4AE55EE067EE75E18CEE95E1D1
:10BBB0000E94B5388091690290916A02A0916B024F
:10BBC000B0916C0289A79AA7ABA7BCA7AE014B5D49
:10BBD0005F4FBE016F5D7F4FCE0101960E942B58D3
:10BBE00069817A818B819C816D8F7E8F8F8F98A3E5
:10BBF000CD80DE80EF80F884C98EDA8EEB8EFC8EED
:10BC000020E030E0A9010E9472C081111CC020E038
:10BC100030E0A901C701B6010E9472C0811113C0B2
:10BC20008CED90E09A8B898B84E690E09E878D87DF
:10BC3000BE016F5E7F4FCE010D960E94DC90C12C3D
:10BC4000D12C76017EC160E070E080E890E40E9433
:10BC5000A65C2DE332E042E65EE0BE01675E7F4F08
:10BC6000CE014D960E94905B81E00E94235D882367
:10BC700039F0C12CD12C90ECE92E9FE7F92E61C14F
:10BC80008091D80685FF08C04AE55EE06FE975E15E
:10BC900083EB95E10E94B5380E94633520E030E0E7
:10BCA00040E850E4609123077091240780912507B4
:10BCB000909126070E9446B86B017C016D8B7E8BAC
:10BCC0008F8B988F80906D0290906E02A0906F0283
:10BCD000B090700220E030E0A901C501B4010E94DB
:10BCE00072C087FF0AC0A5019401C701B6010E9476
:10BCF00045B86D8B7E8B8F8B988F2091620E309123
:10BD0000630E4091640E5091650E6D897E898F8916
:10BD1000988D0E9472C087FF0FC080E090E0A0E77E
:10BD2000B1E48D879E87AF87B88BBE01635F7F4F7D
:10BD3000CE0145960E949E5C16E0C12CD12C760166
:10BD4000412C512C80E7682E81E4782E115080918F
:10BD5000D806112309F478C085FF08C04AE55EE0E3
:10BD60006DE475E183E695E10E94B53880E090E0EE
:10BD7000A0EFB0E4898B9A8BAB8BBC8B20E030E0DA
:10BD80004CE553E4609123077091240780912507C7
:10BD9000909126070E9445B86D877E878F87988B84
:10BDA000BE016F5E7F4FCE010D960E949E5C109289
:10BDB0004B0782E090E00E9404A70E94D538809152
:10BDC000D80685FF08C04AE55EE063E275E189E3D5
:10BDD00095E10E94B5388090620E9090630EA0901D
:10BDE000640EB090650E20916D0230916E0240910C
:10BDF0006F0250917002C501B4010E9446B89B01C8
:10BE0000AC01C701B6010E9446B86B017C0111303C
:10BE100009F49CCF4D865E866F86788A89E498E126
:10BE20000E9438349B01AC01C501B4010E9446B8A0
:10BE3000698B7A8B8B8B9C8BBE01635F7F4FCE01AE
:10BE400041960E949E5C82CF85FF08C04AE55EE075
:10BE500067E775E18BE895E10E94B5382DEC3CEC85
:10BE60004CE45EE3C701B6010E94D8C06B017C01BF
:10BE7000011107C060E070E080E890E40E94A65CD9
:10BE800005C080E00E94235D8111F3CE93E0291666
:10BE900031040CF43AC0EFEDF5E184918F010F5FAE
:10BEA0001F4F882321F00E946E35F801F6CF69A15B
:10BEB0007AA18BA19CA143E00E94C737EAEDF5E18E
:10BEC00084918F010F5F1F4F882321F00E946E35F0
:10BED000F801F6CF6DA17EA18FA198A543E00E9445
:10BEE000C737E5EDF5E184918F010F5F1F4F882380
:10BEF00021F00E946E35F801F6CF43E0C701B6018C
:10BF00000E94C7378AE00E946E358091D80685FF6F
:10BF10000CC0E7ECF5E184918F010F5F1F4F882380
:10BF200021F00E946E35F801F6CF89A59AA5ABA540
:10BF3000BCA58093690290936A02A0936B02B093B0
:10BF40006C02C701B601AC960FB6F894DEBF0FBE07
:10BF5000CDBFDF91CF911F910F91FF90EF90DF90B8
:10BF6000CF90BF90AF909F908F907F906F905F9099
:10BF70004F903F902F9008954F925F926F927F92D3
:10BF8000AF92BF92CF92DF92EF92FF920F931F93E7
:10BF9000CF93DF938C01EC01CC0FDD1FCC0FDD1FA5
:10BFA0009E012258334F590120E030E0A901F501EC
:10BFB00060817181828193810E9446B89E01285AD6
:10BFC000384F6901F90120813181428153810E94FA
:10BFD00046B82B013C01FE01E55EF84F608371839A
:10BFE00082839383CE0181519C4E0E9438349E01FE
:10BFF000235F3D4F7901A30192010E9446B8F701EA
:10C000006083718382839383CE018D519C4E0E9405
:10C010003834CF5FDD4FA30192010E9446B8688398
:10C0200079838A839B838091D80685FF3CC0F80181
:10C03000E556FD4F60818EED93E10E94FE3FF501D4
:10C04000408151816281738187EC93E10E94C83FF6
:10C05000F601408151816281738183EB93E10E94FB
:10C06000C83FF70140815181628173818DE993E17D
:10C070000E94C83F488159816A817B8187E893E1AA
:10C080000E94C83F8AE0DF91CF911F910F91FF90EE
:10C09000EF90DF90CF90BF90AF907F906F905F90C8
:10C0A0004F900C946E35DF91CF911F910F91FF90BF
:10C0B000EF90DF90CF90BF90AF907F906F905F90A8
:10C0C0004F900895EF92FF921F93CF93DF937C01DF
:10C0D00084E50E947633182F882351F10E9489331A
:10C0E000823000F1E2EAF7E28491EF0121968823A1
:10C0F00021F00E946E35FE01F7CF8DE40E946E356F
:10C10000B701FF0C880B990B0E94DD350E94893323
:10C11000682F70E084E793E10E94E53F8AE00E9487
:10C120006E350AC00E9489338093730410E004C006
:10C130008091590E80937304812FDF91CF911F91CD
:10C14000FF90EF900895CF92DF92EF92FF92CF93FE
:10C15000DF93EBE2F7E18491EF012196882321F050
:10C160000E946E35FE01F7CFE4E2F7E18491EF0122
:10C170002196882321F00E946E35FE01F7CFECE175
:10C18000F7E18491EF012196882321F00E946E351A
:10C19000FE01F7CFE9E0F7E18491EF0121968823D2
:10C1A00021F00E946E35FE01F7CF60E070E089EF6C
:10C1B00096E10E94E53F63EE7FEF85EF96E10E94F6
:10C1C000E53F40916D0250916E0260916F02709157
:10C1D000700281EF96E10E94C83FE8EEF6E184919B
:10C1E000EF012196882321F00E946E35FE01F7CFE2
:10C1F000E1EEF6E18491EF012196882321F00E947F
:10C200006E35FE01F7CFC0906D02D0906E02E090C7
:10C210006F02F090700220E030E0A901C701B60182
:10C220000E9472C087FF0EC0E8EDF6E18491EF0135
:10C230002196811103C0E8EBF6E123C00E946E3520
:10C24000FE01F4CF20E030E0A901C701B6010E9451
:10C25000C6BA18165CF4E2ECF6E18491EF0121967F
:10C26000882349F30E946E35FE01F7CFEBECF6E12F
:10C270008491EF0121968823F1F20E946E35FE0130
:10C28000F7CF8491EF012196882321F00E946E352B
:10C29000FE01F7CFE4EAF6E18491EF0121968823CD
:10C2A00021F00E946E35FE01F7CFEBE9F6E18491B3
:10C2B000EF012196882321F00E946E35FE01F7CF11
:10C2C00080919A068823B1F0E2E8F6E18491EF01CB
:10C2D0002196882321F00E946E35FE01F7CF8AE572
:10C2E0009EE00E942EA7AB01BC0181E796E10E946F
:10C2F000C83F0BC0EEE8F6E18491EF012196882358
:10C3000021F00E946E35FE01F7CF8AE0DF91CF91D8
:10C31000FF90EF90DF90CF900C946E354F925F922C
:10C320006F927F928F929F92AF92BF92CF92DF9245
:10C33000EF92FF920F931F93CF93DF93CDB7DEB7AA
:10C3400068970FB6F894DEBF0FBECDBF8091D806B8
:10C3500085FF0EC0E1EAF9E184918F010F5F1F4F65
:10C36000882321F00E946E35F801F6CF0E94A36069
:10C370000E9405A280E00E949F570E94FA59809176
:10C38000D80685FF0CC0E8E8F9E184918F010F5FC2
:10C390001F4F882321F00E946E35F801F6CF11E07F
:10C3A00010935D0F88E50E947633982E89E50E94F0
:10C3B0007633082F8AE50E947633882E911004C0C8
:10C3C000011104C0182705C0011102C010E001C00E
:10C3D000182F0E94265A111105C0911003C0002386
:10C3E00009F460C120E030E0A90160912307709159
:10C3F000240780912507909126070E9446B86B017B
:10C400007C016093650D7093660D8093670D90932A
:10C41000680D2091620E3091630E4091640E509130
:10C42000650E0E94C6BA1816C4F48091D80685FF1E
:10C4300009C0B701A6018CE699E10E94C83F8AE0D5
:10C440000E946E3519821A821B821C82BE016F5FA8
:10C450007F4F85E69DE00E949E5C111123C09110E4
:10C4600003C0011102C11EC101111CC080E793E08D
:10C470009A83898384E690E09A8B898BBE016F5FF3
:10C480007F4FCE0141960E94DC908091D80685FFB7
:10C49000E9C04AE55EE06CE479E188E599E10E9453
:10C4A000B538E0C010925E0E10925F0E1092600ED2
:10C4B0001092610E10925A0E10925B0E10925C0E4A
:10C4C00010925D0E8091D80685FF08C04AE55EE0B7
:10C4D0006AE377E181E597E10E94B5388091620EC9
:10C4E0009091630EA091640EB091650E40915E0E26
:10C4F00050915F0E6091600E7091610EC0905A0E67
:10C50000D0905B0EE0905C0EF0905D0ECD82DE82EE
:10C51000EF82F88649875A876B877C878D879E874D
:10C52000AF87B88B26E63EE0AE01435F5F4FBE01AA
:10C53000675F7F4FCE0105960E94EC40E7E6F8E189
:10C54000B4908DE498E10E9438342B013C0181E5E0
:10C5500098E10E9438346B017C019B01AC01C3015E
:10C56000B2010E94C6BA18162CF4A3019201C701A9
:10C57000B60104C0A7019601C301B2010E9440B9EF
:10C580009B01AC010E94D8C020E030E040E85FE3AE
:10C590000E9446B80E9414BB20E030E040EA51E41B
:10C5A0000E94D8C06D8B7E8B8F8B988FE8E6F8E168
:10C5B000A49020E030E040EC5FE3C701B6010E94A8
:10C5C000D8C06B017C016A2DAA0C770B880B990BE4
:10C5D0000E9479C09B01AC01C701B6010E94D8C07E
:10C5E00069837A838B839C8320E030E040EC5FE3B7
:10C5F000C301B2010E94D8C06B017C016B2DBB0C42
:10C60000770B880B990B0E9479C09B01AC01C70185
:10C61000B6010E94D8C0698B7A8B8B8B9C8B9E0154
:10C620002B5E3F4F42E65EE0BE016F5F7F4FCE0163
:10C6300041960E94905B10924B0710925E0E1092F2
:10C640005F0E1092600E1092610E10925A0E1092B0
:10C650005B0E10925C0E10925D0E111107CF9110BF
:10C6600005CFFFCE112309F4FCCE80E793E09A8337
:10C67000898384E690E09A8B898BBE016F5F7F4F40
:10C68000CE0141960E94DC908091D80685FF08C0BB
:10C690004AE55EE06CE279E188E399E10E94B53811
:10C6A000111103C0882009F438C180911807811145
:10C6B00003C0E2EAF7E205C080911907811118C0B2
:10C6C000F8CF84918F010F5F1F4F882321F00E94C4
:10C6D0006E35F801F6CFE1EDF8E184918F010F5F3F
:10C6E0001F4F882309F40DC10E946E35F801F5CF64
:10C6F0008091D80685FF0CC0EEEBF8E184918F01A4
:10C700000F5F1F4F882321F00E946E35F801F6CF8E
:10C710000E94D53820E030E0A90160911B0770919C
:10C720001C0780911D0790911E070E9446B86093D8
:10C730005D0D70935E0D80935F0D9093600D20E012
:10C7400030E047E853E460911F0770912007809123
:10C750002107909122070E9446B86093610D709363
:10C76000620D8093630D9093640D8091620E9091A1
:10C77000630EA091640EB091650E8093650D909349
:10C78000660DA093670DB093680D61E08DE59DE0A7
:10C790000E949371882309F449C020E030E048EEFC
:10C7A00051E46091610D7091620D8091630D9091E3
:10C7B000640D0E9446B86093610D7093620D809382
:10C7C000630D9093640D8091D80685FF08C04DE5F8
:10C7D0005DE06DE978E18FEA98E10E94B538198251
:10C7E0001A821B821C829E012F5F3F4F42E65EE051
:10C7F00061E67DE08DE59DE00E94905B8091D8062A
:10C8000085FF0BC06AE58AE698E10E94FE3F89E257
:10C810000E946E358AE00E946E35E9E6F8E11491D7
:10C8200081E00E94235D81115CC092C0E2EAF7E2E0
:10C8300084918F010F5F1F4F882321F00E946E3576
:10C84000F801F6CFEBE8F8E184918F010F5F1F4FFD
:10C85000882309F446C00E946E35F801F5CF409157
:10C860006D0250916E0260916F02709170028BEABE
:10C8700097E10E94C83F8AE00E946E358091D806F9
:10C8800085FF27C06AE58CE997E10E94FE3F409151
:10C89000860C5091870C6091880C7091890C87E907
:10C8A00097E10E94C83F8AE00E946E354AE55EE04B
:10C8B0006EE777E183E897E10E94B5386AE585E69F
:10C8C00097E10E94FE3F89E20E946E358AE00E9455
:10C8D0006E350E94D53880E00E94235D882309F4DC
:10C8E0001CC18091D80685FF0CC0E8E7F8E184916F
:10C8F0008F010F5F1F4F882321F00E946E35F801D2
:10C90000F6CF8091D80685FF08C04AE55EE061EF6A
:10C9100078E188E199E10E94B5380E94D53880918C
:10C920007D0C80935D0F0E94D4590E94968A80915D
:10C93000D80685FF02C1E2EEF8E184918F010F5F16
:10C940001F4F882309F4F9C00E946E35F801F5CF16
:10C950008091D80685FF0DC0E9E5F8E184917F015B
:10C960009FEFE91AF90A882321F00E946E35F7013A
:10C97000F5CF85E598E10E9438344B015C01612FC9
:10C98000110F770B880B990B0E9479C06B017C010A
:10C9900020E030E040EC5FE3C501B4010E94D8C064
:10C9A000A70196010E94D8C0AB01BC0100E010E0D5
:10C9B000980182E090E00E94777789E498E10E94F4
:10C9C000383420E030E040E850E40E9472C087FD37
:10C9D00007C089E498E10E9438349B01AC0104C08F
:10C9E00020E030E040E850E4C701B6010E94D8C022
:10C9F0006B017C0120E030E0A9010E9472C0882315
:10CA000009F43AC08091D80685FF0CC0E5E3F8E14F
:10CA100084918F010F5F1F4F882321F00E946E3594
:10CA2000F801F6CF00E010E09801B701A6017058B8
:10CA300082E090E00E9477778091D80685FF0CC055
:10CA4000E7E2F8E184918F010F5F1F4F882321F007
:10CA50000E946E35F801F6CFA7019601C701B60115
:10CA60000E9446B8AB01BC0100E010E020E730E4D2
:10CA700082E090E00E9477778091D80685FF0BC016
:10CA80006AE580E098E10E94FE3F89E20E946E35EF
:10CA90008AE00E946E3581E08093330E80931A07FE
:10CAA000109260071092610710926207109263075C
:10CAB00082E090E00E94BC5F8EEF97E00E943834E5
:10CAC0002091230730912407409125075091260794
:10CAD0000E9446B820916D0230916E0240916F0223
:10CAE000509170020E9445B86093620E7093630E7D
:10CAF0008093640E9093650E8091D80685FFBECE1C
:10CB0000EFEBF7E184918F010F5F1F4F882309F44A
:10CB1000A6CE0E946E35F801F5CF8091D80685FF2C
:10CB2000E0CE6AE589E198E10E94FE3F89E20E9439
:10CB30006E358AE00E946E35D4CE68960FB6F894B2
:10CB4000DEBF0FBECDBFDF91CF911F910F91FF9040
:10CB5000EF90DF90CF90BF90AF909F908F907F909D
:10CB60006F905F904F9008950F931F93CF93DF9333
:10CB7000CDB7DEB728970FB6F894DEBF0FBECDBF96
:10CB800080E090E0A4EBB2E48D839E83AF83B8870E
:10CB900019821A821B821C82BE016F5F7F4FCE01F9
:10CBA00005960E94FDA420911B0730911C0740911F
:10CBB0001D0750911E0760913F10709140108091A9
:10CBC0004110909142100E9446B860935A0E7093A3
:10CBD0005B0E80935C0E90935D0E20911F07309149
:10CBE00020074091210750912207609143107091D6
:10CBF000441080914510909146100E9446B8609371
:10CC00005E0E70935F0E8093600E9093610E20E035
:10CC100030E0A901609123077091240780912507D6
:10CC2000909126070E9446B86093620E7093630E3F
:10CC30008093640E9093650E81E080931807809333
:10CC4000310E809319078093320E80931A078093D8
:10CC5000330E0E94D538E2EAF7E284918F010F5F2C
:10CC60001F4F882321F00E946E35F801F6CFEAE5C8
:10CC7000F6E184918F010F5F1F4F882321F00E94FE
:10CC80006E35F801F6CF0E94968A28960FB6F89472
:10CC9000DEBF0FBECDBFDF91CF911F910F910895E1
:10CCA0007F928F929F92AF92BF92CF92DF92EF923C
:10CCB000FF920F931F93CF93DF93CDB7DEB76697A5
:10CCC0000FB6F894DEBF0FBECDBF70904F1000912D
:10CCD000D8061091D9068FEF9FEF9093D9068093D5
:10CCE000D80681E40E947633882319F00E94D0335D
:10CCF00003C060E070E0CB01698B7A8B8B8B9C8BDF
:10CD000082E40E947633882319F00E94D03303C056
:10CD100060E070E0CB016D877E878F87988B81E420
:10CD20000E947633811106C082E40E947633882304
:10CD300009F466C089E40E947633882371F00E946A
:10CD4000D0339B01AC0169897A898B899C890E94C7
:10CD500046B8698B7A8B8B8B9C8B8AE40E947633E6
:10CD6000882371F00E94D0339B01AC016D857E85D4
:10CD70008F8598890E9446B86D877E878F87988BAC
:10CD80008BE40E947633882361F00E94D033298996
:10CD90003A894B895C890E9445B8698B7A8B8B8B69
:10CDA0009C8B8CE40E947633882361F00E94D03300
:10CDB0002D853E854F8558890E9445B86D877E87B1
:10CDC0008F87988BBE01635F7F4FCE0141960E9493
:10CDD000FDA460E08FE390E10E9493718111ADC0EA
:10CDE00080E793E09E8B8D8B84E690E09A83898325
:10CDF000BE016B5E7F4FCE0101960E94DC909DC00C
:10CE00000E94497380E50E947633882309F4BDC0EF
:10CE10000E94D0336B017C0182E50E947633882327
:10CE200021F00E942A3480934F10BB24B39420E059
:10CE300030E0A901C701B6010E9472C0811101C092
:10CE4000B12C6B2D8DE59DE00E94937181110FC077
:10CE500080E793E09E8B8D8B84E690E09A838983B4
:10CE6000BE016B5E7F4FCE0101960E94DC9081E592
:10CE70000E947633882309F481C060915D0D709122
:10CE80005E0D80915F0D9091600DC090610DD0900E
:10CE9000620DE090630DF090640D9B01AC010E9467
:10CEA000D8C04B015C01A7019601C701B6010E94E1
:10CEB000D8C09B01AC01C501B4010E9446B820E076
:10CEC00030E44CE158E40E94C6BA18160CF450C085
:10CED0006DE57DE0CE0101960E941A8589809A80D9
:10CEE000AB80BC80CD80DE80EF80F88440915D0D0A
:10CEF00050915E0D60915F0D7091600D84E596E13B
:10CF00000E94C83F4091610D5091620D6091630D88
:10CF10007091640D81E596E10E94C83FB501A401BE
:10CF200086E496E10E94C83FB701A60183E496E13A
:10CF30000E94C83F8AE00E946E3511271093D906DF
:10CF40000093D80670924F1066960FB6F894DEBF25
:10CF50000FBECDBFDF91CF911F910F91FF90EF904A
:10CF6000DF90CF90BF90AF909F908F907F9008956B
:10CF7000C12CD12C760146015701B8CFB701A601CB
:10CF80008DE59DE00E9493A2D8CFC12CD12C7601D3
:10CF900043CFCF92DF92EF92FF920F931F93CF93E5
:10CFA000DF936C018B017A01EC01C35AD34F888166
:10CFB00087FF04C0FB011182108224C08CE08C9D8D
:10CFC00090018D9D300D11248881A901480F511DBC
:10CFD00087FD5A958091E40E90E04817590794F424
:10CFE0008881A901480F511D87FD5A95CA01FA0190
:10CFF000EE0FFF1F8E0F9F1FFC01E456F14F808143
:10D0000086FD19C088818F5F88838CE08C9D90019C
:10D010008D9D300D11248881A901480F511D87FD78
:10D020005A958091E40E90E048175907BCF4888126
:10D030008C3044F113C08881280F311D87FD3A954B
:10D04000F901EE0FFF1F2E0F3F1FF901E456F14FBC
:10D05000808160E08F730E94B48DD4CFF80180810D
:10D060009181049680349C4918F480E49CE904C0C2
:10D07000F801808191810496F701918380838FEF7D
:10D08000888345C0F801408151818881B901680FCA
:10D09000711D87FD7A95CB01FB01EE0FFF1F8E0FEF
:10D0A0009F1FFC01E456F14F81819281840F951FEF
:10D0B000F701918380838881A901480F511D87FD65
:10D0C0005A95CA01FA01EE0FFF1F8E0F9F1FFC0138
:10D0D000E456F14F808186FF1AC08881280F311DE8
:10D0E00087FD3A95F901EE0FFF1F2E0F3F1FF90143
:10D0F000E456F14F808161E08F73DF91CF911F91F2
:10D100000F91FF90EF90DF90CF900C94B48DDF9152
:10D11000CF911F910F91FF90EF90DF90CF900895E6
:10D120008091580C80FF03C08B988FEF02C08B9AC0
:10D1300081E0809356028091580C9FB781FF09C00F
:10D14000F894809102018160809302019FBF8FEF6C
:10D1500008C0F894809102018E7F809302019FBFE6
:10D1600081E0809357028091580C82FF03C02D9A72
:10D170008FEF02C02D9881E0809358028091580C67
:10D18000E091590CF0915A0C83FF08C08181811104
:10D1900002C0159801C0129A8FEF07C081818111DA
:10D1A00002C0159A01C0129881E080935902089537
:10D1B00090919A0E80919B0E981731F080919B0E62
:10D1C0008F5F8F7080939B0E08951F920F920FB602
:10D1D0000F9211240BB60F92BF92CF92DF92EF9273
:10D1E000FF920F931F932F933F934F935F936F93F0
:10D1F0007F938F939F93AF93BF93EF93FF93CF93BF
:10D20000DF9300D01F92CDB7DEB780916E008B7F89
:10D2100080936E0080916F008D7F80936F00789473
:10D2200080915B0C90915C0C009771F0019790934A
:10D230005C0C80935B0C10925A0C1092590C0E945B
:10D24000D86888EC90E091C1C090590CD0905A0CED
:10D25000C114D10409F08EC190919A0E80919B0E59
:10D26000981761F090919B0E0FE4909FF0011124AC
:10D27000EC59F84F8081886080836F01D0925A0CFE
:10D28000C092590CC114D10409F46DC1D601929613
:10D290005C9192978091580C11964C9158130AC04A
:10D2A000242F30E080915A02082E000C990B281789
:10D2B000390731F05093580C40935A020E949068FD
:10D2C0001092790C10927A0C10927B0C10927C0CBC
:10D2D000F60187A990AD8134FCE99F0728F48132DB
:10D2E0000EE4900748F002C080E49CE9969587958B
:10D2F0009695879524E007C0813117E2910730F0B9
:10D300009695879522E02093780C08C021E0209321
:10D31000780C8032910510F480E290E08C0100528C
:10D320001109011528E01207D8F0E12FFF27EE0FB1
:10D33000FF1FEE0FFF1FCF018055924EFC0132966A
:10D3400045915491AA27059F9001049F210D3A1FF2
:10D3500006942A1F3A1F1124FC01859194911CC048
:10D360009801369527952C7F2055364EF9018591E9
:10D370009491F901329665917491A80147705527EF
:10D38000649F9001659F300D749F300D112443E020
:10D39000369527954A95E1F7821B930B84369105C4
:10D3A00088F48FEFE82E83E0F82ED7018D917D0170
:10D3B000882319F00E946E35F8CFC8010E948E9024
:10D3C00084E690E09093770C8093760C8091780CB3
:10D3D0008093750CF60183AD94AD9093740C80939B
:10D3E000730C8134FCE99F0728F481320EE4900726
:10D3F00048F002C080E49CE99695879596958795BC
:10D4000024E007C0813117E2910730F096958795A7
:10D4100022E02093780C08C021E02093780C803221
:10D42000910510F480E290E08C0100521109011581
:10D4300028E01207D8F0E12FFF27EE0FFF1FEE0FB5
:10D44000FF1FCF018055924EFC01329645915491B9
:10D45000AA27059F9001049F210D3A1F06942A1FB9
:10D460003A1F1124FC01859194911CC098013695B6
:10D4700027952C7F2055364EF90185919491F9011D
:10D48000329665917491A80147705527649F900169
:10D49000659F300D749F300D112473E036952795EC
:10D4A0007A95E1F7821B930B8436910588F45FEF40
:10D4B000E52E53E0F52ED7018D917D01882319F0DB
:10D4C0000E946E35F8CFC8010E948E9084E690E0ED
:10D4D000AC0160E070E040936F0C5093700C60936F
:10D4E000710C7093720C9093890080938800F60100
:10D4F00082899389A489B589B695A79597958795CB
:10D50000B095A095909581959F4FAF4FBF4F809359
:10D510006B0C90936C0CA0936D0CB0936E0C80937D
:10D52000670C9093680CA093690CB0936A0C80937D
:10D53000630C9093640CA093650CB093660C80937D
:10D540005F0C9093600CA093610CB093620C1092EE
:10D55000540C1092550C1092560C1092570C82E0FD
:10D5600080935E0F07C080ED97E0909389008093D1
:10D570008800DBC380915E0F882341F080915D0FAE
:10D58000811106C480911707811102C42091780C83
:10D59000222309F4B9C1E091590CF0915A0C409141
:10D5A0005F0C5091600C6091610C7091620C8281F3
:10D5B0009381A481B581840F951FA61FB71F809307
:10D5C0005F0C9093600CA093610CB093620C1816E2
:10D5D00019061A061B060CF48C9AE091590CF0916E
:10D5E0005A0C4091630C5091640C6091650C7091E1
:10D5F000660C86819781A085B185840F951FA61F33
:10D60000B71F8093630C9093640CA093650CB09348
:10D61000660C181619061A061B060CF4739AE0918C
:10D62000590CF0915A0C4091670C5091680C609124
:10D63000690C70916A0C82859385A485B585840FE9
:10D64000951FA61FB71F8093670C9093680CA0933B
:10D65000690CB0936A0C181619061A061B0644F4D6
:10D660009FB7F894809102018260809302019FBF6E
:10D67000E091590CF0915A0C40916B0C50916C0C4C
:10D6800060916D0C70916E0C86859785A089B1892B
:10D69000840F951FA61FB71F80936B0C90936C0C83
:10D6A000A0936D0CB0936E0C181619061A061B0683
:10D6B00034F48181811102C0169A01C0139A8091BD
:10D6C0005F0C9091600CA091610CB091620C1816E7
:10D6D00019061A061B0684F5E091590CF0915A0CB4
:10D6E0004289538964897589841B950BA60BB70BF6
:10D6F00080935F0C9093600CA093610CB093620CCC
:10D70000809156024091340E5091350E6091360E44
:10D710007091370E082E000C990BAA0BBB0B840FCF
:10D72000951FA61FB71F8093340E9093350EA093BC
:10D73000360EB093370E8C988091630C9091640CE8
:10D74000A091650CB091660C181619061A061B06F6
:10D7500084F5E091590CF0915A0C428953896489FF
:10D760007589841B950BA60BB70B8093630C909364
:10D77000640CA093650CB093660C809157024091A5
:10D78000380E5091390E60913A0E70913B0E082E72
:10D79000000C990BAA0BBB0B840F951FA61FB71F7C
:10D7A0008093380E9093390EA0933A0EB0933B0EAF
:10D7B00073988091670C9091680CA091690CB0915E
:10D7C0006A0C181619061A061B06BCF5E091590CCE
:10D7D000F0915A0C4289538964897589841B950B91
:10D7E000A60BB70B8093670C9093680CA093690C01
:10D7F000B0936A0C8091580240913C0E50913D0EBE
:10D8000060913E0E70913F0E082E000C990BAA0BF2
:10D81000BB0B840F951FA61FB71F80933C0E9093E0
:10D820003D0EA0933E0EB0933F0E9FB7F8948091AB
:10D8300002018D7F809302019FBF80916B0C9091BC
:10D840006C0CA0916D0CB0916E0C181619061A068E
:10D850001B06ACF5E091590CF0915A0C42895389A2
:10D8600064897589841B950BA60BB70B80936B0C91
:10D8700090936C0CA0936D0CB0936E0C8091590238
:10D880004091400E5091410E6091420E7091430EB6
:10D89000082E000C990BAA0BBB0B840F951FA61F1B
:10D8A000B71F8093400E9093410EA093420EB09309
:10D8B000430E8181811102C0169801C01398809196
:10D8C000540C9091550CA091560CB091570C0196A8
:10D8D000A11DB11D8093540C9093550CA093560C30
:10D8E000B093570C2150E091590CF0915A0C428999
:10D8F00053896489758984179507A607B70708F4C3
:10D9000047CEBB24B39401C0B12C4091540C50912C
:10D91000550C6091560C7091570CE090590CF0909A
:10D920005A0CF70186899789A08DB18D84179507C8
:10D93000A607B70708F4DCC040916F0C5091700C3B
:10D940006091710C7091720C068D178D20A131A120
:10D95000AA27419FB12D529FC001629F900D619FE8
:10D96000800D911D429FB00D811D9A1F519FB00DDA
:10D97000811D9A1F609FB00D811D9A1F509FB10D90
:10D980008A1F9A1FB6958A1F9A1F349F800D911D7A
:10D99000359F900D112423AD34AD820F931F9093CA
:10D9A000740C8093730C47A950AD61AD72ADA0E0CB
:10D9B000B0E0481759076A077B0720F45093740CAE
:10D9C0004093730C8091730C9091740C8134BCE97A
:10D9D0009B0728F48132EEE49E0748F002C080E401
:10D9E0009CE9969587959695879524E007C08131A7
:10D9F000F7E29F0730F09695879522E02093780C08
:10DA000008C021E02093780C8032910510F480E268
:10DA100090E08C0100521109011528E01207D8F09E
:10DA2000E12FFF27EE0FFF1FEE0FFF1FCF018055E5
:10DA3000924EFC01329645915491AA27059F900180
:10DA4000049F210D3A1F06942A1F3A1F1124FC013E
:10DA5000859194911CC09801369527952C7F20556F
:10DA6000364EF90185919491F90132966591749140
:10DA7000A80147705527649F9001659F300D749FE2
:10DA8000300D1124B3E036952795BA95E1F7821B46
:10DA9000930B8436910588F4FFEFEF2EF3E0FF2E11
:10DAA000D7018D917D01882319F00E946E35F8CF42
:10DAB000C8010E948E9084E690E090938900809344
:10DAC000880040916F0C5091700C6091710C7091B6
:10DAD000720C8A019B01080F191F211D311D009333
:10DAE0006F0C1093700C2093710C3093720C00C16A
:10DAF0004091540C5091550C6091560C7091570CFC
:10DB0000F701828D938DA48DB58D84179507A60797
:10DB1000B70708F0E1C02091790C30917A0C409160
:10DB20007B0C50917C0C29833A834B835C83468D1C
:10DB3000578D60A171A109811A812B813C81AA278F
:10DB4000059FB12D169F6001269FD00C259FC00C0C
:10DB5000D11C069FB00DC11CDA1E159FB00DC11C53
:10DB6000DA1E249FB00DC11CDA1E149FB10DCA1E0F
:10DB7000DA1EB695CA1EDA1E709FC00CD11C719FAA
:10DB8000D00C11248091730C9091740CFF96C816E0
:10DB9000D90680F48C199D0940815181628173817D
:10DBA0006C01E12CF12CC416D506E606F70620F42C
:10DBB000CA0102C08081918181341CE9910728F457
:10DBC00081322EE4920748F002C080E49CE99695E9
:10DBD00087959695879524E007C0813137E29307B2
:10DBE00030F09695879522E02093780C08C021E0CC
:10DBF0002093780C8032910510F480E290E08C0143
:10DC000000521109011548E01407E8F0E12FFF2741
:10DC1000EE0FFF1FEE0FFF1FCF018055924EFC014C
:10DC2000329645915491AA27059F9001049F210D9A
:10DC30003A1F06942A1F3A1F1124FC0185919491E2
:10DC4000821B930B20C0C801969587958C7F8055C9
:10DC5000964EFC0125913491FC01329665917491A8
:10DC6000A80147705527649FC001659F900D749F60
:10DC7000900D112443E0969587954A95E1F7D901D7
:10DC8000A81BB90BCD018436910588F48FEFE82EDF
:10DC900083E0F82EF70181917F01882319F00E941B
:10DCA0006E35F8CFC8010E948E9084E690E0909384
:10DCB00089008093880029813A814B815C81280FFB
:10DCC000391F411D511D2093790C30937A0C4093DC
:10DCD0007B0C50937C0C0CC08091760C9091770C4F
:10DCE00090938900809388008091750C8093780CC4
:10DCF0002091880030918900809184009091850066
:10DD000040962817390748F4809184009091850047
:10DD100040969093890080938800BB2031F0109248
:10DD20005A0C1092590C0E94D868F8948091670F91
:10DD3000882321F080916E008B7F03C080916E005C
:10DD4000846080936E0080916F00826080936F008A
:10DD50000F900F900F900F90DF91CF91FF91EF9167
:10DD6000BF91AF919F918F917F916F915F914F91F3
:10DD70003F912F911F910F91FF90EF90DF90CF90E7
:10DD8000BF900F900BBE0F900FBE0F901F90189575
:10DD90000E94897A80915E0F815080935E0FF6CB4E
:10DDA000CF93DF93EC012881283108F05BC030E08D
:10DDB0001616170664F4F901EE0FFF1FE20FF31FAA
:10DDC000E456F14F6F738081807C682B6083F9018A
:10DDD000EE0FFF1F2E0F3F1FF901E456F14F808118
:10DDE00061E08F730E94E48D19821A8288816CE051
:10DDF0000E94F8B79CE0899FB001112440E050E0F8
:10DE00009A01260F371FF901EE0FFF1F2E0F3F1F3C
:10DE1000F901E456F14F908196FD16C04F5F5F4FB8
:10DE20004C30510569F781111FC01092900082E0BB
:10DE3000809391001092950010929400C19A809165
:10DE400071008260809371008881E82FF0E09F016B
:10DE5000220F331FE20FF31FE456F14F90819064BD
:10DE6000908311C08FEF0FC0813071F71092A00026
:10DE700082E08093A1001092A5001092A40089BBBB
:10DE800080937200E1CFDF91CF9108951F920F929E
:10DE90000FB60F9211240BB60F922F933F934F930F
:10DEA0005F936F937F938F939F93AF93BF93EF9302
:10DEB000FF9348EA50E064EA70E081E090E00E945D
:10DEC000C967FF91EF91BF91AF919F918F917F9122
:10DED0006F915F914F913F912F910F900BBE0F90DB
:10DEE0000FBE0F901F9018951F920F920FB60F92B2
:10DEF00011240BB60F922F933F934F935F936F9321
:10DF00007F938F939F93AF93BF93EF93FF9348E9D2
:10DF100050E064E970E080E090E00E94C967FF9102
:10DF2000EF91BF91AF919F918F917F916F915F9191
:10DF30004F913F912F910F900BBE0F900FBE0F90FE
:10DF40001F901895CF93C82FCC2329F080E20E9410
:10DF50006E35C150F9CFCF910895CF92DF92EF92F5
:10DF6000FF92CF93DF936A017B01FC018491EF0163
:10DF70002196882321F00E946E35FE01F7CF4AE0FA
:10DF8000C701B601DF91CF91FF90EF90DF90CF9066
:10DF90000C947535CF92DF92EF92FF92CF93DF937F
:10DFA0006A017B01FC018491EF012196882321F015
:10DFB0000E946E35FE01F7CF42E0C701B601DF9146
:10DFC000CF91FF90EF90DF90CF900C94C7374F9296
:10DFD0005F926F927F92AF92BF92CF92DF92EF9259
:10DFE000FF920F931F93CF93DF93CDB7DEB76C975C
:10DFF0000FB6F894DEBF0FBECDBF86E40E94763325
:10E00000882351F00E94D03320E030E0A9010E9423
:10E01000C6BA18160CF43AC180E090E00E94E7A15D
:10E0200069837A838B839C8381E090E00E94E7A1DF
:10E030006D837E838F8398878091620E9091630EAB
:10E04000A091640EB091650E89879A87AB87BC87D3
:10E050008091660E9091670EA091680EB091690E46
:10E060008D879E87AF87B88B82E50E9476338111BA
:10E0700003C0F090780402C0FF24F3948091D80686
:10E0800087FD0CC085E1C82E83E0D82E8E010F5F7E
:10E090001F4F5E0181E1A80EB11C4EC0AE014F5F63
:10E0A0005F4F63E472E285E692E20E94B538F110B8
:10E0B00003C0E1E3F2E20CC0E9E3F2E284918F01F4
:10E0C0000F5F1F4F8823A9F30E946E35F801F6CF2A
:10E0D00084918F010F5F1F4F8823A1F20E946E353C
:10E0E000F801F6CF0E94D033FF2079F1F8012081AA
:10E0F0003181428153810E9446B8F8016083718367
:10E10000828393838091D80687FF11C080E20E94AA
:10E110006E358E2D0E946E358AE30E946E35F801B1
:10E12000608171818281938142E00E94C7370C5FD8
:10E130001F4F0A151B0569F0F601E1906F018E2D46
:10E140000E947633882399F3CDCF20E030E0A901F7
:10E15000D2CF8091D80687FF03C08AE00E946E3537
:10E16000C090590E89859A85AB85BC854D815E81AD
:10E170006F817885E0906902F0906A0200916B02ED
:10E1800010916C0249805A806B807C80498A5A8A3F
:10E190006B8A7C8A4D8B5E8B6F8B788F898F9A8F81
:10E1A000AB8FBC8F9E01235F3F4FAE01475E5F4F39
:10E1B000BE016B5E7F4FC5010E94B641BE016B5F21
:10E1C0007F4FCE0101960E94FDA420911B07309144
:10E1D0001C0740911D0750911E0760913F107091E0
:10E1E000401080914110909142100E9446B8609377
:10E1F0005A0E70935B0E80935C0E90935D0E20918F
:10E200001F0730912007409121075091220760910C
:10E2100043107091441080914510909146100E94D7
:10E2200046B860935E0E70935F0E8093600E90937D
:10E23000610E89859A85AB85BC858093620E90932B
:10E24000630EA093640EB093650E8D859E85AF8599
:10E25000B8898093660E9093670EA093680EB09372
:10E26000690E6C960FB6F894DEBF0FBECDBFDF917E
:10E27000CF911F910F91FF90EF90DF90CF90BF90C3
:10E28000AF907F906F905F904F9008950E94D03331
:10E2900020E030E040E752E40E9440B96093690218
:10E2A00070936A0280936B0290936C02B5CECF920A
:10E2B000DF92EF92FF9280E50E947633882329F067
:10E2C0000E94C5336B017C0103C0C12CD12C7601A7
:10E2D00083E50E947633882321F00E94F9336B0195
:10E2E0007C010E9405A20E9463358091980C909158
:10E2F000990CA0919A0CB0919B0CC80ED91EEA1EE5
:10E30000FB1E0E94C9A9DC01CB018C199D09AE0935
:10E31000BF09B7FF03C00E94C785F3CFFF90EF90FE
:10E32000DF90CF9008954F925F926F927F928F927D
:10E330009F92AF92BF92CF92DF92EF92FF921F9384
:10E34000CF93DF93CDB7DEB76C970FB6F894DEBFEF
:10E350000FBECDBF7C01FC0180819181A281B38180
:10E36000898B9A8BAB8BBC8B84819581A681B7817D
:10E370008D879E87AF87B88B662309F44CC0AE01AA
:10E38000435F5F4FBE016F5E7F4FCE0101960E94DB
:10E390002B5849805A806B807C808D809E80AF8016
:10E3A000B88423E030E048EC53ECC301B2010E9492
:10E3B000C6BA87FD1FC023E030E048EC53E4C30138
:10E3C000B2010E9472C01816ACF027E137EB41EDA4
:10E3D00058EBC501B4010E94C6BA87FD0BC023E00B
:10E3E00030E048EC53E4C501B4010E9472C0181635
:10E3F0000CF0A2C090914F1081E0892780934F10BC
:10E40000AE01435F5F4FBE016F5E7F4FCE0101964D
:10E410000E942B585BC020E030E0A90160915010B1
:10E420007091511080915210909153100E9472C0BF
:10E43000882309F489C0AE01435F5F4FBE016F5E60
:10E440007F4FCE0101960E94DA5849805A806B8036
:10E450007C808D809E80AF80B88423E030E048ECE3
:10E4600053ECC301B2010E94C6BA87FD1FC023E06E
:10E4700030E048EC53E4C301B2010E9472C01816A8
:10E48000ACF027E137EB41ED58EBC501B4010E9438
:10E49000C6BA87FD0BC023E030E048EC53E4C50169
:10E4A000B4010E9472C018160CF046C090914F1033
:10E4B00081E0892780934F10AE01435F5F4FBE011B
:10E4C0006F5E7F4FCE0101960E94DA5849805A80D4
:10E4D0006B807C808D809E80AF80B88423E030E0AC
:10E4E00048EC53ECC301B2010E94C6BA87FD1EC0BE
:10E4F00023E030E048EC53E4C301B2010E9472C053
:10E500001816A4F027E137EB41ED58EBC501B40133
:10E510000E94C6BA87FD0AC023E030E048EC53E40D
:10E52000C501B4010E9472C0181634F490914F10C6
:10E5300081E0892780934F10498A5A8A6B8A7C8AA6
:10E540008D869E86AF86B88A89899A89AB89BC896F
:10E550008D8B9E8BAF8BB88F80911B0790911C0782
:10E56000A0911D07B0911E07898F9A8FAB8FBC8F2A
:10E570008D849E84AF84B88840901F0750902007F8
:10E580006090210770902207209123073091240783
:10E590004091250750912607D70118966D917D91DE
:10E5A0008D919C911B970E9445B86B017C0127E1DE
:10E5B00037EB41ED58EB0E94C6BA87FD52C027E009
:10E5C00030E042E553E4C701B6010E9472C018165C
:10E5D0000CF447C020E030E0A901C301B2010E9461
:10E5E00046B89B01AC01C501B4010E9445B86B015E
:10E5F0007C0120E030E0A901698D7A8D8B8D9C8DA6
:10E600000E9446B89B01AC016D897E898F89988DE7
:10E610000E9445B89B01AC010E94D8C04B015C012F
:10E62000A7019601C701B6010E94D8C09B01AC01A9
:10E63000C501B4010E9446B86B017C0120E034E2C0
:10E6400044E756E40E94C6BA87FD0BC011E020E003
:10E6500030E44CE158E4C701B6010E9472C01816BC
:10E660000CF410E0812F6C960FB6F894DEBF0FBE4D
:10E67000CDBFDF91CF911F91FF90EF90DF90CF90B2
:10E68000BF90AF909F908F907F906F905F904F90D2
:10E690000895BF92CF92DF92EF92FF920F931F9354
:10E6A000CF93DF938DE5E82E8DE0F82E0AE51EE08E
:10E6B00094E7C92E94E0D92ECBE9D2E0BC2E84E0B9
:10E6C000B80E89910E9476338823D9F00E94D03306
:10E6D000F6012081211104C020917804222331F019
:10E6E000F801208131814281538103C020E030E074
:10E6F000A9010E9446B8F7016083718382839383E6
:10E700000AC0F80180819181A281B381F7018083E1
:10E710009183A283B383F4E0EF0EF11C0C5F1F4FD3
:10E720008FEFC81AD80ABC12CCCF8091650F909198
:10E73000660F039729F483E40E94763381111FC08A
:10E7400086E40E947633882329F10E94D03320E0AA
:10E7500030E0A9010E94C6BA1816E4F40E94D03332
:10E7600020E030E040E752E40E9440B96093690243
:10E7700070936A0280936B0290936C020BC00E94AC
:10E78000D0336093690D70936A0D80936B0D9093F5
:10E790006C0DD6CFDF91CF911F910F91FF90EF902D
:10E7A000DF90CF90BF9008952F923F924F925F924B
:10E7B0006F927F928F929F92AF92BF92CF92DF9291
:10E7C000EF92FF920F931F93CF93DF93CDB7DEB7F6
:10E7D000C854D1090FB6F894DEBF0FBECDBF9091DB
:10E7E0007502992309F469C3F82E0E94497360E009
:10E7F0008DE59DE00E949371382E811110C080E755
:10E8000093E09A8B898B84E690E09A838983BE019A
:10E810006F5E7F4FCE0101960E94DC904EC3FF20B9
:10E8200031F060E070E0CB010E943A5A46C30E948A
:10E8300063358091D80683FD9EC08091650F9091CD
:10E84000660F892B09F097C0C090690DD0906A0DB2
:10E85000E0906B0DF0906C0D2091660E3091670E7C
:10E860004091680E5091690EC701B6010E9472C0B6
:10E87000882309F480C080919B0681113EC060917D
:10E88000680F7091690F80916A0F90916B0F0E94D1
:10E89000B2B9072E000C880B990B0E9479C0209109
:10E8A00021023091220240912302509124020E94C1
:10E8B00072C087FF22C0C092660ED092670EE092AF
:10E8C000680EF092690EE2EAF7E284917F012FEF81
:10E8D000E21AF20A882321F00E946E35F701F5CF83
:10E8E000E6E1F2E284917F013FEFE31AF30A882325
:10E8F00021F00E946E35F701F5CFC090690DD090E0
:10E900006A0DE0906B0DF0906C0D2091660E3091C9
:10E91000670E4091680E5091690EC701B6010E94C2
:10E9200045B820E030E048E453E40E94C6BA181627
:10E9300014F5C092660ED092670EE092680EF092C7
:10E94000690EE2EAF7E284917F019FEFE91AF90A82
:10E95000882321F00E946E35F701F5CFE7EFF1E251
:10E9600084917F012FEFE21AF20A882321F00E949E
:10E970006E35F701F5CF6091670270916802072E3E
:10E98000000C880B990B0E9479C02091690230918C
:10E990006A0240916B0250916C020E94D8C02AE03A
:10E9A00037ED43E25CE30E94D8C069AF7AAF8BAF2A
:10E9B0009CAF40905D0D50905E0D60905F0D70902B
:10E9C000600D20915A0E30915B0E40915C0E50917B
:10E9D0005D0EC301B2010E9472C0811136C08090E9
:10E9E000610D9090620DA090630DB090640D209128
:10E9F0005E0E30915F0E4091600E5091610EC50128
:10EA0000B4010E9472C0811120C0C090590E498289
:10EA10005A826B827C828D829E82AF82B886809180
:10EA2000650D9091660DA091670DB091680D898775
:10EA30009A87AB87BC87CE0101960E949C3440E048
:10EA400050E0BA01CE01019623C28091650F9091EA
:10EA5000660F039709F045C040E050E0BA018DE52C
:10EA60009DE00E9493A220916E0E30916F0E409116
:10EA7000700E5091710E60916A0E70916B0E8091C4
:10EA80006C0E90916D0E0E9446B86B017C0180E087
:10EA900090E00E94E7A14B015C0181E090E00E94C0
:10EAA000E7A19B01AC01C501B4010E9446B89B01DE
:10EAB000AC01C701B6010E9445B89B01AC01609151
:10EAC000690D70916A0D80916B0D90916C0D0E9493
:10EAD00045B86093690D70936A0D80936B0D9093A8
:10EAE0006C0D20915A0E30915B0E40915C0E50914E
:10EAF0005D0E60915D0D70915E0D80915F0D909146
:10EB0000600D0E9445B821966CAF7DAF8EAF9FAF70
:10EB1000219720915E0E30915F0E4091600E5091D2
:10EB2000610E6091610D7091620D8091630D909105
:10EB3000640D0E9445B825966CAF7DAF8EAF9FAF38
:10EB400025972091620E3091630E4091640E509192
:10EB5000650E6091650D7091660D8091670D9091C5
:10EB6000680D0E9445B82B013C012091660E309142
:10EB7000670E4091680E5091690E6091690D709119
:10EB80006A0D80916B0D90916C0D0E9445B84B0100
:10EB90005C0121962CAD3DAD4EAD5FAD2197CA0114
:10EBA000B9010E94D8C06B017C0125962CAD3DAD0A
:10EBB0004EAD5FAD2597CA01B9010E94D8C09B0137
:10EBC000AC01C701B6010E9446B86B017C01A301EC
:10EBD0009201C301B2010E94D8C09B01AC01C701E0
:10EBE000B6010E9446B80E9414BB6B017C012DEB5C
:10EBF00037E346E855E30E9472C087FF0FC020E06C
:10EC000030E0A901C501B4010E94C6BA75016401D2
:10EC1000181624F0F7FAF094F7F8F0942DEB37E398
:10EC200046E855E3C701B6010E9472C087FD41C1A5
:10EC300029AD3AAD4BAD5CADC701B6010E9440B9FC
:10EC400020E030E048EC52E40E94D8C00E94B9B9FC
:10EC500029966CAF7DAF8EAF9FAF299727962EACCC
:10EC60003FAC279720E030E040E850E4C701B60110
:10EC70000E94D8C06B017C01B10180E090E00E944D
:10EC800077C0A70196010E94C6BA18162CF4C701D6
:10EC9000B6010E94B9B91B012114310419F42224D0
:10ECA0002394312CB10180E090E00E9477C09B0159
:10ECB000AC0160E070E080E89FE30E9440B96B0126
:10ECC0007C019B01AC0121966CAD7DAD8EAD9FADFD
:10ECD00021970E94D8C0698B7A8B8B8B9C8BA70164
:10ECE000960125966CAD7DAD8EAD9FAD25970E94AA
:10ECF000D8C06D8B7E8B8F8B988FA7019601C30137
:10ED0000B2010E94D8C0698F7A8F8B8F9C8FA70128
:10ED10009601C501B4010E94D8C06D8F7E8F8F8F80
:10ED200098A380E1EAE5FEE0DE01119601900D92E4
:10ED30008A95E1F75E01F1E1AF0EB11CF1E02F1A07
:10ED4000310809F476C065019E012F5F3F4F7901BC
:10ED5000F60121913191419151916F01F70160814B
:10ED60007181828193810E9446B8F701619371930A
:10ED7000819391937F01EA15FB0551F740E050E044
:10ED8000BA01CE0101960E9493A280919A0688232F
:10ED9000C1F0CE0101960E942EA79B01AC016091AB
:10EDA000720E7091730E8091740E9091750E0E9488
:10EDB00046B86093720E7093730E8093740E9093A6
:10EDC000750EC090590E8091720E9091730EA091A5
:10EDD000740EB091750E40916E0E50916F0E609151
:10EDE000700E7091710E40906A0E50906B0E609094
:10EDF0006C0E70906D0E4DA65EA66FA678AA49ABFC
:10EE00005AAB6BAB7CAB8DAB9EABAFABB8AFE9ACE9
:10EE1000FAAC0BAD1CAD9E01235F3F4FAE014B5CC6
:10EE20005F4FBE016F5C7F4FCE018D960E94B64151
:10EE300085CFC090590E80915D0D90915E0DA0918F
:10EE40005F0DB091600D89A39AA3ABA3BCA3809181
:10EE5000610D9091620DA091630DB091640D8DA331
:10EE60009EA3AFA3B8A78091650D9091660DA09168
:10EE7000670DB091680D89A79AA7ABA7BCA7CE0173
:10EE800081960E949C3440E050E0BA01CE01819608
:10EE90000E9493A2E9ACFAAC0BAD1CAD29E63DE0B3
:10EEA00042E75EE06EE67EE08AE69EE00E94B641C2
:10EEB00002C0311002C00E94305AC85BDF4F0FB64B
:10EEC000F894DEBF0FBECDBFDF91CF911F910F91A0
:10EED000FF90EF90DF90CF90BF90AF909F908F907A
:10EEE0007F906F905F904F903F902F9008952F925A
:10EEF0003F924F925F926F927F929F92AF92BF929A
:10EF0000CF92DF92EF92FF920F931F93CF93DF93F5
:10EF1000CDB7DEB72C970FB6F894DEBF0FBECDBFCE
:10EF20005C012A013B01922ED32E8091D80685FFE9
:10EF30001BC0F501E556FD4F608183EE91E20E9412
:10EF4000FE3FB301A20180EE91E20E94C83FA801FA
:10EF5000692D7D2D8DED91E20E94C83F89E20E94CE
:10EF60006E358AE00E946E357501EE0CFF1CEE0CCA
:10EF7000FF1CC701865A914F1C01FC0110821182AF
:10EF8000128213820E94D538F1014082518262823E
:10EF9000738240E050E0BA018AE59EE00E9493A2AD
:10EFA000C090590E20E030E0A901B801892D9D2DB7
:10EFB0000E9472C0811108C0F701EB5FFC4F3081E5
:10EFC00021819280D38002C0302F212F8091720E38
:10EFD0009091730EA091740EB091750E40916E0ECB
:10EFE00050916F0E6091700E7091710E40906A0E8C
:10EFF00050906B0E60906C0E70906D0E49825A822C
:10F000006B827C824D835E836F83788789879A8742
:10F01000AB87BC87E32EF22E092D1D2D26E63EE0A0
:10F02000AE01475F5F4FBE016B5F7F4FCE01019620
:10F030000E94B6410E9405A210924B078091D8060B
:10F0400085FF0EC0F501E556FD4F608189EC91E228
:10F050000E94FE3F89E20E946E358AE00E946E3572
:10F060002C960FB6F894DEBF0FBECDBFDF91CF91C7
:10F070001F910F91FF90EF90DF90CF90BF90AF90D6
:10F080009F907F906F905F904F903F902F9008954A
:10F09000CF92DF92EF92FF926091A50C7091A60C37
:10F0A000072E000C880B990B0E9479C06B017C0124
:10F0B0002DEB37E346E855EB0E94C6BA87FD0AC040
:10F0C0002DEB37E346E855E3C701B6010E9472C055
:10F0D00018164CF4A701960160E070E080E89FE309
:10F0E0000E9440B903C060E070E0CB01609337102C
:10F0F000709338108093391090933A106091A70C58
:10F100007091A80C072E000C880B990B0E9479C0F7
:10F110006B017C012DEB37E346E855EB0E94C6BA44
:10F1200087FD0AC02DEB37E346E855E3C701B6017A
:10F130000E9472C018164CF4A701960160E070E0BE
:10F1400080E89FE30E9440B903C060E070E0CB011B
:10F1500060933B1070933C1080933D1090933E1051
:10F16000FF90EF90DF90CF9008952F923F924F92B3
:10F170005F926F927F928F929F92AF92BF92CF9247
:10F18000DF92EF92FF920F931F93CF93DF93CDB750
:10F19000DEB768970FB6F894DEBF0FBECDBF1C0177
:10F1A0005B018A01DC01D7966D917D918D919C91D7
:10F1B000DA970E9477C06B017C01F50120813181D3
:10F1C000428153810E94D8C00E9424B90E94B9B9DB
:10F1D00069877A878B879C87D8012D913D914D91C6
:10F1E0005C91C701B6010E94D8C00E9424B90E9458
:10F1F000B9B96D877E878F87988B29853A854B852E
:10F200005C85283731054105510540F488E790E0D9
:10F21000A0E0B0E089879A87AB87BC872D853E85C3
:10F220004F855889283731054105510540F488E755
:10F2300090E0A0E0B0E08D879E87AF87B88B91010A
:10F240002D5B3F4FD9018D919D910D90BC91A02DCB
:10F250008D839E83AF83B887BC01CD010E9479C0A6
:10F2600069837A838B839C8369857A858B859C856A
:10F270000E9477C0698B7A8B8B8B9C8B20E030E06F
:10F28000A90169817A818B819C810E9472C0882347
:10F2900039F1A7019601C701B6010E94D8C04B0100
:10F2A0005C0129893A894B895C89CA01B9010E94AC
:10F2B000D8C09B01AC01C501B4010E9445B84B0107
:10F2C0005C0129813A814B815C81CA01B9010E94AC
:10F2D00046B89B01AC01C501B4010E9440B903C00E
:10F2E00060E070E0CB010E9424B90E94B2B92B010A
:10F2F0003C016D817E818F81988590958095709578
:10F3000061957F4F8F4F9F4F0E9479C04B015C01E9
:10F310006D857E858F8598890E9477C06D837E83F9
:10F320008F83988720E030E0A901C501B4010E94D5
:10F3300072C0882349F12D813E814F815885CA01D1
:10F34000B9010E94D8C06D8B7E8B8F8B988FA701DF
:10F350009601C701B6010E94D8C09B01AC016D891E
:10F360007E898F89988D0E9445B86B017C01A5012B
:10F370009401C501B4010E9446B89B01AC01C701CC
:10F38000B6010E9440B903C060E070E0CB010E946A
:10F39000E8B9F10182889388A488B5887501640171
:10F3A000C418D508E608F7080E94B2B9C61AD70AE9
:10F3B000E80AF90AF7FE6BC020E030E0A901698194
:10F3C0007A818B819C810E9472C0882309F447C096
:10F3D00029813A814B815C81CA01B9010E9446B8FA
:10F3E0006B017C01C501B4010E9477C09B01AC0197
:10F3F000C701B6010E94D8C06B017C0129893A89F6
:10F400004B895C89CA01B9010E94D8C09B01AC013B
:10F41000C701B6010E9445B86B017C012D813E8178
:10F420004F815885CA01B9010E94D8C09B01AC0127
:10F43000C701B6010E9446B86B017C0120E030E0B4
:10F4400040E850E469817A818B819C810E94D8C018
:10F450009B01AC01C701B6010E9440B903C060E046
:10F4600070E0CB010E9424B90E94B2B92B013C018B
:10F4700097FF03C0412C512C3201481459046A04EF
:10F480007B0410F024013501C12CD12C76018FB7FB
:10F49000F894D1019C9193FD22C0F101468A578ACC
:10F4A000608E718EC40CD51CE61CF71C5A96CD924A
:10F4B000DD92ED92FC925D9729853A854B855C85BE
:10F4C000DB962D933D934D935C93DE97FF962D85B0
:10F4D0003E854F85588920833183428353838FBF74
:10F4E00068960FB6F894DEBF0FBECDBFDF91CF9107
:10F4F0001F910F91FF90EF90DF90CF90BF90AF9052
:10F500009F908F907F906F905F904F903F902F9043
:10F510000895E091590CF0915A0C82859385A48549
:10F52000B585181619061A061B060CF049C08091FD
:10F53000580C82FF45C080911707882309F440C00A
:10F5400099B18091900C282F30E0892F869586956F
:10F55000869591E08927482F417050E088279927A8
:10F56000841B950B822793278470992782279327E2
:10F570008093900C90918F0C9470892309F1809165
:10F580004B07846080934B0780913C0E90913D0E19
:10F59000A0913E0EB0913F0E80934707909348078D
:10F5A000A0934907B0934A0782899389A489B589B2
:10F5B0008093540C9093550CA093560CB093570C19
:10F5C0008091900C80938F0C08950F931F93CF938D
:10F5D000C82F882319F0E2EDF4E20CC0E2EAF7E26A
:10F5E00084918F010F5F1F4F8823A9F30E946E350E
:10F5F000F801F6CF84918F010F5F1F4F882321F010
:10F600000E946E35F801F6CF8AE00E946E35C11176
:10F610002DC0E2EAF7E284918F010F5F1F4F88232C
:10F6200021F00E946E35F801F6CFEFEBF4E2849101
:10F630008F010F5F1F4F882321F00E946E35F80164
:10F64000F6CF80918E0C882321F08AE00E946E35DF
:10F6500058C0E4EBF4E284918F010F5F1F4F8823C1
:10F6600009F44FC00E946E35F801F5CF40915B025E
:10F6700050915C0260915D0270915E028BEA94E2AF
:10F680000E94C83F8AE00E946E35C1110CC0E2EAB8
:10F69000F7E284918F010F5F1F4F882321F00E94B2
:10F6A0006E35F801F6CF40915F0250916002609193
:10F6B0006102709162028FE994E20E94C83F8AE081
:10F6C0000E946E3580918E0C811128C0CC2319F0D8
:10F6D000E4E9F4E20CC0E2EAF7E284918F010F5F03
:10F6E0001F4F8823A9F30E946E35F801F6CF84914D
:10F6F0008F010F5F1F4F882389F00E946E35F8013C
:10F70000F6CFE2EAF7E284918F010F5F1F4F882363
:10F7100009F4ACCF0E946E35F801F5CFC11124C0B9
:10F72000E2EAF7E284918F010F5F1F4F882321F0F7
:10F730000E946E35F801F6CFE3E8F4E284918F0180
:10F740000F5F1F4F882321F00E946E35F801F6CF1E
:10F75000E2EAF7E284918F010F5F1F4F882321F0C7
:10F760000E946E35F801F6CF4091440E5091450E3F
:10F770006091460E7091470E8BE794E20E94C83F5D
:10F780004091480E5091490E60914A0E70914B0E77
:10F7900088E794E20E94C83F40914C0E50914D0E74
:10F7A00060914E0E70914F0E85E794E20E94C83F23
:10F7B0008AE00E946E35CC2379F160E070E08DE63E
:10F7C00094E20E94E53F4091500E5091510E60919D
:10F7D000520E7091530E8AE694E20E94C83F8AE06E
:10F7E0000E946E3561E070E08DE694E20E94E53F94
:10F7F0004091540E5091550E6091560E7091570ED7
:10F800008AE694E20E94C83F8AE00E946E35C111E8
:10F8100031C0E2EAF7E20CC0E2EAF7E284918F013C
:10F820000F5F1F4F882349F20E946E35F801F6CF13
:10F8300084918F010F5F1F4F882321F00E946E3546
:10F84000F801F6CFECE4F4E284918F010F5F1F4FD3
:10F85000882321F00E946E35F801F6CFE2EAF7E244
:10F8600084918F010F5F1F4F882321F00E946E3516
:10F87000F801F6CF4091B8065091B9066091BA06EA
:10F880007091BB0683E494E20E94C83F4091BC069D
:10F890005091BD066091BE067091BF0680E494E26F
:10F8A0000E94C83F4091C0065091C1066091C206B7
:10F8B0007091C3068DE394E20E94C83F8AE00E94E3
:10F8C0006E35CC2379F160E070E084E394E20E942D
:10F8D000E53F4091C4065091C5066091C6067091FF
:10F8E000C70681E394E20E94C83F8AE00E946E3519
:10F8F00061E070E084E394E20E94E53F4091C80635
:10F900005091C9066091CA067091CB0681E394E2DA
:10F910000E94C83F8AE00E946E35C11131C0E2EA00
:10F92000F7E20CC0E2EAF7E284918F010F5F1F4F0C
:10F93000882349F20E946E35F801F6CF84918F0139
:10F940000F5F1F4F882321F00E946E35F801F6CF1C
:10F95000EFE0F4E284918F010F5F1F4F882321F0C5
:10F960000E946E35F801F6CFE2EAF7E284918F014A
:10F970000F5F1F4F882321F00E946E35F801F6CFEC
:10F980004091EE065091EF066091F0067091F106FD
:10F9900086E094E20E94AD6F4091F2065091F3062A
:10F9A0006091F4067091F50683E094E20E94AD6FD9
:10F9B0004091F6065091F7066091F8067091F906AD
:10F9C00080E094E20E94AD6F8AE00E946E35E2EA28
:10F9D000F7E284918F010F5F1F4F81112FC060E00C
:10F9E00070E087EF93E20E94E53F4091FA06509164
:10F9F000FB066091FC067091FD0684EF93E20E9485
:10FA0000AD6F8AE00E946E3561E070E087EF93E2AF
:10FA10000E94E53F4091FE065091FF06609100076D
:10FA20007091010784EF93E20E94AD6F8AE00E941B
:10FA30006E35C11129C0E2EAF7E204C00E946E35BA
:10FA4000F801C7CF84918F010F5F1F4F882321F0EA
:10FA50000E946E35F801F6CFEAEAF3E284918F0155
:10FA60000F5F1F4F882321F00E946E35F801F6CFFB
:10FA7000E2EAF7E284918F010F5F1F4F882321F0A4
:10FA80000E946E35F801F6CF4091B0065091B10654
:10FA90006091B2067091B30681EA93E20E94C83F7A
:10FAA0004091B4065091B5066091B6067091B706C4
:10FAB0008EE993E20E94C83F4091AC065091AD069A
:10FAC0006091AE067091AF068BE993E20E94C83F49
:10FAD0008AE00E946E35C11124C0E2EAF7E2849107
:10FAE0008F010F5F1F4F882321F00E946E35F801B0
:10FAF000F6CFE7E2F3E284918F010F5F1F4F882377
:10FB000021F00E946E35F801F6CFE2EAF7E2849127
:10FB10008F010F5F1F4F882321F00E946E35F8017F
:10FB2000F6CF4091D0065091D1066091D2067091E7
:10FB3000D3068EE193E20E94C83F4091CC065091DB
:10FB4000CD066091CE067091CF068BE193E20E94C4
:10FB5000C83F40918A0C50918B0C60918C0C709135
:10FB60008D0C88E193E20E94AD6F40919C0650910C
:10FB70009D0660919E0670919F0685E193E20E942A
:10FB8000C83F4091A0065091A1066091A2067091D5
:10FB9000A30682E193E20E94C83F4091A4065091DF
:10FBA000A5066091A6067091A7068FE093E20E94D9
:10FBB000C83F4091A8065091A9066091AA0670918D
:10FBC000AB068CE093E20E94C83F8AE00E946E354B
:10FBD000C11124C0E2EAF7E284918F010F5F1F4F49
:10FBE000882321F00E946E35F801F6CFEEEFF2E2A5
:10FBF00084918F010F5F1F4F882321F00E946E3583
:10FC0000F801F6CFE2EAF7E284918F010F5F1F4F10
:10FC1000882321F00E946E35F801F6CF40917E0CCA
:10FC200050917F0C6091800C7091810C85EF92E275
:10FC30000E94C83F4091820C5091830C6091840CCB
:10FC40007091850C82EF92E20E94C83F4091860C31
:10FC50005091870C6091880C7091890C8FEE92E224
:10FC60000E94C83F8AE00E946E35C11124C0E2EABA
:10FC7000F7E284918F010F5F1F4F882321F00E94CC
:10FC80006E35F801F6CFEBEDF2E284918F010F5F54
:10FC90001F4F882321F00E946E35F801F6CFE2EA6B
:10FCA000F7E284918F010F5F1F4F882321F00E949C
:10FCB0006E35F801F6CF60919A0670E082ED92E21F
:10FCC0000E94E53F409196065091970660919806F4
:10FCD000709199068FEC92E20E94C83F8AE00E94E0
:10FCE0006E35C11124C0E2EAF7E284918F010F5F03
:10FCF0001F4F882321F00E946E35F801F6CFE0EC0B
:10FD0000F2E284918F010F5F1F4F882321F00E9440
:10FD10006E35F801F6CFE2EAF7E284918F010F5FCA
:10FD20001F4F882321F00E946E35F801F6CF4091D5
:10FD30007A0250917B0260917C0270917D0287EB88
:10FD400092E20E94C83F2CEA35EC47E25EE3609104
:10FD500076027091770280917802909179020E94E8
:10FD600040B9AB01BC0184EB92E20E94CA6F2CEA5D
:10FD700035EC47E25EE360917E0270917F028091F4
:10FD80008002909181020E94D8C0AB01BC0181EB3E
:10FD900092E20E94CA6F8AE00E946E35C11124C0AF
:10FDA000E2EAF7E284918F010F5F1F4F882321F071
:10FDB0000E946E35F801F6CFEBE9F2E284918F01F3
:10FDC0000F5F1F4F882321F00E946E35F801F6CF98
:10FDD000E2EAF7E284918F010F5F1F4F882321F041
:10FDE0000E946E35F801F6CF40916D0250916E027F
:10FDF00060916F027091700282E992E20E94C83FA6
:10FE00008AE0CF911F910F910C946E35AF92BF9203
:10FE1000CF92DF92EF92FF920F931F93CF93DF93D6
:10FE2000CDB7DEB7EC970FB6F894DEBF0FBECDBFEF
:10FE300084E1E9E1F3E0DE01999601900D928A9563
:10FE4000E1F784E1EDE2F3E0DE01559601900D92D9
:10FE50008A95E1F784E1E1E4F3E0DE011196019097
:10FE60000D928A95E1F7DE01999664E47EE0AE0199
:10FE70004B5E5F4F28EB36E0CE0101965C018EEEC3
:10FE800096E08E01035C1F4FCD90DD90ED90FD90CC
:10FE9000FB01C192D192E192F192BF01FA01C190AE
:10FEA000D190E190F190AF01F901C192D192E1922C
:10FEB000F1929F01F501C190D190E190F1905F0125
:10FEC000FC01C192D192E192F192CF01A017B1074A
:10FED000D9F680E090E0A0EAB1E48093B006909378
:10FEE000B106A093B206B093B30680E090E8ABE30E
:10FEF000B5E48093B4069093B506A093B606B0938C
:10FF0000B70680E090E0A6E1B3E48093AC0690935E
:10FF1000AD06A093AE06B093AF061092D006109235
:10FF2000D1061092D2061092D30680E29EE4A0E0A1
:10FF3000B0E080938A0C90938B0CA0938C0CB093C0
:10FF40008D0C1092CC061092CD061092CE06109217
:10FF5000CF068BE89CE6A7EBBFE380939C069093CB
:10FF60009D06A0939E06B0939F0689E29CE5A7E3B9
:10FF7000B0E48093A0069093A106A093A206B0934C
:10FF8000A3068DEC9CECACECBEE38093A4069093AE
:10FF9000A506A093A606B093A70680E090E0A0EA8D
:10FFA000B0E48093A8069093A906A093AA06B09304
:10FFB000AB06109296061092970610929806109231
:10FFC00099068CE0EEE7FCE0DF011D928A95E9F7E7
:10FFD0000E94E15786E696E6A6E8B0EC80936D02B3
:10FFE00090936E02A0936F02B09370028AE999E930
:10FFF000A1EBB1E480937A0290937B02A0937C0200
:020000021000EC
:10000000B0937D0286EA91E3A5E3BEE38093760296
:1000100090937702A0937802B093790280E493EFF3
:10002000ADE2B4E480937E0290937F02A0938002BD
:10003000B093810210928E0C80E090E0A0E4B0E4D6
:1000400080935B0290935C02A0935D02B0935E028A
:1000500080935F0290936002A0936102B09362026A
:1000600010925D0F10927D0C0E94EF80E2EAF7E2A1
:1000700084918F010F5F1F4F882321F00E946E35FE
:10008000F801F6CFEFE6F2E284918F010F5F1F4F88
:10009000882321F00E946E35F801F6CFEC960FB65A
:1000A000F894DEBF0FBECDBFDF91CF911F910F91AE
:1000B000FF90EF90DF90CF90BF90AF900895DF92C8
:1000C000EF92FF920F931F93CF93DF937C01EB018D
:1000D000D090AF0C8B01040F151FF7018081918127
:1000E0000E9440C4D11001C088832091A90C309196
:1000F000AA0CA901480F511D5093AA0C4093A90CBA
:10010000F701808191810196918380832196C017A8
:10011000D10719F7DF91CF911F910F91FF90EF90C9
:10012000DF900895AF92BF92DF92EF92FF920F930C
:100130001F93CF93DF932091A00C211146C08A0119
:100140007C01EB01060F171FC017D10709F43DC052
:10015000F701A080B180D990C5010E9440C4D81693
:1001600019F16D2DC5010E9448C4C5010E9440C40B
:100170008D15D1F0E2EAF7E28491EF012196882310
:1001800021F00E946E35FE01F7CFEBE4F5E2849199
:10019000EF012196882321F00E946E35FE01F7CFF2
:1001A00081E08093A00C11C08091A90C9091AA0CC1
:1001B0008D0D911D9093AA0C8093A90CF70180815D
:1001C0009181019691838083BFCFDF91CF911F9161
:1001D0000F91FF90EF90DF90BF90AF9008950E9435
:1001E00042400E94C8400E9412A280E090E00E941B
:1001F000BC5F81E090E00E94BC5F82E090E00E94E2
:10020000BC5F6091960670919706809198069091D8
:1002100099060E945A570E940B920C9448782F928C
:100220003F924F925F926F927F928F929F92AF9286
:10023000BF92CF92DF92EF92FF920F931F93CF93D3
:10024000DF93CDB7DEB7C656D1090FB6F894DEBF3F
:100250000FBECDBF2DB73EB7A5963FAF2EAFA5972A
:1002600084E690E06B969FAF8EAF6B971092AF0CC9
:1002700044E050E0BE01635B7F4FCE01875A9F4F41
:100280000E945F8042E050E0BE01695A7F4FCE017C
:10029000875A9F4F0E945F8043E050E0BE01635B3E
:1002A0007F4F81E993E00E948FBB892B09F43AC00C
:1002B0002E968FAD2E97863539F08FE32E968FAF21
:1002C0002E972F961FAE2F97E2EAF7E284918F01C7
:1002D0000F5F1F4F882321F00E946E35F801F6CF83
:1002E000ECEBF5E284918F010F5F1F4F882321F023
:1002F0000E946E35F801F6CFBE01635B7F4F83EB42
:1003000095E20E941A40E5EAF5E284918F010F5FC1
:100310001F4F882321F00E946E35F801F6CF0E940E
:10032000067F5EC36DB67EB62D961CAE1DAE1EAEAC
:100330001FAE2D971092AA0C1092A90C41E050E02C
:10034000BE016E597F4FCE01875A9F4F0E945F803A
:1003500084E1E5E5F3E0DE01999601900D928A953E
:10036000E1F784E1E9E6F3E0DE01559601900D92B4
:100370008A95E1F784E1EDE7F3E08E010F5F1F4F0F
:10038000D80101900D928A95E1F7A396CFACA3977F
:10039000D12C33E0C30ED11CCC0CDD1CCC0CDD1CED
:1003A0008DB79EB78C199D090FB6F8949EBF0FBEEE
:1003B0008DBFEDB7FEB731964F012DB73EB72C1963
:1003C0003D090FB6F8943EBF0FBE2DBF8DB79EB747
:1003D00001965C01EDB7FEB7EC19FD090FB6F89474
:1003E000FEBF0FBEEDBF2DB73EB72F5F3F4F790168
:1003F000A601B401CE01875A9F4F0E945F80A601DB
:10040000B501CE01875A9F4F0E945F80A601B701B8
:10041000CE01875A9F4F0E945F80A3962FADA3976E
:1004200030E02E5F3F4F8EEE96E0A7969FAF8EAFE7
:10043000A79768EB76E0A4E4BEE080E090E040E0BF
:1004400050E02417350714F0640105C0F9E2CF2EFF
:10045000D12CCC0EDD1EC80ED91EF60120803180B5
:10046000428053802D923D924D925D922417350724
:1004700014F0650105C0E5E1CE2ED12CCC0EDD1EB9
:10048000C80ED91EF6012080318042805380FB01C6
:100490002192319241925192BF012417350714F0F5
:1004A000670101C06801C80ED91EF60120803180A5
:1004B00042805380A796EEADFFADA797219231926F
:1004C00041925192A796FFAFEEAFA7974F5F5F4F54
:1004D00004964530510509F0B4CF44E050E060EB9C
:1004E00076E0CE01875A9F4F0E945F8044E050E043
:1004F00064EB76E0CE01875A9F4F0E945F8044E014
:1005000050E06CEA76E0CE01875A9F4F0E945F80F0
:1005100044E050E060ED76E0CE01875A9F4F0E94A4
:100520005F8044E050E06CEC76E0CE01875A9F4F4C
:100530000E945F8044E050E06AE87CE0CE01875A88
:100540009F4F0E945F8040E150E06CE976E0CE0171
:10055000875A9F4F0E945F804CE050E06EE77CE03E
:10056000CE01875A9F4F0E945F8044E050E066E9C9
:1005700076E0CE01875A9F4F0E945F8041E050E0B5
:10058000BE016F597F4FCE01875A9F4F0E945F80F7
:1005900044E050E0BE01675B7F4FCE01875A9F4F1A
:1005A0000E945F8041E050E0BE01605A7F4FCE0163
:1005B000875A9F4F0E945F8041E050E0BE01615A20
:1005C0007F4FCE01875A9F4F0E945F80A1968FADCB
:1005D000A197A0960FADA097809F80011124E12CD8
:1005E000F12C44E050E0E016F10661F0BE01675BDB
:1005F0007F4FCE01875A9F4F0E945F80FFEFEF1A17
:10060000FF0AEFCF6DE672E0CE01875A9F4F0E943E
:100610005F801AE0115059F044E050E0BE01675B82
:100620007F4FCE01875A9F4F0E945F80F3CF41E0FA
:1006300050E0BE01625A7F4FCE01875A9F4F0E9401
:100640005F8041E050E0BE01635A7F4FCE01875A80
:100650009F4F0E945F806F968FAD6F97873021F517
:100660006E968FAD6E978730F9F480E00E949F57A9
:1006700044E050E065EA7CE0CE01875A9F4F0E943B
:100680005F8044E050E061EA7CE0CE01875A9F4FF2
:100690000E945F8044EC50E06DE67DE0CE01875A19
:1006A0009F4F0E945F8030C044E050E0BE016F5B0E
:1006B0007F4FCE01875A9F4F0E945F8044E050E0F9
:1006C000BE01635C7F4FCE01875A9F4F0E945F80BF
:1006D0006F968FAD6F976E960FAD6E97809F80016E
:1006E0001124E12CF12CE016F10671F044E050E009
:1006F000BE01675B7F4FCE01875A9F4F0E945F808C
:100700002FEFE21AF20AEFCF41E050E0BE01645A47
:100710007F4FCE01875A9F4F0E945F8044E050E098
:10072000BE01675B7F4FCE01875A9F4F0E945F805B
:1007300041E050E0BE01655A7F4FCE01875A9F4F7E
:100740000E945F802D961CAE1DAE1EAE1FAE2D9773
:100750001DE0115044E050E0BE0141F0675B7F4F67
:10076000CE01875A9F4F0E945F80F3CF6B5B7F4F14
:10077000CE01875A9F4F0E945F8044E050E0BE0147
:100780006F5B7F4FCE01875A9F4F0E945F8044E08E
:1007900050E0BE01635C7F4FCE01875A9F4F0E949D
:1007A0005F8044E050E0BE01675B7F4FCE01875A17
:1007B0009F4F0E945F80111135C02D96CCACDDACEF
:1007C000EEACFFAC2D9720E030E84BE355E4C701D9
:1007D000B6010E9472C0882329F1C0927A02D09299
:1007E0007B02E0927C02F0927D0244E050E066E7FA
:1007F00072E0CE01875A9F4F0E945F8044E050E034
:100800006EE772E0CE01875A9F4F0E945F8044E0FE
:1008100050E0BE01675B7F4FCE01875A9F4F0E9419
:100820005F800EC004E0015059F044E050E0BE018A
:10083000675B7F4FCE01875A9F4F0E945F80F3CF47
:100840001F5F153009F0ADCF42E050E0BE016B5A9A
:100850007F4FCE01875A9F4F0E945F8014E0115056
:1008600059F044E050E0BE01675B7F4FCE01875AEC
:100870009F4F0E945F80F3CF42E050E0BE016D5A6F
:100880007F4FCE01875A9F4F0E945F8041E050E02A
:100890006EE87CE0CE01875A9F4F0E945F808BE517
:1008A000E82E82E0F82E44E050E0BE01675B7F4F07
:1008B000CE01875A9F4F0E945F80123058F42D96C8
:1008C0008CAD9DADAEADBFAD2D97F701808391830B
:1008D000A283B3831F5FF4E0EF0EF11C153019F70C
:1008E0001BE042E050E0BE016F5A7F4FCE01875AB5
:1008F0009F4F0E945F801150A1F744E050E0BE017D
:10090000675B7F4FCE01875A9F4F0E945F8044E014
:1009100050E0BE01675B7F4FCE01875A9F4F0E9418
:100920005F802091A90C3091AA0C69968EAD9FAD85
:10093000699728173907B1F58091AF0C882319F012
:100940000E94067F48C00E94EF80E2EAF7E28491AD
:100950008F010F5F1F4F811103C001E913E004C035
:100960000E946E35F801F3CFF80181918F01882341
:1009700019F00E946E35F8CF6B966EAD7FAD6B9718
:100980006456710988E895E20E94E53FEFE7F5E2D9
:1009900084918F010F5F1F4F8823E9F00E946E350D
:1009A000F801F6CFE1E7F2E184918F010F5F1F4F6D
:1009B000882321F00E946E35F801F6CFE5E6F5E2D6
:1009C00084918F010F5F1F4F882309F4B9CF0E94D4
:1009D0006E35F801F5CF0FB6F8947EBE0FBE6DBE32
:1009E00080E00E94E57A9091AF0C81E08927A5967E
:1009F0002EAD3FADA5970FB6F8943EBF0FBE2DBFED
:100A0000CA59DF4F0FB6F894DEBF0FBECDBFDF91DE
:100A1000CF911F910F91FF90EF90DF90CF90BF90FB
:100A2000AF909F908F907F906F905F904F903F908E
:100A30002F9008958F929F92AF92BF92CF92DF92A4
:100A4000EF92FF920F931F93CF93DF93EC018B01F3
:100A500040E050E0BA01C8010E9493A2EAE6FEE03D
:100A600024813581468157816081718182819381A2
:100A70000E9446B820E030E044EB52E40E9446B8C1
:100A80002BED3FE049E450E40E94D8C020E030E084
:100A900044E353E40E9440B96B017C010E943BB9DE
:100AA00020E030E048EE51E40E94D8C0F8012481F3
:100AB0003581468157810E9446B84B015C01C701D0
:100AC000B6010E9406BB20E030E048EE51EC0E94E7
:100AD000D8C09B01AC01F801608171818281938152
:100AE0000E9446B8688379838A839B838C829D8227
:100AF000AE82BF82188619861A861B86CE01DF91C8
:100B0000CF911F910F91FF90EF90DF90CF90BF900A
:100B1000AF909F908F9008958D9AE8E1F7E0108252
:100B2000A59A1182759A12820C940FA2E1E7F2E164
:100B30008491EF012196882321F00E946E35FE01F9
:100B4000F7CFEBE2F5E28491EF012196882321F0C3
:100B50000E946E35FE01F7CF0E94E89E0E948C85B0
:100B60002FEF8BE49DE1215080409040E1F700C0E1
:100B70000000F8942FEF84E39CE0215080409040E7
:100B8000E1F700C000000E94E89EA895FECF4F92BA
:100B90005F926F927F928F929F92AF92BF92CF920D
:100BA000DF92EF92FF920F931F93CF93DF93C09149
:100BB000950CCC2391F00E94C9A90091910C109141
:100BC000920C2091930C3091940CDC01CB01801B92
:100BD000910BA20BB30BB7FFB0C180914D078430CE
:100BE00010F40E943C360E94C9A9C0909C0CD09081
:100BF0009D0CE0909E0CF0909F0CC114D104E10478
:100C0000F10471F10091980C1091990C20919A0CBB
:100C100030919B0C0C0D1D1D2E1D3F1D6B017C0189
:100C2000C01AD10AE20AF30AF7FC1AC0E1E7F2E1BE
:100C30008491EF012196882321F00E946E35FE01F8
:100C4000F7CF6091960C7091970C81EF94E20E941F
:100C50001A408AE00E946E3588EE94E20E949685E2
:100C6000C0906302D0906402E0906502F09066024A
:100C7000C114D104E104F104D9F00091980C109151
:100C8000990C20919A0C30919B0C0C0D1D1D2E1D62
:100C90003F1DDC01CB01801B910BA20BB30BB7FDF9
:100CA00007C090919A0E80919B0E981709F463C12A
:100CB0008091D4066091D60620919A0E90919B0E59
:100CC000291302C0C62F1AC0E0919B0E9FE49E9F7D
:100CD000F0011124E555F84F8081E0919B0E9E9F15
:100CE000F0011124E355F84FC08190919B0E2091A3
:100CF0009A0E921719F09F5F9F70F9CF682F70E0DE
:100D000086E00E94208E6C2F70E087E00E94208E8B
:100D100080915C0F882309F4FAC00091350210918C
:100D20003602D0913702C09138026091600F709105
:100D3000610F6E5F7F4F072E000C880B990B0E948E
:100D400079C098014D2F5C2F0E9472C087FDDFC0D3
:100D5000F0909B0E912CA12CB12CE12C8FE4882ECD
:100D600080919A0EF81609F45CC08F2D90E0889E51
:100D7000F001899EF00D1124EC59F84F4281538106
:100D800064817581452B462B472B81F44681578121
:100D900060857185452B462B472B41F44285538551
:100DA00064857585452B462B472BB1F1889E9001B4
:100DB000899E300D1124C9018C59984F6C01FC019A
:100DC00066857785808991890E9479C02B013C01D5
:100DD000F60162897389848995890E9477C09B0195
:100DE000AC01C301B2010E9440B9F60123A134A1B4
:100DF00045A156A10E94D8C03B016C019B01AC01EA
:100E0000692D7A2D8B2D9E2D0E9472C087FF04C004
:100E1000962CA72CBC2CED2C81E08F0D8F70F82E1A
:100E20009FCF2091390230913A0240913B0250917C
:100E30003C02692D7A2D8B2D9E2D0E94D8C09B01DE
:100E4000AC01B8018D2F9C2F0E9446B86B017C012C
:100E500098014D2F5C2F0E9472C087FD14C0009135
:100E6000310210913202D0913302C09134029801C4
:100E70004D2F5C2FB601C7010E94C6BA18161CF090
:100E80008601DE2DCF2DC090AB0CD090AC0CE09045
:100E9000AD0CF090AE0CA7019601B8018D2F9C2FE0
:100EA0000E9472C087FF1CC020E037ED43EA5CE37C
:100EB000B8018D2F9C2F0E94D8C04B015C0128E403
:100EC00031EE4AE75FE3C701B6010E94D8C09B013B
:100ED000AC01C501B4010E9446B88B01D82FC92FBF
:100EE000C801AD2FBC2F8093AB0C9093AC0CA0939A
:100EF000AD0CB093AE0CB8018D2F9C2F0E94B2B9EF
:100F00007093610F6093600F80E00E94B59E0E9415
:100F10000FA184E09FE0DF91CF911F910F91FF908F
:100F2000EF90DF90CF90BF90AF909F908F907F9089
:100F30006F905F904F900C94D52F0E94C9A96B01C0
:100F40007C012C2F30E0A8EEB3E00E94BAC4DC0193
:100F5000CB018C0D9D1DAE1DBF1D8093910C9093F8
:100F6000920CA093930CB093940C0E94B5398AE034
:100F70000E946E3532CE8D9A10921807A59A109263
:100F80001907759A10921A070E940FA291CE8F929C
:100F90009F92AF92BF92CF92DF92EF92FF920F9308
:100FA0001F93CF93DF9380E50E947633882309F463
:100FB0004AC10E94B8335C0184E0A816B10408F06D
:100FC00027C183E50E947633882309F4A1C00E94DB
:100FD000B833EC014501880C991C84010A0D1B1DD6
:100FE0000850114F60E070E0C8010E94D06E87FD8C
:100FF0002AC1C032E2E0DE070CF042C0F801828173
:1010000068E572E0681B710987FD7395660F771FAD
:10101000660F771FCB01770FAA0BBB0B218148E826
:1010200050E06A01C21AD10827FDD394CC0CDD1C14
:10103000CC0CDD1C0D2C000CEE08FF08D7FD0AC0FF
:10104000C53BD10514F0C4EBD0E09E01DD0F440B8D
:10105000550B03C020E030E0A901BC01CD016C19A3
:101060007D098E099F090E9456C424EB30E040E0C0
:1010700050E00E9488C4C20ED31EE41EF51EE60195
:10108000F401EA0DFB1DE850F14F8081883170F5C5
:10109000918128E830E0291B310997FD3395220F13
:1010A000331F220F331FC217D30774F0928128E534
:1010B00032E0291B310997FD3395220F331F220F90
:1010C000331F2C173D070CF4E90122972FB7F89432
:1010D00090E0FC01EE0FFF1F8E0F9F1FFC01E456F6
:1010E000F14FCC0FDD1FD283C1832FBF6CE271E0C3
:1010F00080E090E0DF91CF911F910F91FF90EF90F2
:10110000DF90CF90BF90AF909F908F900C94088FFE
:10111000E2EAF7E28491EF012196882321F00E9410
:101120006E35FE01F7CFB5018DE496E20E94E53FF2
:10113000F501EE0FFF1FEA0DFB1DE850F14F828114
:1011400028E532E06901C81AD10887FDD394CC0C98
:10115000DD1CCC0CDD1C0D2C000CEE08FF08818181
:1011600028E830E04901881A910887FD9394880C9B
:10117000991C880C991C092C000CAA08BB088081BA
:101180008F3FC1F090E0FC01EE0FFF1F8E0F9F1FFD
:10119000FC01E456F14F2181328143E0220F331FDD
:1011A0004A95E1F754E0369527955A95E1F72E5F79
:1011B0003F4F02C020E030E02F5F3F4FC901330FA7
:1011C000AA0BBB0B9C01AD01281939094A095B091F
:1011D000A4EBB0E00E94A7C4A70196012819390921
:1011E0004A095B090E9488C4B9018AE496E20E9418
:1011F000E53F8AE0DF91CF911F910F91FF90EF9033
:10120000DF90CF90BF90AF909F908F900C946E35F1
:10121000E1E7F2E18491EF012196882321F00E9419
:101220006E35FE01F7CFB50183E496E20E94E53FFB
:10123000E4E3F6E28491EF012196882321F00E94F5
:101240006E35FE01F7CFDF91CF911F910F91FF9087
:10125000EF90DF90CF90BF90AF909F908F900895C8
:101260000F931F93CF93DF9381E40E9476338823FB
:1012700021F00E9489330E94109182E40E9476330B
:10128000882321F00E948933C82F01C0C1E0D0918A
:10129000510FDD2321F09FEF9C0F903218F0E1E712
:1012A000F2E190C08091E70E8111FCCF81E0809344
:1012B000E70E8093E60E2FEF2093F20C1092140DA0
:1012C0009093130D8093150D8091150D9D2F990FFF
:1012D000892B8093150D8091E50E813061F4109279
:1012E000E50E8091150D8093BB008091BC0083FDBD
:1012F000F8CF85EC01C085EE8093BC008091E70EAD
:101300008130E1F38091140D8C1718F48091140D45
:1013100001C08C2FA3EFBCE022ED3CE0F9019E2F31
:10132000921B981718F49D919193F9CF1092EB0EA0
:101330008093EA0E882309F45AC0E2EAF7E2849126
:101340008F010F5F1F4F882321F00E946E35F80137
:10135000F6CFEAE2F6E284918F010F5F1F4F8823F8
:1013600021F00E946E35F801F6CF6D2F70E080E21B
:1013700096E20E94E53F6C2F70E088E196E20E94C1
:10138000E53FE1E1F6E284918F010F5F1F4F882373
:1013900099F00E946E35F801F6CF9091EA0E809197
:1013A000EB0E9817E9F08CEE9EE00E94B18BBC0129
:1013B00088E296E20E94E53FC15090F0EECF0E9495
:1013C0006E35F80184918F010F5F1F4F8111F7CFA8
:1013D000C3E1D4E08991882319F00E946E35FACFD9
:1013E0008AE0DF91CF911F910F910C946E35DF91C0
:1013F000CF911F910F91089581E40E947633882345
:1014000021F00E9489330E94109182E40E94763379
:10141000882371F00E948933E091300FE03240F46C
:1014200091E09E0F9093300FF0E0E05DF04F8183EC
:1014300083E50E947633882309F46EC08091510FB2
:1014400091E09093D10C8093B00C1092E90E109221
:10145000E80EE091EC0EF091ED0E4091300F50E06F
:101460000280F381E02D61E37FE08CEE9EE0199530
:101470009091E80E8091B00C913208F046C0209116
:10148000E70E2111FCCF22E02093E70E21E020930C
:10149000E60E2FEF2093F20C1092140D9093130D83
:1014A000A1EBBCE043EF5CE0FA012E2F241B2917CF
:1014B00018F42D912193F9CF1092150D9091150DDF
:1014C000880F892B8093150D8091E50E813061F492
:1014D0001092E50E8091150D8093BB008091BC00A9
:1014E00083FDF8CF85EC01C085EE8093BC00809130
:1014F000E70E8230E1F38091F20C8F3F31F0809162
:10150000F20C803211F08091F20C1092E90E1092E0
:10151000E80E1092D10C05C082E50E947633882334
:1015200021F01092300F1092310F08954F925F9278
:101530006F927F928F929F92AF92BF92CF92DF92E3
:10154000EF92FF92CF93DF93EEE0F6E28491EF010A
:101550002196882321F00E946E35FE01F7CF60911D
:101560005A0E70915B0E80915C0E90915D0E42E080
:101570000E94C737EAE0F6E28491EF0121968823C2
:1015800021F00E946E35FE01F7CF60915E0E7091E2
:101590005F0E8091600E9091610E42E00E94C7370D
:1015A000E6E0F6E28491EF012196882321F00E9483
:1015B0006E35FE01F7CF6091620E7091630E8091DF
:1015C000640E9091650E42E00E94C737E2E0F6E2B9
:1015D0008491EF012196882321F00E946E35FE014F
:1015E000F7CF6091660E7091670E8091680E9091B2
:1015F000690E42E00E94C7378FB7F8944090340ECE
:101600005090350E6090360E7090370E8090380EE8
:101610009090390EA0903A0EB0903B0EC0903C0EC8
:10162000D0903D0EE0903E0EF0903F0E8FBFEDED5E
:10163000F5E28491EF012196882321F00E946E3516
:10164000FE01F7CFC301B2010E94DD35E9EDF5E2FD
:101650008491EF012196882321F00E946E35FE01CE
:10166000F7CFC501B4010E94DD35E5EDF5E28491C7
:10167000EF012196882321F00E946E35FE01F7CFFD
:10168000C701B6010E94DD358AE00E946E3580E018
:1016900090E00E94E7A1AB01BC0185EF95E20E94BA
:1016A000C83F81E090E00E94E7A1AB01BC0187EE5A
:1016B00095E20E94C83F8AE00E946E358AE0DF9181
:1016C000CF91FF90EF90DF90CF90BF90AF909F9021
:1016D0008F907F906F905F904F900C946E3585ED5A
:1016E0008093BC008091BC0084FDFCCF1092E70E7B
:1016F00008954091380D262F30E0240F311D2132FE
:101700003105DCF42091E70E2430C9F4FC0180E0BF
:1017100090E0861758F43091380D2191DC01AA5ED3
:10172000B24FA30FB11D2C930196F3CF8091380DCA
:10173000680F6093380D80E0089581E0089582E09D
:1017400008950895E091EB0E8091EA0EE81730F4C9
:10175000F0E0EE52F34F808190E008958FEF9FEF1D
:1017600008959091EB0E8091EA0E981750F4E92FAE
:10177000F0E0EE52F34F208130E09F5F9093EB0E4C
:1017800002C02FEF3FEFC90108958091EA0E90E06B
:101790002091EB0E821B91090895CF92DF92EF9278
:1017A000FF920F931F93CF93DF937C01262F972FE8
:1017B0008A018091D10C882391F0C62FD72F6E011A
:1017C000C40ED51ECC15DD0571F06991D701ED91E0
:1017D000FC910190F081E02DC7011995F3CF642FA2
:1017E000822F0E94798BC801DF91CF911F910F91B9
:1017F000FF90EF90DF90CF900895CF93DF931F92EB
:10180000CDB7DEB769832091D10C2223D1F020918E
:10181000E80E203240F021E030E0FC0133832283E7
:1018200080E090E015C08091E90EE82FF0E0EF54E1
:10183000F34F998190838F5F8093E90E8093E80E38
:1018400005C061E0CE0101960E94798B81E090E0B5
:101850000F90DF91CF91089590E0FC013197E23134
:10186000F10508F04EC08827EE55FF4F8F4F0C94BE
:101870002CB8809180008F7703C0809180008F7D8D
:1018800080938000089580918000877FF9CF84B590
:101890008F7702C084B58F7D84BD08958091B0009C
:1018A0008F7703C08091B0008F7D8093B000089542
:1018B000809190008F7707C0809190008F7D03C04A
:1018C00080919000877F8093900008958091A00080
:1018D0008F7707C08091A0008F7D03C08091A0000A
:1018E000877F8093A0000895809120018F7707C0A3
:1018F000809120018F7D03C080912001877F80939C
:10190000200108951F920F920FB60F9211240BB66B
:101910000F922F933F934F935F936F937F938F9388
:101920009F93AF93BF93EF93FF938091B900887F0C
:10193000803609F49CC068F5883209F45BC090F4E5
:10194000803109F454C038F4882309F4F6C0883093
:1019500009F44DC0F6C0883109F44CC0803209F456
:101960005DC0EFC0803409F468C048F4803309F4E6
:1019700055C0883309F0E5C08093F20CD8C080359B
:1019800009F44FC0883509F45DC0883409F0D9C026
:10199000D6C0883909F4C7C0A8F4883709F467C0ED
:1019A00038F4883609F463C0803709F460C0C9C0D0
:1019B000883809F4B8C0803909F45FC0803809F06C
:1019C000C0C05BC0803B09F486C038F4803A09F49B
:1019D00066C0883A09F47FC0B4C0803C09F4A7C04F
:1019E000883C09F4A4C0883B09F48AC0AAC080914D
:1019F000150D10C09091140D8091130D981770F56E
:101A0000E091140D81E08E0F8093140DF0E0ED5005
:101A1000F34F80818093BB0085EC86C08093F20CED
:101A20008EC0E091140D81E08E0F8093140D809193
:101A3000BB00F0E0ED50F34F80839091140D809146
:101A4000130D6EC0E091140D81E08E0F8093140D84
:101A50008091BB00F0E0ED50F34F80838091E60E63
:101A600081116DC081E08093E50E84EA61C083E05E
:101A70008093E70E10925C0DCFCF80915C0D803289
:101A800008F051C0E0915C0D81E08E0F80935C0DF9
:101A90008091BB00F0E0E45CF24F8083BDCF85EC29
:101AA0008093BC001092E70E80915C0D803230F480
:101AB000E0915C0DF0E0E45CF24F108260915C0D0F
:101AC00070E0E0913A0DF0913B0D8CE39DE01995AB
:101AD00010925C0D36C084E08093E70E1092390DB1
:101AE0001092380DE091360DF091370D19958091D7
:101AF000380D811105C081E08093380D1092160DCC
:101B0000E091390D81E08E0F8093390DF0E0EA5EAF
:101B1000F24F80818093BB009091390D8091380DF8
:101B2000981708F479CF85E88093BC000AC085EC4B
:101B30008093BC001092E70E04C01092F20C0E9439
:101B40006F8BFF91EF91BF91AF919F918F917F919B
:101B50006F915F914F913F912F910F900BBE0F901E
:101B60000FBE0F901F9018951F93CF93DF93282FD0
:101B700030E0F901E15DF84D8491F901E751F94D4B
:101B8000D491F901ED55F94DC491CC23C9F0162F2C
:101B900081110E942C8CEC2FF0E0EE0FFF1FE15919
:101BA000F94DA591B4918FB7F894111105C09C918E
:101BB000ED2FE095E92302C0EC91ED2BEC938FBF64
:101BC000DF91CF911F910895CF93DF9390E0FC01B7
:101BD000E751F94D2491FC01ED55F94D849188238D
:101BE00061F190E0880F991FFC01EB5AF94DC59106
:101BF000D491FC01E159F94DA591B491611109C04D
:101C00009FB7F8948881209582238883EC912E23B6
