:020000021000EC
:10F000000C943EF80C9450F80C9450F80C9450F872
:10F010000C9450F80C9450F80C9450F80C9450F850
:10F020000C9450F80C9450F80C9450F80C9450F840
:10F030000C9450F80C9450F80C9450F80C9450F830
:10F040000C9450F80C9450F80C9450F80C9450F820
:10F050000C9450F80C9450F80C9450F80C9450F810
:10F060000C9450F80C9450F80C9450F80C9450F800
:10F070000C9450F80C9450F80C9450F811241FBEC6
:10F08000CFEFD0E1DEBFCDBF12E0A0E0B1E001C024
:10F090001D92A930B107E1F70E9471F90C944FFB62
:10F0A0000C9400F89091C00095FFFCCF8093C600AF
:10F0B00008951F93282F332727FD3095207F307028
:10F0C00094E0359527959A95E1F72A3014F0295A5E
:10F0D00001C0205D182F1F701A3014F0195A01C09A
:10F0E000105D822F0E9452F8812F0E9452F81F91CA
:10F0F0000895EF92FF920F931F932898EE24FF2418
:10F10000870113C00894E11CF11C011D111D81E051
:10F11000E81689E0F8068DE3080780E0180728F074
:10F12000E0910101F091020109958091C00087FFF3
:10F13000E9CF289A8091C6001F910F91FF90EF9020
:10F1400008950F931F930E9479F8082F0E9452F898
:10F150000E9479F8182F0E9452F8013614F00755D2
:10F1600003C000330CF00053113614F0175503C0E0
:10F1700010330CF01053802F8295807F810F1F91E8
:10F180000F91089590E007C02091C00027FFFCCFA9
:10F190002091C6009F5F9817B8F308951F93182F0A
:10F1A0000E9479F8803251F484E10E9452F8812F54
:10F1B0000E9452F880E10E9452F80CC08091000138
:10F1C0008F5F80930001853029F4E0910101F09177
:10F1D000020109951F9108950E9479F8803239F44F
:10F1E00084E10E9452F880E10E9452F808958091D3
:10F1F00000018F5F80930001853029F4E0910101C7
:10F20000F091020109950895DF93CF9300D000D0CB
:10F21000CDB7DEB7882309F481E090E03DC0289A9D
:10F2200019821A821B821C820CC029813A814B816F
:10F230005C812F5F3F4F4F4F5F4F29833A834B8352
:10F240005C8329813A814B815C8120386EE33607EB
:10F2500060E0460760E0560740F3289819821A825A
:10F260001B821C820CC029813A814B815C812F5FFB
:10F270003F4F4F4F5F4F29833A834B835C832981F4
:10F280003A814B815C8120306AEF360760E04607A7
:10F2900060E0560740F39F5F981709F619821A82BB
:10F2A0001B821C820BC089819A81AB81BC81019633
:10F2B000A11DB11D89839A83AB83BC8389819A8107
:10F2C000AB81BC81803021E7920722E0A20720E0D9
:10F2D000B20748F30F900F900F900F90CF91DF91EE
:10F2E0000895CF92DF92EF92FF920F931F93CF93E7
:10F2F000DF93000094B714BE809160008861809312
:10F3000060001092600091FD05C0E0910101F09154
:10F310000201099589E18093C4001092C50088E13B
:10F320008093C10086E08093C2005098589A209A3A
:10F3300083E00E9404F981E00E9404F90E9479F8B8
:10F34000803309F441C08133E1F40E9479F88032BE
:10F3500009F097C184E10E9452F881E40E9452F8BA
:10F3600086E50E9452F882E50E9452F880E20E94EF
:10F3700052F889E40E9452F883E50E9452F880E531
:10F380000BC1803439F40E9479F88638E8F00E9485
:10F3900079F81AC0813499F40E9479F8803811F410
:10F3A00082E06CC1813811F481E068C1823811F4C7
:10F3B00080E164C1883909F060C183E05FC18234B3
:10F3C00031F484E10E94C2F80E94ECF8B7CF853492
:10F3D00011F485E0F7CF8035B9F3813531F40E941F
:10F3E000ECF888E080936000FFCF823569F38535C3
:10F3F00049F40E9479F8809303010E9479F8809380
:10F400000401E2CF863521F484E00E94C2F835C1C0
:10F41000843609F0C7C00E9479F8809306020E94E2
:10F4200079F880930502809108028E7F809308020C
:10F430000E9479F8853429F48091080281608093D4
:10F44000080205E011E0F801119281E0E538F807C3
:10F45000D9F745E0C42E41E0D42EEE24FF2408C0A5
:10F460000E9479F8F60181936F010894E11CF11C68
:10F470008091050290910602E816F90688F30E9431
:10F4800079F8803209F0FDC08091080280FD17C034
:10F4900020C0F999FECF209103013091040132BDC3
:10F4A00021BDF80141918F0140BDFA9AF99A2F5F71
:10F4B0003F4F3093040120930301019602C080E086
:10F4C00090E020910502309106028217930708F31D
:10F4D00062C08091030190910401880F991F90935D
:10F4E0000401809303018091050280FF09C080918F
:10F4F0000502909106020196909306028093050200
:10F50000F999FECF1127E0910301F0910401C5E0C4
:10F51000D1E08091050290910602103091F40091A3
:10F52000570001700130D9F303E000935700E895CC
:10F530000091570001700130D9F301E100935700A9
:10F54000E895099019900091570001700130D9F3A6
:10F5500001E000935700E8951395103898F01127B3
:10F560000091570001700130D9F305E00093570076
:10F57000E8950091570001700130D9F301E1009343
:10F580005700E8953296029709F0C7CF103011F076
:10F590000296E5CF112484E10E9452F880E10E9496
:10F5A00052F8CCCE843709F055C00E9479F8809388
:10F5B00006020E9479F8809305020E9479F89091E2
:10F5C0000802853421F49160909308020DC09E7F5B
:10F5D000909308028091030190910401880F991F74
:10F5E00090930401809303010E9479F8803209F01E
:10F5F000A5CE84E10E9452F800E010E023C0809183
:10F60000080280FF0BC0F999FECF80910301909111
:10F61000040192BD81BDF89A80B507C081FD07C085
:10F62000E0910301F091040184910E9452F88091CD
:10F6300003019091040101969093040180930301CA
:10F640000F5F1F4F8091050290910602081719075E
:10F65000B0F2A4CF853779F40E9479F8803289F42A
:10F6600084E10E9452F88EE10E9452F886E90E94DD
:10F6700052F88AE091CF863721F480E00E94CEF8DC
:10F680005DCE809100018F5F80930001853009F08D
:10F6900055CEE0910101F091020109954FCEF89409
:02F6A000FFCF9A
:040000031000F000F9
:00000001FF
