:10F800000C943E7C0C945B7C0C945B7C0C945B7C39
:10F810000C945B7C0C945B7C0C945B7C0C945B7C0C
:10F820000C945B7C0C945B7C0C945B7C0C945B7CFC
:10F830000C945B7C0C945B7C0C945B7C0C945B7CEC
:10F840000C945B7C0C945B7C0C945B7C0C945B7CDC
:10F850000C945B7C0C945B7C0C945B7C0C945B7CCC
:10F860000C945B7C0C945B7C0C945B7C0C945B7CBC
:10F870000C945B7C0C945B7C0C945B7C11241FBE11
:10F88000CFEFD8E0DEBFCDBF11E0A0E0B1E0E6E60B
:10F89000FFEF02C005900D92A030B107D9F712E03A
:10F8A000A0E0B1E001C01D92A930B107E1F70E94CC
:10F8B000537D0C94B27F0C94007CCF93DF93CDB733
:10F8C000DEB724970FB6F894DEBF0FBECDBF8823F6
:10F8D00009F481E020E0482F55274115510509F42E
:10F8E0003DC0289A19821A821B821C820BC0898112
:10F8F0009A81AB81BC810196A11DB11D89839A8338
:10F90000AB83BC8389819A81AB81BC8180589E4343
:10F91000A040B04060F3289819821A821B821C8292
:10F920000BC089819A81AB81BC810196A11DB11D5B
:10F9300089839A83AB83BC8389819A81AB81BC81A3
:10F9400080509A4FA040B04060F32F5F822F9927DC
:10F9500087FD9095841795070CF4C3CF19821A82FE
:10F960001B821C8289819A81AB81BC818050914726
:10F97000A240B040A0F489819A81AB81BC810196FC
:10F98000A11DB11D89839A83AB83BC8389819A8130
:10F99000AB81BC8180509147A240B04060F3249677
:10F9A0000FB6F894DEBF0FBECDBFDF91CF910895A3
:10F9B000EF92FF920F931F93EE24FF248701289864
:10F9C0008091C00087FD17C00894E11CF11C011D47
:10F9D000111D81E0E81689E0F8068DE3080780E054
:10F9E000180770F3E0910001F091010109958091F1
:10F9F000C00087FFE9CF289A8091C600992787FD2C
:10FA000090951F910F91FF90EF900895982F8091FE
:10FA1000C00085FFFCCF9093C60008950E94D87C5B
:10FA2000803271F0809102018F5F809302018530F6
:10FA300009F00895E0910001F09101010995089500
:10FA400084E10E94067D80E10E94067D0895CF93A7
:10FA5000C82F0E94D87C803241F0809102018F5FD4
:10FA600080930201853081F40AC084E10E94067D02
:10FA70008C2F0E94067D80E10E94067D05C0E091EA
:10FA80000001F09101010995CF910895282F90E090
:10FA900007C08091C0008823E4F78091C6009F5F73
:10FAA0009217B8F30895CFEFD8E0DEBFCDBF0000C6
:10FAB00094B714BE809160008861809360001092BA
:10FAC000600091FF74C189E18093C4001092C50069
:10FAD00088E18093C10086E08093C2005098589AD4
:10FAE000209A83E00E945D7C81E00E945D7C0E9400
:10FAF000D87C8033B9F18133C1F1803409F456C028
:10FB0000813409F45CC0823409F46EC0853409F490
:10FB100071C0803539F1813509F4F3C0823511F1B6
:10FB2000853509F4D3C0863509F4CBC0843609F491
:10FB300065C0843709F4EBC0853709F4D2C0863735
:10FB400009F44AC0809102018F5F809302018530E1
:10FB500071F6E0910001F091010109950E94D87CB5
:10FB6000803349F60E940E7DC2CF0E94D87CC82FF8
:10FB7000803241F784E10E94067D81E40E94067D87
:10FB800086E50E94067D82E50E94067D8C2F0E94FC
:10FB9000067D89E40E94067D83E50E94067D80E55E
:10FBA0000E94067D80E10E94067DA1CF0E94D87C44
:10FBB0008638C0F20E94D87C0E940E7D98CF0E94A9
:10FBC000D87C803809F407C1813809F400C1823833
:10FBD00009F4F9C0883921F080E00E94277D87CFA1
:10FBE00083E00E94277D83CF84E10E94467D0E94AE
:10FBF0000E7D7DCF85E00E94467DF9CF0E94D87CA6
:10FC0000809306020E94D87C8093050280910802AE
:10FC10008E7F809308020E94D87C853409F44BC003
:10FC2000E5E0F1E0119281E0E438F807D9F3D0F390
:10FC3000C0E0D0E0809105029091060218161906E6
:10FC400078F405E011E00E94D87CF80181938F01DF
:10FC500021968091050290910602C817D90798F362
:10FC60000E94D87C803209F06DCF8091080280FF1D
:10FC7000B6C0C0E0D0E02091050230910602121615
:10FC80001306B8F4E0910301F0910401A5E0B1E09E
:10FC9000F999FECFF2BDE1BD8D9180BDFA9AF99A36
:10FCA00031962196C217D30798F3F0930401E0939D
:10FCB000030184E175CF809108028160809308027E
:10FCC000AFCF84E00E94467D80E087CF0E94D87C41
:10FCD000809303010E94D87C809304010E940E7DD2
:10FCE00006CF0E94D87C803209F02CCF84E10E949C
:10FCF000067D8EE10E94067D85E90E94067D88E0F2
:10FD00004FCF0E940E7D88E080936000FFCF0E945D
:10FD1000D87C809306020E94D87C809305020E94C2
:10FD2000D87C853409F449C0809108028E7F809385
:10FD300008028091030190910401880F991F90930C
:10FD40000401809303010E94D87C803209F0CFCE59
:10FD500084E10E94067DC0E0D0E020910502309150
:10FD600006021216130608F01DCFE0910301F09170
:10FD700004018091080280FF96C0F999FECFF2BD80
:10FD8000E1BDF89A80B50E94067DE0910301F091F3
:10FD900004013196F0930401E093030120910502E0
:10FDA000309106022196C217D30718F3FBCEE091DB
:10FDB0000001F0910101099586CE809108028160D1
:10FDC00080930802C0CF80E10E94277D90CE81E021
:10FDD0000E94277D8CCE82E00E94277D88CE809174
:10FDE000030190910401880F991F9093040180935F
:10FDF00003018091050280FF09C080910502909166
:10FE0000060201969093060280930502F999FECFAF
:10FE10001127E0910301F0910401C5E0D1E0809148
:10FE2000050290910602103091F400915700017084
:10FE30000130D9F303E000935700E8950091570093
:10FE400001700130D9F301E100935700E895099062
:10FE500019900091570001700130D9F301E000932F
:10FE60005700E8951395103898F011270091570026
:10FE700001700130D9F305E000935700E895009137
:10FE8000570001700130D9F301E100935700E89564
:10FE90003296029709F0C7CF103011F00296E5CFE5
:10FEA000112484E17DCE869580FF06C03196F093C3
:10FEB0000401E093030176CF84910E94067D209196
:10FEC000050230910602E0910301F0910401EECFAA
:10FED0001F93CF930E94D87CC82F0E94067D0E945A
:10FEE000D87C182F0E94067DC1362CF0C7551136DC
:10FEF0003CF0175508C0C033D4F3C0531136CCF7CB
:10FF000010330CF01053C295C07FC10F8C2F99276E
:10FF100087FD9095CF911F910895CF93282F992712
:10FF200087FD9095807F907095958795959587959D
:10FF300095958795959587958A303CF0895AC22F7B
:10FF4000CF70CA303CF0C95A06C0805DC22FCF7056
:10FF5000CA30CCF7C05D0E94067D8C2F0E94067DC2
:06FF6000CF910895FFCFD0
:040000030000F80001
:00000001FF
