:100000000C945B170C9494700C9469700C943E7073
:100010000C9413700C94E86F0C94BD6F0C94926F59
:100020000C94676F0C94D03D0C94C13D0C94B23D80
:100030000C948C170C94BF700C948C170C948C1728
:100040000C948C170C94388B0C948C170C948C1784
:100050000C948C170C948C170C9439C00C94F96E7A
:100060000C948C170C9472480C948C170C948C176D
:100070000C948C170C948C170C948C170C948C1774
:100080000C94C7910C948C170C948C170C948C17AF
:100090000C948C170C948C170C948C170C94E9A866
:1000A0000C948C170C948C170C9499910C948C17BD
:1000B0000C948C170C948C170C948C170C948C1734
:1000C0000C948C170C948C170C948C170C948C1724
:1000D0000C948C170C948C170C948C170C948C1714
:1000E0000C948C17A848AF48C348D048DA48F44865
:1000F000DF48F448E448E948F448F1484554485496
:100100005054535457544D545A545D54615464548C
:1001100067546B546E5471544D54755478547B54D9
:100120009D56BC56DB56FE562157C058445765575E
:100130008657A957CC57EF5712583558C0585858BA
:100140007B589E58AEA8B1A8A0A8A4A8AAA8E8A8C1
:10015000B5A8B9A8BFA8C3A8C7A8CDA8D1A8D5A835
:10016000E8A8DBA8DFA8E3A8D9AADEAAE3AAEDAA3B
:10017000F7AA70AB01AB09AB11AB1BAB25AB2FAB37
:100180003EAB48AB70AB52AB5CAB66AB084AD73BFF
:100190003BCE016E84BCBFFDC12F3D6C74319ABD56
:1001A00056833DDA3D00C77F11BED9E4BB4C3E917A
:1001B0006BAAAABE000000803F072C7AA5BA6CC5C6
:1001C00090DA3B9365FC8BBC53F810FD3C56928350
:1001D0004DBD879D3AB63DCBC9BF5BBE73DA0FC933
:1001E0003F05A84CCDB2D44EB93836A9020C50B94F
:1001F000918688083CA6AAAA2ABE000000803F007B
:100200000C9450540C9452AB0C94AAA80C946557BF
:100210000C94CC570C9448540C9408A80C94F448B3
:100220000C9401AB0C94BFA80C94E3A80C94C3A845
:100230000C94A4A80C9445540C94B9A80C941BAB32
:100240000C9471540C94DA480C942FAB0C946754B2
:100250000C945CAB0C94A0A80C9409AB0C94615466
:100260000C949E580C9458580C94AEA80C94F148D9
:100270000C9481370C945D540C94B1A80C94755473
:100280000C94C76E0C9425AB0C947B540C943EAB31
:100290000C946B540C9409A80C9478540C94A848B2
:1002A0000C942CA80C9457540C949D560C94CDA8E7
:1002B0000C9435580C94C7A80C9453540C9464A80F
:1002C0000C9466AB0C9412580C94DEAA0C94445710
:1002D0000C948FCA0C9434A80C947B580C94DFA80F
:1002E0000C9464540C94DBA80C9421570C94E8A84B
:1002F0000C9470AB0C944D540C94E9480C9411ABD5
:100300000C94DB560C94BC560C946E540C94B5A80B
:100310000C945A540C94E3AA0C94EF570C94D048C4
:100320000C94D5A80C94C3480C9448AB0C94D1A859
:100330000C9486570C94F7AA0C94C0580C94AF48B0
:100340000C94E4480C94EDAA0C94D0370C9418A8A3
:100350000C94A9570C94FE560C94D9AA0C94DF481F
:10036000534341524132005343415241004C4556A0
:10037000454C494E4700434F4D4D554E494341541E
:10038000494F4E0044525952554E004552524F5219
:100390005300494E464F004543484F0047322F47D0
:1003A000332062616420706172616D65746572737F
:1003B0000A00473520726571756972657320585956
:1003C00020706C616E65206D6F64650A004D6F76FC
:1003D0006520746F0052656C617469766520002039
:1003E0003A20706C616E5F6469726563745F7374E8
:1003F00065707065725F6D6F76652066726F6D0AED
:100400000020207461726765743D00205900203D12
:100410002050726F6265205800205900456E64209C
:1004200058004D616B657241726D20486F6D65209B
:10043000302034303020300A005269676874004C34
:100440006566740053434152412041726D204F72E2
:1004500069656E746174696F6E3A2000204C656E38
:100460006774683A0020416E676C653A00205A3A1A
:100470000020593A00546F6F6C204F6666736574A4
:1004800020583A00446F6E652E0A005A5F454E446C
:1004900053544F505F534552564F5F4E52206E6F2C
:1004A000742073657475700A005761746368696EAF
:1004B000672070696E730A0061626C65640A00658A
:1004C0006E0064697300656E6473746F70206D6F85
:1004D0006E69746F722000970392038B0384037616
:1004E000036D03670360036F66660044454255472A
:1004F0003A007A5F6D696E3A20005265706F7274CF
:10050000696E6720656E6473746F702073746174B4
:1005100075730A0053657474696E6720547261764E
:10052000656C20416363656C65726174696F6E3AD6
:10053000200053657474696E67205265747261633C
:100540007420416363656C65726174696F6E3A20F3
:100550000053657474696E67205072696E7420412F
:100560006363656C65726174696F6E3A20005365F0
:100570007474696E67205072696E7420616E6420B5
:1005800054726176656C20416363656C6572617459
:10059000696F6E3A2000205A002059005800202030
:1005A0004D61783A2000205A002059005800202040
:1005B0004D696E3A20004F666600536F6674206581
:1005C0006E6473746F70733A200023646566696E9D
:1005D00065202044454641554C545F4B6420002320
:1005E000646566696E65202044454641554C545FFC
:1005F0004B69200023646566696E6520204445468A
:1006000041554C545F4B7020005049442041757453
:100610006F74756E652066696E6973686564212004
:1006200050757420746865206C617374204B702C55
:10063000204B6920616E64204B6420636F6E73747D
:10064000616E74732066726F6D2062656C6F7720C7
:10065000696E746F20436F6E666967757261746945
:100660006F6E2E680A00504944204175746F74758E
:100670006E65206661696C6564212074696D656FC3
:1006800075740A00504944204175746F74756E6525
:10069000206661696C6564212054656D70657261C6
:1006A0007475726520746F6F20686967680A00202E
:1006B0004B643A2000204B693A2000204B703A20CE
:1006C000000A20436C617373696320504944200A17
:1006D000002054753A2000204B753A2000206D61AF
:1006E000783A2000206D696E3A200020643A20009C
:1006F00020626961733A200057726F6E6720746FD1
:100700006F6C20666F72205049442074756E696E5C
:10071000670A004F66660A0046616465204865699D
:100720006768742000426564204C6576656C696E6C
:100730006720004661696C656420746F20656E6196
:10074000626C6520426564204C6576656C696E67F5
:100750000A004D65736820706F696E742063616E66
:100760006E6F74206265207265736F6C7665640AC3
:10077000004D34323120696E636F7272656374208C
:10078000706172616D657465722075736167650A69
:10079000004E6F2063617365206C696768740A009E
:1007A0004163746976652045787472756465723A40
:1007B00020003C3C3C2067636F64655F540A002066
:1007C0003A2041465445520A0020206375727265F2
:1007D0006E745F706F736974696F6E3D00203A20AC
:1007E0004245464F52450A00202063757272656E7D
:1007F000745F706F736974696F6E3D003E3E3E209A
:1008000067636F64655F542800556E6B6E6F776E1B
:1008100020636F6D6D616E643A2022004B494C4C31
:1008200045442E20002C20002C2000203A207379F3
:100830006E635F706C616E5F706F736974696F6E09
:100840005F6B696E656D617469630A002020637572
:100850007272656E745F706F736974696F6E3D005C
:10086000656E7175657565696E672022004E6F2033
:100870004C696E65204E756D62657220776974688B
:1008800020636865636B73756D2C204C61737420F5
:100890004C696E653A20005072696E7465722073FF
:1008A000746F707065642064756520746F20657264
:1008B000726F72732E2046697820746865206572A5
:1008C000726F7220616E6420757365204D393939FD
:1008D00020746F20726573746172742E20285465C1
:1008E0006D706572617475726520697320726573CD
:1008F00065742E2053657420697420616674657276
:100900002072657374617274696E67290A004E6F94
:1009100020436865636B73756D2077697468206C1C
:10092000696E65206E756D6265722C204C61737402
:10093000204C696E653A2000636865636B73756D62
:10094000206D69736D617463682C204C6173742031
:100950004C696E653A20004C696E65204E756D627B
:100960006572206973206E6F74204C617374204C23
:10097000696E65204E756D6265722B312C204C615D
:100980007374204C696E653A20004D31313000207F
:10099000496E76616C6964206578747275646572FD
:1009A00020000000C8C3000000000000000000009C
:1009B000C8430000C843000052430A20736F6674A6
:1009C0005F656E6473746F705F6D6178203D2000A9
:1009D0000A20736F66745F656E6473746F705F6D09
:1009E000696E203D20000A20706F736974696F6E14
:1009F0005F7368696674203D200020617869733AEE
:100A00000A20686F6D655F6F6666736574203D20B0
:100A100000466F722000203A207072657061726526
:100A20005F756E696E746572706F6C617465645F1A
:100A30006D6F76655F746F5F64657374696E617402
:100A4000696F6E0A00202064657374696E61746951
:100A50006F6E3D003C3C3C20646F5F626C6F636B6B
:100A6000696E675F6D6F76655F746F0A003E3E3E2C
:100A700020646F5F626C6F636B696E675F6D6F762A
:100A8000655F746F00203A2073657475705F666FE0
:100A9000725F656E6473746F705F6F725F70726F98
:100AA00062655F6D6F76650A0020206375727265FE
:100AB0006E745F706F736974696F6E3D00203A20C9
:100AC000636C65616E5F75705F61667465725F65AA
:100AD0006E6473746F705F6F725F70726F62655F68
:100AE0006D6F76650A00202063757272656E745FA3
:100AF000706F736974696F6E3D00646F5F70726FC1
:100B000062655F726169736528006465706C6F79F6
:100B10003A2000203A207365745F70726F62655FDF
:100B20006465706C6F7965640A0020206375727269
:100B3000656E745F706F736974696F6E3D00203A03
:100B4000203C3C3C20646F5F70726F62655F6D6F2C
:100B500076650A00202063757272656E745F706F2F
:100B6000736974696F6E3D00203A203E3E3E2064FA
:100B70006F5F70726F62655F6D6F76650A0020202F
:100B800063757272656E745F706F736974696F6E8E
:100B90003D0072657365745F6265645F6C65766560
:100BA0006C0A00203A203C3C3C2072756E5F7A5FF4
:100BB00070726F62650A00202063757272656E74D0
:100BC0005F706F736974696F6E3D00203A203E3E1E
:100BD0003E2072756E5F7A5F70726F62650A0020E8
:100BE0002063757272656E745F706F736974696F7C
:100BF0006E3D0050726F62696E67206661696C6558
:100C0000640A004572726F723A003C3C3C2070727C
:100C10006F62655F70740A00205A3A200020593ACA
:100C2000200042656420583A2000203A200A002023
:100C30002063757272656E745F706F736974696F2B
:100C40006E3D0073746F77290A002C20002C200061
:100C50003E3E3E2070726F62655F707428002066B1
:100C6000697273740A005A0059005800486F6D6524
:100C700020004261642049324320616464726573DC
:100C8000732028382D313237290A00000000000077
:100C900000C843000000003C3C3C207365745F6169
:100CA0007869735F69735F61745F686F6D65280051
:100CB000203A200A00202063757272656E745F709E
:100CC0006F736974696F6E3D005D203D20003E20AA
:100CD000686F6D655F6F66667365745B003E207A52
:100CE00070726F62655F7A6F6666736574203D200F
:100CF000002A2A2A205A20484F4D4544205749545B
:100D0000482050524F424520285A5F4D494E5F506F
:100D1000524F42455F555345535F5A5F4D494E5FB1
:100D2000454E4453544F505F50494E29202A2A2A99
:100D30000A003E3E3E207365745F617869735F69A7
:100D4000735F61745F686F6D6528005761726E69CB
:100D50006E673A20486F6D696E672042756D70202E
:100D600044697669736F72203C20310A00020204E4
:100D70000000A0400000A040000000403C3C3C209F
:100D8000686F6D65617869732800486F6D65203202
:100D900020536C6F773A0A004D6F7665204177617A
:100DA000793A0A00486F6D65203120466173743AC4
:100DB0000A003E3E3E20686F6D65617869732800C9
:100DC0003C3C3C205A5F534146455F484F4D494E9D
:100DD000470A005A2070726F6265206F75742E206A
:100DE0006265640A00203A205A5F534146455F48D5
:100DF0004F4D494E470A00202064657374696E6147
:100E000074696F6E3D005A5F534146455F484F4DD0
:100E1000494E47203E3E3E0A00473238205A20467F
:100E20006F7262696464656E0A006563686F3A0098
:100E3000203A2073796E635F706C616E5F706F73C0
:100E40006974696F6E0A00202063757272656E7432
:100E50005F706F736974696F6E3D000000484400F5
:100E600000C843000052430000A0410000A0410020
:100E700000704100000000FFFFFF3C3C3C20676326
:100E80006F64655F4732380A00203A203E202868A8
:100E90006F6D655F616C6C207C7C20686F6D655A3E
:100EA00029203E2066696E616C0A002020637572FD
:100EB00072656E745F706F736974696F6E3D002048
:100EC0003A203E20686F6D65590A002020637572D4
:100ED00072656E745F706F736974696F6E3D002028
:100EE0003A203E20686F6D65580A002020637572B5
:100EF00072656E745F706F736974696F6E3D0052D6
:100F000061697365205A20286265666F7265206882
:100F10006F6D696E672920746F20003E20656E64D6
:100F200073746F70732E656E61626C652874727570
:100F300065290A003E3E3E2067636F64655F473265
:100F4000380A005A5F535445505F50494E005A5F6B
:100F50004D494E5F50494E005A5F454E41424C4507
:100F60005F50494E005A5F4449525F50494E005904
:100F70005F535445505F50494E00595F4D494E5F95
:100F800050494E00595F454E41424C455F50494ED5
:100F900000595F4449525F50494E00585F535445D1
:100FA000505F50494E00585F4D494E5F50494E00CA
:100FB000585F454E41424C455F50494E00585F4492
:100FC00049525F50494E0054454D505F4245445F81
:100FD00050494E0054454D505F325F50494E0054C9
:100FE000454D505F315F50494E0054454D505F3084
:100FF0005F50494E0053535F50494E005350494E85
:10100000444C455F4C415345525F50574D5F5049EA
:101010004E005350494E444C455F4C415345525F3E
:10102000454E41424C455F50494E005350494E4455
:101030004C455F4449525F50494E0053484946541D
:101040005F4F55540053484946545F4C4400534841
:101050004946545F454E0053484946545F434C4B04
:1010600000534552564F335F50494E005345525638
:101070004F325F50494E00534552564F315F5049F1
:101080004E00534552564F305F50494E0053445323
:1010900053005344410053445F4445544543545F17
:1010A00050494E0053434C0053434B5F50494E0050
:1010B00050535F4F4E5F50494E004D4F53495F5064
:1010C000494E004D49534F5F50494E004C45445FD7
:1010D00050494E004C43445F50494E535F525300B9
:1010E0004C43445F50494E535F454E41424C45008E
:1010F0004C43445F50494E535F4437004C43445F78
:1011000050494E535F4436004C43445F50494E5360
:101110005F4435004C43445F50494E535F443400B4
:101120004845415445525F4245445F50494E00484E
:1011300045415445525F325F50494E004845415445
:1011400045525F315F50494E004845415445525F1A
:10115000305F50494E0046414E315F50494E004687
:10116000414E5F50494E0045325F535445505F50E9
:10117000494E0045325F454E41424C455F50494E15
:101180000045325F4449525F50494E0045315F533C
:101190005445505F50494E0045315F454E41424CE9
:1011A000455F50494E0045315F4449525F50494EBA
:1011B0000045305F535445505F50494E0045305F05
:1011C000454E41424C455F50494E0045305F4449D1
:1011D000525F50494E00434153455F4C4947485484
:1011E0005F50494E0042544E5F454E430042544EBC
:1011F0005F454E320042544E5F454E3100424545F8
:101200005045525F50494E004156525F53535F5014
:10121000494E004156525F53434B5F50494E004187
:1012200056525F4D4F53495F50494E004156525FF1
:101230004D49534F5F50494E005458440052584452
:101240000000013A393B25FF05110429FF100B036B
:1012500012FFFF0C0A0607FFFF1C1B1DFFFF1918DA
:101260001AFFFF0A4402FF45FFFFFFFFFFFF507216
:101270006F7465637465642050696E0A00202020D5
:101280006E6F6E2D7374616E646172642050574D81
:10129000206D6F646500433A2000423A2000413AD5
:1012A000200020202020434F4D00202020636F6D20
:1012B0007061726520696E746572727570742065F4
:1012C0006E61626C6564002020206F766572666CCA
:1012D0006F7720696E7465727275707420656E61C7
:1012E000626C6564003A20002020202054494D5350
:1012F0004B00423A2000202020205443435200411A
:101300003A20002020202054434352002020202057
:1013100043533A20002020202057474D3A200050C8
:10132000574D3A20202534640050574D3A2020254F
:1013300034640047004800000088008A008C00B335
:1013400000B400000098009A009C00A800AA00AC1D
:101350000028012A012C012020202054494D45520B
:1013600000440045006E00800081006F00B000B1B5
:10137000007000900091007100A000A10072002098
:10138000012101730020697320616C736F207469FF
:10139000656420746F20746869732070696E0054EE
:1013A000494D45523143000A202E002020002020C4
:1013B000506F72743A20004F7574707574203D2020
:1013C00000496E70757420203D200050574D3A2022
:1013D000202534640050574D3A20202534640050B5
:1013E000574D3A20202534640050574D3A2020258F
:1013F00034640050574D3A20202534640050574D36
:101400003A20202534640050574D3A20202534647A
:101410000050574D3A20202534640050574D3A2053
:10142000202534640050574D3A2020253464005064
:10143000574D3A20202534640050574D3A2020253E
:1014400034640050574D3A20202534640050574DE5
:101450003A20202534640050574D3A20202534642A
:101460000050574D3A2020253464002020200020D1
:101470002020416E616C6F6720696E203D2025350C
:1014800064003C756E757365642F756E6B6E6F7757
:101490006E3E00202841253264292020002573500B
:1014A000494E3A202533642000416E616C6F6720FD
:1014B000696E203D202535640070726F7465637419
:1014C00065642000202841253264292020002573EE
:1014D00050494E3A2025336420003D120001391254
:1014E00001012C1232011F123301131234010812B0
:1014F0003501FD113D01F5112C01ED112D01E51115
:101500002101D6112D01CB111B01BD111D01B111FE
:101510001C01A611180198111A018C1119018111D1
:101520003C0173111701671116015F110601561175
:101530000701491102013C1109012F110801201175
:101540000A0114110E0108111E01FC102701F010F0
:101550000F01E0101F01D4102001CC100D01C310A9
:101560003201BA103301B0100C01A8103401A410DC
:10157000150196103801921014018D10350182105A
:101580002E0177102F016C103001611031015710BE
:101590002B014E102C01451023013B1022012B1072
:1015A0002A0112102B01FC0F2C01F50F3501EA0F57
:1015B0004500DF0F4300D40F4200C70F4400BD0FAA
:1015C0003901B00F3B01A60F25019B0F3A01910F86
:1015D0001101840F04017A0F29016F0F0501650FB6
:1015E0000B01580F03014E0F1201430F10013C3C39
:1015F0003C2067636F64655F4732390A0020636F80
:1016000072726563746564205A3A004732392075F6
:101610006E636F72726563746564205A3A00203A93
:10162000203E2070726F62696E6720636F6D706C10
:101630006574650A00202063757272656E745F7050
:101640006F736974696F6E3D0052756E6E696E6777
:1016500020696E204452592D52554E206D6F64659D
:101660000A00473239204175746F20426564204C6E
:101670006576656C696E670A0028422961636B00B4
:10168000284629726F6E74002852296967687400B1
:10169000284C29656674003F2856296572626F736D
:1016A00065206C6576656C20697320696D706C616E
:1016B000757369626C652028302D34292E0A00422A
:1016C0006164205A2076616C75650A004E6F206255
:1016D000696C696E65617220677269640A00203AFC
:1016E000203E3E3E2067636F64655F4732390A00E3
:1016F000202063757272656E745F706F73697469B0
:101700006F6E3D00205A3A200020593A2000426571
:101710006420583A20004D65736820706F696E74BC
:101720002063616E6E6F74206265207265736F6CEA
:101730007665640A00464F414D2043555454455246
:10174000204F4E0A004C41534552204F4E0A004C48
:1017500041534552204F46460A00464F414D2043D3
:101760005554544552204F46460A002569730025BA
:10177000696D20256973002569682025696D20251C
:10178000697300256964202569682025696D202515
:1017900069730025697920256964202569682025F9
:1017A000696D20256973005072696E742074696DCB
:1017B000653A20004572726F722077726974696EA3
:1017C0006720746F20454550524F4D210A00290A69
:1017D000002062797465733B206372632000536557
:1017E0007474696E67732053746F72656420280087
:1017F000202863616C63756C6174656429210A003B
:1018000020213D2000454550524F4D20435243205A
:101810006D69736D61746368202D202873746F7215
:101820006564292000290A002062797465733B20D1
:1018300063726320002073746F7265642073657433
:1018400074696E6773207265747269657665642069
:101850002800204D61726C696E3D563430290A00B3
:1018600028454550524F4D3D00454550524F4D2063
:1018700076657273696F6E206D69736D61746368EC
:101880002000024B494C4C45442E2000202D20497D
:101890006E76616C69642065787472756465722017
:1018A0006E756D62657220210A002020506C616E99
:1018B0006E657242756666657242797465733A2028
:1018C000002046726565204D656D6F72793A200083
:1018D000436F6D70696C65643A20417567203330E1
:1018E00020323031370A00207C20417574686F72D5
:1018F0003A202853524C2C204D616B657241726D19
:101900005631290A00417567203330203230313793
:1019100000204C61737420557064617465643A20D2
:10192000004D616B657241726D56310A004D6172F6
:101930006C696E0020536F66747761726520526522
:101940007365740A00205761746368646F6720527E
:10195000657365740A002042726F776E206F75742C
:101960002052657365740A002045787465726E6153
:101970006C2052657365740A00506F7765725570FC
:101980000A0073746172740A00205A3A0020593AAE
:101990000020583A00656E6473746F707320686934
:1019A000743A200020746F6F206C6F6E672065782A
:1019B00074727573696F6E2070726576656E74658A
:1019C000640A0020636F6C642065787472757369B3
:1019D0006F6E2070726576656E7465640A002028EB
:1019E000646F6E65290A004578747261706F6C616E
:1019F0007465205B0042696C696E656172204C659C
:101A000076656C696E6720477269643A0A003C3CEF
:101A10003C20646F5F686F6D696E675F6D6F7665A0
:101A200028002C20002C20003E3E3E20646F5F6882
:101A30006F6D696E675F6D6F7665280020746F6FDC
:101A4000206C6F6E6720657874727573696F6E2095
:101A500070726576656E7465640A0020636F6C64ED
:101A600020657874727573696F6E20707265766523
:101A70006E7465640A0041424C2041646A75737457
:101A80006D656E74205A002028656E61626C656415
:101A9000290A00202864697361626C6564290A0060
:101AA00042494C494E454152004175746F20426590
:101AB00064204C6576656C696E673A2000204E6F35
:101AC0007A7A6C65290A0020262041626F766500CB
:101AD00020262053616D65205A2061730020262046
:101AE00042656C6F77002D46726F6E740020284D32
:101AF0006964646C6500205A3A0020593A005072BB
:101B00006F6265204F666673657420583A004649D7
:101B1000585F4D4F554E5445445F50524F42450A11
:101B20000050726F62653A200053434152410A00EF
:101B30004D616368696E6520547970653A200020B4
:101B4000706F736974696F6E206F7574206F662093
:101B500072616E67652E0A003F50726F62652000E9
:101B600024F4D43050C38E20C2A24017828B70114F
:101B7000127A910D816CD90AA861E108C7586607ED
:101B8000615143061E4B5D05C145A7041A4111046E
:101B9000093D9803713931034036DB026533910208
:101BA000D4305402802E1D02632CEE01752AC5012B
:101BB000B028A001102781018F2564012B244B013F
:101BC000E0223401AC211F018D200D01801FFC009B
:101BD000841EED00971DDF00B81CD200E61BC60076
:101BE000201BBC00641AB200B219A8000A19A00098
:101BF0006A189900D117910040178B00B516840020
:101C000031167E00B31579003A157300C7146F00C2
:101C100058146A00EE1366008813630025135E00F3
:101C2000C7125B006C12570015125400C11151000D
:101C300070114F0021114B00D61049008D10470044
:101C40004610440002104200C00F4000800F3E00CA
:101C5000420F3C00060F3B00CB0E3800930E3700BE
:101C60005C0E3500270E3400F30D3200C10D31003B
:101C7000900D3000600D2E00320D2D00050D2C0052
:101C8000D90C2B00AE0C2900850C29005C0C270018
:101C9000350C27000E0C2600E80B2400C40B240092
:101CA000A00B23007D0B23005A0B2100390B2100D0
:101CB000180B2000F80A1F00D90A1E00BB0A1E00DC
:101CC0009D0A1D00800A1D00630A1C00470A1B00B4
:101CD0002C0A1B00110A1A00F7091A00DD09190065
:101CE000C4091900AB091900920917007B091800F3
:101CF000630917004C091600360916002009160062
:101D00000A091500F5081500E0081400CC081400B5
:101D1000B8081400A4081400900813007D081200ED
:101D20006B0813005808120046081200340811000E
:101D3000230811001208110001081100F00710001B
:101D4000E0071000D0071000C0071000B0070F0018
:101D5000A107100091070E0083070F0074070F0002
:101D600065070E0057070E0049070E003B070D00E0
:101D70002E070E0020070D0013070D0006070D00AB
:101D8000F9060C00ED060D00E0060C00D4060C0070
:101D9000C8060C00BC060C00B0060C00A4060B0024
:101DA00099060C008D060B0082060B0077060B00CF
:101DB0006C060B0061060A0057060B004C060A0071
:101DC00042060A0038060A002E060A0024060A0007
:101DD0001A060A001006090007060A00FD05090098
:101DE000F4050900EB050900E2050900D905090021
:101DF000D0050900C7050900BE050900B5050800A2
:101E0000AD050800A50509009C050800940508001B
:101E10008C050800840508007C050800740508008E
:101E20006C050700650508005D05070056050800FC
:101E30004E05070047050700400508003805070064
:101E4000310507002A050700230507001C050600C9
:101E5000160507000F050700080506000205070024
:101E6000FB040600F5040700EE040600E804060083
:101E7000E2040700DB040600D5040600CF040600D8
:101E8000C9040600C3040600BD040600B70406002A
:101E9000B1040500AC040600A6040600A004050079
:101EA0009B04060095040500900406008A040500C2
:101EB00085040500800406007A0405007504050009
:101EC000700405006B04050066040500610405004C
:101ED0005C04050057040500520405004D0405008C
:101EE00048040500430405003E0404003A040500CC
:101EF00035040500300404002C0405002704040008
:101F0000230405001E0404001A040400160405003E
:101F1000110404000D040400090405000404040075
:101F200000040400FC030400F8030400F4030400AC
:101F3000F0030400EC030400E8030400E4030400DD
:101F4000E0030400DC030400D8030400D40304000D
:101F5000D0030400CC030400C8030300C50303003E
:101F600024F404D9201BC40C5C0E9804C4095F023D
:101F700065077101F405F900FB04B300480487000C
:101F8000C10369005803550003034500BE023A002F
:101F90008402310053022A00290225000402200095
:101FA000E4011C00C8011900AF01170098011400DA
:101FB00084011300710110006101100051010E0035
:101FC00043010D0036010B002B010B0020010B001B
:101FD000150109000C01090003010800FB000800BD
:101FE000F3000800EB000700E4000600DE00060036
:101FF000D8000600D2000600CC000500C70005008E
:10200000C2000500BD000400B9000400B5000400D2
:10201000B1000400AD000400A9000400A500030005
:10202000A20003009F0004009B000300980003002F
:102030009500020093000300900003008D00020051
:102040008B00030088000200860002008400030069
:10205000810002007F0002007D0002007B00020080
:10206000790002007700010076000200740002008F
:1020700072000100710002006F0002006D0001009B
:102080006C0002006A0001006900020067000100A4
:1020900066000100650001006400020062000100AA
:1020A00061000100600001005F0002005D000100AE
:1020B0005C0001005B0001005A00010059000100B2
:1020C00058000100570001005600010055000100B2
:1020D00054000100530000005300010052000100B1
:1020E00051000100500001004F0001004E000000AF
:1020F0004E0001004D0001004C0001004B000000AB
:102100004B0001004A0001004900010048000000A6
:1021100048000100470001004600000046000100A1
:10212000450000004500010044000100430000009C
:102130004300010042000000420001004100000095
:1021400041000100400001003F0000003F0001008D
:102150003E0000003E0001003D0000003D00010087
:102160003C0000003C0000003C0001003B0000007F
:102170003B0001003A0000003A0001003900000075
:10218000390001003800000038000000380001006C
:102190003700000037000100360000003600000064
:1021A0003600010035000000350000003500010058
:1021B000340000003400000034000100330000004F
:1021C0003300000033000100320000003200000044
:1021D0003200010031000000310000003100010038
:1021E0003000000030000000300001002F0000002F
:1021F0002F0000002F0000002F0001002E00000023
:102200002E0000002E0001002D0000002D00000017
:102210002D0000002D0001002C0000002C0000000B
:102220002C0000002C0001002B0000002B000000FF
:102230002B0000002B0001002A0000002A000000F3
:102240002A0000002A0001002900000029000000E7
:1022500029000000290000002900010028000000DA
:1022600028000000280000002800000028000100CD
:1022700027000000270000002700000027000000C2
:1022800027000100260000002600000026000000B4
:1022900026000000260001002500000025000000A7
:1022A0002500000025000000250000002500010099
:1022B000240000002400000024000000240000008E
:1022C0002400010023000000230000002300000080
:1022D0002300000023000000230000002300010071
:1022E0002200000022000000220000002200000066
:1022F0002200000022000100210000002100000057
:102300002100000021000000210000002100000049
:10231000210001002000000020000000200000003B
:10232000200000002000000020000000200000002D
:10233000200001001F0000001F0000001F0000001F
:102340001F0000001F0000001F0000001F00010010
:102350001E0000001E0000001E0000001E00000005
:1023600048617264636F6465642044656661756C7E
:10237000742053657474696E6773204C6F61646573
:10238000640A00AC00000058010000640000001066
:10239000270000E8030000643B65415839E541002F
:1023A0000070410000C8410000C842E438DE43E448
:1023B00038DE435555054451333642E4388E4020CB
:1023C000204D383531205A005A2D50726F626520E9
:1023D0004F666673657420286D6D293A0A002044A3
:1023E0000020490020204D33303120500050494416
:1023F0002073657474696E67733A0A00205A00206E
:10240000204D3432302053004175746F2042656492
:10241000204C6576656C696E673A0A00205A002088
:10242000590020204D323036205800486F6D65200D
:102430006F66667365743A0A00204500205A0020D2
:10244000590020580020420020540020204D3230F6
:1024500035205300416476616E6365643A20533CD5
:102460006D696E5F66656564726174653E20543C9B
:102470006D696E5F74726176656C5F6665656472C6
:102480006174653E20423C6D696E5F7365676D6582
:102490006E745F74696D655F6D733E20583C6D614D
:1024A000785F78795F6A65726B3E205A3C6D61781F
:1024B0005F7A5F6A65726B3E20453C6D61785F654F
:1024C0005F6A65726B3E0A00205400205200202093
:1024D0004D323034205000416363656C6572617425
:1024E000696F6E2028756E6974732F7332293A20D4
:1024F000503C7072696E745F616363656C3E20521C
:102500003C726574726163745F616363656C3E20E5
:10251000543C74726176656C5F616363656C3E0AFE
:102520000020450020204D323031205400205A0038
:1025300020590020204D3230312058004D617869FB
:102540006D756D20416363656C65726174696F6E52
:102550002028756E6974732F7332293A0A0020455A
:102560000020204D323033205400205A00205900E2
:1025700020204D3230332058004D6178696D756DE3
:10258000206665656472617465732028756E697470
:10259000732F73293A0A0020450020204D3932203C
:1025A0005400205A0020590020204D393220580074
:1025B00053746570732070657220756E69743A0A81
:1025C0000020204D3230302044300A0020204D328F
:1025D000303020543120440020204D32303020440F
:1025E000002044697361626C65640A0046696C612D
:1025F0006D656E742073657474696E67733A00203C
:1026000020473231202020203B20556E69747320F2
:10261000696E206D6D0A004361703A454D45524721
:10262000454E43595F5041525345523A310A004397
:1026300061703A434153455F4C494748545F4252A9
:10264000494748544E4553533A300A004361703A63
:10265000544F47474C455F4C49474854533A300A1A
:10266000004361703A534F4654574152455F504FB3
:102670005745523A300A004361703A4C4556454C32
:10268000494E475F444154413A310A004361703A30
:102690005A5F50524F42453A310A004361703A4105
:1026A00055544F4C4556454C3A310A004361703AF7
:1026B0005052494E545F4A4F423A310A00436170CA
:1026C0003A50524F47524553533A300A00436170D3
:1026D0003A4155544F5245504F52545F54454D5016
:1026E0003A310A004361703A454550524F4D3A31F4
:1026F0000A004649524D574152455F4E414D453AB9
:102700004D61726C696E204D616B657241726D56E0
:102710003120284769746875622920534F55524308
:10272000455F434F44455F55524C3A68747470732B
:102730003A2F2F6769746875622E636F6D2F4D6134
:102740006B657241726D2F4D61726C696E205052D3
:102750004F544F434F4C5F56455253494F4E3A31B9
:102760002E30204D414348494E455F545950453A1B
:102770004D616B657241726D204558545255444508
:10278000525F434F554E543A3220555549443A32E0
:10279000326233316232642D323133342D3465315B
:1027A000612D383234632D36303762353965356303
:1027B0003035380A002F2F200020646174613A0000
:1027C0002062797465733A003A2066726F6D3A0040
:1027D0006932632D7265706C7900206F7574206F9B
:1027E000662072616E67650A00536572766F20001D
:1027F0003A200020536572766F2000526573656E33
:10280000643A20006F6B00203A205343415241202C
:10281000464B0A0020206361727465733D0020639B
:102820006F735F61623A002073696E5F61623A00A4
:1028300020636F735F613A002073696E5F613A00D5
:1028400020746F6F6C5F6F66667365745F616E672F
:102850006C653A0020623A002020534341524120E7
:10286000464B20613A00205068693A0020423A0005
:1028700020202020416E676C652041203A002059BD
:102880003A0020202020532D537061636520583A70
:1028900000205A3A0020593A002020534341524127
:1028A00020494B204C6F676963616C20583A004B9C
:1028B000494C4C45442E20004B494C4C20636175DB
:1028C00073656420627920746F6F206D7563682072
:1028D000696E6163746976652074696D65202D2069
:1028E00063757272656E7420636F6D6D616E643AAC
:1028F00020005072696E7465722068616C74656442
:102900002E206B696C6C28292063616C6C656421D6
:102910000A0000002100240027002A002D003000BA
:10292000330001010000040107010A010000220038
:10293000250028002B002E00310034000201000089
:10294000050108010B0100002000230026002900DA
:102950002C002F00320000010000030106010901D4
:1029600005050505070508080808020202020A0A0B
:102970000808040404040101010101010101030329
:10298000030303030303040707070C0C0C0C0C0CD4
:102990000C0C0202020206060606060606060B0BD1
:1029A0000B0B0B0B0B0B07070A0A0A0A0A0A050591
:1029B0000102102020080810204010204080020151
:1029C0000201080402010102040810204080804036
:1029D0002010080402018004020180402010080435
:1029E00002010804020101020408102040800102D3
:1029F0000408102040801008040880102040044083
:102A000000000A0B02090C0D0E0807030401000068
:102A100000000000000000000000000000000000B6
:102A20000000000000000000000000001211100073
:102A30000000000000000000000000000000000096
:102A40000000000000000000000000000000000086
:102A5000466F616D2043757474657200506C6F74BD
:102A600074657200536F6C646572005069636B65C6
:102A700072004D696C6C696E67004C617365720021
:102A800045787472756465720020643A0020693A72
:102A90000020703A0043290A0061626C65642028B6
:102AA0006D696E2074656D702000436F6C642065E5
:102AB00078747275646573206172652000546F6F5D
:102AC000206661722066726F6D2072656665726540
:102AD0006E636520706F696E740A00802A7A2A72AC
:102AE0002A6B2A642A5C2A502A546F6F6C3A2000A1
:102AF000204443433D00204443423D0020444341A1
:102B00003D0054696D6572203520463D0053657463
:102B10002064757479206379636C657320626574D1
:102B20007765656E202D31303020616E6420313044
:102B3000300A004672657175656E637920746F6F37
:102B400020686967682E0A003A20007A5F6D696E16
:102B50003A20202D3230207A5F6D61783A20203281
:102B600030005A204F666673657420005374616E9E
:102B70006461726420446576696174696F6E3A209D
:102B8000002052616E67653A2000204D61783A203E
:102B900000204D696E3A20004D65616E3A20004676
:102BA000696E6973686564210A002072616E6765E9
:102BB0003A2000206D61783A2000206D696E3A203D
:102BC00000207369676D613A2000206D65616E3A7F
:102BD00020003A207A3A2000206F662000205A0018
:102BE000205900205800476F696E6720746F3A00C3
:102BF000436C6F636B776973650A00436F756E741E
:102C000065722D0020446972656374696F6E3A20A5
:102C100000202020616E676C653A20005374617259
:102C200074696E67207261646975733A2000506F31
:102C3000736974696F6E696E67207468652070725D
:102C40006F62652E2E2E0A003F4E756D62657220F2
:102C50006F66206C65677320696E206D6F76656D99
:102C6000656E74206E6F7420706C61757369626C30
:102C7000652028302D3135292E0A00590058003F93
:102C800053616D706C652073697A65206E6F742076
:102C9000706C61757369626C652028342D3530293C
:102CA0002E0A004D3438205A2D50726F6265205222
:102CB00065706561746162696C69747920546573CB
:102CC000740A003F2856296572626F7365206C652F
:102CD00076656C20697320696D706C6175736962CB
:102CE0006C652028302D34292E0A00202F0020402A
:102CF0003A006F6B0020573A00205A3A0020423ABF
:102D00000020436F756E7420413A002020205073DC
:102D1000692B54686574613A005343415241205411
:102D2000686574613A0020453A00205A3A002059FB
:102D30003A00583A0010005E01C001FA00F001F5B7
:102D4000003002F0007002EB00A002E600C002E1D9
:102D5000001003DC005003D700E003D2007004CD64
:102D600000E004C800E005BE006006B9004007AA04
:102D700000F008A000700B9600F00D8C00E01082AF
:102D800000E0137800F0176E00D0196900701B6422
:102D900000401E5F0010205A00F025500080294698
:102DA00000D0303C00A03237001035320020392DE1
:102DB0000020392800703A2300A03B1E00A03C19D7
:102DC00000203D1600003F0300F03F0000626564F4
:102DD0000A002C2073797374656D2073746F7070A2
:102DE000656421204865617465725F49443A20003A
:102DF00048656174696E67206661696C6564004846
:102E0000656174696E67206661696C6564000A0AB1
:102E10000020205A5F4D494E3A004572723A204DCB
:102E2000494E54454D50004D494E54454D50207427
:102E30007269676765726564004572723A204D4138
:102E40005854454D50004D415854454D50207472D2
:102E50006967676572656400544845524D414C206E
:102E600052554E4157415900546865726D616C204E
:102E700052756E61776179004E414E494E49545901
:102E8000494E46CDCCCC3D0AD7233C17B7D1387735
:102E9000CC2B329595E6241FB14F0A00002041004B
:102EA00000C84200401C4620BCBE4CCA1B0E5AAE95
:102EB000C59D74008FCA11241FBECFEFD1E2DEBFC3
:102EC000CDBF00E00CBF13E0A0E0B2E0EEECFFEA03
:102ED00001E00BBF02C007900D92A239B107D9F7EC
:102EE0002FE0A2E9B3E001C01D92A53FB207E1F7D0
:102EF00017E1CBE5D7E100E006C021970109802F5B
:102F0000FE010E9478CBCA35D10780E00807A9F7F7
:102F10000E945AC40C94E5D70C9400002F923F9263
:102F20004F925F926F927F928F929F92AF92BF92D9
:102F3000CF92DF92EF92FF920F931F93CF93DF9385
:102F4000CDB7DEB7CD58D1090FB6F894DEBF0FBEAE
:102F5000CDBFCDB6DEB6C657DF4FD982C882CA58BC
:102F6000D0400091250720E6029F800111240754DC
:102F70001C4F8091EA0680FF1AC0EAE2FEE08491CD
:102F80007F013FEFE31AF30A811102C0780104C008
:102F90000E94B63FF701F3CFD7018D917D018823C1
:102FA00019F00E94B63FF8CF8AE00E94B63F109217
:102FB000B1031092B0038FE380934705109246054A
:102FC000109245051092AC031092AD031092AE031F
:102FD0001092AF03F80180810F5F1F4F8032D1F351
:102FE0008E34B1F4818190ED980F9A3020F08D32BB
:102FF00011F08B3269F43296DF0131962C91205317
:103000002A30D0F3CD01FC01019620812032D9F382
:10301000F0937E0DE0937D0D7F01BFEFEB1AFB0A6D
:1030200010816AE270E0C7010E94C9CE009731F0BA
:10303000FC01319780818032E1F311821D3429F047
:10304000143519F0173409F0C2C0F70180812FEF51
:10305000E21AF20A8032C9F380538A3008F0B7C00E
:103060001093470520914505309146054AE0319679
:10307000429FC001439F900D1124DF0111972C91B5
:10308000022E000C330B20533109280F391F808189
:1030900080538A3060F33093460520934505CF0175
:1030A000DC0101964C914032D9F31D34D1F42E311C
:1030B000310591F03CF42731310571F02C313105A7
:1030C00081F40AC02537310564F02737310524F033
:1030D000203A43E0340729F4B093B103A093B0033E
:1030E00076C01092B1031092B00300917D0DEE24D2
:1030F000E394F12CFD0131966C91662309F467C0CD
:103100006132A1F41D3491F42032310579F4F09349
:10311000B103E093B00363E270E0CF010E94C9CE37
:10312000009709F454C0DC011C9251C061546A310B
:1031300090F5CF01FC01408101964032D9F380ED3A
:10314000840F8A3040F083ED840F823020F04B32C0
:1031500011F00C941534CF01462F50E0DA0173E0E2
:10316000B595A7957A95E1F7A455BC4F67706701AF
:1031700002C0CC0CDD1C6A95E2F7B6017C91672B8E
:103180006C93009711F0801B01C080E0DA01AE560D
:10319000BC4F8C930AC08091B0039091B103892BEE
:1031A00021F4B093B103A093B003808181548A319C
:1031B00010F4DF019FCFDF0131968C9180538A306C
:1031C000D0F3FD01119680818032D9F3F2CF809146
:1031D00047058D3411F40C941828843511F40C949F
:1031E0008533873411F00C94F83380914505909124
:1031F00046058A30910511F40C9494267CF58430B0
:10320000910509F42BC67CF497FF02C00C9412348C
:10321000823091050CF064C021E0822781700E9409
:103220001C850C9412348730910511F40C94782588
:1032300054F48530910509F44EC6069711F40C94A8
:1032400040240C9412348830910511F40C94B0256C
:10325000099711F40C9437260C9412348D31910592
:1032600011F40C94CE27ECF48231910511F40C94F6
:10327000BE2754F4419711F00C9412341092E906D1
:103280001092E8060C9412348331910511F40C94D9
:10329000C6274C9711F00C9412340E9471490C947B
:1032A00012348A35910511F40C94D6276CF48E31C2
:1032B000910511F40C94D2278A9711F00C941234D2
:1032C0000E94BF5B0C9412348B35910511F40C9461
:1032D000DA278C35910511F40C94DF270C94123405
:1032E00020916902222311F40C94123411E0029708
:1032F00009F010E00E94918482E50E94853E8823B7
:1033000009F430C10E94233E4B015C01C090EF0ED6
:10331000D090F00EE090F10EF090F20E8091F30E4E
:103320009091F40EA091F50EB091F60E8DA39EA390
:10333000AFA3B8A72091CB063091CC064091CD0623
:103340005091CE0629A73AA74BA75CA78091CF063C
:103350009091D006A091D106B091D2068DA79EA7DC
:10336000AFA7B8AB20E030E0A901C501B4010E94CD
:103370008ED3882309F458C5A701960169A57AA5BB
:103380008BA59CA50E948ED381110DC02DA13EA1BD
:103390004FA158A56DA57EA58FA598A90E948ED393
:1033A000882309F441C520E030E0A901C501B4013A
:1033B0000E948ED3881F8827881F18130BC020E017
:1033C00030E040E85FE325962CAF3DAF4EAF5FAFF6
:1033D00025970AC080E090E0A0E8BFEB25968CAF6F
:1033E0009DAFAEAFBFAF2597A701960169A57AA59E
:1033F0008BA59CA50E9491CB6BAF7CAF8DAF9EAF90
:103400002DA13EA14FA158A56DA57EA58FA598A978
:103410000E9491CB6DAB7EAB8FAB98AF2BAD3CAD2B
:103420004DAD5EADCA01B9010E94F4D32B013C0140
:103430002DA93EA94FA958ADCA01B9010E94F4D3E4
:103440009B01AC01C301B2010E9492CB0E9460CEED
:1034500069AB7AAB8BAB9CAB20E030E040E05FE344
:103460000E94F4D32B013C01A5019401C501B401D4
:103470000E94F4D34B015C01A3019201C301B2018C
:103480000E94F4D39B01AC01C501B4010E9491CB11
:103490000E9460CE9B01AC0125966CAD7DAD8EADDA
:1034A0009FAD25970E94F4D34B015C0129A53AA555
:1034B0004BA55CA5C701B6010E9492CB20E030E08D
:1034C00040E05FE30E94F4D32B013C016DA97EA98B
:1034D0008FA998AD905829A93AA94BA95CA90E9437
:1034E0008CCC9B01AC01C501B4010E94F4D39B01BB
:1034F000AC01C301B2010E9492CBA70196010E94C8
:1035000091CB6B017C012DA53EA54FA558A96DA1BE
:103510007EA18FA198A50E9492CB20E030E040E0F0
:103520005FE30E94F4D32B013C0129A93AA94BA9DE
:103530005CA96BAD7CAD8DAD9EAD0E948CCC9B012A
:10354000AC01C501B4010E94F4D39B01AC01C301DD
:10355000B2010E9492CB2DA13EA14FA158A50E947D
:1035600091CB14C089E40E94853E882329F00E94F3
:10357000233E6B017C0103C0C12CD12C76018AE46F
:103580000E94853E8823D9F00E94233E6DA77EA726
:103590008FA798AB20E030E0A901C701B6010E94D7
:1035A0008ED381111AC020E030E0A9016DA57EA55F
:1035B0008FA598A90E948ED381110FC035C420E039
:1035C00030E0A901C701B6010E948ED3882309F417
:1035D0002BC41DA61EA61FA618AA8091E8069091CE
:1035E000E9068130910591F082309105D9F0892B5F
:1035F00021F5A2E0B0E02196BFAFAEAF2197E1E0A8
:10360000F0E0FAAFE9AF212C312C17C021E030E017
:1036100021963FAF2EAF21971AAE19AE22E0222E8F
:10362000312C0BC021961FAE1EAE219742E050E018
:103630005AAF49AF22242394312CD701C601B05888
:103640008DA39EA3AFA3B8A72DA53EA54FA558A9AE
:10365000505829A73AA74BA75CA79C01AD01BC0114
:10366000CD010E94F4D34B015C0129A53AA54BA5DD
:103670005CA5CA01B9010E94F4D39B01AC01C5014C
:10368000B4010E9492CB0E9460CEA1966CAF7DAF38
:103690008EAF9FAFA197A101440F551F440F551F37
:1036A0005CAF4BAFFA01E151F14F80819181A28172
:1036B000B38189AB9AABABABBCABA7019601BC01A4
:1036C000CD010E9492CB25966CAF7DAF8EAF9FAFA0
:1036D0002597C9ACDAACCC0CDD1CCC0CDD1CDAAE09
:1036E000C9AEF601E151F14FC080D180E280F38094
:1036F0002996CCAEDDAEEEAEFFAE29972DA53EA548
:103700004FA558A9C701B6010E9492CB61966CAF34
:103710007DAF8EAF9FAF6197EBADFCADE553F94F39
:10372000C080D180E280F3802D96CCAEDDAEEEAECF
:10373000FFAE2D9725962CAD3DAD4EAD5FAD2597D7
:10374000C701B6010E9491CB6B017C01E9ADFAADD6
:10375000E553F94F208131814281538165962CAF29
:103760003DAF4EAF5FAF659761962CAD3DAD4EADB1
:103770005FAD619765966CAD7DAD8EAD9FAD659784
:103780000E9491CB4B015C0121962EAC3FAC21975E
:10379000220C331C220C331CF101E151F14F8081CA
:1037A0009181A281B38169968CAF9DAFAEAFBFAF5F
:1037B0006997F101E553F94F9C01AD016081718179
:1037C000828193810E9491CB6DAB7EAB8FAB98AF22
:1037D0002091D7063091D8064091D9065091DA064B
:1037E000A5962CAF3DAF4EAF5FAFA5978091FB0E76
:1037F0009091FC0EA091FD0EB091FE0E6D968CAFD7
:103800009DAFAEAFBFAF6D97A70196016DA17EA131
:103810008FA198A50E94F4D32B013C01A50194012E
:1038200069A57AA58BA59CA50E94F4D39B01AC0148
:10383000C301B2010E9492CB2B013C01A50194016E
:103840006DA17EA18FA198A50E94F4D34B015C01CC
:10385000A701960169A57AA58BA59CA50E94F4D322
:103860009B01AC01C501B4010E9491CBA30192015F
:103870000E9411CC6B017C0120E030E0A9010E9484
:103880008ED387FF0AC02BED3FE049EC50E4C7011F
:10389000B6010E9492CB6B017C01112351F02BEDFC
:1038A0003FE049EC50E4C701B6010E9491CB6B01A7
:1038B0007C0120E030E0A901C701B6010E948ED34F
:1038C000811126C02D962CAD3DAD4EAD5FAD2D972F
:1038D00069A97AA98BA99CA90E948ED3811118C0CD
:1038E00065962CAD3DAD4EAD5FAD659729966CAD3F
:1038F0007DAD8EAD9FAD29970E948ED3811108C0FA
:10390000ABEDCA2EAFE0DA2EA9ECEA2EA0E4FA2E37
:10391000A1962CAD3DAD4EAD5FADA197C701B601EF
:103920000E94F4D39B01AC010E94F4D34B015C01D3
:103930002DA93EA94FA958ADCA01B9010E94F4D3DF
:103940009B01AC01C501B4010E9492CB0E9460CEE4
:103950004B015C012FE632E143E85AE30E948ED32B
:1039600087FD5EC2C501B4010E9434CD0E9405CD21
:1039700021967FAF6EAF2197DB01AB2B31F4E1E0F5
:10398000F0E02196FFAFEEAF219721962EAD3FAD2F
:103990002197B90180E090E00E9493D34B015C0134
:1039A0009B01AC01C701B6010E948CCC69AB7AAB1C
:1039B0008BAB9CABA50194016DA97EA98FA998AD95
:1039C0000E948CCCA1966CAF7DAF8EAF9FAFA197BC
:1039D0006D962CAD3DAD4EAD5FAD6D97A5966CADC2
:1039E0007DAD8EAD9FADA5970E9491CBA5019401B1
:1039F0000E948CCCA5966CAF7DAF8EAF9FAFA59784
:103A000029A93AA94BA95CA9CA01B9010E94F4D31A
:103A100020E030E040E05FE30E94F4D39B01AC0182
:103A200060E070E080E89FE30E9491CB29966CAF44
:103A30007DAF8EAF9FAF299701E010E00C0F1D1FE7
:103A4000020D131D6996CCACDDACEEACFFAC6997F2
:103A5000D801CD92DD92ED92FC9213976D96CCAC8D
:103A6000DDACEEACFFAC6D97CD86DE86EF86F88AD6
:103A70006091180270911902072E000C880B990BA7
:103A80000E9495D32091270230912802409129026B
:103A900050912A020E94F4D32AE037ED43E25CE31E
:103AA0000E94F4D32D966CAF7DAF8EAF9FAF2D9754
:103AB0000E94ED6E9B01AC0128533F4F4F4F5F4F6B
:103AC00065962CAF3DAF4EAF5FAF65974DA05EA042
:103AD0006FA078A422242394312C39E13DAB41E03E
:103AE00050E04C0F5D1FCBACDCAC4C0D5D1D5CAFF2
:103AF0004BAFEE24E394F12CEC0EFD1EC9ACDAAC16
:103B0000EC0CFD1CFAAEE9AE67961FAF0EAF6797DF
:103B10002196CEACDFAC21972C143D0409F43DC1B5
:103B20000E94B4C10E94ED6EDC01CB0165962CAD04
:103B30003DAD4EAD5FAD6597821B930BA40BB50BEE
:103B4000B7FD10C00E94ED6E9B01AC0128533F4FA2
:103B50004F4F5F4F65962CAF3DAF4EAF5FAF659750
:103B60000E943E9E3DA931503DAB332309F441C034
:103B700029962CAD3DAD4EAD5FAD299769A57AA5CF
:103B80008BA59CA50E94F4D36B017C0129A93AA9BD
:103B90004BA95CA9B201C3010E94F4D3A70196010D
:103BA0000E9492CB6B017C0129962CAD3DAD4EADB0
:103BB0005FAD2997B201C3010E94F4D34B015C01B0
:103BC00029A93AA94BA95CA969A57AA58BA59CA5A9
:103BD0000E94F4D39B01AC01C501B4010E9491CBBA
:103BE0002B013C01C601D70189A79AA7ABA7BCA7A7
:103BF0004FC0B10180E090E00E9493D329A93AA977
:103C00004BA95CA90E94F4D34B015C010E9487CCB4
:103C10006B017C01C501B4010E9452CE4B015C01D5
:103C2000A70196016DA17EA18FA198A50E94F4D352
:103C30002B013C01A50194016DA57EA58FA598A936
:103C40000E94F4D39B01AC01C301B2010E9492CB4C
:103C50002B013C01A50194016DA17EA18FA198A526
:103C60000E94F4D34B015C01A70196016DA57EA5CE
:103C70008FA598A90E94F4D39B01AC01C501B401A2
:103C80000E9491CB69A77AA78BA79CA749E14DAB6E
:103C90009201A30125966CAD7DAD8EAD9FAD2597AC
:103CA0000E9492CBABADBCAD6D937D938D939C93F5
:103CB000139729A53AA54BA55CA561966CAD7DAD82
:103CC0008EAD9FAD61970E9492CBE9ADFAAD608356
:103CD000718382839383A1962CAD3DAD4EAD5FADD4
:103CE000A1976796AEADBFAD67976D917D918D91B0
:103CF0009C910E9492CB6796EEADFFAD6797608373
:103D0000718382839383A5962CAD3DAD4EAD5FAD9F
:103D1000A5976D857E858F8598890E9492CB6D874A
:103D20007E878F87988BC090EE0E89819A81AB81B8
:103D3000BC81898B9A8BAB8BBC8B8D819E81AF8133
:103D4000B8858D8B9E8BAF8BB88F89859A85AB8517
:103D5000BC85898F9A8FAB8FBC8FCE0141960E9414
:103D6000E43E40E050E0BA01CE0141960E94C5A079
:103D70002D96ECACFDAC0EAD1FAD2D979E01235FD3
:103D80003F4F47E05FE063E07FE08FEF9EE00E94FF
:103D90007774FFEF2F1A3F0ABBCEC090EE0E8091D2
:103DA000CB069091CC06A091CD06B091CE06898B22
:103DB0009A8BAB8BBC8B8091CF069091D006A09153
:103DC000D106B091D2068D8B9E8BAF8BB88F809130
:103DD000D3069091D406A091D506B091D606898FCE
:103DE0009A8FAB8FBC8FCE0141960E94E43E40E09B
:103DF00050E0BA01CE0141960E94C5A02D96ECACD0
:103E0000FDAC0EAD1FAD2D9727ED36E047E05FE02E
:103E100063E07FE08FEF9EE00E9477740E94A83DF0
:103E20000E94AB3F0C941234E3E0FCE084918F01DC
:103E30000F5F1F4F882321F00E94B63FF801F6CF95
:103E4000ECE9F3E084918F010F5F1F4F882311F499
:103E50000C9412340E94B63FF801F4CF80E50E9422
:103E6000853E882329F00E94DF3D6B017C0103C061
:103E7000C12CD12C760183E50E94853E882361F018
:103E80000E94233E20E030E04AE754E40E94F4D34D
:103E90000E9405CD6B017C010E94AFC20E94AB3F26
:103EA00080917F0D9091800DA091810DB091820D38
:103EB000C80ED91EEA1EFB1E0E94ED6EDC01CB016E
:103EC0008C199D09AE09BF09B7FD02C00C941234CC
:103ED0000E943E9EF1CF80916902882311F40C94D8
:103EE00012348091E8069091E906892BD1F0E3E045
:103EF000FCE084918F010F5F1F4F882321F00E9407
:103F0000B63FF801F6CFE2EBF3E084918F010F5F4B
:103F10001F4F882311F40C9412340E94B63FF8010D
:103F2000F4CF0E94918489E40E94853E882329F081
:103F30000E94233E2B013C0103C0412C512C320135
:103F40008AE40E94853E882329F00E94233E4B018B
:103F50005C0103C0812C912C540180E50E94853EB8
:103F6000882329F00E94233E6B017C0103C0C12CF1
:103F7000D12C760181E50E94853E882339F00E948C
:103F8000233E6DA37EA38FA398A704C01DA21EA2EB
:103F90001FA218A62091EE0ECB57DF4F2883C558DD
:103FA000D0406091180270911902072E000C880B06
:103FB000990B0E9495D320912702309128024091BD
:103FC000290250912A020E94F4D32AE037ED43E2FD
:103FD0005CE30E94F4D3CA57DF4F688379838A83F6
:103FE0009B83C658D0408091EF0E9091F00EA09127
:103FF000F10EB091F20E89A79AA7ABA7BCA7A301B7
:104000009201BC01CD010E9492CB65966CAF7DAF51
:104010008EAF9FAF65974090F30E5090F40E609076
:10402000F50E7090F60EA5019401C301B2010E9435
:1040300092CB69966CAF7DAF8EAF9FAF69972091A1
:10404000CB063091CC064091CD065091CE06C701EB
:10405000B6010E9492CB6D966CAF7DAF8EAF9FAFD5
:104060006D972091CF063091D0064091D1065091A6
:10407000D2066DA17EA18FA198A50E9492CBA19698
:104080006CAF7DAF8EAF9FAFA197C9A4DAA4EBA4AC
:10409000FCA4C982DA82EB82FC824D825E826F824E
:1040A00078860E94ED6E9B01AC0128533F4F4F4F25
:1040B0005F4FC058DF4F288339834A835B83C058E2
:1040C000D0407DEC872E7CEC972EA92C7DE3B72E7B
:1040D00019AE1DA6412C512C0E94B4C10E94ED6E58
:1040E0008B019C01C058DF4FC880D980EA80FB80DB
:1040F000C058D0400C191D092E093F0937FD10C0CA
:104100009B01AC0128533F4F4F4F5F4FC058DF4FCB
:10411000288339834A835B83C058D0400E943E9EE7
:10412000A5019401B9ADADA56B2F7A2F842D952DE6
:104130000E9492CB1B018DA399A720E030E040E8BC
:104140005FE30E9412CE181634F4212C312C30E893
:104150003DA34FE349A78091CB069091CC06A09157
:10416000CD06B091CE06A5968CAF9DAFAEAFBFAFDA
:10417000A597C090EF0ED090F00EE090F10EF09069
:10418000F20EAD96CCAEDDAEEEAEFFAEAD97D9A4DD
:10419000DF92EDA0EF923F922F92A596ACACBDAC12
:1041A000CEACDFACA5976D96ECACFDAC0EAD1FAD03
:1041B0006D9765962CAD3DAD4EAD5FAD6597AD96F7
:1041C0006CAD7DAD8EAD9FADAD970E94FC710F9033
:1041D0000F900F900F9069AB7BAF8FAF9DAB20918D
:1041E000CF063091D0064091D1065091D206E1968B
:1041F0002CAF3DAF4EAF5FAFE1978091F30E909142
:10420000F40EA091F50EB091F60EE5968CAF9DAF31
:10421000AEAFBFAFE59799A59F93ADA1AF933F9286
:104220002F92E196ACACBDACCEACDFACE197A196E1
:10423000ECACFDAC0EAD1FADA19769962CAD3DADBC
:104240004EAD5FAD6997E5966CAD7DAD8EAD9FAD22
:10425000E5970E94FC710F900F900F900F9022969F
:104260006FAF229726967FAF26972E968FAF2E9709
:104270002A969FAF2A97C980DA80EB80FC80E99666
:10428000CCAEDDAEEEAEFFAEE9972D813E814F8123
:104290005885ED962CAF3DAF4EAF5FAFED97A6962C
:1042A0001FAEA69779AD6DA5272F362F442D552D1E
:1042B000FDA1E9A5622D732D8F2F9E2F0E9491CB1A
:1042C0002FE632E143E05BE30E948ED387FF06C016
:1042D000A6963FADA6973111F7C1DDC19DA189A575
:1042E000222D332D492F582FB9ADADA56B2F7A2F25
:1042F000842D952D0E9492CB20E030E040E05FE3DA
:104300000E94F4D33B014C019F928F937F926F9355
:10431000A596ACACBDACCEACDFACA5976D96ECACC5
:10432000FDAC0EAD1FAD6D9765962CAD3DAD4EADA0
:104330005FAD6597AD966CAD7DAD8EAD9FADAD9724
:104340000E94FC710F900F900F900F90EE966FAF40
:10435000EE97EF967FAFEF97C158DF4F8883CF5727
:10436000D040CC57DF4F9883C458D0409F928F9253
:104370007F926F92E196ACACBDACCEACDFACE19776
:10438000A196ECACFDAC0EAD1FADA19769962CAD1E
:104390003DAD4EAD5FAD6997E5966CAD7DAD8EAD33
:1043A0009FADE5970E94FC710F900F900F900F90BA
:1043B0005B018C0129A93BAD4FAD5DA9E9966CADC0
:1043C0007DAD8EAD9FADE9970E9492CB20E030E0AD
:1043D00040E05FE30E94F4D39B01AC01EE966FAD29
:1043E000EE97EF967FADEF97C158DF4F8881CF579B
:1043F000D040CC57DF4F9881C458D0400E9491CB19
:104400006B017C01E894F7F822962FAD229726964F
:104410003FAD26972E964FAD2E972A965FAD2A97E1
:10442000ED966CAD7DAD8EAD9FADED970E9492CBBC
:1044300020E030E040E05FE30E94F4D39B01AC0158
:10444000B501C8010E9491CB9B01AC015F77C70108
:10445000B6010E9492CB2DEC3CEC4CEC5DE30E944B
:104460008ED318160CF034CF2296AFAE2297269634
:10447000BFAE26972E960FAF2E972A961FAF2A977C
:10448000EE964FADEE9749ABEF965FADEF975BAF12
:10449000C158DF4F8881CF57D0408FAFCC57DF4F07
:1044A0009881C458D0409DAB13018DA299A6A1E07C
:1044B000A696AFAFA697F6CEA7019601C701B601A3
:1044C0000E9492CB9B01AC01B9ADADA56B2F7A2FA9
:1044D000842D952D0E9492CB962E872E782E692EB4
:1044E00020E030E040E85FE3D401F3016B2F7A2F46
:1044F0008F2F9E2F0E9412CE87FFE6C06F927F9271
:104500008F929F92A596ACACBDACCEACDFACA5971C
:104510006D96ECACFDAC0EAD1FAD6D9765962CADF8
:104520003DAD4EAD5FAD6597AD966CAD7DAD8EADDD
:104530009FADAD970E94FC710F900F900F900F9060
:10454000A6966FAFA697EE967FAFEE97EF968FAFDA
:10455000EF97C158DF4F9883CF57D0406F927F922B
:104560008F929F92E196ACACBDACCEACDFACE19744
:10457000A196ECACFDAC0EAD1FADA19769962CAD2C
:104580003DAD4EAD5FAD6997E5966CAD7DAD8EAD41
:104590009FADE5970E94FC710F900F900F900F90C8
:1045A0005B018C01A6962FADA697EE963FADEE97D8
:1045B000EF964FADEF97C158DF4F5881CF57D0409E
:1045C000E9966CAD7DAD8EAD9FADE9970E9492CB23
:1045D00020E030E040E05FE30E94F4D39B01AC01B7
:1045E00069A97BAD8FAD9DA90E9491CB6B017C0128
:1045F000E894F7F89501A801ED966CAD7DAD8EAD10
:104600009FADED970E9492CB20E030E040E05FE369
:104610000E94F4D39B01AC0122966FAD229726969F
:104620007FAD26972E968FAD2E972A969FAD2A970F
:104630000E9491CB9B01AC015F77C701B6010E943C
:1046400092CB2DEC3CEC4CEC5DE30E9412CE1816A4
:10465000DCF12296AFAE22972696BFAE26972E9615
:104660000FAF2E972A961FAF2A97A696BFADA69793
:10467000B9ABEE96EFADEE97EBAFEF96FFADEF97E0
:10468000FFAFC158DF4FC880CF57D040CDAA292CEB
:10469000382C7DA269A679AD6DA5272F362F442D24
:1046A000552DFDA1E9A5622D732D8F2F9E2F0E9400
:1046B00091CB6B017C012DEC3CEC4CEC5DE30E945A
:1046C00012CE18160CF0F8CE79AD6DA5272F362F27
:1046D000442D552DFDA1E9A5622D732D8F2F9E2F01
:1046E0000E9491CB4B015C0189A99BADAFADBDA9E7
:1046F00089839A83AB83BC8322968FAD22972696BB
:104700009FAD26972E96AFAD2E972A96BFAD2A97CE
:104710008D839E83AF83B8879DA189A5222D332DDC
:10472000492F582F60E070E080E89FE30E9491CB12
:104730002B013C012091F70E3091F80E4091F90EBB
:104740005091FA0E0E94F4D36B017C012091D306A4
:104750003091D4064091D5065091D606FDA1E9A529
:10476000622D732D8F2F9E2F0E94F4D39B01AC01DD
:10477000C701B6010E9492CB6B017C0169877A87E1
:104780008B879C872091FB0E3091FC0E4091FD0E93
:104790005091FE0EC301B2010E94F4D32B013C01E3
:1047A0002091D7063091D8064091D9065091DA066B
:1047B000FDA1E9A5622D732D8F2F9E2F0E94F4D3AA
:1047C0009B01AC01C301B2010E9492CB6D877E8731
:1047D0008F87988B89A99BADAFADBDA9898B9A8B2B
:1047E000AB8BBC8B22968FAD229726969FAD2697DA
:1047F0002E96AFAD2E972A96BFAD2A978D8B9E8BA6
:10480000AF8BB88FC98EDA8EEB8EFC8ECE014196BF
:104810000E94E43E40E050E0BA01CE0141960E9481
:10482000C5A0CB57DF4FC880C558D040CA57DF4F0F
:10483000E880F9800A811B81C658D0409E01235F21
:104840003F4F47E05FE063E07FE08FEF9EE00E9434
:10485000777420E030E040E85FE3FDA1E9A5622D38
:10486000732D8F2F9E2F0E948ED387FF05C029AEF8
:104870003DA64DA059A430CC0E94A83D0C94123402
:1048800086E40E94563E882359F00E94233E20E091
:1048900030E0A9010E9412CE181614F40C942534AD
:1048A00080E090E00E9491C269837A838B839C832D
:1048B00081E090E00E9491C26D837E838F83988710
:1048C0008091F70E9091F80EA091F90EB091FA0E2A
:1048D00089879A87AB87BC878091FB0E9091FC0EED
:1048E000A091FD0EB091FE0E8D879E87AF87B88B8D
:1048F00082E50E94563E811103C0F090B80302C0C9
:10490000FF24F3948091EA0687FD0CC069E7C62E68
:1049100062E0D62E8E010F5F1F4F5E0121E1A20ED5
:10492000B11C4FC0AE014F5F5F4F6FED73E081E090
:1049300094E00E943344F11003C0EDECF3E00CC0AE
:10494000E5EDF3E084918F010F5F1F4F8823A9F3FA
:104950000E94B63FF801F6CF84918F010F5F1F4F81
:104960008823A1F20E94B63FF801F6CF0E94233EB1
:10497000FF2081F1F80120813181428153810E9421
:1049800092CBD8016D937D938D939C9313978091D7
:10499000EA0687FF11C080E20E94B63F8E2D0E947A
:1049A000B63F8AE30E94B63FF8016081718182813F
:1049B000938142E00E9445430C5F1F4F0A151B057F
:1049C00069F0D601ED906D018E2D0E94563E882330
:1049D00099F3CCCF20E030E0A901D1CF8091EA0655
:1049E00087FF03C08AE00E94B63FC090EE0E898523
:1049F0009A85AB85BC854D815E816F817885E0901D
:104A00002702F09028020091290210912A02498081
:104A10005A806B807C80498A5A8A6B8A7C8A4D8F47
:104A20005E8F6F8F78A389A39AA3ABA3BCA39E01CB
:104A3000235F3F4FAE014F5D5F4FBE01635E7F4F0F
:104A4000C5010E947774BE016B5F7F4FCE01019656
:104A50000E942FA32091DB063091DC064091DD06F9
:104A60005091DE066091630D7091640D8091650D2B
:104A70009091660D0E9492CB6093EF0E7093F00EB2
:104A80008093F10E9093F20E2091DF063091E006B4
:104A90004091E1065091E2066091670D7091680DBA
:104AA0008091690D90916A0D0E9492CB6093F30EF4
:104AB0007093F40E8093F50E9093F60E89859A8587
:104AC000AB85BC858093F70E9093F80EA093F90EFA
:104AD000B093FA0E8D859E85AF85B8898093FB0EC5
:104AE0009093FC0EA093FD0EB093FE0E0C94123426
:104AF000B090730D0091EA061091EB068FEF9FEFD7
:104B00009093EB068093EA0681E40E94563E882348
:104B100019F00E94233E03C060E070E0CB016D8F6E
:104B20007E8F8F8F98A382E40E94563E882319F0CF
:104B30000E94233E03C060E070E0CB01698B7A8B5A
:104B40008B8B9C8B81E40E94563E81110C943734F0
:104B500082E40E94563E81110C9437340C949D34AB
:104B600080E090E0A4EBB2E4898B9A8BAB8BBC8B9A
:104B700019821A821B821C82BE016F5F7F4FCE0199
:104B800041960E942FA32091DB063091DC064091D4
:104B9000DD065091DE066091630D7091640D809189
:104BA000650D9091660D0E9492CB6093EF0E70930D
:104BB000F00E8093F10E9093F20E2091DF0630916B
:104BC000E0064091E1065091E2066091670D709118
:104BD000680D8091690D90916A0D0E9492CB60934F
:104BE000F30E7093F40E8093F50E9093F60E20E082
:104BF00030E0A9016091E3067091E4068091E5063A
:104C00009091E6060E9492CB6093F70E7093F80E97
:104C10008093F90E9093FA0E81E08093C7068093FB
:104C2000C4068093C8068093C5068093C906809306
:104C3000C6060E940848EAE2FEE084918F010F5FF9
:104C40001F4F882321F00E94B63FF801F6CFE2E221
:104C5000F4E084918F010F5F1F4F882321F00E94A1
:104C6000B63FF801F6CF0E94CEB80C9412348CE413
:104C70000E94563E81111092730D82E50E94563EAD
:104C8000882319F081E08093730DE4E4F4E08491CB
:104C90008F010F5F1F4F882321F00E94B63FF8015C
:104CA000F6CF8091730D811103C0EFE3F4E002C0F1
:104CB000E9E3F4E084918F010F5F1F4F882379F1BE
:104CC0000E94B63FF801F6CF8091EA069091EB067C
:104CD000892B09F47AC5B7EDAB2EB4E0BB2EE12CDD
:104CE000F12C80E0CC24C394D12C2091EA063091A1
:104CF000EB06A6010E2C02C0440F551F0A94E2F7E2
:104D000024233523232B09F048C5FFEFEF1AFF0AB0
:104D100022E0A20EB11C38E0E316F10431F78AE07C
:104D20000E94B63F0C941234C0904105D0904205C9
:104D3000E0904305F0904405C9A6DAA6EBA6FCA6D0
:104D400049E3E42E45E0F42E09E812E053E0D52EC5
:104D5000D00ED8018D918D010E94563E882339F0E6
:104D60000E94233EF7016083718382839383F4E082
:104D7000EF0EF11CD012EDCFC0903905D0903A055E
:104D8000E0903B05F0903C0520E030E0A901C70130
:104D9000B6010E948ED380903D0590903E05A09074
:104DA0003F05B0904005882309F470C020E030E052
:104DB00048E453E4C501B4010E9492CBA7019601D7
:104DC0000E9411CC20E030E044E353E40E94F4D38D
:104DD0002BED3FE049E450E40E948CCC20E030E031
:104DE00044EB52E40E9492CB2B013C0160936F0D87
:104DF0007093700D8093710D9093720D20E030E0F0
:104E0000A901C701B6010E948ED387FD09C020E029
:104E100030E040E85FE32DA33EA34FA358A708C0AE
:104E200080E090E0A0E8BFEB8DA39EA3AFA3B8A75E
:104E30002BED3FE049E450E4C301B2010E94F4D3FA
:104E400020E030E044E353E40E948CCC0E9452CE38
:104E50002B013C01A50194015F776DA17EA18FA17B
:104E600098A50E94F4D3A30192010E948CCC20E06B
:104E700030E048E453E40E9492CB6093740D709349
:104E8000750D8093760D9093770D10C010926F0D75
:104E90001092700D1092710D1092720D8092740D1F
:104EA0009092750DA092760DB092770DB701A60184
:104EB00085E794E00E94827140913D0550913E0546
:104EC00060913F057091400581E794E00E948271F6
:104ED000C0904105D0904205E0904305F090440514
:104EE000B701A6018DE694E00E94827140916F0D9A
:104EF0005091700D6091710D7091720D85E694E086
:104F00000E9482714091740D5091750D6091760DE3
:104F10007091770D8CE594E00E9482718AE00E9486
:104F2000B63F29A53AA54BA55CA5C701B6010E94CD
:104F300091CB9B01AC016091F70E7091F80E8091BE
:104F4000F90E9091FA0E0E9492CB6093F70E709337
:104F5000F80E8093F90E9093FA0E0E94C5A48CE08F
:104F6000E3E6FDE0AFEEBEE001900D928A95E1F739
:104F70000E9408480E94CEB80C94123481E090E060
:104F80009093E9068093E8060C94123482E090E056
:104F90009093E9068093E8060C9412340E94AB5D6E
:104FA0000C9412340E94A95C0C9412341092B80331
:104FB0000C94123481E08093B8030C94123485E48D
:104FC0000E94853E082F811102C00E94AFC229E8CD
:104FD000A22E22E0B22E3FEEE32E3EE0F32ED12CA5
:104FE00010E0D5018D915D010E94853E882359F026
:104FF0000E94233EF7016083718382839383133081
:1050000011F0DD24D3941F5FF4E0EF0EF11C143097
:1050100041F7DD2019F00E94084806C0002321F066
:105020008BEF9EE00E94E4C30E94CEB80C94123431
:1050300000914505109146050D3C110509F495C5F3
:105040000CF0D1C00C35110509F425C40CF069C071
:105050000B32110509F4DAC18CF50530110509F49C
:10506000CDC18CF417FF02C00C941234023011052C
:105070000CF4C0C10330110514F40C9412340E94D6
:10508000775A0C9412340231110509F400C44CF41F
:105090000131110511F00C9412340E943EA00C94C1
:1050A00012340F31110509F4ADC10A32110511F0A6
:1050B0000C9412340E94E6580C94123401351105F8
:1050C00009F4D8C3DCF40B34110509F409C34CF41A
:1050D0000033110511F00C9412340E943CB30C946F
:1050E00012340C34110509F4FFC20D34110511F00E
:1050F0000C9412340E94B9C20C9412340335110579
:1051000009F4C0C30CF4BAC30435110509F4BFC3D4
:105110000535110511F00C9412340E946ABA0C94F2
:1051200012340637110509F4C0C39CF50D3611057C
:1051300009F477C3DCF40936110509F46AC34CF4A9
:105140000836110511F00C9412340E9414BD0C9411
:1051500012340A36110509F468C30B36110511F033
:105160000C9412340E94E5BA0C9412340F361105D7
:1051700009F4E7C20CF4D2C20237110509F48FC357
:105180000337110511F00C9412340E94779D0C9492
:1051900012340B39110509F440C384F408371105A2
:1051A00009F4AFC30CF485C30937110509F4AFC383
:1051B0000C38110509F416C30C941234093C11057E
:1051C00009F40FC434F4083C110509F4A5C30C9488
:1051D00012340B3C110509F435C40C3C110509F4DB
:1051E0005AC40C941234083B21E0120711F40C94B9
:1051F00014330CF089C00D3241E0140709F42DC6B8
:105200000CF045C0023E110509F401C61CF5033D32
:10521000110509F44EC5A4F40E3C110511F00C94CF
:10522000123499E8A92E92E0B92E2FEEC22E2EE06C
:10523000D22E38EAE32E36E0F32E00E010E000C56F
:105240000C3D110509F4BDC50D3D110509F4C6C598
:105250000C941234053081E0180709F401C64CF4AF
:105260000430114011F00C9412340E94A49C0C9450
:1052700012340831B1E01B0709F4ECC50C321140BF
:1052800011F00C9412340E9407B30C9412340139BB
:10529000F1E01F0711F40C94C731B4F40F3231E080
:1052A000130709F4E3C50CF4DEC5033651E0150716
:1052B00011F40C945C330039114011F00C94123449
:1052C0000E94AFC20C941234043A91E0190711F411
:1052D0000C94CB3154F40239114011F00C94123477
:1052E00080E00E94A8470C941234053AE1E01E07C2
:1052F00011F40C9468320C3A114011F00C941234F1
:105300000E940EB10C941234023223E012070CF00A
:1053100048C0003233E0130714F00C943233063CDB
:1053200041E0140711F40C942B33F4F4033C81E0B6
:10533000180711F40C9423333CF4023C114011F48F
:105340000C9417330C941234043CB1E01B0711F495
:105350000C942733053C114011F00C94123482E078
:105360000E945EB00C941234053FF1E01F0711F467
:105370000C9400334CF4043F114011F00C9412349F
:105380000E946C640C941234063F41E0140711F43F
:105390000C940333073F114011F40C9406330C9422
:1053A00012340A3283E018077CF4083293E01907BC
:1053B00014F00C944833C80184529340029710F4BF
:1053C0000C943D330C9412340335A3E01A0711F406
:1053D0000C942F3344F40C32E3E01E0714F40C94C5
:1053E00050330C941234073E134011F40C9475336F
:1053F0000C9412340E94245B0C9412340E94365A8E
:105400000C9412340E943B590C94123484E50E948F
:10541000563E882309F465C089E40E94563E082F51
:10542000882319F00E94133E082F82E50E94853ED2
:10543000882321F00E94EF3D7B0103C0EE24E3941A
:10544000F12C83E50E94853E882321F00E94EF3DE8
:10545000162F01C010E085E40E94853E882321F0CC
:105460000E94EF3D6B0103C08FE4C82ED12C87E56D
:105470000E94853E882319F00E94EF3D02C064EF30
:1054800071E02B01770F66087708812F90E0C8162E
:10549000D906CCF001110C945135812F0E94CB54C8
:1054A000882311F40C9451352FE433E041E060E09F
:1054B000812F0E94D9548AE00E94B63F8AE00E9460
:1054C000B63F1F5FE2CFE4E8F4E084918F010F5F05
:1054D0001F4F882311F40C9412340E94B63FF80138
:1054E000F4CF85E40E94563E882389F10E94133E42
:1054F0008093770EE6ECF4E084918F010F5F1F4FED
:10550000882321F00E94B63FF801F6CF8091770EF4
:10551000811103C0E2ECF4E002C0EFEBF4E084910F
:105520008F010F5F1F4F882321F00E94B63FF801C3
:10553000F6CFE8EBF4E084918F010F5F1F4F8823D3
:1055400011F40C9412340E94B63FF801F4CF83E5B5
:105550000E94563E8823D1F0E3E0FCE084918F0165
:105560000F5F1F4F882321F00E94B63FF801F6CF4E
:10557000EBE8F4E084918F010F5F1F4F882311F453
:105580000C9412340E94B63FF801F4CF80E50E94DB
:10559000853E882321F00E94FF3D182F01C010E0B6
:1055A00080E50E94853E811107C0103510F00C94F3
:1055B00012340FE4E02E01C0E12E89E40E94563E31
:1055C000082F882319F00E94133E082F87E50E94B8
:1055D000563E882309F477C00E94133E882309F4BD
:1055E00072C06DB67EB6E9EAF4E084916F013FEFD8
:1055F000C31AD30A882321F00E94B63FF601F5CFE3
:10560000F12CA12EB12CC7018A199B0901964DB727
:105610005EB7481B590B0FB6F8945EBF0FBE4DBF67
:105620008DB79EB701964C01512EC52C052C000C50
:10563000DD08EC14FD0464F0852D0E94CB54882312
:1056400011F40C947F3501110C947F355394EDCFF8
:1056500081E08093B203512EC52C052C000CDD088F
:10566000EC14FD04F4F0852D0E94CB54882311F036
:105670000023A9F0852D0E941BAA482ECA18DB081A
:10568000C80CD91CF6018081481649F024E633E0A5
:1056900040E0602F852D0E94D954D6014C9253943E
:1056A000DBCF8091B203882339F068EC70E080E0B2
:1056B00090E00E945E71CFCF0FB6F8947EBE0FBE11
:1056C0006DBE0C94123424E633E041E0602F812F4C
:1056D0000E94D9541F5FE11610F40C941234F3CFDA
:1056E0000E94914E0C9412348091B70F9091B80F94
:1056F000019711F00C94123482E090E09093B80F6F
:105700008093B70F0E94ED6E6093C10F7093C20F2C
:105710008093C30F9093C40F0C9412348EE40E94B4
:10572000853E882311F40C9412340E94EF3D60935F
:10573000570D7093580D8093590D90935A0D0C94FA
:10574000123483E50E94563E882371F083E50E945F
:10575000853E882319F00E94FF3D01C080E090E063
:105760009093EB068093EA06EAE2FEE084918F01D3
:105770000F5F1F4F882321F00E94B63FF801F6CF3C
:10578000EBEEF4E084918F010F5F1F4F882309F443
:105790009BCA0E94B63FF801F5CF99249394980EC6
:1057A000882319F08CE20E94B63FF50125913491CF
:1057B000F901849189010F5F1F4F882321F00E9416
:1057C000B63F9801F5CF892DA0CAE7EEF4E08491A9
:1057D0008F010F5F1F4F882309F4A1CA0E94B63FB3
:1057E000F801F5CF8091EA0683FF02C00C941234D1
:1057F00083E50E94853E882311F40C9412340E94A4
:10580000233E0E94FECC7093740E6093730E0C9432
:1058100012340E94F7BC0C945C370E94FABA0C94C4
:1058200012340E947ABB0C94123483E50E94853EA8
:10583000882339F00E94EF3D8B016F3F710519F00D
:1058400010F00FEF10E080E50E94853E882339F0CC
:105850000E94FF3D823010F00C94123401C080E0B1
:10586000E82FF0E0EE0FFF1FE259F84F118300839D
:105870000C9412340E94D3BA0C9412341092B703D1
:105880000C94123481E08093B7030C9412340E947C
:1058900082BA0C9412340E94A7B90C9412340E945C
:1058A000AFC20E94CEB80C9412340E943E9D0C945C
:1058B0001234EAEFF4E084918F010F5F1F4F8823C9
:1058C00021F00E94B63FF801F6CFE2EFF4E08491B8
:1058D0008F010F5F1F4F882321F00E94B63FF80110
:1058E000F6CF4B9B03C00BEE12E002C000EF12E0BC
:1058F000D8018D918D01882309F411CA0E94B63F09
:10590000F7CF81E08093E7068093A7068BC71092BC
:10591000E7061092A70686C788EC90E00E9419411E
:10592000811180C784E40E94563E882309F456C042
:105930000E94233E11E020E030E0A9010E948ED3B6
:10594000811101C010E01093D10C112309F446C05D
:105950000091B30310E00E94233E000F111F000FBF
:10596000111FF801E753F34F6083718382839383A0
:1059700020E030E0A9016091C90C7091CA0C8091BF
:10598000CB0C9091CC0C0E948ED381110CC080E086
:1059900090E0A0E4B0E48093C90C9093CA0CA0936B
:1059A000CB0CB093CC0C20E030E0A9016091CD0C81
:1059B0007091CE0C8091CF0C9091D00C0E948ED320
:1059C00081110CC080E090E0A0E4B0E48093CD0CA5
:1059D0009093CE0CA093CF0CB093D00C0E9444A017
:1059E00021C789EC90E00E94194181111BC759E839
:1059F000E52E52E0F52E00E0F70181917F010E9433
:105A0000563E8823C9F0033019F41091B30301C046
:105A100010E00E94233E100FF4E01F9F900111241C
:105A2000A9014257584F6A010E9405CDD6016D93D6
:105A30007D938D939C9313970F5F0430E9F60E943A
:105A40000373F0C68BEC90E00E9419418111EAC605
:105A500049E8E42E42E0F42E00E0F70181917F0155
:105A60000E94563E882399F0033019F41091B30335
:105A700001C010E00E94233E100F24E0129FF001AD
:105A80001124EE5AF84F60837183828393830F5FF2
:105A9000043019F7C7C683E50E94563E8823D9F023
:105AA0000E94233EAB01BC0140934A0750934B0731
:105AB00060934C0770934D074093460750934707F8
:105AC00060934807709349078EE695E00E948271C3
:105AD0008AE00E94B63F80E50E94563E882399F0F6
:105AE0000E94233EAB01BC0140934A0750934B07F1
:105AF00060934C0770934D0781E595E00E94827199
:105B00008AE00E94B63F82E50E94563E882399F0C3
:105B10000E94233EAB01BC0140934E0750934F07B8
:105B2000609350077093510782E395E00E94827161
:105B30008AE00E94B63F84E50E94563E882309F41D
:105B400071C60E94233EAB01BC01409346075093AF
:105B50004707609348077093490784E195E00E94E6
:105B600082718AE00E94B63F5DC683E50E94563E80
:105B7000882351F00E94233E60936A0770936B075D
:105B800080936C0790936D0784E50E94563E8823AE
:105B900051F00E94233E60936607709367078093DD
:105BA00068079093690782E40E94563E882351F06B
:105BB0000E94DF3D6093C50C7093C60C8093C70CA8
:105BC0009093C80C88E50E94563E882351F00E94AD
:105BD000233E60933607709337078093380790937E
:105BE000390789E50E94563E882351F00E94233EE2
:105BF00060933A0770933B0780933C0790933D076F
:105C00008AE50E94563E882351F00E94233E60930D
:105C10003E0770933F07809340079093410785E4C8
:105C20000E94563E882309F4FDC50E94233E6093DE
:105C30004207709343078093440790934507F2C54A
:105C4000D5018D915D010E94563E882311F10E947D
:105C5000233E2B013C01F701208131814281538198
:105C60000E9491CB9B01AC01D6016D917D918D91EC
:105C70009C910E9492CBF60160837183828393830F
:105C8000D7014D925D926D927C921397C8010E944C
:105C900007400F5F1F4FB4E0CB0ED11CE4E0EE0EC7
:105CA000F11C0330110561F60E9408480E94CEB82D
:105CB000B9C5EAE2FEE084918F010F5F1F4F882390
:105CC00021F00E94B63FF801F6CFEAEBF5E08491AF
:105CD0008F010F5F1F4F882321F00E94B63FF8010C
:105CE000F6CFE6EBF5E084918F010F5F1F4F88231D
:105CF00021F00E94B63FF801F6CFEEEAF5E084917C
:105D00008F010F5F1F4F882321F00E94B63FF801DB
:105D1000F6CF40910C0250910D0260910E027091ED
:105D20000F028CEA95E00E9482714091100250911E
:105D30001102609112027091130289EA95E00E94AB
:105D40008271409114025091150260911602709177
:105D5000170286EA95E00E948271EEE9F5E08491EF
:105D60008F010F5F1F4F882321F00E94B63FF8017B
:105D7000F6CF4091000250910102609102027091B1
:105D800003028CE995E00E948271409104025091D7
:105D90000502609106027091070289E995E00E9470
:105DA0008271409108025091090260910A0270913B
:105DB0000B0286E995E00E9482718AE00E94B63F5C
:105DC00031C583E50E94853E882309F42BC50E94D6
:105DD000EF3D709319026093180224C58DED90E099
:105DE0000E94194181111EC583E50E94853E8823CA
:105DF00009F418C50091B30310E00E94EF3D000FB5
:105E0000111FF801EA5BFD4F718360830BC580E5CC
:105E10000E94563E882309F405C50E94EF3DD62E08
:105E2000E62EF72E83E50E94853E882321F00E940E
:105E3000EF3D8B0102C00FEF1FEFC80101960397E2
:105E400008F0F0C4F7FCEEC48D2D0E94CB548111F4
:105E5000E9C46AC60E941A9AE5C40E946AB2E2C402
:105E60000E94D49BDFC40E9414B2DCC485E40E946B
:105E7000853E882321F00E94EF3D8B0102C000E0A7
:105E800010E083E40E94853E882339F00E94EF3DB4
:105E9000EB967FAF6EAFEB9706C025E030E0EB9658
:105EA0003FAF2EAFEB9785E50E94563EAA968FAF87
:105EB000AA97882329F00E94133EAA968FAFAA972B
:105EC00017FD07C0C12CD12CB6E1EB2EB3E4FB2E9D
:105ED00006C0C12CD12CACE8EA2EA2E4FA2E83E550
:105EE0000E94853E882321F00E94233E6B017C01A5
:105EF0000115110511F41092B30380917D0E90915C
:105F00007E0E892BC9F0E3E0FCE084918F010F5FE6
:105F10001F4F882321F00E94B63FF801F6CFE8EF2B
:105F2000F6E084918F010F5F1F4F882309F47AC434
:105F30000E94B63FF801F5CF0E94ED6E4B015C0167
:105F4000012B19F402E013E00CC005E113E0D801C5
:105F50008D918D01882311F40C948F260E94B63FF9
:105F6000F6CFF80181918F01882319F00E94B63F86
:105F7000F8CFC701B6010E94FECC072E000C880B9B
:105F8000990B0E9495D36DA779AB8BAF9FAF8AE039
:105F90000E94B63F0E9490BF8FE780937C0E81E005
:105FA00080931A02E5968CAE9DAEAEAEBFAEE5977D
:105FB000A9968CAE9DAEAEAEBFAEA9971DAAF0E479
:105FC0002296FFAF22972CE126962FAF269736E434
:105FD0002E963FAF2E972A961FAE2A9762961FAE37
:105FE000629766961FAE66976A961FAE6A97A596E9
:105FF0001CAE1DAE1EAE1FAEA597A1961CAE1DAE6B
:106000001EAE1FAEA197C12CD12C7601FFE74F2EFB
:10601000512C612C712C8FE790E0A0E0B0E089A7B3
:106020009AA7ABA7BCA7E9961CAE1DAE1EAE1FAECD
:10603000E99791E0AE969FAFAE971AAE19AE00E029
:1060400010E0212C312C80911A02882309F498C188
:106050000E94ED6E6DA37EA38FA398A780917A0E08
:10606000882309F4AFC00E94A8BF0091800E109150
:10607000810E2090820E3090830E9801A1012A9605
:106080006FAD2A9762967FAD629766968FAD6697E1
:106090006A969FAD6A970E948ED387FF0CC02A969E
:1060A0000FAF2A9762961FAF629766962FAE6697DC
:1060B0006A963FAE6A979801A1016DA922967FADBD
:1060C000229726968FAD26972E969FAD2E970E94EB
:1060D00012CE181654F40DAB22961FAF22972696B7
:1060E0002FAE26972E963FAE2E97AE96AFADAE97BB
:1060F0002DA539A94BAD5FADB801C101AA2309F4A3
:1061000047C00E9412CE18160CF05CC04DA15EA1D3
:106110006FA178A5481959096A097B09DB01CA01F1
:1061200088589341A109B109B7FD4CC089A59AA52A
:10613000ABA5BCA584199509A609B709B595A7957E
:106140009795879580937C0EE9964CAF5DAF6EAFC7
:106150007FAFE997BDA52A96BFAF2A97E9A96296B6
:10616000EFAF6297FBAD6696FFAF66972FAD6A966D
:106170002FAF6A978DA19EA1AFA1B8A5E5968CAF70
:106180009DAFAEAFBFAFE597AE961FAEAE971AC04C
:106190000E948ED387FF16C08DA19EA1AFA1B8A586
:1061A000E5962CAD3DAD4EAD5FADE597821B930BF3
:1061B000A40BB50BAC01BD014858534161097109ED
:1061C00077FFD9C420E030E040EA51E46DA579A919
:1061D0008BAD9FAD0E9492CB9B01AC01B801C10178
:1061E0000E9412CE18166CF4E4E8F6E084918F0158
:1061F0000F5F1F4F882309F415C30E94B63FF801B3
:10620000F5CF80E398EFAFEFBFEFA9962CAD3DAD92
:106210004EAD5FADA997821B930BA40BB50B2DA1BF
:106220003EA14FA158A5820F931FA41FB51FB7FD14
:106230000FC00E9428BB8AE00E94B63F8DA19EA19C
:10624000AFA1B8A5A9968CAF9DAFAEAFBFAFA997D0
:106250008DA19EA1AFA1B8A5880F991FAA1FBB1F32
:10626000E5962CAD3DAD4EAD5FADE597821B930B32
:10627000A40BB50B88199909AA09BB0981389F4459
:10628000A241B10568F0E6E6F6E084918F010F5F68
:106290001F4F882309F4C6C20E94B63FF801F5CF0C
:1062A00049AD5AADEB968EAD9FADEB978417950730
:1062B0000CF0C9CEE9E0F6E084918F010F5F1F4F2B
:1062C000882321F00E94B63FF801F6CFB701A6015E
:1062D00084EF95E00E9482718AE00E94B63FA19609
:1062E0004CAD5DAD6EAD7FADA1978FED95E00E9499
:1062F00082718AE00E94B63FA5964CAD5DAD6EAD51
:106300007FADA5978AEC95E00E9482718AE00E9499
:10631000B63FAA969FADAA97992309F483C2C0926B
:106320006B0ED0926C0EE0926D0EF0926E0E2CEA17
:1063300035EC47E25EE3A1966CAD7DAD8EAD9FADD1
:10634000A1970E94F4D36093670E7093680E8093B8
:10635000690E90936A0E2CEA35EC47E25EE3A5964F
:106360006CAD7DAD8EAD9FADA5970E948CCC60933A
:106370006F0E7093700E8093710E9093720E52C2D6
:1063800080911A0281114EC20E9490BF4BC281E0DF
:106390000E94A84747C286E50E94563E882341F0E6
:1063A0008091F0069091F106892B11F00E9429C886
:1063B00083E50E94563E182F882319F00E94133E51
:1063C000182F83E50E94563E882319F0812F0E94E2
:1063D000B93B8AE50E94563E882321F00E94233E65
:1063E0000E94713BF0903407111103C0EAE2FEE015
:1063F00018C0F110FBCF03E01CE0F8018491882362
:1064000029F00F5F1F4F0E94B63FF7CF03E317E05D
:10641000F8018491882351F30F5F1F4F0E94B63F0C
:10642000F7CF84918F010F5F1F4F882321F00E94C7
:10643000B63FF801F6CFF11003C06EEF72E002C074
:106440006AEF72E085E297E00E94D4718AE00E94D0
:10645000B63FEAE2FEE084918F010F5F1F4F882371
:1064600021F00E94B63FF801F6CFE8E1F7E0849111
:106470008F010F5F1F4F882321F00E94B63FF80164
:10648000F6CFC0903007D0903107E0903207F090FF
:10649000330720E030E0A901C701B6010E9412CE07
:1064A00018166CF0E3E1F7E084918F010F5F1F4F46
:1064B000882309F4B7C10E94B63FF801F5CF42E046
:1064C000C701B6010E9445438AE00E94B63FAAC1B7
:1064D00089E40E94853E882321F00E94EF3D162F1B
:1064E00001C01FEF8AE40E94853E882321F00E94AC
:1064F000EF3D062F01C00FEF8AE50E94563EF82EB1
:10650000811105C081E50E94563ED82E01C0D12CD4
:1065100017FD02C007FF03C0E3E0FCE005C0F11077
:106520001AC0D11018C0F8CF84918F010F5F1F4F90
:10653000882321F00E94B63FF801F6CFE1E7F7E0AB
:1065400084918F010F5F1F4F882309F46BC10E9454
:10655000B63FF801F5CF173018F0E3E0FCE006C0D5
:106560000730D8F716C00E94B63FF80184918F011A
:106570000F5F1F4F8111F7CFE2E5F7E084918F01A4
:106580000F5F1F4F882309F44DC10E94B63FF801E9
:10659000F5CFE12E110FFF08002E000C110B0E9409
:1065A000233EDD2099F027E02E9DF0012F9DF00D78
:1065B0001124E00FF11FEE0FFF1FEE0FFF1FED5133
:1065C000FA4F208131814281538103C020E030E0C5
:1065D000A901A7E0AE9DF001AF9DF00D11240E0FB3
:1065E0001F1F000F111F000F111F0D511A4F0E9486
:1065F00092CBD8016D937D938D939C93139712C189
:106600000E94F0680FC10E9403990CC183E50E94AB
:10661000563E882319F00E94133E01C081E091E0AC
:1066200089270E94E094FEC00E9443AEFBC083E530
:106630000E94563E882319F00E94FF3D01C08FEF53
:106640000E945EB0EFC080E00E945EB0EBC081E0CF
:106650000E945EB0E7C083E00E945EB0E3C00E948B
:10666000D2ABE0C00E94AFC261E00032134009F437
:1066700060E08DE20E9444AAD5C00E94AFC261E0F2
:106680000432134009F460E08BE20E9444AACAC0BD
:1066900081E00832134009F080E00E943FACC2C0A4
:1066A0000E94AFC261E00A32134009F060E06195D8
:1066B0008DE00E9444AAB6C0E3E0FCE084918F0123
:1066C0000F5F1F4F882321F00E94B63FF801F6CFDD
:1066D000E1E9F7E084918F010F5F1F4F882309F4F0
:1066E000A1C00E94B63FF801F5CF81E08093690216
:1066F00083E50E94563E811103C00E94ABA792C061
:106700000E94133E81118EC0F8CF00914505109173
:106710004605F02E8091EA0685FF14C0B801772760
:106720008CEF97E00E949F7189E20E94B63F8AE059
:106730000E94B63F4FEE5EE06DED77E088EE97E0A9
:106740000E94334431E03F1518F5EAE2FEE08491FF
:106750008F010F5F1F4F882321F00E94B63FF80181
:10676000F6CF84E50E94B63F6F2D70E080E090E0A8
:106770004AE00E94B14080E20E94B63F0EE313E07F
:10678000D8018D918D018823C1F00E94B63FF8CFCA
:106790000093EE0EEAE2FEE084918F010F5F1F4F3F
:1067A000882321F00E94B63FF801F6CF6091EE0EEB
:1067B00070E080EA97E00E949F718AE00E94B63FF5
:1067C0008091EA0685FF2EC04FEE5EE06FEB77E02A
:1067D00089EC97E00E943344E2EBF7E084918F016B
:1067E0000F5F1F4F8823F1F00E94B63FF801F6CFEC
:1067F000EAE2FEE084918F010F5F1F4F882321F0B2
:106800000E94B63FF801F6CF60917D0D70917E0D2C
:1068100089E098E00E94D47182E20E94B63F8AE04B
:106820000E94B63F0E948CA747C38091B00390910D
:10683000B103892B31F4CF0101979093B103809379
:10684000B00380E090E00C94AC180E94233E20E05E
:1068500030E040E752E40E948CCC609327027093B2
:1068600028028093290290932A020C94502489E4F0
:106870000E94563E882371F00E94233E9B01AC018A
:106880006D8D7E8D8F8D98A10E9492CB6D8F7E8FA6
:106890008F8F98A38AE40E94563E882371F00E944D
:1068A000233E9B01AC0169897A898B899C890E946E
:1068B00092CB698B7A8B8B8B9C8B8BE40E94563EA0
:1068C000882361F00E94233E2D8D3E8D4F8D58A16F
:1068D0000E9491CB6D8F7E8F8F8F98A38CE40E9446
:1068E000563E882361F00E94233E29893A894B89CC
:1068F0005C890E9491CB698B7A8B8B8B9C8BBE01C0
:106900006F5E7F4FCE014D960E942FA360E083E61D
:106910009DE00E94DB828111ACC080E793E09A8306
:10692000898384E690E09AA389A3BE016F5F7F4FBD
:10693000CE0181960E9426C49CC00E94918480E56D
:106940000E94563E882309F4A8C00E94233E6B0192
:106950007C0182E50E94563E882321F00E94133E6E
:106960008093730DAA24A39420E030E0A901C7010D
:10697000B6010E948ED3811101C0A12C6A2D8BEC2F
:1069800096E00E94DB8281110FC080E793E09A833A
:10699000898384E690E09AA389A3BE016F5F7F4F4D
:1069A000CE0181960E9426C481E50E94563E88232E
:1069B00009F46CC06091CB067091CC068091CD0635
:1069C0009091CE06C090CF06D090D006E090D10630
:1069D000F090D2069B01AC010E94F4D32B013C0144
:1069E000A7019601C701B6010E94F4D39B01AC0137
:1069F000C301B2010E9492CB20E030E44CE158E4A4
:106A00000E9412CE1816E4F16BEC76E0CE010196EE
:106A10000E94E76D49805A806B807C80CD80DE804B
:106A2000EF80F8844091CB065091CC066091CD0662
:106A30007091CE068CE194E00E9482714091CF0665
:106A40005091D0066091D1067091D20689E194E010
:106A50000E948271B301A2018EE094E00E948271D3
:106A6000B701A6018BE094E00E9482718AE00E9447
:106A7000B63F1093EB060093EA06B092730DD2CEA8
:106A8000C12CD12C760126013701CCCFB701A6014C
:106A90008BEC96E00E94C5A0ECCFC12CD12C7601E6
:106AA00058CF2AE533E041E0602F812F0E94D9546E
:106AB00061E0812F0E9474AAA12CB12CAE14BF04F6
:106AC00014F00C945E2A60E0812F0E9444AAC30156
:106AD000B2010E945E7161E0812F0E9444AAC3014D
:106AE000B2010E945E7160E0812F0E9444AAC3013E
:106AF000B2010E945E712FEFA21AB20ADFCF62E0EC
:106B0000852D0E9474AA61E070E080E090E00E9410
:106B100098ABCA18DB08852D0E941BAAF401EC0D66
:106B2000FD1D80830C94262B0E94AFC260E08D2D4A
:106B30000E9474AA0F3FFFEF1F0759F48D2D0E948A
:106B40001BAA31E020E0892B09F030E0032F122F3F
:106B500005C00130110561F000E010E08D2D0E94AC
:106B60001BAA8017910709F45DCE0E943E9EF6CFC6
:106B700001E010E0F3CF49AD5AAD141615060CF044
:106B800071C1E9968CAC9DACAEACBFACE997880EF8
:106B9000991EAA1EBB1EE9962CAD3DAD4EAD5FAD54
:106BA000E997281B390B4A0B5B0BCA01B901A301FA
:106BB00092010E9472D7A50194010E94A4D749A412
:106BC0005AA46BA47CA4420E531E641E751E34E1AD
:106BD00043165104610471040CF14CEE4416510447
:106BE000610471043CF450E84516510461047104D9
:106BF0001CF105C05BEE452E512C612C712C49A671
:106C00005AA66BA67CA68EEF90E0A0E0B0E08419B7
:106C10009509A609B7092C013D0112C024E130E015
:106C200040E050E029A73AA74BA75CA744E1442ED7
:106C3000512C612C712C04C049A65AA66BA67CA6C7
:106C4000E0EFF6E084919F012F5F3F4F8823C1F072
:106C5000C457DF4F2883CC58D040C357DF4F388309
:106C6000CD58D0400E94B63FC457DF4F2881CC5842
:106C7000D040C357DF4F3881CD58D040F901E2CF23
:106C800069A57AA58BA59CA50E945B41EBEEF6E079
:106C900084919F012F5F3F4F8823C1F0C457DF4F7E
:106CA0002883CC58D040C357DF4F3883CD58D040CD
:106CB0000E94B63FC457DF4F2881CC58D040C357FD
:106CC000DF4F3881CD58D040F901E2CFC301B20186
:106CD0000E945B414DA922965FAD229726966FAD2B
:106CE00026972E967FAD2E9784EE96E00E948271B5
:106CF0002A964FAD2A9762965FAD629766966FAD02
:106D000066976A967FAD6A978DED96E00E948271D4
:106D100049AD5AAD433051050CF4A4C0C301B201D2
:106D20000E9495D320E030E040E850E40E94F4D384
:106D30006B017C012DA922963FAD229726964FAD7F
:106D400026972E965FAD2E972A966FAD2A9762965C
:106D50007FAD629766968FAD66976A969FAD6A978C
:106D60000E9491CB2BED3FE049E450E40E94F4D324
:106D700020E030E040E05FE30E94F4D39B01AC01EF
:106D8000C701B6010E948CCC6B017C01C501B40126
:106D90000E9495D32FE632E143E85AE30E94F4D3F0
:106DA0004B015C01B701A60187ED96E00E9482715C
:106DB000B501A40181ED96E00E9482712AE939E9CA
:106DC00049E15FE3C701B6010E94F4D36B017C0186
:106DD0009B01AC010E9492CBA50194010E948CCC36
:106DE000A1966CAF7DAF8EAF9FAFA197A501940127
:106DF000C701B6010E94F4D320E030E040E05EE33A
:106E00000E94F4D3A5966CAF7DAF8EAF9FAFA597D0
:106E1000E1ECF6E084915F015FEFA51AB50A8823E3
:106E200021F00E94B63FF501F5CFB701A6018BEB2B
:106E300096E00E948271A1964CAD5DAD6EAD7FADC6
:106E4000A19785EB96E00E948271A5964CAD5DAD51
:106E50006EAD7FADA5978FEA96E00E9482718AE0C1
:106E60000E94B63F89A59AA5ABA5BCA5840D951D2A
:106E7000A61DB71DB595A7959795879580937C0E10
:106E800089AD9AAD01969AAF89AF9DA59DABA9A991
:106E90002296AFAF2297BBAD2696BFAF2697EFAD38
:106EA0002E96EFAF2E978DA09EA0AFA0B8A4F1E0D4
:106EB000AE96FFAFAE9786C9C657DF4FC880D98060
:106EC000CA58D0400FB6F894DEBE0FBECDBEC35731
:106ED000DF4F0FB6F894DEBF0FBECDBFDF91CF916D
:106EE0001F910F91FF90EF90DF90CF90BF90AF90E8
:106EF0009F908F907F906F905F904F903F902F90DA
:106F0000089582E08093760E08958FB7F89490915B
:106F1000560D2091550D291759F0E92FF0E0EB524D
:106F2000F34F208130E09F5F9F779093560D02C012
:106F30002FEF3FEF8FBFC9010895FF920F931F936B
:106F4000CF93DF93FC0120812B3319F1D0912607D9
:106F5000D430F8F4F62EBC01C0916F050C2F10E070
:106F6000F0E6CF9FC001112487549C4F0E94D4CEDD
:106F7000F801EF5FF84FF082CF5FC43018F4C09390
:106F80006F0502C010926F05DF5FD093260781E086
:106F900001C080E0DF91CF911F910F91FF90089584
:106FA0002F923F924F925F926F927F928F929F9219
:106FB000AF92BF92CF92DF92EF92FF920F931F9307
:106FC000CF93DF9300D000D0CDB7DEB78C010E9405
:106FD000ED6EF801C680D780E084F184C114D1043D
:106FE000E104F10409F0F6C22485222309F460C308
:106FF00032852150248721E0230F228745852413E1
:1070000001C01286F80124E0329FE00DF11D112429
:10701000C684D784E088F188F801C282D382E482F2
:10702000F582DC01CB018C0D9D1DA11DB11D868358
:107030009783A087B18784819581892B09F438C310
:10704000FFB7FD83F894F801228033800481158115
:1070500080912F028D3321F08F3F09F0B8C205C017
:10706000E2E8F8E124912E83EDC08DE380932F02B6
:10707000E2E8F8E1E491EF3F09F4A9C2E23009F453
:1070800074C054F5EE2309F453C0E13009F0D9C0BF
:10709000109280001092810080918100886080931E
:1070A000810080918100816080938100EDE9F9E2A7
:1070B000E491F0E0EE0FFF1FE45DF64D85919491B1
:1070C0009093570580935605EDEEF9E2E491E09335
:1070D000550581E08E83B9C0E43009F48EC00CF40C
:1070E00068C0E53009F0ADC0109220011092210176
:1070F000809121018860809321018091210181602C
:1071000080932101EDE9F9E2E491F0E0EE0FFF1F39
:10711000E45DF64D8591949190934E0580934D05D5
:10712000EDEEF9E2E491E0934C0525E02E838DC06D
:1071300014BC15BC84B5826084BD85B5816085BDF5
:10714000EDE9F9E2E491F0E0EE0FFF1FE45DF64DAA
:107150008591949190935A0580935905EDEEF9E24B
:10716000E491E09358051E8270C01092B000109216
:10717000B1008091B00082608093B0008091B10036
:1071800081608093B100EDE9F9E2E491F0E0EE0F67
:10719000FF1FE45DF64D859194919093F6068093E0
:1071A000F506EDEEF9E2E491E093F70692E09E83B6
:1071B0004CC01092900010929100809191008860D4
:1071C0008093910080919100816080939100EDE91E
:1071D000F9E2E491F0E0EE0FFF1FE45DF64D8591DA
:1071E00094919093540580935305EDEEF9E2E49168
:1071F000E0935205E3E0EE8328C01092A0001092C5
:10720000A1008091A10088608093A1008091A100DD
:1072100081608093A100EDE9F9E2E491F0E0EE0FE6
:10722000FF1FE45DF64D85919491909351058093F5
:107230005005EDEEF9E2E491E0934F05F4E0FE83B2
:1072400004C0EE838E8187FDC2C12101612C712CA7
:1072500061E08DE30E9474AA4801A12CB12C8E81BB
:107260008D7F09F0BDC060E072E18AE790E0A50182
:1072700094010E94A4D729833A834B835C836901DC
:107280007A0191E0C91AD108E108F108EFEFCE16B2
:10729000D104E104F10409F008F44DC060E472E4A3
:1072A0008FE090E0A50194010E94A4D769017A01C2
:1072B000F1E0CF1AD108E108F1082E81223001F562
:1072C0008FEFC816D104E104F10409F008F4EEC10F
:1072D00060E970ED83E090E0A50194010E94A4D7DD
:1072E00069017A0191E0C91AD108E108F108EFEFCC
:1072F000CE16D104E104F10409F0E0F583E069C0A1
:10730000FFEFCF16D104E104F104B9F0B0F068E466
:1073100078EE81E090E0A50194010E94A4D7690174
:107320007A0181E0C81AD108E108F1089E81992309
:1073300009F49AC190C181E001C082E09E81992345
:10734000A1F047C089819A81AB81BC812AE0B595C3
:10735000A795979587952A95D1F76C017D01E1E076
:10736000CE1AD108E108F10885E095B5987F892B00
:1073700085BDA1C068E478EE81E090E0A5019401AC
:107380000E94A4D769017A01F1E0CF1AD108E1087F
:10739000F1082FEFC216D104E104F10409F008F45A
:1073A00028C164E274EF80E090E0A50194010E949E
:1073B000A4D769017A01E1E0CE1AD108E108F10809
:1073C000FFEFCF16D104E104F10411F008F013C16E
:1073D00085E09091B100987F892B8093B1006BC0BC
:1073E00060E072E18AE790E0A50194010E94A4D7D1
:1073F00069017A01E1E0CE1AD108E108F108C1146F
:10740000D104F1E0EF06F10488F068E478EE81E061
:1074100090E0A50194010E94A4D769017A0181E05E
:10742000C81AD108E108F10883E001C081E09E811B
:10743000913071F490918100987F892B8093810025
:10744000452846284728D9F52FEF3FEFA90168C006
:10745000EE81E33071F490919100987F892B8093B5
:10746000910045284628472851F52FEF3FEFA90105
:1074700079C0FE81F43071F49091A100987F892B3E
:107480008093A100452846284728C9F42FEF3FEFF5
:10749000A9017AC02E81253071F490912101987F45
:1074A000892B8093210145284628472841F42FEF56
:1074B0003FEFA9017BC045284628472869F098017D
:1074C000220F331FD1010E94D6D728EE33E040E0CF
:1074D00050E00E9482D703C02FEF3FEFA9018E81B9
:1074E000823081F12CF4882361F08130C9F06FC0C3
:1074F0009E81943009F448C0ACF1953009F456C02F
:1075000066C0C7BC20936B0530936C0540936D0536
:1075100050936E0580916E00826080936E0057C01C
:10752000D0928900C0928800209367053093680547
:107530004093690550936A0580916F008260809343
:107540006F0045C0C092B3002093F8063093F9064F
:107550004093FA065093FB068091700082608093FE
:10756000700035C0D0929900C092980020936305B6
:1075700030936405409365055093660580917100D2
:1075800082608093710023C0D092A900C092A800AD
:1075900020935F0530936005409361055093620529
:1075A0008091720082608093720011C0D092290194
:1075B000C092280120935B0530935C0540935D05E4
:1075C00050935E0580917300826080937300ED811B
:1075D000EFBF6EC0DC01CB018C199D09AE09BF095C
:1075E000B7FD66C08F98F801168217821086118643
:1075F0005FC084E0EECE62E17AE780E090E0A50132
:1076000094010E94A4D769017A0181E0C81AD108C7
:10761000E108F1089FEFC916D104E104F104C9F0B3
:10762000C0F089819A81AB81BC815AE0B595A7955C
:10763000979587955A95D1F76C017D0121E0C21A83
:10764000D108E108F1088E81882309F48DCE87E006
:10765000C0CE86E073CEEFEFCE16D104E104F10484
:1076600009F048F684E06ACE8FEFC816D104E10431
:10767000F104D1F0C8F062E17AE780E090E0A50182
:1076800094010E94A4D769017A01F1E0CF1AD108D0
:10769000E108F1082FEFC216D104E104F10411F062
:1076A00008F050CE84E061CE83E05FCE82E091CEE0
:1076B00026960FB6F894DEBF0FBECDBFDF91CF91F7
:1076C0001F910F91FF90EF90DF90CF90BF90AF9000
:1076D0009F908F907F906F905F904F903F902F90F2
:1076E0000895CF92DF92EF92FF92CF936B017C01CE
:1076F000C09134076093300770933107809332074D
:10770000909333072DEB37E346E855EB0E9412CEFA
:1077100087FD0AC02DEB37E346E855E3C701B60104
:107720000E948ED318164CF4A701960160E070E019
:1077300080E89FE30E948CCC03C060E070E0CB0146
:107740006093DF057093E0058093E1059093E20577
:10775000CC2349F082E090E0CF91FF90EF90DF9052
:10776000CF900C9436A5CF91FF90EF90DF90CF9003
:1077700008951F93CF93DF93CDB7DEB72C970FB645
:10778000F894DEBF0FBECDBF882331F02091F00604
:107790003091F106232BF9F0909134078917D9F035
:1077A000182F8CE0EDE7F2E0DE01119601900D92CA
:1077B0008A95E1F7CE0101960E9460A510933407E7
:1077C000111105C082E090E00E9436A504C08FEE42
:1077D0009EE00E9438812C960FB6F894DEBF0FBE53
:1077E000CDBFDF91CF911F9108954F925F926F921D
:1077F0007F928F929F92AF92BF92CF92DF92EF9241
:10780000FF920F931F93CF93DF93CDB7DEB72C97E3
:107810000FB6F894DEBF0FBECDBF8C01FB01808098
:107820009180A280B380FA01C080D180E280F38091
:10783000A5019401C501B4010E94F4D32B013C01C0
:10784000A7019601C701B6010E94F4D39B01AC01C8
:10785000C301B2010E9492CB20E43AE646E058E42C
:107860000E9412CE181654F4F8011082118212826E
:10787000138214821582168217824AC0CE010196A5
:107880002CE0FC0111922A95E9F789829A82AB8259
:10789000BC82CD82DE82EF82F88640E050E068EE66
:1078A00071EC0E94C5A063E07FE08FEF9EE00E9434
:1078B0002FA32091DF063091E0064091E106509120
:1078C000E2066091670D7091680D8091690D90914D
:1078D0006A0D0E9492CB6B017C012091DB063091F6
:1078E000DC064091DD065091DE066091630D7091DB
:1078F000640D8091650D9091660D0E9492CBF80108
:107900006083718382839383C482D582E682F78207
:107910001086118612861386C8012C960FB6F8942D
:10792000DEBF0FBECDBFDF91CF911F910F91FF90B2
:10793000EF90DF90CF90BF90AF909F908F907F900F
:107940006F905F904F9008954F925F926F927F92E9
:107950008F929F92AF92BF92CF92DF92EF92FF925F
:107960000F931F93CF93DF93CDB7DEB760970FB61A
:10797000F894DEBF0FBECDBF8C01FB01C080D1806B
:10798000E280F380FA0180809180A280B38020E0C1
:1079900030E048EC53E46091740D7091750D809166
:1079A000760D9091770D0E9492CB6D877E878F87A1
:1079B000988BA7019601C701B6010E94F4D32B0151
:1079C0003C01A5019401C501B4010E94F4D39B01BF
:1079D000AC01C301B2010E9492CB2B013C012D8569
:1079E0003E854F855889CA01B9010E94F4D39B0195
:1079F000AC01C301B2010E9412CE181654F4F80172
:107A000010821182128213821482158216821782CA
:107A100079C0CE0101962CE0FC0111922A95E9F77C
:107A2000C982DA82EB82FC828D829E82AF82B88626
:107A300040E050E0BA010E94C5A08090740D909083
:107A4000750DA090760DB090770DC0906F0DD09011
:107A5000700DE090710DF090720D10926F0D1092FC
:107A6000700D1092710D1092720D1092740D109293
:107A7000750D1092760D1092770D63E07FE08FEF19
:107A80009EE00E942FA38092740D9092750DA0929B
:107A9000760DB092770DC0926F0DD092700DE0927E
:107AA000710DF092720D2091DF063091E006409149
:107AB000E1065091E2066091670D7091680D80912A
:107AC000690D90916A0D0E9492CB6B017C0120910F
:107AD000DB063091DC064091DD065091DE066091B8
:107AE000630D7091640D8091650D9091660D0E94FB
:107AF00092CBF8016083718382839383C482D582A1
:107B0000E682F7821086118612861386C801609677
:107B10000FB6F894DEBF0FBECDBFDF91CF911F919E
:107B20000F91FF90EF90DF90CF90BF90AF909F901C
:107B30008F907F906F905F904F90089580E1EFEE6F
:107B4000FEE0ABECB6E001900D928A95E1F7089566
:107B500080E1EBECF6E0AFEEBEE001900D928A958D
:107B6000E1F708951F920F920FB60F9211248F9391
:107B700082E08093760E8F910F900FBE0F901F9032
:107B800018951F920F920FB60F9211248F9382E0D7
:107B90008093760E8F910F900FBE0F901F901895C7
:107BA0001F920F920FB60F9211248F9382E0809351
:107BB000760E8F910F900FBE0F901F9018958091A9
:107BC0004A0590914B05009731F04AE050E060E0A3
:107BD00070E00C94DDD160E070E0CB0108958091FD
:107BE0004A0590914B05009731F04AE050E060E083
:107BF00070E00C94B2D060E070E0CB0108950E9478
:107C0000EF3D97FD0CC00E94EF3D6F3F7105810570
:107C1000910509F034F40E94EF3D862F089580E02D
:107C200008958FEF089580914A0590914B05892B17
:107C300039F00E94FF3D91E0811103C090E001C046
:107C400091E0892F08950F931F93CF9380914A0558
:107C500090914B050097F1F0FC018F01C1912C2F01
:107C60002F7D89F0C53411F0C536B9F7F8011082BF
:107C700060E070E00E9443CFF801C083562F472F89
:107C8000382F292F0BC060E070E0CF911F910F912A
:107C90000C9443CF50E040E030E020E0652F742F9B
:107CA000832F922FCF911F910F91089581548A3184
:107CB00050F5482F50E0FA0193E0F595E7959A9535
:107CC000E1F7E455FC4F208130E08770B90102C034
:107CD000759567958A95E2F760FF15C0FA01EE5633
:107CE000FC4F2081222339F080917D0D90917E0DF3
:107CF000820F911D02C080E090E090934B0580932D
:107D00004A0581E0089580E008950E94563E882348
:107D100041F081E020914A0530914B05232B09F475
:107D200080E00895BF92CF92DF92EF92FF920F937F
:107D30001F93CF93DF9300D01F92CDB7DEB7209172
:107D40007D0E30917E0E2130310581F5B82E682FE1
:107D500070E080E090E00E9495D320E030E04FE7B3
:107D600053E40E948CCC20E030E0A9010E9492CB29
:107D7000AB01BC01B11004C080E090E0DC0104C0A4
:107D800080E090E5A3ECB6E489839A83AB83BC835F
:107D9000C12CD12C760197018601CE0101960E945B
:107DA00064ACBB2011F0749A01C074980F900F90CE
:107DB0000F900F90DF91CF911F910F91FF90EF9057
:107DC000DF90CF90BF9008958F929F92AF92BF9215
:107DD000CF92DF92EF92FF920F931F93CF93DF9397
:107DE000CDB7DEB72C970FB6F894DEBF0FBECDBF70
:107DF00020913407222309F49BC08C018090300726
:107E000090903107A0903207B090330720E030E027
:107E1000A901C501B4010E948ED3882309F44AC088
:107E20002091E3063091E4064091E5065091E60684
:107E3000F80160857185828593850E9491CB6B01E5
:107E40007C01A50194010E9412CE87FF71C0A70199
:107E5000960160911F027091200280912102909101
:107E600022020E948ED3882389F1C0921F02D092F1
:107E70002002E0922102F09222022091DF0530914F
:107E8000E0054091E1055091E205C701B6010E946D
:107E9000F4D39B01AC0160E070E080E89FE30E94B6
:107EA00091CB60931B0270931C0280931D029093F0
:107EB0001E020CC080E090E0A0E8BFE380931B02AC
:107EC00090931C02A0931D02B0931E02CE01019656
:107ED0002CE0FC0111922A95E9F7F80140815181CB
:107EE0006281738149835A836B837C83448155818A
:107EF000668177814D835E836F8378870E9460A55A
:107F000020911B0230911C0240911D0250911E02D3
:107F10000E94F4D39B01AC01F801608571858285D4
:107F200093850E9492CBF80160877187828793873F
:107F30002C960FB6F894DEBF0FBECDBFDF91CF9168
:107F40001F910F91FF90EF90DF90CF90BF90AF9077
:107F50009F908F9008950E94ED6E60937F0D7093B7
:107F6000800D8093810D9093820D08959091C000B3
:107F700095FFFCCF8093C6000895CF92DF92EF92D9
:107F8000FF92CF93DF9380E00E94B93B8091EA0695
:107F900085FF0BC0E2E9FBE08491EF012196882385
:107FA00021F00E94B63FFE01F7CF1092F306109227
:107FB000F2061092F1061092F0061092EF0610925F
:107FC000EE061092ED061092EC0643EE55E027E027
:107FD000C12CD12C80ECE82E8FE7F82E80E090E0C9
:107FE000FA01E80FF91FC082D182E282F38204967F
:107FF0008C319105A9F72150445E5F4F2111EECFDE
:10800000DF91CF91FF90EF90DF90CF9008954F9246
:108010005F926F927F92AF92BF92CF92DF92EF9278
:10802000FF920F931F93CF93DF938C01EC01CC0F42
:10803000DD1FCC0FDD1F9E012855394F590120E06F
:1080400030E0A901F50160817181828193810E94F4
:1080500092CB9E012854394F6901F9012081318169
:10806000428153810E9492CB2B013C01FE01E552DB
:10807000F94F6083718382839383FE01EE55F64F3F
:1080800065917591859194919E01245F3D4F790191
:10809000A30192010E9492CBF701608371838283D6
:1080A0009383FE01E255F64F659175918591949108
:1080B000C050DE4FA30192010E9492CB6883798366
:1080C0008A839B838091EA0685FF3CC0F801E757CD
:1080D000FD4F608181E19AE00E94B871F501408115
:1080E0005181628173818AEF99E00E948271F60169
:1080F000408151816281738186EE99E00E94827194
:10810000F701408151816281738180ED99E00E9485
:108110008271488159816A817B818AEB99E00E9452
:1081200082718AE0DF91CF911F910F91FF90EF90C4
:10813000DF90CF90BF90AF907F906F905F904F9007
:108140000C94B63FDF91CF911F910F91FF90EF906C
:10815000DF90CF90BF90AF907F906F905F904F90E7
:1081600008958F929F92AF92BF92EF92FF921F93CA
:10817000CF93DF93CDB7DEB7A0970FB6F894DEBFED
:108180000FBECDBF611571058105910581F110E02C
:10819000842E912CA12CB12CEE24E394F12CEC0E26
:1081A000FD1EE10EF11C17FDFA94A50194010E9439
:1081B00082D7F7016083B901CA011F5F611571059C
:1081C0008105910549F7115020F1E1E0F0E0EC0F55
:1081D000FD1FE10FF11D17FDFA9580818A3010F027
:1081E00097E301C090E3890F0E94B63FECCF80E394
:1081F000A0960FB6F894DEBF0FBECDBFDF91CF9132
:108200001F91FF90EF90BF90AF909F908F900C9434
:10821000B63FA0960FB6F894DEBF0FBECDBFDF917C
:10822000CF911F91FF90EF90BF90AF909F908F9054
:108230000895EF92FF920F931F93CF93DF937C01EA
:1082400084E50E94853ED82F882349F10E94FF3D96
:10825000C82F823004F1EAE2FEE084918F010F5FC3
:108260001F4F882321F00E94B63FF801F6CF8DE41E
:108270000E94B63FB70180E090E04AE00E94B14022
:108280006C2FCC0F770B8FE899E00E949F718AE0EA
:108290000E94B63F08C08093B303D0E004C0809131
:1082A000EE0E8093B3038D2FDF91CF911F910F912D
:1082B000FF90EF900895CF92DF92EF92FF926B01C3
:1082C0007C0197FF0BC08DE20E94B63FF094E094D2
:1082D000D094C094C11CD11CE11CF11C4AE0C70120
:1082E000B601FF90EF90DF90CF900C94B140EF92E9
:1082F000FF920F931F93CF93DF931F92CDB7DEB7FB
:10830000082F162FE3E0FCE084917F012FEFE21AA3
:10831000F20A882331F099830E94B63FF7019981D0
:10832000F3CFE02FF92F84917F019FEFE91AF90A2B
:10833000882321F00E94B63FF701F5CF6091570DD9
:108340007091580D8091590D90915A0D0E945B418A
:108350008AE00E94B63F11110E94ABA71092D70588
:108360001092D6050F90DF91CF911F910F91FF9042
:10837000EF900895BF92CF92DF92EF92FF920F930A
:108380001F93CF93DF93CDB7DEB76E970FB6F894F8
:10839000DEBF0FBECDBF6091700570917105611594
:1083A000710569F14DE150E0CE0101967C010E941A
:1083B00035D31E8EF7018F010E191F09B190BB2016
:1083C000A9F19AE0B912F7CF31C0B70180E698E081
:1083D0000E94D47182E20E94B63F8AE00E94B63FBA
:1083E000BB2009F43BC00F5F1F4F80917005909137
:1083F0007105080F191F1093710500937005809186
:10840000700590917105892B09F02FC18091260785
:10841000843008F02AC12FB7F8948091550D9091BF
:10842000560D2FBF891B8F77E1F41FC1F701E00FB5
:10843000F11F108260E0C7010E949D378823F9F286
:10844000EAE2FEE084916F019FEFC91AD90A8823FE
:1084500009F4BBCF0E94B63FF601F4CF00E010E074
:10846000CACF0E9485372091D6053091D7058A3032
:1084700019F08D3009F0C8C01092D80521153105CA
:1084800009F4C4CFF901EA58FA4F10821092D705C7
:108490001092D60526E735E08901F90180812F5F2A
:1084A0003F4F8032C9F378018E3411F000E010E0C4
:1084B0006AE270E0C7010E94C9CE6C010115110586
:1084C00009F473C06AE879E0C7010E9444D3BB2471
:1084D000B394892B11F4B12C09C06EE470E0C7018C
:1084E00004960E94C9CE009709F08C014AE050E042
:1084F00060E070E0C80101960E94B2D060937205FE
:108500007093730580937405909375050091570DD2
:108510001091580D2091590D30915A0D0F5F1F4F3A
:108520002F4F3F4F601771078207930731F0B1104B
:1085300004C061E087E599E03DC0C114D10401F1B8
:1085400080E010E0F701E80FF11D90819A3219F0F8
:108550008F5F1927F7CF4AE050E060E070E0C60176
:1085600001960E94B2D0012F10E020E030E06017A9
:1085700071078207930741F061E088E399E01AC030
:1085800061E08EE099E016C08091720590917305CC
:10859000A0917405B09175058093570D9093580D77
:1085A000A093590DB0935A0D08C0892B31F060E0AB
:1085B0008DE698E00E94774158C080916902811150
:1085C0001DC067E470E0C7010E94C9CE0097B1F0FA
:1085D0004AE050E060E070E001960E94B2D0643062
:1085E000710560F4E7E9F8E084918F010F5F1F4F98
:1085F000882321F00E94B63FF801F6CF61E086E7BC
:1086000095E00E949D3702CF2F3531050CF0FECE4C
:108610008C35B1F42FB7F8948091550D9091560D8B
:108620002FBF891B8F7709F4F1CE0E948537909177
:10863000D8059111EBCE2091D6053091D70509C010
:108640008B3319F491E09093D8059091D80591114E
:10865000DDCEA9014F5F5F4F5093D7054093D605FC
:10866000F901EA58FA4F8083D1CE6E960FB6F8948E
:10867000DEBF0FBECDBFDF91CF911F910F91FF9055
:10868000EF90DF90CF90BF9008958F929F92AF921E
:10869000BF92CF92DF92EF92FF92CF936B017C015A
:1086A000B42E20E030E0A9010E948ED387FF07C0DE
:1086B0008DE20E94B63FF7FAF094F7F8F094C0E02C
:1086C00060E070E080E09FE3CB1541F02DEC3CECE6
:1086D0004CEC5DE30E94F4D3CF5FF6CF9B01AC017D
:1086E000C701B6010E9492CB6B017C010E9405CDAF
:1086F0004B015C014AE00E94B140CC2389F1C501E5
:10870000B4010E9493D39B01AC01C701B6010E9442
:1087100091CB6B017C018EE20E94B63F20E030E0FD
:1087200040E251E4C701B6010E94F4D34B015C0161
:108730000E94FECC6B01770FEE08FF08C701B6015F
:108740000E945B41C701B6010E9495D39B01AC0119
:10875000C501B4010E9491CB6B017C01C150F1F6BF
:10876000CF91FF90EF90DF90CF90BF90AF909F9010
:108770008F9008954F925F926F927F928F929F9207
:10878000AF92BF92CF92DF92EF92FF920F931F931F
:10879000CF93DF9300D01F92CDB7DEB74B01298373
:1087A0003A834B835C8327013801FC0184918F015C
:1087B0000F5F1F4F882321F00E94B63FF801F6CFCC
:1087C00088E20E94B63F42E069817A818B819C8178
:1087D0000E944543B301A20188E298E00E948271A1
:1087E000B601A50185E298E00E94827189E20E94AB
:1087F000B63F8114910459F0F40184918F010F5F09
:108800001F4F8823D9F00E94B63FF801F6CF8AE0C7
:108810000F900F900F900F90DF91CF911F910F91BC
:10882000FF90EF90DF90CF90BF90AF909F908F9090
:108830007F906F905F904F900C94B63F0F900F9089
:108840000F900F90DF91CF911F910F91FF90EF90BC
:10885000DF90CF90BF90AF909F908F907F906F9060
:108860005F904F900895AF92BF92CF92DF92EF92B8
:10887000FF920F931F93FA01A084B184C284D38422
:10888000E480F58006811781208131814281538106
:108890000E94BA431F910F91FF90EF90DF90CF900D
:1088A000BF90AF9008958091EA0685FF08C04FEE13
:1088B0005EE06DEB7AE086EE9AE00E9433448091B0
:1088C000DB059091DC05A091DD05B091DE0580937C
:1088D000270290932802A0932902B0932A02809144
:1088E000D9059091DA0590931902809318020C949F
:1088F000AB3F8091EA0685FF08C04FEE5EE065E879
:108900007AE089EA9AE00E943344809127029091AC
:108910002802A0912902B0912A028093DB0590934E
:10892000DC05A093DD05B093DE05809118029091DF
:1089300019029093DA058093D90584E690E090932C
:108940001902809318020C94AB3F8F929F92AF92C2
:10895000BF92CF92EF92FF920F931F93CF93DF932B
:10896000CDB7DEB760970FB6F894DEBF0FBECDBFB0
:108970007B018C018091EA0685FF08C04BEC56E034
:1089800066E17AE085E49AE00E9433440E94AB3FBE
:108990002091CB063091CC064091CD065091CE0669
:1089A0006091EF0E7091F00E8091F10E9091F20EA9
:1089B0000E948ED381113DC02091CF063091D00608
:1089C0004091D1065091D2066091F30E7091F40E51
:1089D0008091F50E9091F60E0E948ED3811129C0E0
:1089E0002091D3063091D4064091D5065091D606F9
:1089F0006091F70E7091F80E8091F90E9091FA0E39
:108A00000E948ED3811115C02091D7063091D806CF
:108A10004091D9065091DA066091FB0E7091FC0EE0
:108A20008091FD0E9091FE0E0E948ED3882309F452
:108A3000D0C08091D7069091D806A091D906B09168
:108A4000DA068D879E87AF87B88B80917D0E9091D7
:108A50007E0E039709F045C040E050E0BA018BEC70
:108A600096E00E94C5A02091030F3091040F409121
:108A7000050F5091060F6091FF0E7091000F8091CD
:108A8000010F9091020F0E9492CB4B015C0180E09C
:108A900090E00E9491C29B01AC01C501B4010E940B
:108AA00091CB4B015C0181E090E00E9491C29B015F
:108AB000AC01C501B4010E9491CB9B01AC01609156
:108AC000D7067091D8068091D9069091DA060E9457
:108AD00091CB6093D7067093D8068093D906909374
:108AE000DA06C090EE0E20E030E0A901B701C8011F
:108AF0000E948ED3811108C0E0902702F0902802D6
:108B00000091290210912A026091180270911902B5
:108B1000072E000C880B990B0E9495D39B01AC018A
:108B2000B701C8010E94F4D32AE037ED43E25CE3C9
:108B30000E94F4D34B015C018091CB069091CC064E
:108B4000A091CD06B091CE0689839A83AB83BC8376
:108B50008091CF069091D006A091D106B091D20617
:108B60008D839E83AF83B8878091D3069091D4067E
:108B7000A091D506B091D60689879A87AB87BC8726
:108B8000CE0101960E94E43E40E050E0BA01CE01E1
:108B900001960E94C5A08501740127ED36E047E0EB
:108BA0005FE063E07FE08FEF9EE00E9477748D8549
:108BB0009E85AF85B8898093D7069093D806A093F9
:108BC000D906B093DA06CE010D960E94E4C30E9446
:108BD000A83D60960FB6F894DEBF0FBECDBFDF9103
:108BE000CF911F910F91FF90EF90CF90BF90AF90DA
:108BF0009F908F9008952F923F924F925F926F9225
:108C00007F928F929F92AF92BF92CF92DF92EF921C
:108C1000FF920F931F93CF93DF9300D01F92CDB796
:108C2000DEB73C014B015C834B833A832983209060
:108C30002702309028024090290250902A02809109
:108C4000EA0685FF15C0FA01A080B180C280D380FA
:108C5000FB01E080F18002811381F30120813181E9
:108C60004281538160E070E08DE69AE00E94BA4351
:108C70002091DF063091E0064091E1065091E20636
:108C8000F40160817181828193810E9491CB6B019B
:108C90007C012091DB063091DC064091DD0650918D
:108CA000DE06F30160817181828193810E9491CB04
:108CB000A70196010E94596E882309F4BBC00E9447
:108CC0009E3DEB81FC81C080D180E280F380A701D2
:108CD00096016091D3067091D4068091D50690914B
:108CE000D6060E948ED387FF21C0C092D306D092B1
:108CF000D406E092D506F092D606E981FA81C080CA
:108D0000D180E280F38020E030E0A901C701B60104
:108D10000E948ED3811106C0EFE6FEE0C590D5908B
:108D2000E590F490C701B6010E94A544F30180814B
:108D30009181A281B3818093CB069093CC06A093BE
:108D4000CD06B093CE06F40180819181A281B381DA
:108D50008093CF069093D006A093D106B093D2060D
:108D6000E981FA81C080D180E280F38020E030E0A8
:108D7000A901C701B6010E948ED3811108C0C0901D
:108D80002302D0902402E0902502F0902602C70131
:108D9000B6010E94A544EB81FC81C080D180E280B5
:108DA000F380A70196016091D3067091D40680915B
:108DB000D5069091D6060E9412CE18160CF5C092D8
:108DC000D306D092D406E092D506F092D606E98179
:108DD000FA81C080D180E280F38020E030E0A901F8
:108DE000C701B6010E948ED3811106C0EFE6FEE0F6
:108DF000C590D590E590F490C701B6010E94A544B6
:108E00000E94AFC22092270230922802409229028B
:108E100050922A028091EA0685FF0CC0E4E5FAE050
:108E200084918F010F5F1F4F882321F00E94B63F6E
:108E3000F801F6CF0F900F900F900F90DF91CF9128
:108E40001F910F91FF90EF90DF90CF90BF90AF9068
:108E50009F908F907F906F905F904F903F902F905A
:108E600008959B01AC0163EF7EE08FEE9EE00C94D1
:108E7000FB458F929F92AF92BF92CF92DF92EF927B
:108E8000FF92CF93DF93CDB7DEB728970FB6F89454
:108E9000DEBF0FBECDBF6B017C018091EA0685FF6E
:108EA0000CC0B701A6018AEF9AE00E94827189E2A4
:108EB0000E94B63F8AE00E94B63FC982DA82EB8206
:108EC000FC828090B4069090B506A090B606B09053
:108ED000B70620E030E0A901C501B4010E948ED39D
:108EE00087FF0AC0A5019401C701B6010E9491CB7A
:108EF00069837A838B839C832091F70E3091F80EDF
:108F00004091F90E5091FA0E69817A818B819C8192
:108F10000E9412CE18165CF41D821E821F821886D3
:108F2000BE016B5F7F4FCE0101960E9431472896AC
:108F30000FB6F894DEBF0FBECDBFDF91CF91FF908B
:108F4000EF90DF90CF90BF90AF909F908F9008955B
:108F50001F93CF93DF93CDB7DEB72C970FB6F8945E
:108F6000DEBF0FBECDBF182F8091EA0685FF11C06E
:108F70004FEE5EE063E17BE08AE29BE00E943344D7
:108F8000612F70E08AE09BE00E949F718AE00E945E
:108F9000B63F80910007811781F160E070E080EEBC
:108FA00090E40E9439478091EF0E9091F00EA091CD
:108FB000F10EB091F20E89879A87AB87BC878091BA
:108FC000F30E9091F40EA091F50EB091F60E8D83F4
:108FD0009E83AF83B88719821A821B821C829E01EE
:108FE0002F5F3F4F47EF5EE0BE016B5F7F4FCE01CB
:108FF00009960E94FB451093000780E02C960FB65F
:10900000F894DEBF0FBECDBFDF91CF911F910895C1
:109010008091EA0685FF08C04FEE5EE06BE278E0E3
:109020008CE498E00E9433440C9496C3CF92DF9274
:10903000EF92FF921F93CF93DF93CDB7DEB72897C0
:109040000FB6F894DEBF0FBECDBF6D837E838F83D6
:10905000988769017A018091EA0685FF08C04FEE82
:109060005EE068E67BE08EE79BE00E94334420E010
:1090700030E040E752E4C701B6010E948CCC69831E
:109080007A838B839C83BE016F5F7F4FCE010596F1
:109090000E9431471091CA0614701092CA0682E0ED
:1090A00090E00E9436A50E9408488091EA0685FF5C
:1090B00008C04FEE5EE06EE37BE084E59BE00E943B
:1090C000334481E0111180E028960FB6F894DEBF9A
:1090D0000FBECDBFDF91CF911F91FF90EF90DF903A
:1090E000CF9008951F920F920FB60F9211240BB6D6
:1090F0000F922F933F934F935F936F937F938F9331
:109100009F93AF93BF93EF93FF939091C6002FB7B8
:10911000F894E091550D81E08E0F8F773091560DC8
:10912000831731F0F0E0EB52F34F90838093550DAD
:109130002FBF20914805309149052C30310508F0AA
:1091400053C0F9018827EE58FF4F8F4F0C9478CB0E
:109150009D3449F09E34D9F481E090E006C09A3302
:1091600048F09D34C1F582E090E0909349058093EA
:10917000480577C0903308F074C0903209F471C08C
:109180009D3249F56EC0913329F0943331F090321D
:1091900011F567C083E090E0E8CF88E090E0E5CF8C
:1091A000903329F09133B9F486E090E0DECF84E08B
:1091B00090E0DBCF983379F485E090E0D6CF92331E
:1091C00051F487E090E0D1CF913329F489E090E029
:1091D000CCCF903319F08BE090E0C7CF8AE090E0DD
:1091E000C4CF9A30F1F539C09A30D9F5273031051E
:1091F00059F02A30310561F02530310571F51092B2
:109200001A021092B20329C08CE198E00E940D9ED0
:1092100088E893E19093A40C8093A30C80916F0055
:109220008D7F80936F0090912F0F8091300F981752
:1092300019F00E942B8BF7CF1092A20C1092A10C68
:1092400080916F00826080936F000E94AFC284E6BD
:1092500090E00E9436A50E9408481092490510929D
:109260004805FF91EF91BF91AF919F918F917F91B1
:109270006F915F914F913F912F910F900BBE0F9087
:109280000FBE0F901F901895CF92DF92EF92FF9232
:109290000F931F93CF93DF936C017A018B01C0E092
:1092A000D0E0CE15DF0589F0D8016D918D01D60192
:1092B000ED91FC910190F081E02DC6011995892B6B
:1092C00011F47E0102C02196ECCFC701DF91CF914E
:1092D0001F910F91FF90EF90DF90CF9008950E9423
:1092E000C4CE2F923F924F925F926F927F928F9255
:1092F0009F92AF92BF92CF92DF92EF92FF920F9325
:109300001F93CF93DF93CDB7DEB76D970FB6F89469
:10931000DEBF0FBECDBF8091EA0685FF0EC0E4E33D
:10932000FFE084918F010F5F1F4F882321F00E947F
:10933000B63FF801F6CF0E94F0810E94AFC280E0F4
:109340000E94B93B1092E9061092E8060E94794407
:109350008091EA069091EB067C0120E2E222FF2454
:1093600085FF0CC0EBE1FFE084918F010F5F1F4F81
:10937000882321F00E94B63FF801F6CF11E0109348
:10938000E70688E50E94563E382E89E50E94563E43
:10939000082F8AE50E94563E282E311004C0011184
:1093A00004C0182705C0011102C010E001C0182F29
:1093B0000E949E3D111105C0311003C0002309F425
:1093C00087C120E030E0A9016091E3067091E406D6
:1093D0008091E5069091E6060E9492CB4B015C01DC
:1093E0006093D3067093D4068093D5069093D606E7
:1093F0002091F70E3091F80E4091F90E5091FA0E2F
:109400000E9412CE1816B4F4EF2849F0B501A40159
:109410008FEF9EE00E9482718AE00E94B63F19821F
:109420001A821B821C82BE016F5F7F4F83ED96E024
:109430000E943147111123C0311003C001112BC10B
:1094400047C101111CC080E793E09A83898384E6B9
:1094500090E09A8B898BBE016F5F7F4FCE01419662
:109460000E9426C48091EA0685FF12C14FEE5EE09D
:109470006FED7EE08BEE9EE00E94334409C11092B6
:10948000F30E1092F40E1092F50E1092F60E10924A
:10949000EF0E1092F00E1092F10E1092F20E8091DB
:1094A000EA0685FF08C04FEE5EE060E37EE087E4F9
:1094B0009EE00E9433448091F70E9091F80EA091A7
:1094C000F90EB091FA0E4091F30E5091F40E6091A6
:1094D000F50E7091F60EC090EF0ED090F00EE09069
:1094E000F10EF090F20ECD82DE82EF82F88649878F
:1094F0005A876B877C878D879E87AF87B88B2BEFCA
:109500003EE0AE01435F5F4FBE01675F7F4FCE011C
:1095100005960E94AD73E7E7FEE084918D8FEBE541
:10952000FEE0C590D590E590F490EFE5FEE08590E3
:109530009590A590B490A5019401C701B6010E9431
:1095400012CE18162CF4A7019601C501B40104C06F
:10955000A5019401C701B6010E948CCC698F7A8F56
:109560008B8F9C8F87E6682E8EE0782EF3016591B5
:109570007591859194912BE6422E2EE0522EF201A8
:1095800025913591459154910E948ED387FF02C059
:10959000F30101C0F2014590559065907490298DBA
:1095A0003A8D4B8D5C8DCA01B9010E94F4D320E045
:1095B00030E040E85FE30E9492CB0E9460CE9B01C6
:1095C000AC01C301B2010E94F4D36D8B7E8B8F8BF3
:1095D000988FE8E7FEE09491998F20E030E040EC2E
:1095E0005FE3C501B4010E94F4D32B013C01298D36
:1095F000622F220F770B880B990B0E9495D39B014A
:10960000AC01C301B2010E94F4D369837A838B83D6
:109610009C8320E030E040EC5FE3C701B6010E948C
:10962000F4D36B017C012D8D622F220F770B880BF9
:10963000990B0E9495D39B01AC01C701B6010E9412
:10964000F4D3698B7A8B8B8B9C8B9E012B5E3F4F67
:1096500047EF5EE0BE016F5F7F4FCE0141960E94F3
:10966000FB451092CA061092F30E1092F40E10925F
:10967000F50E1092F60E1092EF0E1092F00E109260
:10968000F10E1092F20E1111DECE3110DCCED6CEDC
:10969000112309F4D3CE80E793E09A83898384E68B
:1096A00090E09A8B898BBE016F5F7F4FCE01419610
:1096B0000E9426C48091EA0685FF08C04FEE5EE056
:1096C0006FEB7EE08BEC9EE00E943344111103C0EF
:1096D000222009F435C18091C706811103C0EAE256
:1096E000FEE005C08091C806811118C0F8CF8491B2
:1096F0008F010F5F1F4F882321F00E94B63FF801B2
:10970000F6CFE9E1FEE084918F010F5F1F4F8823C0
:1097100009F40AC10E94B63FF801F5CF8091EA062C
:1097200085FF0CC0E6E0FEE084918F010F5F1F4FC4
:10973000882321F00E94B63FF801F6CF0E94084826
:109740008090DB069090DC06A090DD06B090DE06EF
:1097500020E030E048EC53E4C501B4010E9492CB14
:109760006B017C016093CB067093CC068093CD0691
:109770009093CE064090DF065090E0066090E106A0
:109780007090E2068091F70E9091F80EA091F90E7C
:10979000B091FA0E8093D3069093D406A093D50689
:1097A000B093D60620E030E048E453E4C301B201B0
:1097B0000E9492CB20E030E048EE51E40E9492CB30
:1097C0006093CF067093D0068093D1069093D20613
:1097D000A30192010E9491CB2B013C01A5019401B0
:1097E000C701B6010E9491CBA30192010E94596E5C
:1097F000882399F18091EA0685FF08C04BEC56E07A
:1098000065EE7DE087EF9DE00E94334419821A8265
:109810001B821C829E012F5F3F4F47EF5EE06FEC83
:1098200076E08BEC96E00E94FB458091EA0685FF8E
:109830000BC06AE582EB9DE00E94B87189E20E944C
:10984000B63F8AE00E94B63FE9E7FEE0149181E06E
:109850000E94A847811158C08EC0EAE2FEE08491C0
:109860008F010F5F1F4F882321F00E94B63FF80140
:10987000F6CFE3EDFDE084918F010F5F1F4F88234A
:1098800009F442C00E94B63FF801F5CF4091B406FA
:109890005091B5066091B6067091B7068DED9CE0CB
:1098A0000E9482718AE00E94B63F6AE58EEC9CE0DD
:1098B0000E94B8714091B0065091B1066091B20615
:1098C0007091B30689EC9CE00E9482718AE00E944C
:1098D000B63F4FEE5EE060EB7CE085EB9CE00E94E3
:1098E00033446AE587E99CE00E94B87189E20E94EE
:1098F000B63F8AE00E94B63F0E94084880E00E947E
:10990000A847882309F454C18091EA0685FF0CC05A
:10991000E0ECFDE084918F010F5F1F4F882321F061
:109920000E94B63FF801F6CF8091EA0685FF08C095
:109930004FEE5EE069E87EE08BEA9EE00E943344F1
:109940000E9408488091A7068093E7060E9453442E
:109950000E94CEB88091EA0685FF3AC1EAE7FEE0B0
:1099600084918F010F5F1F4F882309F431C10E943A
:10997000B63FF801F5CF8091EA0685FF0DC0E4EA15
:10998000FDE084917F019FEFE91AF90A882321F015
:109990000E94B63FF701F5CFE3E6FEE08590959093
:1099A000A590B490612F110F770B880B990B0E9433
:1099B00095D36B017C0120E030E040EC5FE3C50112
:1099C000B4010E94F4D3A70196010E94F4D3AB0125
:1099D000BC0100E010E0980182E090E00E94D8888D
:1099E00008E71DE0F801659175918591949120E05B
:1099F00030E040E850E40E948ED387FD06C0F801B5
:109A0000259135914591549104C020E030E040E823
:109A100050E4C701B6010E94F4D36B017C0120E041
:109A200030E0A9010E948ED3882309F46AC0809196
:109A3000EA0685FF0CC0E8E9FDE084918F010F5F25
:109A40001F4F882321F00E94B63FF801F6CF00E0B7
:109A500010E09801B701A601705882E090E00E94E2
:109A6000D8888091EA0685FF0CC0EAE8FDE0849181
:109A70008F010F5F1F4F882321F00E94B63FF8012E
:109A8000F6CFEFE6FDE08491811119C0EAE2FEE035
:109A900084918F010F5F1F4F882321F00E94B63FF2
:109AA000F801F6CFEBE4FDE084918F010F5F1F4FCB
:109AB000882321F00E94B63FF801F6CF8AE0EFE656
:109AC000FEE085909590A590B490682F70E080E0BE
:109AD00090E00E9495D39B01AC01C501B4010E94A6
:109AE0008CCC4B015C01A7019601C701B6010E9415
:109AF00092CBAB01BC019501840182E090E00E9411
:109B0000D8888091EA069091EB068C0100721127AB
:109B100085FF0BC06AE582E39DE00E94B87189E28F
:109B20000E94B63F8AE00E94B63F81E08093C6065D
:109B30008093C9061092C0061092C1061092C20608
:109B40001092C30682E090E00E940740E3E9FCE047
:109B500065917591859194912091E3063091E40689
:109B60004091E5065091E6060E9492CB2091B40602
:109B70003091B5064091B6065091B7060E9491CB40
:109B80006093F70E7093F80E8093F90E9093FA0E8F
:109B9000012B09F4B1CEE1EFFCE084918F010F5F5E
:109BA0001F4F882309F472CE0E94B63FF801F5CF0B
:109BB0008091EA0685FFA8CE6AE58CE79DE00E94C9
:109BC000B87189E20E94B63F8AE00E94B63F9CCEFF
:109BD0006D960FB6F894DEBF0FBECDBFDF91CF916B
:109BE0001F910F91FF90EF90DF90CF90BF90AF90BB
:109BF0009F908F907F906F905F904F903F902F90AD
:109C000008951F93CF93DF93182F88EF810F883724
:109C1000B0F0EAE2FEE08491EF012196882321F082
:109C20000E94B63FFE01F7CFE2E7FCE08491EF012E
:109C30002196882321F00E94B63FFE01F7CF1093B2
:109C4000E60FDF91CF911F910895FF920F931F931D
:109C5000CF93DF93F090C40681E0F826D091C5063B
:109C6000D827C091C606C827F11002C0DD2319F01D
:109C7000EAE2FEE003C0C111FBCF4CC084918F012A
:109C80000F5F1F4F882321F00E94B63FF801F6CFE7
:109C9000ECE6FCE084918F010F5F1F4F882321F0D9
:109CA0000E94B63FF801F6CFFF2061F0EAE6FCE043
:109CB00084918F010F5F1F4F882321F00E94B63FD0
:109CC000F801F6CFDD2361F0E8E6FCE084918F0136
:109CD0000F5F1F4F882321F00E94B63FF801F6CF97
:109CE000C11103C0EEE5FCE00BC0E6E6FCE08491A8
:109CF000EF0121968823B1F30E94B63FFE01F7CF12
:109D00008491EF012196882321F00E94B63FFE0145
:109D1000F7CFC1E08C2FDF91CF911F910F91FF9072
:109D200008950F931F938091B70F9091B80F8130D2
:109D3000910509F45DC0029789F58091C10F90915A
:109D4000C20FA091C30FB091C40F0091BD0F10912D
:109D5000BE0F2091BF0F3091C00FBC01CD01601B21
:109D6000710B820B930B28EE33E040E050E00E9431
:109D700082D78091B90F9091BA0FA091BB0FB0918B
:109D8000BC0F820F931FA41FB51F8093B90F909330
:109D9000BA0FA093BB0FB093BC0F18C01092BD0FA9
:109DA0001092BE0F1092BF0F1092C00F1092C10FF1
:109DB0001092C20F1092C30F1092C40F1092B90FDD
:109DC0001092BA0F1092BB0F1092BC0F81E090E07E
:109DD0009093B80F8093B70F0E94ED6E6093BD0F04
:109DE0007093BE0F8093BF0F9093C00F81E001C0AE
:109DF00080E01F910F9108958F929F92AF92BF9232
:109E0000CF92DF92EF92FF921F93CF93DF93C09098
:109E10002B02D0902C02E0902D02F0902E02A70190
:109E20009601C701B6010E94A4CE811137C0A701D7
:109E300096016091B4067091B5068091B606909136
:109E4000B7060E9491CB4B015C0120E030E0A901F4
:109E50000E948ED3882311F183EEE82E85E0F82E40
:109E600017E0C0E0D0E06701CC0EDD1EA501940133
:109E7000F60160817181828193810E9491CBF6010C
:109E800060837183828393832496CC31D10559F703
:109E90001150FCE1EF0EF11C1111E3CF8091B406DB
:109EA0009091B506A091B606B091B70680932B02AB
:109EB00090932C02A0932D02B0932E02DF91CF91AC
:109EC0001F91FF90EF90DF90CF90BF90AF909F9049
:109ED0008F900895FC01DB018C912081318138271E
:109EE00098E0A901440F551F37FD06C09A01915013
:109EF000C1F73183208308959A01B1E22B27B0E1A5
:109F00003B27F5CF2F923F924F925F926F927F92B5
:109F10008F929F92AF92BF92CF92DF92EF92FF9279
:109F20000F931F93CF93DF93CDB7DEB7A1970FB6F3
:109F3000F894DEBF0FBECDBF7C018B01C42E29A3D8
:109F40008091EA0685FF32C0D7014D915D916D91F8
:109F50007C9180E59CE00E948271F80140815181F2
:109F6000628173818DE49CE00E948271C11003C004
:109F700065E673E002C064E673E08AE49CE00E9458
:109F8000D471E3E4FCE084915F019FEFA91AB90A60
:109F9000882321F00E94B63FF501F5CF4FEE5EE039
:109FA0006AE27CE08FE29CE00E943344D7018D900E
:109FB0009D90AD90BC90898E9A8EAB8EBC8E20E029
:109FC00030E048EE51E4F801608171818281938133
:109FD0000E9492CB6D8B7E8B8F8B988F2091DF06AA
:109FE0003091E0064091E1065091E2060E9491CB4B
:109FF0002B013C012091DB063091DC064091DD060F
:10A000005091DE06C501B4010E9491CBA3019201DB
:10A010000E94596E882309F4E4C18091270290912F
:10A020002802A0912902B0912A028D8F9E8FAF8FB6
:10A03000B8A3A801B701CE0101960E94F53B8D801F
:10A040009E80AF80B88420E030E0A90169817A81E8
:10A050008B819C810E948ED381111DC020E030E055
:10A06000A901C501B4010E948ED3811114C08CEDE9
:10A0700090E09E878D8784E690E09A8B898BBE0165
:10A08000635F7F4FCE0141960E9426C4912CA12C84
:10A0900030E020E0ADC160E070E080E890E40E9434
:10A0A000394723E232E047EF5EE0BE016B5E7F4F4F
:10A0B000CE0149960E94FB4581E00E94A84781118C
:10A0C00006C18091EA0685FF08C04FEE5EE06BECAA
:10A0D0007BE08FED9BE00E9433440E94AB3F809079
:10A0E000B4069090B506A090B606B090B70620E0F2
:10A0F00030E0A901C501B4010E948ED387FF0BC0D7
:10A10000A501940160E070E080EE90E40E9491CBA4
:10A110004B015C0106C0812C912C60EEA62E60E400
:10A12000B62E2091F70E3091F80E4091F90E509115
:10A13000FA0EC501B4010E948ED387FF2BC020E028
:10A1400030E041E654E4C501B4010E941648811193
:10A1500021C080E090E0A0E7B1E4898B9A8BAB8BC3
:10A16000BC8B20E030E040E850E46091F70E709145
:10A17000F80E8091F90E9091FA0E0E9492CB6D87A5
:10A180007E878F87988BBE016F5E7F4FCE010D96C5
:10A190000E94314746E0D42E812C912C540158E77F
:10A1A000252E5DE0352EDA94DD2009F448C020E04C
:10A1B00030E041EE53E460E070E080E291EC0E9418
:10A1C0001648811155C04090F70E5090F80E6090DF
:10A1D000F90E7090FA0E2091B4063091B5064091B8
:10A1E000B6065091B706C301B2010E9492CB9B0103
:10A1F000AC01C501B4010E9492CB4B015C0191E01E
:10A20000D91689F280E090E0A0E7B1E4898B9A8BBF
:10A21000AB8BBC8BF1012591359145915491C301D4
:10A22000B2010E9492CB6D877E878F87988BBE018B
:10A230006F5E7F4FCE010D960E943147B4CF809163
:10A24000EA0685FF08C04FEE5EE063EA7BE087EB3D
:10A250009BE00E9433442DEC3CEC4CE45EE3C501F2
:10A26000B4010E94F4D3962EA72EB82ED92E06C084
:10A27000912CA12C20ECB22E3FE7D32EC11022C08E
:10A2800080E090E0A0E7B1E48D879E87AF87B88B30
:10A2900020E030E040E850E46091F70E7091F80E55
:10A2A0008091F90E9091FA0E0E9492CB698B7A8B75
:10A2B0008B8B9C8BBE01635F7F4FCE0141960E94CA
:10A2C00031470BC080E00E94A847882331F0912CD1
:10A2D000A12C80ECB82E9FE7D92E99A1933008F4D9
:10A2E00040C0E2E2FCE084913F01AFEF6A1A7A0AD3
:10A2F000882321F00E94B63FF301F5CFF70160817A
:10A3000071818281938143E00E944543EDE1FCE04D
:10A3100084917F019FEFE91AF90A882321F00E94B6
:10A32000B63FF701F5CFD8016D917D918D919C914C
:10A3300043E00E944543E8E1FCE084918F010F5F18
:10A340001F4F882321F00E94B63FF801F6CF43E06B
:10A35000692D7A2D8B2D9D2D0E9445438AE00E9408
:10A36000B63F8091EA0685FF0CC0EAE0FCE08491EC
:10A370008F010F5F1F4F882321F00E94B63FF80125
:10A38000F6CF8D8D9E8DAF8DB8A1809327029093CF
:10A390002802A0932902B0932A02292D3A2D4B2D91
:10A3A0005D2D692D7A2D8B2D9D2D0E94A4CE8823A5
:10A3B000E9F0E3E0FCE084918F010F5F1F4F8823F9
:10A3C00021F00E94B63FF801F6CFE3EFFBE0849165
:10A3D0008F010F5F1F4F882349F00E94B63FF8019D
:10A3E000F6CF912CA12C30EC2FE702C03B2D2D2D68
:10A3F000692D7A2D832F922FA1960FB6F894DEBF88
:10A400000FBECDBFDF91CF911F910F91FF90EF90C5
:10A41000DF90CF90BF90AF909F908F907F906F9084
:10A420005F904F903F902F900895082E000C990B4D
:10A43000FC01E05AF64DE491EE2399F0F0E0EE0FC6
:10A44000FF1FEA5BF64DA591B4912C91FC01E055FC
:10A45000F64D8491822321E090E009F420E0822FE0
:10A46000089580E090E00895082E000C990BFC01FF
:10A47000E05AF64DE491F0E0EE0FFF1FEE5EF64D70
:10A48000A591B4912C91FC01E055F64D8491E22FF9
:10A49000E82381E009F480E00895CF93DF938111F0
:10A4A00003C0E1ECF3E102C0E7EBF3E18491EF01DB
:10A4B0002196882321F00E94B63FFE01F7CFDF915D
:10A4C000CF9108950F931F93CF93DF93C82FEEEA98
:10A4D000F3E184918F010F5F1F4F882321F00E94C9
:10A4E000B63FF801F6CF0C2E000CDD0BFE01E05A52
:10A4F000F64D8491805C0E94B63FFE01E055F64D1A
:10A50000E49180E3E13021F0E6958F5F8933D1F764
:10A51000DF91CF911F910F910C94B63FCF93DF93B2
:10A52000EDE7F2E18491EF012196882321F00E946A
:10A53000B63FFE01F7CFDF91CF9108954F925F9222
:10A540006F927F928F929F92AF92BF92CF92DF9243
:10A55000EF92FF920F931F93CF93DF93CDB7DEB7A8
:10A5600064970FB6F894DEBF0FBECDBF082F762ECE
:10A57000642EA82EB12C26E0829FC0011124FC017C
:10A58000ED59FC4E85909490FC01EF59FC4E6F0103
:10A5900045905490F4012081822F887090E0959529
:10A5A0008795F20110811370182BF4E04F1305C04A
:10A5B000207130E035952795122BE7E5F3E1849182
:10A5C0007F012FEFE21AF20A882321F00E94B63FA2
:10A5D000F701F5CF005D802F0E94B63F872D0E94C6
:10A5E000B63F83E00E94F591872D072C000C990B54
:10A5F000F501EE0FFF1F9E012F5F3F4F790133E002
:10A6000081549109EA0DFB1DE80FF91FEE0FFF1FA2
:10A61000ED5CFC4E631227C0A591B4918C911F9202
:10A620008F9389E293E19F938F93FF92EF920E9421
:10A630005ED30F900F900F900F900F900F90F70137
:10A6400081917F01882319F00E94B63FF8CF612FD6
:10A6500070E085E193E10E949F71F601E590F4902E
:10A66000E2EAF2E11EC0A591B49111968C91119786
:10A670008F938C918F938FE193E19F938F93FF92B0
:10A68000EF920E945ED30F900F900F900F900F905B
:10A690000F90F70181917F018823C9F20E94B63F94
:10A6A000F8CF84916F012FEFC21AD20A882321F0CC
:10A6B0000E94B63FF601F5CF802F0E94B63F32E4EC
:10A6C000731681F083E47816C9F091E4791222C000
:10A6D000F7016081629566956695637070E08EE91A
:10A6E00092E116C0F7016081607370E094E07595A7
:10A6F00067959A95E1F78AE992E10AC0F7016081CE
:10A700006C7070E0759567957595679586E992E12F
:10A710000E949F71F4016081677070E08CE093E1AA
:10A720000E949F71E3E0F3E184917F012FEFE21A31
:10A73000F20A882321F00E94B63FF701F5CF802F5F
:10A740000E94B63FF201608170E08FEF92E10E94BB
:10A750009F71E6EFF2E184917F012FEFE21AF20A96
:10A76000882321F00E94B63FF701F5CF802F0E9489
:10A77000B63FF401608170E082EF92E10E949F7128
:10A7800086E08A9DF0018B9DF00D1124EB59FC4E63
:10A79000E590F490E8EEF2E184916F012FEFC21A98
:10A7A000D20A882321F00E94B63FF601F5CF802F10
:10A7B0000E94B63FF701608170E085EE92E10E9451
:10A7C0009F7100EC070DF3E06F1205C0197F49F48B
:10A7D0000E948E5206C0812F8B7FD1F31C50123005
:10A7E000B8F3F701808190E002C0959587950A95AE
:10A7F000E2F780FF0CC0EAEAF2E184918F010F5F7B
:10A800001F4F882321F00E94B63FF801F6CFF701D1
:10A81000808180FF0CC0E7ECF2E184918F010F5F33
:10A820001F4F882321F00E94B63FF801F6CF6496AF
:10A830000FB6F894DEBF0FBECDBFDF91CF911F9151
:10A840000F91FF90EF90DF90CF90BF90AF909F90CF
:10A850008F907F906F905F904F9008950F931F930C
:10A86000CF93DF93C82FD0E0FE01E050F64DE49186
:10A870008E2F90E0FC013197E231F10570F48827CA
:10A88000E258FF4F8F4F0C9478CB43E061E402C055
:10A8900043E062E480E00E949E52EBEAF3E12FC0C5
:10A8A00044E061E402C044E062E481E0F4CF44E0CB
:10A8B00063E4FBCF43E061E402C043E062E482E092
:10A8C000EACF44E061E405C044E062E402C044E051
:10A8D00063E483E0E0CF44E061E405C044E062E487
:10A8E00002C044E063E484E0D6CF44E061E405C004
:10A8F00044E062E402C044E063E485E0CCCF8491AC
:10A900008F010F5F1F4F882321F00E94B63FF8018F
:10A91000F6CFFE01E05AF64DE491E23009F036C080
:10A92000FE01E055F64DE491E03881F5E7EAF3E108
:10A930008491EF012196882321F00E94B63FFE0109
:10A94000F7CF82E10E94F591EFE9F3E18491EF0105
:10A950002196882321F00E94B63FFE01F7CFE5E85B
:10A96000F3E18491EF012196882321F00E94B63F04
:10A97000FE01F7CF8EE00E94F59144E063E481E0B0
:10A98000DF91CF911F910F910C949E52DF91CF9147
:10A990001F910F910895E1E4F2E19DE29E0F249151
:10A9A000821729F031969E13FACF80E0089581E056
:10A9B00008952F923F924F925F926F927F928F9263
:10A9C0009F92AF92BF92CF92DF92EF92FF920F933E
:10A9D0001F93CF93DF93CDB7DEB7E8970FB6F89408
:10A9E000DEBF0FBECDBFF82E6EAB4DABD22EC32E49
:10A9F0002AED422E24E1522EE12C80E02F2C0F2C48
:10AA0000000C33082F2D30E0A9014050564D58AFAF
:10AA10004FAB8E01015E1F4FDE0111963D01F20129
:10AA20003296E491AE2EB12CA214B30409F09FC06B
:10AA3000811145C0E11043C01F92EF93CF92DF9286
:10AA40008EEC94E19F938F937F926F920E945ED3DE
:10AA50007CAA6BAA0FB6F894DEBF0FBECDBF430130
:10AA6000D4018D914D01882319F00E94B63FF8CF93
:10AA70008F2D0E9462528AEC8F0D8031E0F4C50167
:10AA8000C6979F938F9384EC94E19F938F937F92CB
:10AA90006F920E945ED30F900F900F900F900F90C7
:10AAA0000F90EBA9FCA98191FCABEBAB8823B9F02B
:10AAB0000E94B63FF6CF88E00E94F59110C08EE26A
:10AAC0000E94B63FED2DFC2DDF010D900020E9F72F
:10AAD0008A2F8D19875E0E94F591EE24E394F2018E
:10AAE00085909490B12CF4018491811107C0A12C20
:10AAF0009CE1892E912C8B1891080DC00E94B63FC5
:10AB0000B394FFEF8F1A9F0A2CE1B212ECCF4DA93C
:10AB1000442349F10AC08A2D90E088159905BCF7B5
:10AB200080E20E94B63FA394F6CF8F2D0E94CB54B3
:10AB3000882309F4C7C05EA95111C4C0E9EBF4E150
:10AB400084914F019FEF891A990A882361F00E942E
:10AB5000B63FF401F5CFBB2009F412C3E11003C0E6
:10AB60008F2D0E942E548AE00E94B63F81E0B4E00F
:10AB70004B0E511CEEEE4E16E5E15E0609F04FCF8E
:10AB800081110BC33F922F92CF92DF928DE994E116
:10AB90009F938F938E010F5F1F4F1F930F930E9400
:10ABA0005ED368010FB6F894DEBF0FBECDBF58016B
:10ABB000D5018D915D01882319F00E94B63FF8CF31
:10ABC0008F2D0E9462528AECE82EEF0CBFE0BE157A
:10ABD000D8F0C101C6979F938F9383E994E19F9327
:10ABE0008F931F930F930E945ED30F900F900F903F
:10ABF0000F900F900F905801F50181915F0188230C
:10AC000031F00E94B63FF8CF88E00E94F591E2E86B
:10AC1000F4E184915F012FEFA21AB20A882321F098
:10AC20000E94B63FF501F5CF4DA9442309F446C073
:10AC30008F2D0E943452882329F08CE00E94F591D8
:10AC400081E02EC05FE05E1538F18E2D0E9479AB59
:10AC50009F938F938FE694E19F938F931F930F930E
:10AC60000E945ED30F900F900F900F900F900F9057
:10AC7000D6018D916D01882319F00E94B63FF8CF5F
:10AC8000EBE6F4E184918F010F5F1F4F882339F0C9
:10AC90000E94B63FF801F6CF8CE00E94F59180E06B
:10ACA0000E944D528F2D0E941552BC01990F880BA6
:10ACB000990B0E945B418F2D0E942E548AE00E94C6
:10ACC000B63F6BC2F2013396E491E1111EC08AECEB
:10ACD0008F0D0E9479AB9F938F9389EA94E19F93A4
:10ACE0008F937F926F920E945ED343010F900F90DB
:10ACF0000F900F900F900F90D4018D914D018823EC
:10AD000009F42CCF0E94B63FF7CF8F2D0E9434520A
:10AD1000B82E811102C080E034C2EFA9F8AD849151
:10AD200090E0FC013197E231F10508F029C2882753
:10AD3000E057FF4F8F4F0C9478CB84B5807C09F49B
:10AD40001FC287B51F928F9381E694E19F938F93E3
:10AD50001F930F930E945ED348010F900F900F90A6
:10AD60000F900F900F90D4018D914D01882309F41D
:10AD7000F2CE0E94B63FF7CF84B5807309F400C2CB
:10AD800088B51F928F9387E594E19F938F931F93CC
:10AD90000F930E945ED348010F900F900F900F9079
:10ADA0000F900F90F40181914F01882309F4D3CEC5
:10ADB0000E94B63FF7CF80918000807C09F4E0C10B
:10ADC00080918800909189009F938F938DE494E106
:10ADD0009F938F931F930F930E945ED348010F9010
:10ADE0000F900F900F900F900F90D4018D914D0107
:10ADF000882309F4B0CE0E94B63FF7CF809180003F
:10AE0000807309F4BDC180918A0090918B009F935B
:10AE10008F9383E494E19F938F931F930F930E94EA
:10AE20005ED348010F900F900F900F900F900F90EE
:10AE3000F40181914F01882309F48DCE0E94B63F21
:10AE4000F7CF809180008C7009F49AC180918C00BA
:10AE500090918D009F938F9389E394E19F938F93BB
:10AE60001F930F930E945ED348010F900F900F9095
:10AE70000F900F900F90D4018D914D01882309F40C
:10AE80006ACE0E94B63FF7CF8091B000807C09F473
:10AE900077C18091B3001F928F938FE294E19F93CB
:10AEA0008F931F930F930E945ED348010F900F90D2
:10AEB0000F900F900F900F90F40181914F01882314
:10AEC00009F449CE0E94B63FF7CF8091B00080735D
:10AED00009F456C18091B4001F928F9385E294E1EA
:10AEE0009F938F931F930F930E945ED348010F90FF
:10AEF0000F900F900F900F900F90D4018D914D01F6
:10AF0000882309F428CE0E94B63FF7CF80919000A5
:10AF1000807C09F435C180919800909199009F93AD
:10AF20008F938BE194E19F938F931F930F930E94D4
:10AF30005ED348010F900F900F900F900F900F90DD
:10AF4000F40181914F01882309F405CE0E94B63F98
:10AF5000F7CF80919000807309F412C180919A001C
:10AF600090919B009F938F9381E194E19F938F93A6
:10AF70001F930F930E945ED348010F900F900F9084
:10AF80000F900F900F90D4018D914D01882309F4FB
:10AF9000E2CD0E94B63FF7CF809190008C7009F40B
:10AFA000EFC080919C0090919D009F938F9387E0CC
:10AFB00094E19F938F931F930F930E945ED3480158
:10AFC0000F900F900F900F900F900F90F4018191C0
:10AFD0004F01882309F4BFCD0E94B63FF7CF80917F
:10AFE000A000807C09F4CCC08091A8009091A900B9
:10AFF0009F938F938DEF93E19F938F931F930F9365
:10B000000E945ED348010F900F900F900F900F9009
:10B010000F90D4018D914D01882309F49CCD0E949D
:10B02000B63FF7CF8091A000807309F4A9C080914A
:10B03000AA009091AB009F938F9383EF93E19F932E
:10B040008F931F930F930E945ED348010F900F9030
:10B050000F900F900F900F90F40181914F01882372
:10B0600009F479CD0E94B63FF7CF8091A0008C7093
:10B0700009F486C08091AC009091AD009F938F93AE
:10B0800089EE93E19F938F931F930F930E945ED35A
:10B0900048010F900F900F900F900F900F90D401D8
:10B0A0008D914D01882309F456CD0E94B63FF7CF0C
:10B0B00080912001807C09F463C0809128019091E7
:10B0C00029019F938F93AFEDB3E1BF93AF931F938C
:10B0D0000F930E945ED348010F900F900F900F9036
:10B0E0000F900F90D4018D914D01882309F433CD39
:10B0F0000E94B63FF7CF80912001807309F440C0D1
:10B1000080912A0190912B019F938F93A5EDB3E13C
:10B11000BF93AF931F930F930E945ED348010F908C
:10B120000F900F900F900F900F90D4018D914D01C3
:10B13000882309F410CD0E94B63FF7CF80912001FB
:10B140008C70F1F080912C0190912D019F938F9341
:10B15000ABECB3E1BF93AF931F930F930E945ED309
:10B1600048010F900F900F900F900F900F90D40107
:10B170008D914D01882309F4EECC0E94B63FF7CFA4
:10B1800081E00E944D528F2D0E941552BC01990FF3
:10B19000880B990B0E945B41E1CCE8960FB6F894BE
:10B1A000DEBF0FBECDBFDF91CF911F910F91FF90FA
:10B1B000EF90DF90CF90BF90AF909F908F907F9057
:10B1C0006F905F904F903F902F9008950F931F9333
:10B1D000CF93DF9383E50E94853E882309F446C020
:10B1E0000E94FF3D082F80E50E94853E882331F0B4
:10B1F0000E94EF3DEB0177FD39C002C0CDE0D0E009
:10B200008C2F0E94CB548823B1F0E3E0FCE08491C2
:10B21000EF012196882321F00E94B63FFE01F7CF6F
:10B22000EEE6F2E18491EF0121968823F9F00E9485
:10B23000B63FFE01F7CF61E08C2F0E9474AA602F09
:10B240008C2F0E9444AA10E0B8018C2F0E94B0AA53
:10B25000C630D10539F0279749F410937107009350
:10B26000700704C010936F0700936E07DF91CF91B2
:10B270001F910F9108956F927F928F929F92AF923C
:10B28000BF92CF92DF92EF92FF920F931F93CF93D3
:10B29000DF93CDB7DEB765970FB6F894DEBF0FBE6C
:10B2A000CDBF8091B70F9091B80F019719F40E940C
:10B2B000ED6E08C06091C10F7091C20F8091C30FF5
:10B2C0009091C40F0091BD0F1091BE0F2091BF0F40
:10B2D0003091C00F601B710B820B930B28EE33E093
:10B2E00040E050E00E9482D78091B90F9091BA0F50
:10B2F000A091BB0FB091BC0FBC01CD01620F731FB9
:10B30000841F951F2CE3C22ED12CE12CF12CA70118
:10B3100096010E9482D7762E672ECA01B901A70135
:10B3200096010E9482D76B017C01CA01B90128E114
:10B3300030E040E050E00E9482D74B015C01C9013F
:10B340006DE671E00E9450CB8E010F5F1F4F6115BB
:10B35000710599F06F927F92DF92CF929F928F92B8
:10B360009F938F937F936F9383E997E19F938F933D
:10B370001F930F930E945ED326C0009789F06F92AF
:10B380007F92DF92CF929F928F929F938F9383E8C9
:10B3900097E19F938F931F930F930E945ED313C0E7
:10B3A00081149104A104B104B1F06F927F92DF92F5
:10B3B000CF929F928F9287E797E19F938F931F93EE
:10B3C0000F930E945ED30FB6F894DEBF0FBECDBFC1
:10B3D000EAE2FEE023C0C114D104E104F10469F003
:10B3E0006F927F92DF92CF928FE697E19F938F9338
:10B3F0001F930F930E945ED3E6CF6F927F928BE6EE
:10B4000097E19F938F931F930F930E945ED30F90AA
:10B410000F900F900F900F900F90DACF84917F01D3
:10B420009FEFE91AF90A882321F00E94B63FF7013D
:10B43000F5CFB80187EA97E10E94D4718AE00E94B3
:10B44000B63F65960FB6F894DEBF0FBECDBFDF9155
:10B45000CF911F910F91FF90EF90DF90CF90BF9011
:10B46000AF909F908F907F906F900895CF93DF93D0
:10B470000E94AFC280917D0E90917E0E8130910529
:10B4800031F0069789F57498EAE2FEE019C080E091
:10B490000E94923EEAE2FEE08491EF012196882329
:10B4A00021F00E94B63FFE01F7CFEFE4F7E184916F
:10B4B000EF0121968823C1F00E94B63FFE01F7CF2D
:10B4C0008491EF012196882321F00E94B63FFE016E
:10B4D000F7CFEAE5F7E18491EF012196882321F087
:10B4E0000E94B63FFE01F7CFDF91CF910895EF9212
:10B4F000FF920F931F93CF93DF9300D01F92CDB78E
:10B50000DEB70E94AFC280917D0E90917E0E813099
:10B51000910539F0069709F08CC0749AEAE2FEE0D2
:10B520002EC083E50E94563E882321F00E94FF3DF5
:10B53000182F01C01FEF8091EA0683FD02C0812F02
:10B5400001C080E00E94923E112309F472C0EAE239
:10B55000FEE084918F010F5F1F4F882321F00E942E
:10B56000B63FF801F6CFE5E4F7E184918F010F5F74
:10B570001F4F8823D1F00E94B63FF801F6CF849187
:10B580008F010F5F1F4F882321F00E94B63FF80103
:10B59000F6CFE5E3F7E184918F010F5F1F4F88231A
:10B5A00021F00E94B63FF801F6CF80E793E09C833C
:10B5B0008B8300E510E01A830983BE016D5F7F4F26
:10B5C000CE0101960E9426C41C821B8284E1E82ED3
:10B5D000F12CFA82E982BE016D5F7F4FCE010196A8
:10B5E0000E9426C484EA93E09C838B8384E690E0E7
:10B5F0009A838983BE016D5F7F4FCE0101960E94C1
:10B6000026C41C821B82FA82E982BE016D5F7F4FD5
:10B61000CE0101960E9426C48CED93E09C838B831F
:10B620001A830983BE016D5F7F4FCE0101960E9490
:10B6300026C40F900F900F900F90DF91CF911F9124
:10B640000F91FF90EF900895CF92DF92EF92FF92CB
:10B650000F931F93CF93DF93C091B003D091B103A9
:10B6600080E50E94853E882359F00E94DF3D6B01F2
:10B670007C0111E0672B682B692B31F410E004C0CA
:10B6800010E0C12CD12C760183E50E94853E8823F1
:10B6900099F00E94233E20E030E04AE754E40E9403
:10B6A000F4D30E9405CD6B017C0111110AC0672BF8
:10B6B000682B692B31F439C0111103C0209709F0B0
:10B6C00044C081E08093B2030E94AFC20E94AB3FAE
:10B6D000C114D104E104F10489F180917F0D9091AE
:10B6E000800DA091810DB091820DC80ED91EEA1E69
:10B6F000FB1E0E94ED6EDC01CB018C199D09AE0989
:10B70000BF09B7FD0BC01092B203DF91CF911F911B
:10B710000F91FF90EF90DF90CF9008958091B2034A
:10B72000882389F30E943E9EE4CF209771F481E044
:10B730008093B2030E94AFC20E94AB3F8091B203DC
:10B74000882309F30E943E9EF9CF8881882309F45B
:10B75000B8CFEAE2FEE084918F010F5F1F4F88238C
:10B7600021F00E94B63FF801F6CF8991882319F0A5
:10B770000E94B63FFACF8AE00E94B63FA2CFCF9296
:10B78000DF92EF92FF920F931F93CF93DF938091FD
:10B790006902882309F4D4C089E40E94853ED82F29
:10B7A000882321F00E94EF3D062F01C000E08AE4CB
:10B7B0000E94853EC82F882331F00E94EF3D162F4E
:10B7C000D11104C009C010E0DD2399F0073008F45E
:10B7D000B2C0E6E1F7E103C01730D8F70AC08491A0
:10B7E000EF012196882309F4ABC00E94B63FFE0109
:10B7F000F6CF0E949E3DDD2339F12091F006309175
:10B80000F1060203B001039F700D11242091EC0694
:10B810003091ED06620F731F072E000C880B990BF9
:10B820000E9495D32091DB063091DC064091DD0625
:10B830005091DE060E9492CB6093CB067093CC06AB
:10B840008093CD069093CE06CC2339F12091F20659
:10B850003091F3061203B001139F700D1124209153
:10B86000EE063091EF06620F731F072E000C880B57
:10B87000990B0E9495D32091DF063091E00640910C
:10B88000E1065091E2060E9492CB6093CF0670933E
:10B89000D0068093D1069093D20680E50E94563E52
:10B8A0008823E1F00E94133E8823C1F0CC23B1F03D
:10B8B00020E030E048EE51E46091CF067091D00670
:10B8C0008091D1069091D2060E9492CB6093CF06D0
:10B8D0007093D0068093D1069093D20686E40E949E
:10B8E000853E8823D9F00E94233E6B017C0120E035
:10B8F00030E0A9010E9412CE181684F420E030E056
:10B9000040E752E4C701B6010E948CCC6093270245
:10B91000709328028093290290932A0260E070E0DD
:10B92000CB01DF91CF911F910F91FF90EF90DF90AE
:10B93000CF900C94A544C1114FCF0E949E3D5DCF86
:10B94000DF91CF911F910F91FF90EF90DF90CF90FB
:10B9500008958F929F92AF92BF92CF92DF92EF9213
:10B96000FF920F931F93CF93DF93CDB7DEB7659709
:10B970000FB6F894DEBF0FBECDBF6091EF0E709191
:10B98000F00E8091F10E9091F20EC090F30ED090D7
:10B99000F40EE090F50EF090F60E9B01AC010E94C3
:10B9A000F4D34B015C01A7019601C701B6010E94C7
:10B9B000F4D39B01AC01C501B4010E9492CB20E0FD
:10B9C00030E44CE158E40E9412CE18167CF06FEE81
:10B9D0007EE0CE0101960E94E76DA980BA80CB80FF
:10B9E000DC80ED80FE800F81188508C0E12CF12CF1
:10B9F00000E010E0A12CB12CC12CD12C88E50E94D4
:10BA0000853E882321F00E94233E5B0101C0C601D0
:10BA1000A501BC01498B5A8B6B8B7C8B89E50E94FD
:10BA2000853E882319F00E94233E02C0B701C80159
:10BA30008B019C010D871E872F87388B2091DF0695
:10BA40003091E0064091E1065091E2066B017C01E5
:10BA5000C701B6010E9491CB6B017C012091DB06EE
:10BA60003091DC064091DD065091DE0669897A89C5
:10BA70008B899C890E9491CBA70196010E94976EA9
:10BA8000482F882309F454C080E04D8B0E94B93BB5
:10BA90000E94794483E50E94563E4D89882319F01F
:10BAA0000E94133E482F21E0BE01635F7F4FCE010D
:10BAB00041960E94824F6B017C019B01AC010E9468
:10BAC000A4CE811131C02CEA35EC47E257E36989F5
:10BAD0007A898B899C890E9492CBAB01BC018EE054
:10BAE00097E10E941D922CEA35EC47E257E36D8501
:10BAF0007E858F8598890E9492CBAB01BC0189E03D
:10BB000097E10E941D922CEA35EC47E257E3C7010A
:10BB1000B6010E9492CBAB01BC0184E097E10E9488
:10BB20001D928AE00E94B63F0E9453440E94CEB804
:10BB300065960FB6F894DEBF0FBECDBFDF91CF91F3
:10BB40001F910F91FF90EF90DF90CF90BF90AF903B
:10BB50009F908F9008952F923F924F925F926F9295
:10BB60007F928F929F92AF92BF92CF92DF92EF928D
:10BB7000FF920F931F93CF93DF93CDB7DEB7EA9772
:10BB80000FB6F894DEBF0FBECDBF81E50E94563ED2
:10BB9000B82E0091EA061091EB06882331F0C80117
:10BBA00080629093EB068093EA068091EA0685FF17
:10BBB0000AC04FEE5EE06EED76E180EF96E10E9406
:10BBC00033440E94F08111271093EB060093EA069C
:10BBD000B110C2C583E40E94563E8EA3882319F09B
:10BBE0000E94133E8EA30E94254E8111B5C5209060
:10BBF000340787E50E94563E882309F433C18091BB
:10BC0000F0069091F106892BC9F4E3E0FCE0849101
:10BC10008F010F5F1F4F882321F00E94B63FF8016C
:10BC2000F6CFECECF6E184918F010F5F1F4F882374
:10BC300009F492C50E94B63FF801F5CFC090F70E07
:10BC4000D090F80EE090F90EF090FA0E2091E306F5
:10BC50003091E4064091E5065091E6068AE52FAB67
:10BC600038AF49AF5AAF0E94853E2FA938AD49ADD4
:10BC70005AAD811105C0C701B6010E9491CB02C027
:10BC80000E94233E6B017C0120E030E040E251EC59
:10BC90000E9412CE87FF03C0E3E0FCE00BC020E06F
:10BCA00030E040E251E4C701B6010E948ED318167D
:10BCB0009CF317C084918F010F5F1F4F882321F0E1
:10BCC0000E94B63FF801F6CFEFEBF6E184918F01C9
:10BCD0000F5F1F4F882309F43FC50E94B63FF8014C
:10BCE000F5CF88E50E94853E882329F00E94233EF7
:10BCF0002B013C0106C0412C512C60EC662E6FE7F5
:10BD0000762E89E50E94853E882329F00E94233EF5
:10BD10004B015C0106C0812C912C50ECA52E5FE7F5
:10BD2000B52E89E40E94853E882319F00E94FF3DCC
:10BD300001C08FEF182F8AE40E94853E882319F0F6
:10BD40000E94FF3D01C08FEF082FA3019201C301A4
:10BD5000B2010E94A4CE811166C0A5019401C50163
:10BD6000B4010E94A4CE81115EC06091EC06709176
:10BD7000ED06072E000C880B990B0E9495D320919D
:10BD8000DB063091DC064091DD065091DE060E9414
:10BD900092CB9B01AC01C301B2010E9491CB20E088
:10BDA00030E0A9010E9492CB20E030E0A9010E947E
:10BDB0008CCC0E94FECC162F6091EE067091EF069F
:10BDC000072E000C880B990B0E9495D32091DF065B
:10BDD0003091E0064091E1065091E2060E9492CB3C
:10BDE0009B01AC01C501B4010E9491CB20E030E081
:10BDF000A9010E9492CB20E030E0A9010E948CCCE6
:10BE00000E94FECC17FD06C017300CF016E067FF4D
:10BE100004C008C067FDE2C210E0062F67301CF0C6
:10BE200006E001C000E0173008F096C4083008F0C2
:10BE300093C480E00E94B93B27E01202F001112474
:10BE4000E00FF11D07FDFA95EE0FFF1FEE0FFF1F2C
:10BE5000ED51FA4FC082D182E282F382822D0E949C
:10BE6000B93B7AC48AE40E94563E882319F00E94A6
:10BE7000BD3F72C486E50E94853E882329F00E945A
:10BE8000EF3D7CA76BA702C01CA61BA68BA59CA59B
:10BE9000059768F0E7E9F6E184918F010F5F1F4F86
:10BEA000882309F459C40E94B63FF801F5CF84E411
:10BEB0000E94563E898B882319F00E94133E898B7D
:10BEC0008AE50E94853E882339F00E94233E69ABB3
:10BED0007AAB8BAB9CAB04C019AA1AAA1BAA1CAAEA
:10BEE00083E50E94853E882319F00E94233E04C00A
:10BEF00060E070E88BE395E420E030E040E752E456
:10BF00000E948CCC609323027093240280932502BC
:10BF1000909326028090DB069090DC06A090DD06D0
:10BF2000B090DE068CE40E94853E811109C020E0BD
:10BF300030E048E453E4C501B4010E9491CB02C053
:10BF40000E94233E0E94FECC69877A878B879C875C
:10BF500009851A858090DB069090DC06A090DD06AE
:10BF6000B090DE0682E50E94853E811109C020E086
:10BF700030E048E453E4C501B4010E9492CB02C012
:10BF80000E94233E0E94FECC6D877E878F87988B10
:10BF9000AD85BE85BF8FAE8F8090DF069090E006A6
:10BFA000A090E106B090E20686E40E94853E8111F1
:10BFB00009C020E030E04CE053E4C501B4010E9428
:10BFC00092CB02C00E94233E0E94FECC6A8B7B8BE8
:10BFD0008C8B9D8BEA89FB89FBA3EAA38090DF060B
:10BFE0009090E006A090E106B090E20682E40E9404
:10BFF000853E811109C020E030E048EC53E4C501E2
:10C00000B4010E9492CB02C00E94233E0E94FECC4B
:10C010006E8B7F8B888F998F2E893F893EA72DA7A6
:10C02000A985BA85BD01BB0F880B990B0E9495D3DA
:10C030006FA378A789A79AA78090DB069090DC066B
:10C04000A090DD06B090DE0620E030E048EC53E43E
:10C05000C501B4010E9491CB9B01AC016FA178A5F1
:10C0600089A59AA50E948ED33324339487FD07C0F7
:10C070008D859E850997081719070CF4312CED85DD
:10C08000FE85BF01FF0F880B990B0E9495D32B01F2
:10C090003C0120E030E048EC53E4C501B4010E94CB
:10C0A00092CB9B01AC01C301B2010E9412CE01E010
:10C0B00018164CF089859A8509962E8D3F8D82172A
:10C0C00093070CF400E0AA89BB89BD01BB0F880B64
:10C0D000990B0E9495D36E8F7F8F88A399A3809030
:10C0E000DF069090E006A090E106B090E20620E026
:10C0F00030E048EC53E4C501B4010E9491CB9B01B0
:10C10000AC016E8D7F8D88A199A10E948ED311E024
:10C1100087FD09C08E899F890997EAA1FBA1E817CD
:10C12000F9070CF410E02E893F89B901330F880B11
:10C13000990B0E9495D32B013C0120E030E048ECA4
:10C1400053E4C501B4010E9492CB9B01AC01C30131
:10C15000B2010E9412CEBB24B39418164CF08A8907
:10C160009B890996ADA5BEA58A179B070CF4B12C37
:10C1700031100CC0002329F088E896E10E94B781B5
:10C180000BC0111109C0B1100DC014C080E996E1B7
:10C190000E94B7810111F0CF112321F080E896E1D0
:10C1A0000E94B781BB2009F4D7C289E796E10E94BB
:10C1B000B781D2C2EBA5FCA5EF2BD9F0E2E6F6E100
:10C1C00084918F010F5F1F4F882321F00E94B63F9B
:10C1D000F801F6CFF989FF2361F0E9E4F6E18491F3
:10C1E0008F010F5F1F4F882321F00E94B63FF80197
:10C1F000F6CF0E94AFC2109234072989211106C0E0
:10C2000084E690E00E9436A50E94084881E00E94E2
:10C21000A847882319F0209234079EC23EA131110D
:10C2200002C00E9479448D859E85A985BA858A1BA6
:10C230009B0B06E010E0B8010E9464CB5B01072E67
:10C24000000C880B990B0E9495D36AA37BA38CA347
:10C250009DA38E899F89EA89FB898E1B9F0BB8015C
:10C260000E9464CB8B01072E000C880B990B0E9457
:10C2700095D36DA77EA78FA798AB6091F0067091BC
:10C28000F106072E000C880B990B0E9495D39B0199
:10C29000AC016AA17BA18CA19DA10E948ED38111CA
:10C2A00050C06091F2067091F306072E000C880BC7
:10C2B000990B0E9495D39B01AC016DA57EA58FA51E
:10C2C00098A90E948ED381113CC06091EC067091B8
:10C2D000ED06072E000C880B990B0E9495D3209138
:10C2E000DB063091DC064091DD065091DE060E94AF
:10C2F00092CB9B01AC016FA178A589A59AA50E945C
:10C300008ED381111EC06091EE067091EF06072E4C
:10C31000000C880B990B0E9495D32091DF06309179
:10C32000E0064091E1065091E2060E9492CB9B010B
:10C33000AC016E8D7F8D88A199A10E948ED3882338
:10C34000B9F1F989F111209234070E94BD3FB092F2
:10C35000F106A092F0061093F3060093F2062091E6
:10C36000DB063091DC064091DD065091DE066FA1C0
:10C3700078A589A59AA50E9491CB0E94FECC7093C6
:10C38000ED066093EC062091DF063091E0064091C7
:10C39000E1065091E2066E8D7F8D88A199A10E94E1
:10C3A00091CB0E94FECC7093EF066093EE06212C99
:10C3B00085E40E94563E8987882319F00E94133E27
:10C3C000898700E010E021E02D87A7019601C701D1
:10C3D000B6010E94A4CE882321F0D1C000E010E075
:10C3E00028CDAD85AA2309F4AEC131E03E8B87E0AC
:10C3F0008A8B312C9D85A1E09A279D87C801012E4B
:10C40000000CAA0BBB0B8A8F9B8FAC8FBD8FE7E014
:10C41000E09FD001E19FB00D1124BEABADAB2A89E6
:10C42000321609F4A6C06A8D7B8D8C8D9D8D0E947D
:10C4300095D39B01AC016AA17BA18CA19DA10E9417
:10C44000F4D39B01AC016FA178A589A59AA50E94A0
:10C4500092CB4B015C01632D032C000C770B880BF6
:10C46000990B0E9495D39B01AC016DA57EA58FA56C
:10C4700098A90E94F4D39B01AC016E8D7F8D88A199
:10C4800099A10E9492CB2B013C0120E030E0A90150
:10C49000C501B4010E948ED387FD1BC120E030E0AE
:10C4A00040E05FE3C501B4010E9492CB0E9434CD0D
:10C4B0004B015C016D837E838F83988720E030E0A1
:10C4C000A901C301B2010E948ED387FD06C120E0FD
:10C4D00030E040E05FE3C301B2010E9492CB0E94D2
:10C4E00034CD69837A838B839C830330110509F4EF
:10C4F000F8C02091DF063091E0064091E1065091AE
:10C50000E2060E9491CB2B013C012091DB06309189
:10C51000DC064091DD065091DE06C501B4010E94A3
:10C5200091CBA30192010E94976E882309F408C160
:10C530003EA1332309F4DCC069EC70E080E090E0B8
:10C540000E94436F64567109810991090E9495D335
:10C550002FE632E143E85AE30E94F4D36B017C01F9
:10C560009B01AC010E94A4CE882309F4CBC0209289
:10C5700034070F5F1F4F0730110509F026CF80E009
:10C580000E94A847882341F020923407C12CD12C67
:10C5900020ECE22E2FE7F22E8091EA0685FF08C0FC
:10C5A0004FEE5EE06EE176E185E396E10E94334472
:10C5B000A7019601C701B6010E94A4CE81116AC0ED
:10C5C0003989311124C013E096E0E92E03E0FE2CF6
:10C5D000F11ADE2CD01A21E041E0602F812F0E9459
:10C5E000BCC821E04FEF602F8F2D0E94BCC82FEFF9
:10C5F00041E06D2D812F0E94BCC82FEF4FEF6D2DB4
:10C600008F2D0E94BCC8015020F71150F8F60E94EF
:10C6100029C80E94AF898989811139C08091EA06B1
:10C6200085FF0FC04091F70E5091F80E6091F90E02
:10C630007091FA0E8BE096E10E9482718AE00E946E
:10C64000B63F8FEE9EE00E9460A59B01AC01609119
:10C65000F70E7091F80E8091F90E9091FA0E0E94EB
:10C6600091CBAB01BC014093F70E5093F80E609351
:10C67000F90E7093FA0E8091EA0685FF6BC08DEF7C
:10C6800095E10E9482718AE00E94B63F63C0822DCC
:10C69000809334079EA1911102C00E94534480915F
:10C6A000EA0685FF0CC0EEEEF5E184918F010F5F85
:10C6B0001F4F882321F00E94B63FF801F6CF0E9459
:10C6C000CEB880913407882309F446C00E940848F8
:10C6D00043C020E030E0A901E5CE20E030E0A90130
:10C6E000FACEF6E03F1205CF21E02093730D01CF83
:10C6F0002BA54985BE016F5F7F4FCE0105960E9435
:10C70000824F2CCF8DA99EA9830D911D37FC9A9540
:10C71000880F991F880F991FDC01AD51BA4F5D0139
:10C7200029A93AA94BA95CA9C701B6010E9492CBDD
:10C73000F50160837183828393830E943E9E212C46
:10C74000FE893F0E6CCEBFEFBE8BEFEFEA8B86E02B
:10C75000382E50CE81E09CCFEA960FB6F894DEBF1B
:10C760000FBECDBFDF91CF911F910F91FF90EF9042
:10C77000DF90CF90BF90AF909F908F907F906F9001
:10C780005F904F903F902F900895AF92BF92CF92BD
:10C79000DF92EF92FF920F931F93CF93DF931F923D
:10C7A000CDB7DEB77C016B018A0159018091F40697
:10C7B000811119C0F701808191810E945CD7898322
:10C7C000F60181936F01BE016F5F7F4FC5010E942B
:10C7D0006A4FF701408151814F5F5F4F5183408322
:10C7E0000150110939F70F90DF91CF911F910F91EF
:10C7F000FF90EF90DF90CF90BF90AF9008958F9211
:10C800009F92AF92BF92CF92DF92EF92FF920F93DF
:10C810001F93CF93DF931F921F92CDB7DEB7E091A6
:10C82000F406E1114AC059016C018B017B01E40E51
:10C83000F51E0E151F0509F440C0F6018080918099
:10C84000F80161918F016983C4016A830E945CD7FA
:10C850006A81681729F1C4010E9464D7C4010E944B
:10C860005CD799818917E1F0EAE2FEE084918F01BB
:10C870000F5F1F4F882321F00E94B63FF801F6CFCB
:10C88000E4EBF7E184918F010F5F1F4F882321F0C4
:10C890000E94B63FF801F6CF81E08093F4060DC008
:10C8A000BE016F5F7F4FC5010E946A4FF601808114
:10C8B0009181019691838083BCCF0F900F90DF917F
:10C8C000CF911F910F91FF90EF90DF90CF90BF908D
:10C8D000AF909F908F9008958F929F92AF92BF924A
:10C8E000CF92DF92EF92FF920F931F93CF93DF933C
:10C8F000CDB7DEB7C155D1090FB6F894DEBF0FBE74
:10C90000CDBF19AE1AAE1BAE1CAE80E390E3A0E320
:10C91000B0E08DAB9EABAFABB8AF29961FAE1EAEED
:10C92000299784E690E027969FAF8EAF27971092C5
:10C93000F4069E01295B3F4F44E050E0BE016B5C72
:10C940007F4FCE018B5B9F4F0E94FF6327968EAD7A
:10C950009FAD2797029627969FAF8EAF2797299670
:10C960001FAE1EAE299782E062968FAF62979E013E
:10C97000295B3F4F41E050E0BE016F5A7F4FCE012F
:10C980008B5B9F4F0E94FF639E01295B3F4F44E1F9
:10C9900050E069ED7EE0CE018B5B9F4F0E94FF630C
:10C9A0009E01295B3F4F44E150E062E577E0CE0114
:10C9B0008B5B9F4F0E94FF639E01295B3F4F44E1C9
:10C9C00050E06EE877E0CE018B5B9F4F0E94FF63E3
:10C9D0009E01295B3F4F44E050E06AE477E0CE01DE
:10C9E0008B5B9F4F0E94FF639E01295B3F4F44E09A
:10C9F00050E06EE477E0CE018B5B9F4F0E94FF63B7
:10CA00009E01295B3F4F44E050E066E477E0CE01B1
:10CA10008B5B9F4F0E94FF639E01295B3F4F44E069
:10CA200050E06AE677E0CE018B5B9F4F0E94FF6388
:10CA30009E01295B3F4F44E050E066E677E0CE017F
:10CA40008B5B9F4F0E94FF639E01295B3F4F44E039
:10CA500050E065EC7CE0CE018B5B9F4F0E94FF6352
:10CA60009E01295B3F4F40E150E066E377E0CE0155
:10CA70008B5B9F4F0E94FF639E01295B3F4F4CE001
:10CA800050E068EA76E0CE018B5B9F4F0E94FF6327
:10CA90008091300790913107A0913207B091330710
:10CAA00089AB9AABABABBCAB9E01295B3F4F44E07B
:10CAB00050E0BE016F5C7F4FCE018B5B9F4F0E94A9
:10CAC000FF6361961FAE619719AE1AAE1BAE1CAE26
:10CAD00083E060968FAF60972F968FAF2F979E0160
:10CAE000295B3F4F41E050E0BE01605B7F4FCE01CC
:10CAF0008B5B9F4F0E94FF639E01295B3F4F44E089
:10CB000050E0BE01675C7F4FCE018B5B9F4F0E9460
:10CB1000FF639E01295B3F4F41E050E0BE01615B36
:10CB20007F4FCE018B5B9F4F0E94FF639E01295B6D
:10CB30003F4F41E050E0BE01625B7F4FCE018B5B17
:10CB40009F4F0E94FF631AE011509E01295B3F4FE7
:10CB500044E050E0112349F0BE01675C7F4FCE01F5
:10CB60008B5B9F4F0E94FF63EFCF64EB76E0CE01BB
:10CB70008B5B9F4F0E94FF6319AE1AAE1BAE1CAEBB
:10CB80001AE0115071F09E01295B3F4F44E050E0E4
:10CB9000BE01675C7F4FCE018B5B9F4F0E94FF639E
:10CBA000F0CF87E02E968FAF2E972D968FAF2D97D3
:10CBB0009E01295B3F4F41E050E0BE01635B7F4F28
:10CBC000CE018B5B9F4F0E94FF639E01295B3F4F0D
:10CBD00041E050E0BE01645B7F4FCE018B5B9F4F15
:10CBE0000E94FF639E01295B3F4F44E050E060EFED
:10CBF00076E0CE018B5B9F4F0E94FF639E01295B15
:10CC00003F4F44E050E06CEE76E0CE018B5B9F4FEF
:10CC10000E94FF639E01295B3F4F44EC50E063EEAE
:10CC200075E0CE018B5B9F4F0E94FF632C961FAE79
:10CC30002C9719AE1AAE1BAE1CAE8FEF2B968FAF92
:10CC40002B979E01295B3F4F41E050E0BE01655BA1
:10CC50007F4FCE018B5B9F4F0E94FF639E01295B3C
:10CC60003F4F44E050E0BE01675C7F4FCE018B5BDD
:10CC70009F4F0E94FF639E01295B3F4F41E050E0C0
:10CC8000BE01665B7F4FCE018B5B9F4F0E94FF63AF
:10CC900019AE1AAE1BAE1CAE1DE0115071F09E0114
:10CCA000295B3F4F44E050E0BE01675C7F4FCE01FF
:10CCB0008B5B9F4F0E94FF63F0CF84EB90E09EA7B9
:10CCC0008DA780EF90E098AB8FA786E490E09AA7BD
:10CCD00089A78EE690E09CA78BA71EA21DA218A68E
:10CCE0001FA29E01295B3F4F44E050E0BE01635DFF
:10CCF0007F4FCE018B5B9F4F0E94FF639E01295B9C
:10CD00003F4F44E050E0BE01675D7F4FCE018B5B3B
:10CD10009F4F0E94FF639E01295B3F4F44E050E01C
:10CD2000BE016B5D7F4FCE018B5B9F4F0E94FF6307
:10CD3000C12C90E8D92E9BE3E92E95E4F92E812CA5
:10CD4000912C20E8A22E2FE3B22E111136C09E01A5
:10CD5000295B3F4F44E050E06BE67EE0CE018B5B09
:10CD60009F4F0E94FF639E01295B3F4F44E050E0CC
:10CD700067E67EE0CE018B5B9F4F0E94FF639E01C2
:10CD8000295B3F4F44E050E06FE67EE0CE018B5BD5
:10CD90009F4F0E94FF6389AE9AAEABAEBCAE9E01C0
:10CDA000295B3F4F44E050E0BE01675C7F4FCE01FE
:10CDB0008B5B9F4F0E94FF6326C0C9AEDAAEEBAE1D
:10CDC000FCAE9E01295B3F4F44E050E0BE01675C32
:10CDD0007F4FCE018B5B9F4F0E94FF6319AE1AAE4F
:10CDE0001BAE1CAE04E0015071F09E01295B3F4F69
:10CDF00044E050E0BE01675C7F4FCE018B5B9F4FEC
:10CE00000E94FF63F0CF1F5F153009F09ECF84E1D1
:10CE100090E025969FAF8EAF25979E01295B3F4FEF
:10CE200042E050E0BE016D5B7F4FCE018B5B9F4FB8
:10CE30000E94FF6380E090E8ABE3B5E489AF9AAF6E
:10CE4000ABAFBCAF14E0115071F09E01295B3F4FB6
:10CE500044E050E0BE01675C7F4FCE018B5B9F4F8B
:10CE60000E94FF63F0CF80E290E023969FAF8EAFE9
:10CE700023979E01295B3F4F42E050E0BE016F5B6C
:10CE80007F4FCE018B5B9F4F0E94FF632A961FAEA0
:10CE90002A9780E090E0A0E4B0E489A39AA3ABA332
:10CEA000BCA380E090E0A4E3B2E48D8F9E8FAF8FAF
:10CEB000B8A3198E1A8E1B8E1C8E1D8A1E8A1F8A7D
:10CEC000188E198A1A8A1B8A1C8A80E090E0A0E5D5
:10CED000B1E48D879E87AF87B88B19861A861B862B
:10CEE0001C8680E090E0A0E0B1E48D839E83AF8358
:10CEF000B8879E01295B3F4F41E050E0BE01675B70
:10CF00007F4FCE018B5B9F4F0E94FF639E01295B89
:10CF10003F4F44E050E0BE016F5D7F4FCE018B5B21
:10CF20009F4F0E94FF639E01295B3F4F44E050E00A
:10CF3000BE01635E7F4FCE018B5B9F4F0E94FF63FC
:10CF40009E01295B3F4F44E050E0BE01675E7F4F8A
:10CF5000CE018B5B9F4F0E94FF639E01295B3F4F79
:10CF600044E050E0BE016B5E7F4FCE018B5B9F4F74
:10CF70000E94FF639E01295B3F4F44E050E0BE01E9
:10CF80006F5E7F4FCE018B5B9F4F0E94FF639E01C0
:10CF9000295B3F4F44E050E0BE01635F7F4FCE010D
:10CFA0008B5B9F4F0E94FF639E01295B3F4F44E0D4
:10CFB00050E0BE01675F7F4FCE018B5B9F4F0E94A9
:10CFC000FF639E01295B3F4F44E050E0BE016B5F71
:10CFD0007F4FCE018B5B9F4F0E94FF639E01295BB9
:10CFE0003F4F41E050E061ED7CE0CE018B5B9F4F15
:10CFF0000E94FF6389ECE82E8CE0F82E123048F492
:10D00000F70180819181A281B38189AF9AAFABAFE3
:10D01000BCAF9E01295B3F4F44E050E0BE01675C1E
:10D020007F4FCE018B5B9F4F0E94FF631F5FF4E039
:10D03000EF0EF11C153011F721961FAE1EAE219791
:10D040001CE0115071F09E01295B3F4F42E050E01F
:10D05000BE01615C7F4FCE018B5B9F4F0E94FF63DF
:10D06000F0CF19AE1AAE1BAE1CAE9E01295B3F4F2E
:10D0700044E050E0BE01675C7F4FCE018B5B9F4F69
:10D080000E94FF639E01295B3F4F44E050E0BE01D8
:10D09000675C7F4FCE018B5B9F4F0E94FF631982BD
:10D0A0001A821B821C8214E0115071F09E01295BD0
:10D0B0003F4F44E050E0BE016F5F7F4FCE018B5B7E
:10D0C0009F4F0E94FF63F0CF8091F406811150C002
:10D0D0002796EEACFFAC279729968EAD9FAD29978A
:10D0E0009EAF8DAF84E690E027969FAF8EAF2797D7
:10D0F0009E01295B3F4F44E050E069EC72E0CE01B5
:10D100008B5B9F4F0E94FF639E01295B3F4F42E074
:10D1100050E0BE01635C7F4FCE018B5B9F4F0E944E
:10D12000FF63EAE2FEE084918F010F5F1F4F8823C7
:10D1300021F00E94B63FF801F6CFB701645671099D
:10D140008EED97E10E949F714DAD5EAD60E070E0A5
:10D1500081ED97E10E940092EEECF7E184918F015E
:10D160000F5F1F4F882321F00E94B63FF801F6CFD2
:10D170009091F40681E08927CF5ADF4F0FB6F894DB
:10D18000DEBF0FBECDBFDF91CF911F910F91FF90FA
:10D19000EF90DF90CF90BF90AF909F908F900895C9
:10D1A0000E9403730E9489730E9444A080E090E073
:10D1B0000E94074081E090E00E94074082E090E0FA
:10D1C0000E940740609130077091310780913207CB
:10D1D000909133070E94713B0E94FC4E0C94AF89E2
:10D1E0002F923F924F925F926F927F928F929F9277
:10D1F000AF92BF92CF92DF92EF92FF920F931F9365
:10D20000CF93DF93CDB7DEB7CC56D1090FB6F894E4
:10D21000DEBF0FBECDBF2DB73EB7AB963FAF2EAF33
:10D22000AB97A1961FAE1EAEA19784E690E06F96D5
:10D230009FAF8EAF6F979E01215A3F4F44E050E061
:10D24000BE016F5A7F4FCE01835A9F4F0E94C56324
:10D250009E01215A3F4F42E050E0BE01655A7F4F88
:10D26000CE01835A9F4F0E94C56343E050E0BE0148
:10D270006F5A7F4F89EC92E00E94DBCE892B09F434
:10D280003AC062968FAD6297863539F08FE3629629
:10D290008FAF629763961FAE6397EAE2FEE08491D8
:10D2A0008F010F5F1F4F882321F00E94B63FF801C6
:10D2B000F6CFE9E6F8E184918F010F5F1F4F8823D5
:10D2C00021F00E94B63FF801F6CFBE016F5A7F4FA2
:10D2D00080E698E10E94D471E2E5F8E184918F0143
:10D2E0000F5F1F4F882321F00E94B63FF801F6CF51
:10D2F0000E94039942C46DB67EB661961CAE1DAE07
:10D300001EAE1FAE6197A1961FAE1EAEA1979E01E5
:10D31000215A3F4F41E050E0BE0169597F4FCE0195
:10D32000835A9F4F0E94C56384E1EDE8F2E0DE017D
:10D33000999601900D928A95E1F784E1E1EAF2E095
:10D34000DE01559601900D928A95E1F784E1E5EBB7
:10D35000F2E08E010F5F1F4FD80101900D928A9568
:10D36000E1F7A896CFACA897D12C33E0C30ED11C1F
:10D37000CC0CDD1CCC0CDD1C8DB79EB78C199D0927
:10D380000FB6F8949EBF0FBE8DBFEDB7FEB73196B6
:10D390004F012DB73EB72C193D090FB6F8943EBF8B
:10D3A0000FBE2DBF8DB79EB701965C01EDB7FEB7DE
:10D3B000EC19FD090FB6F894FEBF0FBEEDBF2DB7F7
:10D3C0003EB72F5F3F4F79019E01215A3F4FA60183
:10D3D000B401CE01835A9F4F0E94C5639E01215A1A
:10D3E0003F4FA601B501CE01835A9F4F0E94C563EE
:10D3F0009E01215A3F4FA601B701CE01835A9F4F8C
:10D400000E94C563A8962FADA89730E02E5F3F4FCE
:10D410008EE897E0AD969FAF8EAFAD97A2E5B7E0EF
:10D4200069ED7EE080E090E040E050E024173507B1
:10D4300014F0640105C0F9E2CF2ED12CCC0EDD1E14
:10D44000C80ED91EF6012080318042805380FB0136
:10D450002192319241925192BF012417350714F065
:10D46000650105C0E5E1CE2ED12CCC0EDD1EC80E27
:10D47000D91EF60120803180428053802D923D924A
:10D480004D925D922417350714F0670101C06801C1
:10D49000C80ED91EF6012080318042805380AD969F
:10D4A000EEADFFADAD972192319241925192AD9682
:10D4B000FFAFEEAFAD974F5F5F4F0496453051051C
:10D4C00009F0B4CF9E01215A3F4F44E050E06AE496
:10D4D00077E0CE01835A9F4F0E94C5639E01215A77
:10D4E0003F4F44E050E06EE477E0CE01835A9F4F17
:10D4F0000E94C5639E01215A3F4F44E050E066E41C
:10D5000077E0CE01835A9F4F0E94C5639E01215A46
:10D510003F4F44E050E06AE677E0CE01835A9F4FE8
:10D520000E94C5639E01215A3F4F44E050E066E6E9
:10D5300077E0CE01835A9F4F0E94C5639E01215A16
:10D540003F4F44E050E065EC7CE0CE01835A9F4FB2
:10D550000E94C5639E01215A3F4F40E150E066E3BF
:10D5600077E0CE01835A9F4F0E94C5639E01215AE6
:10D570003F4F4CE050E068EA76E0CE01835A9F4F7F
:10D580000E94C5639E01215A3F4F44E050E060E392
:10D5900077E0CE01835A9F4F0E94C5639E01215AB6
:10D5A0003F4F41E050E0BE016A597F4FCE01835AA0
:10D5B0009F4F0E94C5639E01215A3F4F44E050E0B7
:10D5C000BE01635B7F4FCE01835A9F4F0E94C563AC
:10D5D0009E01215A3F4F41E050E0BE016B597F4F01
:10D5E000CE01835A9F4F0E94C5639E01215A3F4F2F
:10D5F00041E050E0BE016C597F4FCE01835A9F4FEE
:10D600000E94C563A6968FADA697A5960FADA59768
:10D61000809F80011124E12CF12C9E01215A3F4F63
:10D6200044E050E0E016F10661F0BE01635B7F4F1D
:10D63000CE01835A9F4F0E94C563FFEFEF1AFF0A86
:10D64000ECCF64EB76E0CE01835A9F4F0E94C56316
:10D650001AE011509E01215A3F4F112359F044E026
:10D6600050E0BE01635B7F4FCE01835A9F4F0E9403
:10D67000C563EFCF41E050E0BE016D597F4FCE0151
:10D68000835A9F4F0E94C5639E01215A3F4F41E03C
:10D6900050E0BE016E597F4FCE01835A9F4F0E94CA
:10D6A000C563A4968FADA497873069F5A3968FAD17
:10D6B000A397873041F580E00E94B93B9E01215A33
:10D6C0003F4F44E050E060EF76E0CE01835A9F4F39
:10D6D0000E94C5639E01215A3F4F44E050E06CEE2A
:10D6E00076E0CE01835A9F4F0E94C5639E01215A66
:10D6F0003F4F44EC50E063EE75E0CE01835A9F4FFC
:10D700000E94C56339C09E01215A3F4F44E050E05A
:10D71000BE016F5B7F4FCE01835A9F4F0E94C5634E
:10D720009E01215A3F4F44E050E0BE01635C7F4FB1
:10D73000CE01835A9F4F0E94C563A4968FADA497D4
:10D74000A3960FADA397809F80011124E12CF12CAB
:10D75000E016F10689F09E01215A3F4F44E050E067
:10D76000BE01635B7F4FCE01835A9F4F0E94C5630A
:10D770002FEFE21AF20AECCF9E01215A3F4F41E00F
:10D7800050E0BE0168597F4FCE01835A9F4F0E94DF
:10D79000C5639E01215A3F4F44E050E0BE01635BE8
:10D7A0007F4FCE01835A9F4F0E94C5639E01215A2D
:10D7B0003F4F41E050E0BE016F597F4FCE01835A89
:10D7C0009F4F0E94C56361961CAE1DAE1EAE1FAE7C
:10D7D00061971DE011509E01215A3F4F44E050E0F7
:10D7E000BE01112341F0635B7F4FCE01835A9F4FEF
:10D7F0000E94C563EFCF675B7F4FCE01835A9F4F77
:10D800000E94C5639E01215A3F4F44E050E0BE0193
:10D810006B5B7F4FCE01835A9F4F0E94C5639E0171
:10D82000215A3F4F44E050E0BE016F5B7F4FCE0175
:10D83000835A9F4F0E94C5639E01215A3F4F44E087
:10D8400050E0BE01635B7F4FCE01835A9F4F0E9421
:10D85000C56311113EC06196CCACDDACEEACFFAC43
:10D86000619720E030E84BE355E4C701B6010E9420
:10D870008ED3882371F1C0926B0ED0926C0EE09221
:10D880006D0EF0926E0E9E01215A3F4F44E050E023
:10D8900067E67EE0CE01835A9F4F0E94C5639E01DA
:10D8A000215A3F4F44E050E06FE67EE0CE01835ABC
:10D8B0009F4F0E94C5639E01215A3F4F44E050E0B4
:10D8C000BE01635B7F4FCE01835A9F4F0E94C563A9
:10D8D00011C004E0015071F09E01215A3F4F44E015
:10D8E00050E0BE01635B7F4FCE01835A9F4F0E9481
:10D8F000C563F0CF1F5F153009F09ECF9E01215AFE
:10D900003F4F42E050E0BE01675A7F4FCE01835A3D
:10D910009F4F0E94C56314E011509E01215A3F4F52
:10D92000112359F044E050E0BE01635B7F4FCE010C
:10D93000835A9F4F0E94C563EFCF42E050E0BE0183
:10D94000695A7F4FCE01835A9F4F0E94C5639E0143
:10D95000215A3F4F41E050E0BE0168597F4FCE0150
:10D96000835A9F4F0E94C56319E011509E01215AAE
:10D970003F4F112359F044E050E0BE01635B7F4FFD
:10D98000CE01835A9F4F0E94C563EFCF41E050E024
:10D9900061ED7CE0CE01835A9F4F0E94C56389EC04
:10D9A000E82E8CE0F82E9E01215A3F4F44E050E0D3
:10D9B000BE01635B7F4FCE01835A9F4F0E94C563B8
:10D9C000123058F461968CAD9DADAEADBFAD619790
:10D9D000F70180839183A283B3831F5FF4E0EF0E8E
:10D9E000F11C153001F71BE09E01215A3F4F42E028
:10D9F00050E0BE016B5A7F4FCE01835A9F4F0E9469
:10DA0000C563115089F79E01215A3F4F44E050E011
:10DA1000BE01635B7F4FCE01835A9F4F0E94C56357
:10DA20009E01215A3F4F44E050E0BE01635B7F4FAF
:10DA3000CE01835A9F4F0E94C56314E0115071F0CC
:10DA40009E01215A3F4F44E050E0BE01635C7F4F8E
:10DA5000CE01835A9F4F0E94C563F0CFA1962EAD91
:10DA60003FADA1976D968EAD9FAD6D972817390785
:10DA700009F03AC00E94D068EAE2FEE084918F018A
:10DA80000F5F1F4F811103C009EC12E004C00E9418
:10DA9000B63FF801F3CFF80181918F01882319F087
:10DAA0000E94B63FF8CF6F966EAD7FAD6F9764560C
:10DAB000710985E398E10E949F71A1964EAD5FAD1B
:10DAC000A19760E070E088E298E10E940092E5E2B0
:10DAD000F8E184918F010F5F1F4F882309F448C03C
:10DAE0000E94B63FF801F5CFE3E0FCE084918F019E
:10DAF0000F5F1F4F882321F00E94B63FF801F6CF39
:10DB0000E5E0F8E184918F010F5F1F4F882321F03A
:10DB10000E94B63FF801F6CF6D966EAD7FAD6D9762
:10DB200080E090E04AE00E94B140E0E0F8E18491BA
:10DB30008F010F5F1F4F882321F00E94B63FF8012D
:10DB4000F6CFA1966EAD7FADA19780E090E04AE060
:10DB50000E94B140E0EFF7E184918F010F5F1F4F0A
:10DB6000882321F00E94B63FF801F6CF0E94039966
:10DB70000FB6F8947EBE0FBE6DBE80E00E94E094AA
:10DB80009091F40681E08927AB962EAD3FADAB971F
:10DB90000FB6F8943EBF0FBE2DBFC459DF4F0FB66E
:10DBA000F894DEBF0FBECDBFDF91CF911F910F91D3
:10DBB000FF90EF90DF90CF90BF90AF909F908F90AD
:10DBC0007F906F905F904F903F902F9008958F922D
:10DBD0009F92AF92BF92CF92DF92EF92FF920F93FC
:10DBE0001F93CF93DF93EC018B0140E050E0BA012B
:10DBF000C8010E94C5A0EFEFFEE024813581468177
:10DC0000578160817181828193810E9492CB20E053
:10DC100030E044EB52E40E9492CB2BED3FE049E42C
:10DC200050E40E94F4D320E030E044E353E40E9447
:10DC30008CCC6B017C010E9487CC20E030E048EE68
:10DC400051E40E94F4D3F801248135814681578143
:10DC50000E9492CB4B015C01C701B6010E9452CEDB
:10DC600020E030E048EE51EC0E94F4D39B01AC017F
:10DC7000F80160817181828193810E9492CB6883D7
:10DC800079838A839B838C829D82AE82BF82188631
:10DC900019861A861B86CE01DF91CF911F910F91B5
:10DCA000FF90EF90DF90CF90BF90AF909F908F90BC
:10DCB00008958F929F92AF92BF92CF92DF92EF9290
:10DCC000FF92CF9369017A019B01AC010E94F4D3CA
:10DCD0004B015C01A7019601C701B6010E94F4D374
:10DCE0009B01AC01C501B4010E9492CB6B017C0188
:10DCF00020E034E244E756E40E9412CE87FD0BC0D8
:10DD0000C1E020E030E44CE158E4C701B6010E94D4
:10DD10008ED318160CF4C0E08C2FCF91FF90EF90AB
:10DD2000DF90CF90BF90AF909F908F9008958F928B
:10DD30009F92AF92BF92CF92DF92EF92FF926B01D0
:10DD40007C0149015A010E94596E8823B1F020E0FC
:10DD500030E048EE51E4C501B4010E9492CB9B0132
:10DD6000AC01C701B601FF90EF90DF90CF90BF905C
:10DD7000AF909F908F900C94596E80E0FF90EF9041
:10DD8000DF90CF90BF90AF909F908F9008950895AF
:10DD90003FB7F89480912C0790912D07A0912E0702
:10DDA000B0912F0726B5A89B05C02F3F19F001960B
:10DDB000A11DB11D3FBFBA2FA92F982F8827820F11
:10DDC000911DA11DB11DBC01CD0142E0660F771F61
:10DDD000881F991F4A95D1F708952FB7F89460913D
:10DDE00028077091290780912A0790912B072FBF50
:10DDF00008951F920F920FB60F9211242F933F9305
:10DE00008F939F93AF93BF93809128079091290799
:10DE1000A0912A07B0912B073091270723E0230F09
:10DE20002D3720F40196A11DB11D05C026E8230F52
:10DE30000296A11DB11D2093270780932807909378
:10DE40002907A0932A07B0932B0780912C07909164
:10DE50002D07A0912E07B0912F070196A11DB11D8E
:10DE600080932C0790932D07A0932E07B0932F0734
:10DE7000BF91AF919F918F913F912F910F900FBEC6
:10DE80000F901F901895CF93DF9300D01F92CDB7BE
:10DE9000DEB7611571058105910579F09B01AC0133
:10DEA00069833A834B835C830E9436CF29813A8110
:10DEB0004B815C810E94A4D703C060E070E0CB017D
:10DEC0000F900F900F900F90DF91CF9108951F92B8
:10DED0000F920FB60F9211240BB60F922F933F9310
:10DEE0004F935F936F937F938F939F93AF93BF9362
:10DEF000EF93FF93E0914202F09143021995FF9155
:10DF0000EF91BF91AF919F918F917F916F915F91B1
:10DF10004F913F912F910F900BBE0F900FBE0F901E
:10DF20001F9018951F920F920FB60F9211240BB6E7
:10DF30000F922F933F934F935F936F937F938F93A2
:10DF40009F93AF93BF93EF93FF93E0914002F091C3
:10DF500041021995FF91EF91BF91AF919F918F91E0
:10DF60007F916F915F914F913F912F910F900BBED9
:10DF70000F900FBE0F901F9018951F920F920FB623
:10DF80000F9211240BB60F922F933F934F935F93F1
:10DF90006F937F938F939F93AF93BF93EF93FF9371
:10DFA000E0913602F09137021995FF91EF91BF9100
:10DFB000AF919F918F917F916F915F914F913F9121
:10DFC0002F910F900BBE0F900FBE0F901F901895C2
:10DFD0001F920F920FB60F9211240BB60F922F9330
:10DFE0003F934F935F936F937F938F939F93AF93E1
:10DFF000BF93EF93FF93E0913402F09135021995AE
:10E00000FF91EF91BF91AF919F918F917F916F9110
:10E010005F914F913F912F910F900BBE0F900FBECC
:10E020000F901F9018951F920F920FB60F92112408
:10E030000BB60F922F933F934F935F936F937F9302
:10E040008F939F93AF93BF93EF93FF93E0913E0223
:10E05000F0913F021995FF91EF91BF91AF919F9180
:10E060008F917F916F915F914F913F912F910F9081
:10E070000BBE0F900FBE0F901F9018951F920F921E
:10E080000FB60F9211240BB60F922F933F934F931D
:10E090005F936F937F938F939F93AF93BF93EF9310
:10E0A000FF93E0913C02F0913D021995FF91EF91B1
:10E0B000BF91AF919F918F917F916F915F914F91A0
:10E0C0003F912F910F900BBE0F900FBE0F901F909E
:10E0D00018951F920F920FB60F9211240BB60F9244
:10E0E0002F933F934F935F936F937F938F939F9360
:10E0F000AF93BF93EF93FF93E0913A02F0913B020D
:10E100001995FF91EF91BF91AF919F918F917F9161
:10E110006F915F914F913F912F910F900BBE0F9098
:10E120000FBE0F901F9018951F920F920FB60F926F
:10E1300011240BB60F922F933F934F935F936F93DE
:10E140007F938F939F93AF93BF93EF93FF93E09150
:10E150003802F09139021995FF91EF91BF91AF917B
:10E160009F918F917F916F915F914F913F912F91EF
:10E170000F900BBE0F900FBE0F901F9018951F921F
:10E180000F920FB60F9211240BB60F922F933F935D
:10E190004F935F936F937F938F939F93AF93BF93AF
:10E1A000EF93FF938091F8069091F906A091FA06FB
:10E1B000B091FB06892B8A2B8B2B59F18091F706A6
:10E1C000E091F506F091F606908189278083809191
:10E1D000F8069091F906A091FA06B091FB06181680
:10E1E00019061A061B060CF056C08091F80690918D
:10E1F000F906A091FA06B091FB060197A109B109B1
:10E200008093F8069093F906A093FA06B093FB0664
:10E2100042C080912F02E2E8F8E1E4919FEF9093F1
:10E220002F02E230C9F050F4EE2399F0E13081F58D
:10E2300090916F009D7F90936F002AC0E43019F198
:10E24000E0F0E53029F5909173009D7F9093730085
:10E250001FC010926E001CC0909170009D7F909323
:10E26000700091E09093B0009091B100987F94601D
:10E270009093B1001092B3000BC0909171009D7FFC
:10E280009093710005C0909172009D7F90937200F1
:10E2900060E00E9444AAFF91EF91BF91AF919F91DE
:10E2A0008F917F916F915F914F913F912F910F903F
:10E2B0000BBE0F900FBE0F901F901895CF92DF925C
:10E2C000EF92FF926B017C0183E3C816D104E10455
:10E2D000F10470F082E3C81AD108E108F10862E3A2
:10E2E00070E080E090E00E9498AB0E94B4C1ECCF57
:10E2F000C701B6010E9498ABFF90EF90DF90CF90DE
:10E300000C94B4C1CF92DF92EF92FF92CF93DF9340
:10E310006A017B01FC018491EF012196882321F0A1
:10E320000E94B63FFE01F7CF42E0C701B601DF9180
:10E33000CF91FF90EF90DF90CF900C9445430F93D7
:10E340001F93CF93DF938B01FC018491EF01219602
:10E35000882321F00E94B63FFE01F7CFB801110FCC
:10E36000880B990BDF91CF911F910F910C945B411A
:10E370000F931F93CF93DF931F92CDB7DEB7FC01AE
:10E3800084918F010F5F1F4F882331F069830E94B2
:10E39000B63FF8016981F4CF862F0F90DF91CF91BE
:10E3A0001F910F910C94B63F0F931F93CF93DF9360
:10E3B0001F921F92CDB7DEB7FC0184918F010F5FD2
:10E3C0001F4F811102C08B0108C069837A830E94AC
:10E3D000B63FF80169817A81F0CFF80181918F0110
:10E3E000882319F00E94B63FF8CF0F900F90DF916D
:10E3F000CF911F910F9108954F925F926F927F92EC
:10E400008F929F92AF92BF92CF92DF92EF92FF9244
:10E410000F931F93CF93DF93CDB7DEB72C970FB633
:10E42000F894DEBF0FBECDBF2B013C0129833A8398
:10E430004B835C83ED82FE820F831887A986BA86A0
:10E44000CB86DC8628A139A14AA15BA160E070E0FF
:10E4500080E89FE30E9491CB6B017C0129813A8186
:10E460004B815C810E94F4D34B015C012D813E8184
:10E470004F81588568A179A18AA19BA10E94F4D3FC
:10E480009B01AC01C501B4010E9492CB4B015C0120
:10E49000A3019201C701B6010E94F4D32B013C01F4
:10E4A00029813A814B815C8168A179A18AA19BA1D4
:10E4B0000E94F4D39B01AC01C301B2010E9492CB34
:10E4C0009B01AC01C701B6010E94F4D32B013C01B2
:10E4D000A501940168A179A18AA19BA10E94F4D30E
:10E4E0009B01AC01C301B2010E9492CB9B01AC0124
:10E4F000C701B6010E94F4D32B013C01A501940190
:10E50000C701B6010E94F4D34B015C012D813E810D
:10E510004F815885C701B6010E94F4D36B017C017D
:10E5200029853A854B855C8568A179A18AA19BA143
:10E530000E94F4D39B01AC01C701B6010E9492CBAB
:10E540009B01AC0168A179A18AA19BA10E94F4D38F
:10E550009B01AC01C501B4010E9492CB9B01AC01AF
:10E5600068A179A18AA19BA10E94F4D39B01AC016F
:10E57000C301B2010E9492CB2C960FB6F894DEBF75
:10E580000FBECDBFDF91CF911F910F91FF90EF9004
:10E59000DF90CF90BF90AF909F908F907F906F90C3
:10E5A0005F904F90089586E40E94563E8093750ECA
:10E5B000882351F00E94233E6093520270935302CD
:10E5C000809354029093550283E50E94563E88231F
:10E5D00051F00E94233E60934E0270934F0280934D
:10E5E00050029093510282E40E94563E882351F0DB
:10E5F0000E94233E60934A0270934B0280934C0228
:10E6000090934D0208953F924F925F926F927F9246
:10E610008F929F92AF92BF92CF92DF92EF92FF9232
:10E620000F931F93CF93DF9300D01F92CDB7DEB728
:10E630008090EE0E912C23E0820E911C8EE8E82E45
:10E6400087E0F82E99EDC92E9EE0D92E2AE7A22E5A
:10E6500027E0B22E00E010E0312C412C512C320189
:10E660004394F70161917191819191917F01F6013C
:10E6700021913191419151916F0129833A834B83CB
:10E680005C830E9493D329813A814B815C810E94F3
:10E69000F4D30E9405CDF501619371938193919319
:10E6A0005F01F2E0F31518F40815190539F4461660
:10E6B00057066806790610F42B013C0133940F5F6E
:10E6C0001F4F25E03212CDCF6FEF7FEFCB01A301BB
:10E6D00092010E9482D72093A8073093A907409304
:10E6E000AA075093AB070F900F900F900F90DF91F8
:10E6F000CF911F910F91FF90EF90DF90CF90BF903F
:10E70000AF909F908F907F906F905F904F903F90D1
:10E7100008950F931F93CF93DF93C9EDDEE005E0DB
:10E7200017E0299139914991599160E070E080E8B2
:10E730009FE30E948CCCF801619371938193919334
:10E740008F01FEE0CD3EDF0761F70E9496C3DF91A7
:10E75000CF911F910F910C9403732F923F924F9280
:10E760005F926F927F928F929F92AF92BF92CF9261
:10E77000DF92EF92FF920F931F93CF93DF9300D01E
:10E780001F921F92CDB7DEB76B017A01190120915C
:10E79000EE0E29832093ED0E09ED1EE0D8012D9198
:10E7A0003D914D915C91FC016081718182819381E9
:10E7B0000E94F4D30E941FCE4B015C01AFE1BFE089
:10E7C0006D937D938D939C931397F80124813581EC
:10E7D00046815781D6016D917D918D919C910E94CA
:10E7E000F4D30E941FCE2B013C016093230F709342
:10E7F000240F8093250F9093260FF80120853185F3
:10E8000042855385D7016D917D918D919C910E9498
:10E81000F4D30E941FCE6B017C016093270F70938D
:10E82000280F8093290F90932A0F2981B4E02B9F02
:10E83000F0011124EB51F14F20813181428153814C
:10E84000D1016D917D918D919C910E94F4D30E9494
:10E850001FCE60932B0F70932C0F80932D0F9093EE
:10E860002E0F6A837B838C839D830E94AFC22FB758
:10E87000F894E9ECFEE080829182A282B382448225
:10E88000558266827782C086D186E286F3866A8167
:10E890007B818C819D8164877587868797872FBF51
:10E8A00010920B0F10920C0F10920D0F10920E0F72
:10E8B00080E1EFE0FFE0DF011D928A95E9F70F901C
:10E8C0000F900F900F900F90DF91CF911F910F91AC
:10E8D000FF90EF90DF90CF90BF90AF909F908F9080
:10E8E0007F906F905F904F903F902F9008952F9260
:10E8F0003F924F925F926F927F928F929F92AF92D0
:10E90000BF92CF92DF92EF92FF920F931F93CF931C
:10E91000DF93CDB7DEB7C157D1090FB6F894DEBF8C
:10E920000FBECDBF3B014A015901EBAAFFAE2796AE
:10E930000FAF27972B961FAF2B97CFAA2091D90EF9
:10E940003091DA0E4091DB0E5091DC0EDC016D91BE
:10E950007D918D919C910E94F4D30E941FCEAA9626
:10E960006CAF7DAF8EAF9FAFAA972091DD0E309137
:10E97000DE0E4091DF0E5091E00EF3016081718157
:10E98000828193810E94F4D30E941FCEAE966CAF19
:10E990007DAF8EAF9FAFAE972091E10E3091E20E2A
:10E9A0004091E30E5091E40ED4016D917D918D91D3
:10E9B0009C910E94F4D30E941FCEE2966CAF7DAF73
:10E9C0008EAF9FAFE2972C2C312C81010D5F1F4F32
:10E9D00026961FAF0EAF2697000F111F000F111FB5
:10E9E0001CAF0BAFF801E752F14FC080D180E2803D
:10E9F000F380D5012D913D914D915C91C701B601F8
:10EA00000E94F4D30E941FCE66966CAF7DAF8EAF8E
:10EA10009FAF66970091ED0E1FA90117C1F110E09D
:10EA20000D5F1F4F000F111F000F111FF801E7525C
:10EA3000F14F2081318142815381C701B6010E948B
:10EA40008ED3882321F160912B0F70912C0F809130
:10EA50002D0F90912E0F0E9495D3A70196010E9431
:10EA6000F4D3F801EB5FF84F20813181428153816B
:10EA70000E94F4D30E941FCE60932B0F70932C0F33
:10EA800080932D0F90932E0F0FA90093ED0E809180
:10EA90001F0F9091200FA091210FB091220FAA96E5
:10EAA000CCACDDACEEACFFACAA97C81AD90AEA0A26
:10EAB000FB0A8091230F9091240FA091250FB09114
:10EAC000260FAE962CAD3DAD4EAD5FADAE97281B7B
:10EAD000390B4A0B5B0B2BA73CA74DA75EA7809178
:10EAE000270F9091280FA091290FB0912A0FE2963D
:10EAF0000CAD1DAD2EAD3FADE297081B190B2A0BD7
:10EB00003B0B0FA718AB29AB3AAB8091EA0683FF0A
:10EB10000EC066962CAD3DAD4EAD5FAD66972093B1
:10EB20002B0F30932C0F40932D0F50932E0F80916D
:10EB30002B0F90912C0FA0912D0FB0912E0F669658
:10EB40008CAC9DACAEACBFAC6697881A990AAA0A89
:10EB5000BB0A09F492C080917D0E90917E0E892BA4
:10EB600009F08EC080913507811141C06091440247
:10EB700070914502072E000C880B990B0E9495D3CB
:10EB80009B01AC016091800E7091810E8091820E8C
:10EB90009091830E0E948ED387FF29C066968CAD1C
:10EBA0009DADAEADBFAD669780932B0F90932C0FAC
:10EBB000A0932D0FB0932E0FEAE2FEE084918F0117
:10EBC0000F5F1F4F882321F00E94B63FF801F6CF58
:10EBD000E3ECF9E184918F010F5F1F4F882321F04F
:10EBE0000E94B63FF801F6CF812C912C54012401EC
:10EBF0003501B7FE07C0442455243201481859088E
:10EC00006A087B08EBADFCADE752F14F6081718182
:10EC1000828193810E94FECC9B01AC01A8ECB0E004
:10EC20000E94C3D764157505860597054CF5669651
:10EC30000CAD1DAD2EAD3FAD669700932B0F10931D
:10EC40002C0F20932D0F30932E0FEAE2FEE08491DB
:10EC50008F010F5F1F4F882321F00E94B63FF801FC
:10EC6000F6CFE4EAF9E184918F010F5F1F4F88230B
:10EC700021F00E94B63FF801F6CF812C912C54016F
:10EC8000D701C6018827B7FD83959927AA27BB27F7
:10EC9000182F2BA53CA54DA55EA557FD12608FA58D
:10ECA00098A9A9A9BAA9B7FD1460B7FC1860C50155
:10ECB000B4010E9495D3F101EE0FFF1FEE0FFF1F6D
:10ECC000EE58F84F20813181428153810E94F4D364
:10ECD0004B015C01F101EE0FFF1FEA5BFD4F60810C
:10ECE0007181072E000C880B990B0E9495D39B0114
:10ECF000AC01C501B4010E94F4D32AE037ED43E230
:10ED00005CE30E94F4D34B015C0120E030E0A901F8
:10ED10000E9412CE18164CF420E030E040E05FE391
:10ED2000C501B4010E9492CB08C0A501940160E026
:10ED300070E080E09FE30E9491CB0E94FECC24967D
:10ED40006CAF7DAF8EAF9FAF249780912F0F8F5FF9
:10ED50008F70A4968FAFA4978091300FA4960FADBB
:10ED6000A497801303C00E943E9EF6CFE0912F0F20
:10ED70002E2F30E03AA729A73FE4E39FF0011124AA
:10ED8000E455F84F108212A3D701C601F7FE07C061
:10ED900088279927DC018C199D09AE09BF09828358
:10EDA0009383A483B5838FE409A51AA5809FF001FE
:10EDB000819FF00D1124E455F84F8BA59CA5ADA5BE
:10EDC000BEA5B7FF07C0B095A095909581959F4FC0
:10EDD000AF4FBF4F86839783A087B1878FE409A584
:10EDE0001AA5809FF001819FF00D1124E455F84F82
:10EDF0008FA598A9A9A9BAA9B7FF07C0B095A095F2
:10EE0000909581959F4FAF4FBF4F82879387A4877F
:10EE1000B5878FE409A51AA5809FF001819FF00DA9
:10EE20001124E455F84F24962CAD3DAD4EAD5FADA9
:10EE3000249726873787408B518B42815381648189
:10EE400075810681178120853185041715072607EE
:10EE5000370714F48A019B018FE4A9A5BAA58A9FFC
:10EE6000F0018B9FF00D1124E455F84F82859385B6
:10EE7000A485B58580179107A207B30774F424967B
:10EE80008CAD9DADAEADBFAD249780179107A207A5
:10EE9000B30774F4D901C80111C024960CAD1DAD9F
:10EEA0002EAD3FAD2497081719072A073B0734F00A
:10EEB00024968CAD9DADAEADBFAD24972FE409A5D2
:10EEC0001AA5209FF001219FF00D1124E455F84F61
:10EED000828B938BA48BB58B0697A105B10510F49B
:10EEE0000C941E81DF01A95BBF4F80916E0790914A
:10EEF0006F0711969C938E93129680917007909154
:10EF000071078D939C931FA91183452B462B472B8B
:10EF100009F08D988FE409A51AA5809FF001819FC3
:10EF2000F00D1124E455F84F86819781A085B185B5
:10EF3000892B8A2B8B2B09F0A5988FE409A51AA59C
:10EF4000809FF001819FF00D1124E455F84F8285D8
:10EF50009385A485B585892B8A2B8B2B09F0759811
:10EF600024962CAD3DAD4EAD5FAD2497232B242BC5
:10EF7000252B81F18091A607882319F08150809379
:10EF8000A6078091A707882319F081508093A707CF
:10EF90000FA9002319F0013059F013C0179880E22F
:10EFA0008093A6078091A70781110BC0149A09C00E
:10EFB000149880E28093A7078091A607811101C071
:10EFC000179A20906A0730906B0710916C07009198
:10EFD0006D0708C02090660730906707109168079A
:10EFE000009169079101412F502F6BA97FAD2796A2
:10EFF0008FAD27972B969FAD2B970E948ED387FDC1
:10F0000002C00C941481C701B6010E9495D32091CF
:10F0100005073091060740910707509108070E94A5
:10F02000F4D32B013C01698B7A8B8B8B9C8B6BA56A
:10F030007CA58DA59EA50E9495D3209109073091AE
:10F040000A0740910B0750910C070E94F4D36BAB59
:10F050007CAB8DAB9EAB6D8B7E8B8F8B988F6FA5B2
:10F0600078A989A99AA90E9495D320910D0730917A
:10F070000E0740910F07509110070E94F4D36B01C7
:10F080007C01698F7A8F8B8F9C8FEBADFCADEB5F32
:10F09000F84F2081318142815381C501B4010E9422
:10F0A000F4D36D8F7E8F8F8F98A32FE449A55AA537
:10F0B000249FF001259FF00D1124E455F84F228183
:10F0C0003381448155812BA73CA74DA75EA72630ED
:10F0D000310541055105E4F486809780A084B18410
:10F0E00036E083169104A104B10494F482849384DD
:10F0F000A484B58446E084169104A104B10444F4C8
:10F10000DC01CB01BF7787A790ABA1ABB2AB34C01A
:10F11000A3019201C301B2010E94F4D32B013C016F
:10F120002BA93CA94DA95EA9CA01B9010E94F4D33B
:10F130009B01AC01C301B2010E9492CB4B015C0167
:10F14000A7019601C701B6010E94F4D39B01AC014F
:10F15000C501B4010E9492CB0E9460CE2FE4A9A504
:10F16000BAA52A9FF0012B9FF00D1124E455F84F0A
:10F1700067A770AB81AB92AB2FE4E9A5FAA52E9FF0
:10F18000C0012F9F900D11249C012455384F790107
:10F19000D9019F968D919D910D90BC91A02DA39624
:10F1A0008CAF9DAFAEAFBFAFA3979C01AD0160E048
:10F1B00070E080E89FE30E948CCC2A966CAF7DAF14
:10F1C0008EAF9FAF2A979B01AC01B101812F902F89
:10F1D0000E94F4D34B015C0180912F0F9091300F6E
:10F1E000891B8F706F968FAF6F97A5019401A396BF
:10F1F0006CAD7DAD8EAD9FADA3970E94F4D36296AA
:10F200006CAF7DAF8EAF9FAF6297F70163A374A31E
:10F2100085A396A302891389248935890FA718AB82
:10F2200029AB3AABC901B8010E9493D36BAF7CAF55
:10F230008DAF9EAFA50194010E94F4D30E9470CCC3
:10F240000E9405CD6A966CAF7DAF8EAF9FAF6A9777
:10F25000F70167AB70AF81AF92AF8E010F5E1F4FAA
:10F260002E961FAF0EAF2E97005111092C961FAF8F
:10F270000EAF2C976C961FAF0EAF6C9710E0212C41
:10F28000312C00E80BAB0FE30FAF2E96AEADBFAD48
:10F290002E976D917D918D919D912E96BFAFAEAFC2
:10F2A0002E97A50194010E94F4D36C96EEADFFADAC
:10F2B0006C9761937193819391936C96FFAFEEAFCE
:10F2C0006C97133011F4EFA901C0E0E06B017C01F1
:10F2D000E894F7F8E10F04E0E09FF0011124EE5A02
:10F2E000F84F4080518062807380A3019201C70172
:10F2F000B6010E9412CE1816B4F4A7019601C301FC
:10F30000B2010E948CCC7B01082FD92E9B01482F83
:10F31000592FB1018BA99FAD0E9412CE18161CF473
:10F3200017010BABDFAE1F5F143009F0AECF20E04A
:10F3300030E040E85FE3B1018BA99FAD0E948ED31E
:10F3400087FF4BC07E0111E1E10EF11C2C960EAD42
:10F350001FAD2C9791014BA95FADD8016D917D91A7
:10F360008D919C910E94F4D3F801619371938193E4
:10F3700091938F01EE15FF0569F78FE429A53AA552
:10F38000829F8001839F100D11240455184F910115
:10F390004BA95FAD62966CAD7DAD8EAD9FAD6297B2
:10F3A0000E94F4D3D80193966D937D938D939C9393
:10F3B00096976A966CAD7DAD8EAD9FAD6A970E94B3
:10F3C00093D391014BA95FAD0E94F4D30E9405CD68
:10F3D000F80167AB70AF81AF92AF2A962CAD3DAD0F
:10F3E0004EAD5FAD2A976BAD7CAD8DAD9EAD0E94ED
:10F3F000F4D36FAB78AF89AF9AAF0BA51CA52DA541
:10F400003EA5012B022B032B59F58FE409A51AA564
:10F41000809FF001819FF00D1124E455F84F868103
:10F420009781A085B185892B8A2B8B2BC9F4828586
:10F430009385A485B585892B8A2B8B2B89F4209104
:10F440004E0730914F0740915007509151076FA9D7
:10F4500078AD89AD9AAD0E94F4D30E9470CC41C2C0
:10F4600024962CAD3DAD4EAD5FAD2497232B242BC0
:10F47000252B49F060914A0770914B0780914C070A
:10F4800090914D0708C060914607709147078091A1
:10F490004807909149072FA938AD49AD5AAD0E9450
:10F4A000F4D30E9470CC0E9405CD6B017C01809149
:10F4B000A8079091A907A091AA07B091AB070FA543
:10F4C00018A929A93AA980179107A207B30708F438
:10F4D000EFC02BA53CA54DA55EA5232B242B252BEA
:10F4E00061F120917A0730917B0740917C07509120
:10F4F0007D072C153D054E055F05F8F46FA578A92D
:10F5000089A99AA90E9472D74B015C01A7019601B3
:10F510006BA57CA58DA59EA50E9472D78616970621
:10F52000A806B90650F4C501B4012BA53CA54DA50C
:10F530005EA50E9482D769017A018FE409A51AA508
:10F54000809FF001819FF00D1124E455F84F8680D3
:10F550009780A084B18481149104A104B10441F185
:10F5600020917E0730917F0740918007509181075D
:10F570002C153D054E055F05D8F46FA578A989A91E
:10F580009AA90E9472D72B013C01A7019601C501DF
:10F59000B4010E9472D7461657066806790640F4F1
:10F5A000C301B201A50194010E9482D769017A01C9
:10F5B0008FE409A51AA5809FF001819FF00D112409
:10F5C000E455F84F82849384A484B5848114910413
:10F5D000A104B10441F12091820730918307409149
:10F5E0008407509185072C153D054E055F05D8F41D
:10F5F0006FA578A989A99AA90E9472D72B013C010D
:10F60000A7019601C501B4010E9472D7461657069C
:10F610006806790640F4C301B201A50194010E9475
:10F6200082D769017A018FE409A51AA5809FF001AC
:10F63000819FF00D1124E455F84F86849784A088AB
:10F64000B18881149104A104B10409F44EC1269635
:10F65000EEADFFAD2697EE0FFF1FEE0FFF1FE65832
:10F66000F84F20813181428153812C153D054E0593
:10F670005F0508F03AC16FA578A989A99AA90E94E7
:10F6800072D72B013C01A7019601C501B4010E946C
:10F6900072D7461657066806790608F026C1C301D8
:10F6A000B201A50194010E9482D769017A011DC1AE
:10F6B0002BA53CA54DA55EA5232B242B252BB9F10D
:10F6C00060917A0770917B0780917C0790917D070C
:10F6D0006C157D058E059F0550F50E9493D32BADCB
:10F6E0003CAD4DAD5EAD0E94F4D34B015C016BA50A
:10F6F0007CA58DA59EA50E9495D32B013C01C70139
:10F70000B6010E9493D3A30192010E94F4D3A501F4
:10F7100094010E9412CE181654F4A3019201C5015F
:10F72000B4010E948CCC0E9405CD6B017C018FE45A
:10F7300009A51AA5809FF001819FF00D1124E455C1
:10F74000F84F4680578060847184411451046104ED
:10F750007104A9F160917E0770917F078091800705
:10F76000909181076C157D058E059F0540F50E94DF
:10F7700093D32BAD3CAD4DAD5EAD0E94F4D34B01A8
:10F780005C01C301B2010E9495D32B013C01C7016A
:10F79000B6010E9493D3A30192010E94F4D3A50164
:10F7A00094010E9412CE181654F4A3019201C501CF
:10F7B000B4010E948CCC0E9405CD6B017C018FE4CA
:10F7C00009A51AA5809FF001819FF00D1124E45531
:10F7D000F84F428453846484758441145104610455
:10F7E0007104A9F160918207709183078091840769
:10F7F000909185076C157D058E059F0540F50E944B
:10F8000093D32BAD3CAD4DAD5EAD0E94F4D34B0117
:10F810005C01C301B2010E9495D32B013C01C701D9
:10F82000B6010E9493D3A30192010E94F4D3A501D3
:10F8300094010E9412CE181654F4A3019201C5013E
:10F84000B4010E948CCC0E9405CD6B017C018FE439
:10F8500009A51AA5809FF001819FF00D1124E455A0
:10F86000F84F86849784A088B18881149104A104FC
:10F87000B104D9F12696EEADFFAD2697EE0FFF1F2E
:10F88000EE0FFF1FE658F84F6081718182819381EE
:10F890006C157D058E059F0540F50E9493D32BAD19
:10F8A0003CAD4DAD5EAD0E94F4D32B013C01C501D2
:10F8B000B4010E9495D34B015C01C701B6010E94BF
:10F8C00093D3A50194010E94F4D3A30192010E9455
:10F8D00012CE181654F4A5019401C301B2010E947E
:10F8E0008CCC0E9405CD6B017C018FE429A53AA543
:10F8F000829F8001839F100D11240455184FF80139
:10F90000ED5BFF4FC082D182E282F382C701B60174
:10F910000E9493D36B017C012FA938AD49AD5AAD3C
:10F920000E948CCC6E966CAF7DAF8EAF9FAF6E9702
:10F93000D801D3966D937D938D939C93D69720E0B9
:10F9400030E040E85BE4C701B6010E94F4D320E058
:10F9500034E244EF59E40E948CCC0E94FECCF801C2
:10F96000668F778F80A391A3F3A12196FFAF219794
:10F97000D8019496BC91BBA7F801F5A1FFABD801C3
:10F980009696BC91BFA706E317E0A6961FAF0EAFF1
:10F99000A6972E0111E1410E511C36E3232E37E0CC
:10F9A000332E2C966EAC7FAC2C9721960FAD219701
:10F9B0000BAF1BA51BABFFAF2596BFAF259710E084
:10F9C000D3018D909D90AD90BD903D01E894B7F826
:10F9D000F101C190D190E190F1901F01A701960132
:10F9E000C501B4010E9412CE181694F5112349F1F5
:10F9F00021962FAD21973BA54FA95FA5C701B60161
:10FA00000E94F4D36B017C012BAD3BA94FAD259631
:10FA10005FAD2597C501B4010E94F4D3A7019601FB
:10FA20000E9412CE18169CF4A5019401C701B601DC
:10FA30000E948CCC6BAF7BAB8FAF25969FAF259789
:10FA400006C0CBAEDBAAEFAE2596FFAE259711E040
:10FA50006414750409F0B4CF6F960FAD6F97023040
:10FA600008F47AC130900B0F20900C0F10910D0FFD
:10FA700000910E0F27E137EB41ED58E3632D722D16
:10FA8000812F902F0E9412CE18160CF065C121E034
:10FA90006F962FAF6F9721962FAD21973BA54FA95A
:10FAA0005FA5632D722D812F902F0E9412CE181604
:10FAB000B4F06F961FAE6F9721962FAD21973BA59F
:10FAC0004FA95FA5632D722D812F902F0E948CCCA2
:10FAD0006A966CAF7DAF8EAF9FAF6A9718C0232D2B
:10FAE000322D412F502F21966FAD21977BA58FA9E5
:10FAF0009FA50E948CCC6A966CAF7DAF8EAF9FAFF6
:10FB00006A9721963FAC21972BA41FA90FA54FE020
:10FB10005FE060965FAF4EAF609780E090E0A0E856
:10FB2000BFE32A968CAF9DAFAEAFBFAF2A972D969D
:10FB30001FAE2D976096AEADBFAD6097CD90DD90B6
:10FB4000ED90FD906096BFAFAEAF60972C96EEAD96
:10FB5000FFAD2C9781909190A190B1902C96FFAF22
:10FB6000EEAF2C976F96FFAD6F97FF2361F06A960B
:10FB70002CAD3DAD4EAD5FAD6A97C701B6010E9499
:10FB8000F4D36B017C012D962FAD2D972223C1F06C
:10FB90002A962CAD3DAD4EAD5FAD2A97C701B6019B
:10FBA0000E94F4D36B017C012A962CAD3DAD4EAD85
:10FBB0005FAD2A97C501B4010E94F4D34B015C01EB
:10FBC000A5019401C701B6010E9412CE20E030E0E9
:10FBD000A90118162CF5C501B4010E9412CE181601
:10FBE0004CF020E030E0A901C701B6010E948ED39D
:10FBF00087FF05C0A5019401C701B60124C02401F7
:10FC0000350177FA709477F87094A3019201C701D7
:10FC1000B6010E9412CE18165CF52601370128C0E5
:10FC2000C501B4010E948ED387FD09C020E030E0F9
:10FC3000A901C701B6010E9412CE18164CF4A70103
:10FC40009601C501B4010E9491CB2B013C0110C06B
:10FC50002601370177FA709477F87094A501940122
:10FC6000C301B2010E9412CE181614F0240135010E
:10FC7000A696AEADBFADA697CD90DD90ED90FD9070
:10FC8000A696BFAFAEAFA697A7019601C301B2017A
:10FC90000E9412CE1816ECF4A3019201C701B6011E
:10FCA0000E948CCC9B01AC012A966CAD7DAD8EADD3
:10FCB0009FAD2A970E94F4D32A966CAF7DAF8EAF8A
:10FCC0009FAF2A972D96BFAD2D97BF5F2D96BFAFE3
:10FCD0002D976096EEADFFAD6097EF51FF4009F0B4
:10FCE00029CF2D963FAD2D97332381F02A962CAD49
:10FCF0003DAD4EAD5FAD2A97632D722D812F902FB4
:10FD00000E94F4D3362E272E182F092F24EA30E72D
:10FD10004DE75FE3632D722D812F902F0E94F4D366
:10FD20006B017C019B01AC016091A2077091A3075C
:10FD30008091A4079091A5070E9412CE1816FCF49A
:10FD4000A70196016BAD7BA98FAD25969FAD259739
:10FD50000E9412CE18169CF48FE409A51AA5809F64
:10FD6000F001819FF00D1124E455F84F80818460EB
:10FD700080833BAC2BA81FAD25960FAD25978FE454
:10FD800029A53AA5829FF001839FF00D1124E45527
:10FD9000F84F832D922DA12FB02F83A794A7A5A74D
:10FDA000B6A76E966CAD7DAD8EAD9FAD6E9790583B
:10FDB0009B01AC010E9492CBA3962CAD3DAD4EAD04
:10FDC0005FADA3970E94F4D39B01AC016BE077ED8C
:10FDD00083E29BE30E9491CB0E9460CE6B017C0189
:10FDE0009B01AC01632D722D812F902F0E948ED329
:10FDF00087FD04C03C2C2D2C1E2D0F2D8FE449A512
:10FE00005AA5849FF001859FF00D1124E455F84F09
:10FE1000832D922DA12FB02F87A390A7A1A7B2A7C2
:10FE2000B0809601A70121966FAD21977BA58FA980
:10FE30009FA50E948ED3181614F481E001C083E0C0
:10FE40009FE4A9A5BAA59A9F90019B9F300D11240C
:10FE5000F901E455F84F7F01B82AB08280E1FE0134
:10FE60003196AFE0BFE001900D928A95E1F72196BF
:10FE70008FAD21979BA5AFA9BFA580930B0F909342
:10FE80000C0FA0930D0FB0930E0F8BAD9BA9AFADD0
:10FE90002596BFAD25978093A2079093A307A093C3
:10FEA000A407B093A50721962FAD21973BA54FA995
:10FEB0005FA5BC01CD010E948CCC6DA37EA38FA356
:10FEC00098A721962FAD21973BA54FA95FA5632D3C
:10FED000722D812F902F0E948CCC69A37AA38BA3C3
:10FEE0009CA3AE014B5D5F4FBE016F5D7F4FC701AD
:10FEF0000E94B092A4960FADA49700932F0FAA96DC
:10FF00002CAD3DAD4EAD5FADAA9720931F0F309342
:10FF1000200F4093210F5093220FAE968CAD9DADD4
:10FF2000AEADBFADAE978093230F9093240FA093F7
:10FF3000250FB093260FE2960CAD1DAD2EAD3FAD53
:10FF4000E2970093270F1093280F2093290F3093E7
:10FF50002A0F66962CAD3DAD4EAD5FAD66972093F2
:10FF60002B0F30932C0F40932D0F50932E0F809119
:10FF70002F0F9091300F891B8F70843048F41091AF
:10FF8000300FF12C00E080E090E02FE4E22E9EC0E4
:10FF90004090300F80912F0F83508F70F82EA12C3E
:10FFA000B12C00E010E09FE4592EF41441F3011548
:10FFB000110521F0D8018C9182FDE1CF8FEF8F0DDB
:10FFC0008F70F82E589EC0011124FC01E455F84FA3
:10FFD000FAA7E9A70115110509F474C0A114B10429
:10FFE00009F470C0D8019B967C909B979C96CC900E
:10FFF0009C979D96DC909D979E96EC909E97272DC2
:020000021000EC
:100000003C2D4D2D5E2D97966D917D918D919C91FE
:100010009A970E948ED3882309F454C0F801608017
:1000200061FC42C0D50197968D909D90AD90BC909B
:100030009A97A5019401672D7C2D8D2D9E2D0E94F0
:100040008ED318168CF5A5019401C501B4010E9448
:10005000F4D34B015C01F80183A994A9A5A9B6A921
:10006000BC01CD0190589B01AC010E9492CBD801FC
:100070009F962D913D914D915C91D2970E94F4D322
:100080009B01AC01C501B4010E9491CB0E9460CEDE
:100090001B015C019B01AC01672D7C2D8D2D9E2DDC
:1000A0000E948ED387FF04C0272C3C2CAD2CBE2C85
:1000B000C101D501F80187A390A7A1A7B2A7862DFA
:1000C00081608083580109A51AA56FCF20912F0F59
:1000D000121791F0E19E90011124A9014455584F47
:1000E0006A016F2D702F0E943A921F5F1F708F2D33
:1000F000902FFC2C0D2DEACF6F2D702F0E943A927D
:10010000F090300F00E010E08FE4E82E4F2D0F2C20
:10011000000C550B80912F0F90E04817590709F4F8
:100120004DC0E49EC001E59E900D1124DC01A45554
:10013000B84F6D0101151105D9F1F801808180FDDD
:1001400003C08C9180FF34C0D80193968D909D9010
:10015000AD90BC909697E49EF001E59EF00D1124C1
:10016000E455F84FA501940167A170A581A592A55A
:100170000E948CCC69A37AA38BA39CA3A5019401B4
:10018000F80167A170A581A592A50E948CCC6DA3F2
:100190007EA38FA398A7AE014F5D5F4FBE016B5D3D
:1001A0007F4FC8010E94B092D8018C918E7F8C93B2
:1001B00081E08F0D8F70F82E8601A8CF01151105F3
:1001C00069F1F801C3A0D4A0E5A0F6A0A7019601AB
:1001D0006DEC7CEC8CE49DE30E948CCC69A37AA34B
:1001E0008BA39CA3A7019601D80197966D917D9151
:1001F0008D919C919A970E948CCC6DA37EA38FA326
:1002000098A7AE014F5D5F4FBE016B5D7F4FC80188
:100210000E94B092F80180818E7F808380916F0070
:10022000826080936F000AC02BA83FAC27961FAD59
:1002300027972B960FAD2B970C940378CF58DF4F51
:100240000FB6F894DEBF0FBECDBFDF91CF911F91E7
:100250000F91FF90EF90DF90CF90BF90AF909F9065
:100260008F907F906F905F904F903F902F90089568
:100270004F925F926F927F928F929F92AF92BF92B6
:10028000CF92DF92EF92FF92CF93DF9320913407CA
:10029000222309F45DC0EC01C0903007D0903107F3
:1002A000E0903207F090330720E030E0A901C70169
:1002B000B6010E948ED38823A1F02091E3063091ED
:1002C000E4064091E5065091E606688579858A85C1
:1002D0009B850E9491CBA70196010E9412CE87FFB9
:1002E00037C0CE010E9460A54B015C01C090300771
:1002F000D0903107E0903207F09033072091E30669
:100300003091E4064091E5065091E60668857985CE
:100310008A859B850E9491CBA50194010E9491CB77
:100320009B01AC01C701B6010E94F4D32B013C0133
:10033000A5019401C701B6010E9491CB9B01AC01BC
:10034000C301B2010E948CCC688779878A879B871A
:10035000DF91CF91FF90EF90DF90CF90BF90AF9063
:100360009F908F907F906F905F904F900895EF9245
:10037000FF921F93CF93DF931F92CDB7DEB7182F55
:10038000E8E5FBE184917F012FEFE21AF20A88236E
:1003900031F099830E94B63FF7019981F3CFE12FA5
:1003A000F92F84917F019FEFE91AF90A882321F040
:1003B0000E94B63FF701F5CFEFE3FBE184917F01A7
:1003C0002FEFE21AF20A882321F00E94B63FF701CC
:1003D000F5CF0F90DF91CF911F91FF90EF9008958F
:1003E000CF92DF92EF92FF92CF93DF93E0E3FBE1B6
:1003F0008491EF012196882321F00E94B63FFE01EF
:10040000F7CFE9E2FBE18491EF012196882321F007
:100410000E94B63FFE01F7CFE1E2FBE18491EF01DC
:100420002196882321F00E94B63FFE01F7CFEEE02F
:10043000FBE18491EF012196882321F00E94B63FD1
:10044000FE01F7CF60E070E08EEF9AE10E949F71AD
:1004500063EE7FEF8AEF9AE10E949F714091B406AC
:100460005091B5066091B6067091B70686EF9AE195
:100470000E948271EDEEFAE18491EF0121968823CA
:1004800021F00E94B63FFE01F7CFE6EEFAE184913B
:10049000EF012196882321F00E94B63FFE01F7CF9D
:1004A000C090B406D090B506E090B606F090B706BE
:1004B00020E030E0A901C701B6010E948ED387FF7A
:1004C0000EC0EDEDFAE18491EF012196811103C098
:1004D000EDEBFAE123C00E94B63FFE01F4CF20E02D
:1004E00030E0A901C701B6010E9412CE18165CF4D3
:1004F000E7ECFAE18491EF012196882349F30E9409
:10050000B63FFE01F7CFE0EDFAE18491EF012196CD
:100510008823F1F20E94B63FFE01F7CF8491EF01EC
:100520002196882321F00E94B63FFE01F7CFE9EA29
:10053000FAE18491EF012196882321F00E94B63FD1
:10054000FE01F7CFE0EAFAE18491EF0121968823DA
:1005500021F00E94B63FFE01F7CF80913407882337
:10056000B1F0E7E8FAE18491EF012196882321F0C8
:100570000E94B63FFE01F7CF8FEE9EE00E9460A57D
:10058000AB01BC0186E79AE10E9482710BC0E3E9EE
:10059000FAE18491EF012196882321F00E94B63F71
:1005A000FE01F7CF8AE0DF91CF91FF90EF90DF90CF
:1005B000CF900C94B63F4F925F926F927F928F9242
:1005C0009F92AF92BF92CF92DF92EF92FF921F93D2
:1005D000CF93DF93CDB7DEB76C970FB6F894DEBF3D
:1005E0000FBECDBF7C01FC0180819181A281B381CE
:1005F000898B9A8BAB8BBC8B84819581A681B781CB
:100600008D879E87AF87B88B662309F44CC0AE01F7
:10061000435F5F4FBE016F5E7F4FCE0101960E9428
:10062000F53B49805A806B807C808D809E80AF80B6
:10063000B88423E030E048EC53ECC301B2010E94DF
:1006400012CE87FD1FC023E030E048EC53E4C30125
:10065000B2010E948ED31816ACF027E137EB41EDC2
:1006600058EBC501B4010E9412CE87FD0BC023E0F8
:1006700030E048EC53E4C501B4010E948ED3181653
:100680000CF0A2C09091730D81E089278093730DC7
:10069000AE01435F5F4FBE016F5E7F4FCE0101969B
:1006A0000E94F53B5BC020E030E0A9016091740D31
:1006B0007091750D8091760D9091770D0E948ED37B
:1006C000882309F489C0AE01435F5F4FBE016F5EAE
:1006D0007F4FCE0101960E94A43C49805A806B80D6
:1006E0007C808D809E80AF80B88423E030E048EC31
:1006F00053ECC301B2010E9412CE87FD1FC023E05C
:1007000030E048EC53E4C301B2010E948ED31816C6
:10071000ACF027E137EB41ED58EBC501B4010E9485
:1007200012CE87FD0BC023E030E048EC53E4C50156
:10073000B4010E948ED318160CF046C09091730D30
:1007400081E089278093730DAE01435F5F4FBE0147
:100750006F5E7F4FCE0101960E94A43C49805A8073
:100760006B807C808D809E80AF80B88423E030E0F9
:1007700048EC53ECC301B2010E9412CE87FD1EC0AB
:1007800023E030E048EC53E4C301B2010E948ED371
:100790001816A4F027E137EB41ED58EBC501B40181
:1007A0000E9412CE87FD0AC023E030E048EC53E4FB
:1007B000C501B4010E948ED3181634F49091730DC4
:1007C00081E089278093730D498A5A8A6B8A7C8AD3
:1007D0008D869E86AF86B88A89899A89AB89BC89BD
:1007E0008D8B9E8BAF8BB88F8091DB069091DC0652
:1007F000A091DD06B091DE06898F9A8FAB8FBC8FFA
:100800008D849E84AF84B8884090DF065090E006C7
:100810006090E1067090E2062091E3063091E406D4
:100820004091E5065091E606D70118966D917D91AD
:100830008D919C911B970E9491CB6B017C0127E1CC
:1008400037EB41ED58EB0E9412CE87FD52C027E0F6
:1008500030E042E553E4C701B6010E948ED318167A
:100860000CF447C020E030E0A901C301B2010E94AE
:1008700092CB9B01AC01C501B4010E9491CB6B01ED
:100880007C0120E030E0A901698D7A8D8B8D9C8DF3
:100890000E9492CB9B01AC016D897E898F89988DD6
:1008A0000E9491CB9B01AC010E94F4D34B015C01EF
:1008B000A7019601C701B6010E94F4D39B01AC01C8
:1008C000C501B4010E9492CB6B017C0120E034E2AF
:1008D00044E756E40E9412CE87FD0BC011E020E0F1
:1008E00030E44CE158E4C701B6010E948ED31816DB
:1008F0000CF410E0812F6C960FB6F894DEBF0FBE9B
:10090000CDBFDF91CF911F91FF90EF90DF90CF90FF
:10091000BF90AF909F908F907F906F905F904F901F
:100920000895BF92CF92DF92EF92FF920F931F93A1
:10093000CF93DF938BECE82E86E0F82E0FEE1EE0CF
:1009400094EBC92E93E0D92EC9E8D2E0BC2E84E006
:10095000B80E89910E94563E8823D9F00E94233E0A
:10096000F6012081211104C02091B803222331F027
:10097000F801208131814281538103C020E030E0C1
:10098000A9010E9492CBF7016083718382839383D4
:100990000AC0F80180819181A281B381F70180832F
:1009A0009183A283B383F4E0EF0EF11C0C5F1F4F21
:1009B0008FEFC81AD80ABC12CCCF80917D0E9091CF
:1009C0007E0E039729F483E40E94563E81111FC0D6
:1009D00086E40E94853E882329F10E94233E20E080
:1009E00030E0A9010E9412CE1816E4F40E94233EC2
:1009F00020E030E040E752E40E948CCC6093270274
:100A0000709328028093290290932A020BC00E94BF
:100A1000233E6093D7067093D8068093D9069093AF
:100A2000DA06D6CFDF91CF911F910F91FF90EF9013
:100A3000DF90CF90BF9008952F923F924F925F9298
:100A40006F927F928F929F92AF92BF92CF92DF92DE
:100A5000EF92FF920F931F93CF93DF93CDB7DEB743
:100A6000C854D1090FB6F894DEBF0FBECDBF909128
:100A70006902992309F482C3F82E0E94918460E0F0
:100A80008BEC96E00E94DB82182F811110C080E76A
:100A900093E09A8B898B84E690E09A838983BE01E8
:100AA0006F5E7F4FCE0101960E9426C467C3FF2070
:100AB00031F060E070E0CB010E94A5445FC30E946A
:100AC000AB3F8091EA0683FD9AC080917D0E9091A4
:100AD0007E0E892B09F093C0C090D706D090D8061F
:100AE000E090D906F090DA062091FB0E3091FC0ED2
:100AF0004091FD0E5091FE0EC701B6010E948ED3AB
:100B0000882309F47CC08091350781113AC0609137
:100B1000440270914502072E000C880B990B0E942D
:100B200095D39B01AC016091800E7091810E8091F4
:100B3000820E9091830E0E948ED387FF22C0C092B6
:100B4000FB0ED092FC0EE092FD0EF092FE0EEAE259
:100B5000FEE084917F012FEFE21AF20A882321F050
:100B60000E94B63FF701F5CFEBE5FAE184917F01F2
:100B70003FEFE31AF30A882321F00E94B63FF70102
:100B8000F5CFC090D706D090D806E090D906F09067
:100B9000DA062091FB0E3091FC0E4091FD0E509133
:100BA000FE0EC701B6010E9491CB20E030E048E480
:100BB00053E40E9412CE181614F5C092FB0ED09288
:100BC000FC0EE092FD0EF092FE0EEAE2FEE0849151
:100BD0007F019FEFE91AF90A882321F00E94B63FAE
:100BE000F701F5CFECE3FAE184917F012FEFE21AF0
:100BF000F20A882321F00E94B63FF701F5CF6091F9
:100C0000180270911902072E000C880B990B0E9494
:100C100095D32091270230912802409129025091CA
:100C20002A020E94F4D32AE037ED43E25CE30E94FB
:100C3000F4D34B015C01C090CB06D090CC06E09081
:100C4000CD06F090CE062091EF0E3091F00E40913F
:100C5000F10E5091F20EC701B6010E948ED38111A0
:100C600039C04090CF065090D0066090D106709069
:100C7000D2062091F30E3091F40E4091F50E509172
:100C8000F60EC301B2010E948ED3811123C01091D0
:100C9000EE0EC982DA82EB82FC824D825E826F8226
:100CA00078868091D3069091D406A091D506B09114
:100CB000D60689879A87AB87BC87CE0101960E94AA
:100CC000E43E40E050E0BA01CE0101960E94C5A08A
:100CD000C12E43C22091DF063091E0064091E1062B
:100CE0005091E2066091CF067091D0068091D106B6
:100CF0009091D2060E9491CB2B013C012091DB0602
:100D00003091DC064091DD065091DE06C701B60148
:100D10000E9491CBA30192010E94596E882309F48D
:100D200029C280917D0E90917E0E039709F045C0F7
:100D300040E050E0BA018BEC96E00E94C5A0209103
:100D4000030F3091040F4091050F5091060F6091F1
:100D5000FF0E7091000F8091010F9091020F0E9481
:100D600092CB6B017C0180E090E00E9491C22B014C
:100D70003C0181E090E00E9491C29B01AC01C30163
:100D8000B2010E9492CB9B01AC01C701B6010E9447
:100D900091CB9B01AC016091D7067091D8068091F0
:100DA000D9069091DA060E9491CB6093D706709392
:100DB000D8068093D9069093DA062091EF0E3091F1
:100DC000F00E4091F10E5091F20E6091CB067091B1
:100DD000CC068091CD069091CE060E9491CB69AF52
:100DE0007AAF8BAF9CAF2091F30E3091F40E40910F
:100DF000F50E5091F60E6091CF067091D00680915D
:100E0000D1069091D2060E9491CB21966CAF7DAF16
:100E10008EAF9FAF21972091F70E3091F80E409141
:100E2000F90E5091FA0E6091D3067091D40680911C
:100E3000D5069091D6060E9491CB2B013C012091C2
:100E4000FB0E3091FC0E4091FD0E5091FE0E609114
:100E5000D7067091D8068091D9069091DA060E9443
:100E600091CB25966CAF7DAF8EAF9FAF259729AD07
:100E70003AAD4BAD5CADCA01B9010E94F4D36B0130
:100E80007C0121962CAD3DAD4EAD5FAD2197CA01E1
:100E9000B9010E94F4D39B01AC01C701B6010E94C5
:100EA00092CB6B017C01A3019201C301B2010E94AC
:100EB000F4D39B01AC01C701B6010E9492CB0E9402
:100EC00060CE6B017C012DEB37E346E855E30E94D1
:100ED0008ED387FF08C02596CCACDDACEEACFFAC62
:100EE0002597E894F7F82DEB37E346E855E3C7017B
:100EF000B6010E948ED387FD3DC1A5019401C701B3
:100F0000B6010E948CCC20E030E048EC52E40E9414
:100F1000F4D30E9405CD29966CAF7DAF8EAF9FAF05
:100F2000299727962EAC3FAC279720E030E040E889
:100F300050E4C701B6010E94F4D36B017C01B101FA
:100F400080E090E00E9493D3A70196010E9412CE08
:100F500018162CF4C701B6010E9405CD1B012114FF
:100F6000310419F422242394312CB10180E090E063
:100F70000E9493D39B01AC0160E070E080E89FE3A6
:100F80000E948CCC6B017C019B01AC0169AD7AADF8
:100F90008BAD9CAD0E94F4D3698B7A8B8B8B9C8B31
:100FA000A701960121966CAD7DAD8EAD9FAD2197C9
:100FB0000E94F4D36D8B7E8B8F8B988FA701960147
:100FC000C301B2010E94F4D3698F7A8F8B8F9C8FFB
:100FD000A701960125966CAD7DAD8EAD9FAD259791
:100FE0000E94F4D36D8F7E8F8F8F98A380E1EFEEF8
:100FF000FEE0DE01119601900D928A95E1F73E0127
:10100000F1E16F0E711CF1E02F1A310809F474C080
:1010100063019E012F5F3F4F7901F60121913191CC
:10102000419151916F01F7016081718182819381BA
:101030000E9492CBF70161937193819391937F0109
:10104000E615F70551F740E050E0BA01CE010196F0
:101050000E94C5A0809134078823C1F0CE0101967B
:101060000E9460A59B01AC016091070F7091080F71
:101070008091090F90910A0F0E9492CB6093070F05
:101080007093080F8093090F90930A0FC090EE0E93
:101090008091070F9091080FA091090FB0910A0F4E
:1010A0004091030F5091040F6091050F7091060F4E
:1010B0000091FF0E1091000F2091010F3091020F4F
:1010C0000DA71EA72FA738AB49AB5AAB6BAB7CABB8
:1010D0008DAB9EABAFABB8AF850174019E01235FB2
:1010E0003F4FAE014B5C5F4FBE016F5C7F4FCE0147
:1010F0008D960E94777487CFC090EE0E8091CB06BC
:101100009091CC06A091CD06B091CE0689A39AA36A
:10111000ABA3BCA38091CF069091D006A091D1063D
:10112000B091D2068DA39EA3AFA3B8A78091D3069A
:101130009091D406A091D506B091D60689A79AA71A
:10114000ABA7BCA7CE0181960E94E43E40E050E0F0
:10115000BA01CE0181960E94C5A08501740127EDD8
:1011600036E047E05FE063E07FE08FEF9EE00E94C3
:10117000777402C0111102C00E94A83DC85BDF4F06
:101180000FB6F894DEBF0FBECDBFDF91CF911F9198
:101190000F91FF90EF90DF90CF90BF90AF909F9016
:1011A0008F907F906F905F904F903F902F90089519
:1011B0002F923F924F925F926F927F928F929F9267
:1011C000AF92BF92CF92DF92EF92FF920F931F9355
:1011D000CF93DF93CDB7DEB72C970FB6F894DEBF71
:1011E0000FBECDBF5C011A012B01702E812E922EF5
:1011F000D32E8091EA0685FF1CC0F501E757FD4F0D
:10120000608188E29AE10E94B871B201A10185E291
:101210009AE10E948271402F512F692D7D2D82E22B
:101220009AE10E94827189E20E94B63F8AE00E94A0
:10123000B63F8501000F111F000F111FC80181511A
:10124000914F7C01FC0110821182128213820E9454
:101250000848F701208231824282538240E050E008
:10126000BA018FEE9EE00E94C5A0C090EE0E20E075
:1012700030E0A901672D782D892D9D2D0E948ED3F8
:10128000811108C0F801E959F14FE590F5900591F9
:10129000149106C0872D982DA92DBD2D7C018D019F
:1012A0008091070F9091080FA091090FB0910A0F3C
:1012B0004091030F5091040F6091050F7091060F3C
:1012C0004090FF0E5090000F6090010F7090020F41
:1012D00049825A826B827C824D835E836F837887DA
:1012E00089879A87AB87BC872BEF3EE0AE01475FCB
:1012F0005F4FBE016B5F7F4FCE0101960E947774F6
:101300000E94AFC21092CA068091EA0685FF0EC005
:10131000F501E757FD4F60818EE09AE10E94B871B8
:1013200089E20E94B63F8AE00E94B63F2C960FB633
:10133000F894DEBF0FBECDBFDF91CF911F910F910B
:10134000FF90EF90DF90CF90BF90AF909F908F90E5
:101350007F906F905F904F903F902F900895CF9225
:10136000DF92EF92FF926091F0067091F106072EE6
:10137000000C880B990B0E9495D36B017C012DEB1F
:1013800037E346E855EB0E9412CE87FD0AC02DEBED
:1013900037E346E855E3C701B6010E948ED318161D
:1013A0004CF4A701960160E070E080E89FE30E94A2
:1013B0008CCC03C060E070E0CB0160935B0D709358
:1013C0005C0D80935D0D90935E0D6091F2067091BF
:1013D000F306072E000C880B990B0E9495D36B0126
:1013E0007C012DEB37E346E855EB0E9412CE87FDDA
:1013F0000AC02DEB37E346E855E3C701B6010E946A
:101400008ED318164CF4A701960160E070E080E8D6
:101410009FE30E948CCC03C060E070E0CB0160933E
:101420005F0D7093600D8093610D9093620DFF903E
:10143000EF90DF90CF900895CF92DF92EF92FF92DE
:101440000F931F93CF93DF936C018B017A01EC0113
:10145000CB55D34F888187FF04C0FB0111821082D6
:1014600024C08CE08C9D90018D9D300D11248881CD
:10147000A901480F511D87FD5A958091790F90E081
:101480004817590794F48881A901480F511D87FD19
:101490005A95CA01FA01EE0FFF1F8E0F9F1FFC0124
:1014A000EF5CF04F808186FD19C088818F5F888353
:1014B0008CE08C9D90018D9D300D11248881A901B7
:1014C000480F511D87FD5A958091790F90E048177C
:1014D0005907BCF488818C3044F113C08881280FEF
:1014E000311D87FD3A95F901EE0FFF1F2E0F3F1FAB
:1014F000F901EF5CF04F808160E08F730E9444AA95
:10150000D4CFF80180819181049680349C4918F4ED
:1015100080E49CE904C0F801808191810496F70180
:10152000918380838FEF888345C0F801408151818A
:101530008881B901680F711D87FD7A95CB01FB0188
:10154000EE0FFF1F8E0F9F1FFC01EF5CF04F81819C
:101550009281840F951FF701918380838881A9016F
:10156000480F511D87FD5A95CA01FA01EE0FFF1F62
:101570008E0F9F1FFC01EF5CF04F808186FF1AC029
:101580008881280F311D87FD3A95F901EE0FFF1F65
:101590002E0F3F1FF901EF5CF04F808161E08F73E8
:1015A000DF91CF911F910F91FF90EF90DF90CF903F
:1015B0000C9444AADF91CF911F910F91FF90EF906F
:1015C000DF90CF9008958091A00C80FF03C08B988E
:1015D0008FEF02C08B9A81E0809356028091A00C1D
:1015E0009FB781FF09C0F8948091020181608093C8
:1015F00002019FBF8FEF08C0F894809102018E7F97
:10160000809302019FBF81E0809357028091A00CDC
:1016100082FF03C02D9A8FEF02C02D9881E0809346
:1016200058028091A00CE091A10CF091A20C83FFD4
:1016300008C08181811102C0159801C0129A8FEFF4
:1016400007C08181811102C0159A01C0129881E002
:1016500080935902089590912F0F8091300F981721
:1016600031F08091300F8F5F8F708093300F08952D
:101670001F920F920FB60F9211240BB60F92BF92CA
:10168000CF92DF92EF92FF920F931F932F933F938E
:101690004F935F936F937F938F939F93AF93BF937A
:1016A000EF93FF93CF93DF9300D01F92CDB7DEB7B8
:1016B00080916E008B7F80936E0080916F008D7F94
:1016C00080936F0078948091A30C9091A40C009764
:1016D00071F001979093A40C8093A30C1092A20C2C
:1016E0001092A10C0E942B8B88EC90E091C1C090CD
:1016F000A10CD090A20CC114D10409F08EC190911C
:101700002F0F8091300F981761F09091300F0FE4F8
:10171000909FF0011124E455F84F80818860808308
:101720006F01D092A20CC092A10CC114D10409F493
:101730006DC1D60192965C9192978091A00C119602
:101740004C9158130AC0242F30E080915A02082E81
:10175000000C990B2817390731F05093A00C4093D7
:101760005A020E94E38A1092C10C1092C20C10928D
:10177000C30C1092C40CF60187A990AD8134FCE92A
:101780009F0728F481320EE4900748F002C080E4FD
:101790009CE9969587959695879524E007C08131B9
:1017A00017E2910730F09695879522E02093C00CC0
:1017B00008C021E02093C00C8032910510F480E233
:1017C00090E08C0100521109011528E01207D8F0B1
:1017D000E12FFF27EE0FFF1FEE0FFF1FCF01805AF3
:1017E000904EFC01329645915491AA27059F900195
:1017F000049F210D3A1F06942A1F3A1F1124FC0151
:10180000859194911CC09801369527952C7F205A7C
:10181000344EF90185919491F90132966591749154
:10182000A80147705527649F9001659F300D749FF4
:10183000300D112443E0369527954A95E1F7821B38
:10184000930B8436910588F489E6E82E83E0F82E20
:10185000D7018D917D01882319F00E94B63FF8CF02
:10186000C8010E94D8C384E690E09093BF0C809397
:10187000BE0C8091C00C8093BD0CF60183AD94AD7D
:101880009093BC0C8093BB0C8134FCE99F0728F437
:1018900081320EE4900748F002C080E49CE99695FE
:1018A00087959695879524E007C0813117E29107C7
:1018B00030F09695879522E02093C00C08C021E077
:1018C0002093C00C8032910510F480E290E08C01EE
:1018D00000521109011528E01207D8F0E12FFF2767
:1018E000EE0FFF1FEE0FFF1FCF01805A904EFC013D
:1018F000329645915491AA27059F9001049F210D8E
:101900003A1F06942A1F3A1F1124FC0185919491D5
:101910001CC09801369527952C7F205A344EF9012A
:1019200085919491F901329665917491A80147705F
:101930005527649F9001659F300D749F300D1124D1
:1019400073E0369527957A95E1F7821B930B8436E1
:10195000910588F459E6E52E53E0F52ED7018D91D7
:101960007D01882319F00E94B63FF8CFC8010E947C
:10197000D8C384E690E0AC0160E070E04093B70C1F
:101980005093B80C6093B90C7093BA0C9093890083
:1019900080938800F60182899389A489B589B695D8
:1019A000A79597958795B095A095909581959F4F10
:1019B000AF4FBF4F8093B30C9093B40CA093B50C72
:1019C000B093B60C8093AF0C9093B00CA093B10C75
:1019D000B093B20C8093AB0C9093AC0CA093AD0C75
:1019E000B093AE0C8093A70C9093A80CA093A90C75
:1019F000B093AA0C10929C0C10929D0C10929E0C0D
:101A000010929F0C82E08093760E07C080ED97E0E5
:101A10009093890080938800DBC38091760E8823A1
:101A200041F08091E706811106C480910007811181
:101A300002C42091C00C222309F4B9C1E091A10C89
:101A4000F091A20C4091A70C5091A80C6091A90CA8
:101A50007091AA0C82819381A481B581840F951F16
:101A6000A61FB71F8093A70C9093A80CA093A90C56
:101A7000B093AA0C181619061A061B060CF48C9AB9
:101A8000E091A10CF091A20C4091AB0C5091AC0CE8
:101A90006091AD0C7091AE0C86819781A085B18567
:101AA000840F951FA61FB71F8093AB0C9093AC0CAF
:101AB000A093AD0CB093AE0C181619061A061B06AF
:101AC0000CF4739AE091A10CF091A20C4091AF0C30
:101AD0005091B00C6091B10C7091B20C82859385DD
:101AE000A485B585840F951FA61FB71F8093AF0CE3
:101AF0009093B00CA093B10CB093B20C18161906C9
:101B00001A061B0644F49FB7F89480910201826084
:101B1000809302019FBFE091A10CF091A20C409133
:101B2000B30C5091B40C6091B50C7091B60C8685D5
:101B30009785A089B189840F951FA61FB71F809331
:101B4000B30C9093B40CA093B50CB093B60C1816CC
:101B500019061A061B0634F48181811102C0169AF7
:101B600001C0139A8091A70C9091A80CA091A90C88
:101B7000B091AA0C181619061A061B0684F5E091F6
:101B8000A10CF091A20C4289538964897589841B48
:101B9000950BA60BB70B8093A70C9093A80CA09362
:101BA000A90CB093AA0C809156024091C90E509195
:101BB000CA0E6091CB0E7091CC0E082E000C990BC2
:101BC000AA0BBB0B840F951FA61FB71F8093C90ECE
:101BD0009093CA0EA093CB0EB093CC0E8C988091AC
:101BE000AB0C9091AC0CA091AD0CB091AE0C181652
:101BF00019061A061B0684F5E091A10CF091A20CBF
:101C00004289538964897589841B950BA60BB70B90
