:10F800000C943E7C0C945B7C0C945B7C0C945B7C39
:10F810000C945B7C0C945B7C0C945B7C0C945B7C0C
:10F820000C945B7C0C945B7C0C945B7C0C945B7CFC
:10F830000C945B7C0C945B7C0C945B7C0C945B7CEC
:10F840000C945B7C0C945B7C0C945B7C0C945B7CDC
:10F850000C945B7C0C945B7C0C945B7C0C945B7CCC
:10F860000C945B7C0C945B7C0C945B7C0C945B7CBC
:10F870000C945B7C0C945B7C0C945B7C11241FBE11
:10F88000CFEFD0E1DEBFCDBF11E0A0E0B1E0EAEA0A
:10F89000FFEF02C005900D92A230B107D9F712E038
:10F8A000A2E0B1E001C01D92AD30B107E1F70E94C6
:10F8B000747D0C94D37F0C94007C90910201913064
:10F8C00019F0923041F008959091C00095FFFCCF5F
:10F8D0008093C60008959091C80095FFFCCF809357
:10F8E000CE0008951F93982F95959595959595958C
:10F8F000905D182F1F701A304CF4105D892F0E94F4
:10F900005D7C812F0E945D7C1F910895195A892F7B
:10F910000E945D7C812F0E945D7C1F910895EF9273
:10F92000FF920F931F9380910201813069F1823021
:10F9300031F080E01F910F91FF90EF900895EE2439
:10F94000FF2487018091C80087FD17C00894E11C3F
:10F95000F11C011D111D81E4E81682E4F8068FE018
:10F96000080780E0180770F3E0910401F0910501A9
:10F9700009958091C80087FFE9CF8091CE001F9143
:10F980000F91FF90EF900895EE24FF24870180915E
:10F99000C00087FD17C00894E11CF11C011D111D5A
:10F9A00081E4E81682E4F8068FE0080780E0180793
:10F9B00070F3E0910401F091050109958091C00078
:10F9C00087FFE9CF8091C6001F910F91FF90EF90C4
:10F9D00008951F930E948F7C182F0E945D7C113622
:10F9E00034F410330CF01053812F1F9108951755E4
:10F9F000812F1F9108951F930E94E97C182F0E9468
:10FA0000E97C1295107F810F1F91089520910201CA
:10FA1000882339F0213031F0223061F08150882381
:10FA2000C9F708959091C00097FFFCCF9091C60050
:10FA30008150F5CF9091C80097FFFCCF9091CE00F8
:10FA40008150EDCF1F93182F0E948F7C803281F060
:10FA5000809103018F5F80930301853011F01F9126
:10FA60000895E0910401F091050109951F91089511
:10FA700084E10E945D7C812F0E945D7C80E10E9478
:10FA80005D7CEDCF0E948F7C803271F0809103010C
:10FA90008F5F80930301853009F00895E0910401A0
:10FAA000F09105010995089584E10E945D7C80E153
:10FAB0000E945D7C089515C0289A2FEF31EE44E036
:10FAC000215030404040E1F700C0000028982FEF5F
:10FAD00031EE44E0215030404040E1F700C00000EA
:10FAE0008150882349F70895EF92FF920F931F9357
:10FAF000CF93DF93000081E08093020180E1809347
:10FB0000C4001092C5001092C00086E08093C2002D
:10FB100088E18093C100209A81E00E945B7D0E9471
:10FB20008F7C8033B1F18133B9F1803409F454C052
:10FB3000813409F45AC0823409F469C0853409F467
:10FB40006CC0803531F1823521F1813511F1853577
:10FB500009F469C0863509F471C0843609F47AC0A5
:10FB6000843709F4E1C0853709F439C1863709F4CF
:10FB70004AC0809103018F5F80930301853079F63D
:10FB8000E0910401F091050109950E948F7C80337A
:10FB900051F60E94427DC3CF0E948F7C803249F78C
:10FBA00084E10E945D7C81E40E945D7C86E50E9488
:10FBB0005D7C82E50E945D7C80E20E945D7C89E440
:10FBC0000E945D7C83E50E945D7C80E50E945D7CF7
:10FBD00080E10E945D7CA3CF0E948F7C8638C8F2B2
:10FBE0000E948F7C0E94427D9ACF0E948F7C803839
:10FBF00009F40EC1813809F40FC1823809F410C12B
:10FC0000883909F401C180E00E94227D88CF84E117
:10FC10000E94067D0E94427D82CF85E00E94067D83
:10FC20000E94427D7CCF0E948F7C809306010E94BF
:10FC30008F7C809307010E94427D71CF0E948F7C50
:10FC4000803309F4F1C083E00E94067D80E00E94C9
:10FC5000227D65CF0E948F7C809309020E948F7C59
:10FC60008093080280910C028E7F80930C020E9488
:10FC70008F7C853409F4E9C08091080290910902D3
:10FC80000097A1F068E0E62E61E0F62E00E010E0BB
:10FC90000E948F7CF70181937F010F5F1F4F80913E
:10FCA0000802909109020817190790F30E948F7CAF
:10FCB000803209F05ECF80910C0280FFE5C0809118
:10FCC000060190910701880F991F90930701809377
:10FCD0000601209108023091090221153105E9F051
:10FCE00048E0E42E41E0F42E00E010E0F7016191DD
:10FCF0007F010E94C57F80910601909107010196C6
:10FD000090930701809306010F5F1F4F2091080217
:10FD1000309109020217130748F384E10E945D7CC9
:10FD200080E10E945D7CFBCE0E948F7C8093090263
:10FD30000E948F7C809308028091060190910701B8
:10FD400097FD9CC020910C022D7F20930C02880F00
:10FD5000991F90930701809306010E948F7C853440
:10FD600009F486C080910C028E7F80930C020E9461
:10FD70008F7C803209F0D3CE84E10E945D7C20919B
:10FD800008023091090221153105D1F100E010E09F
:10FD900080910601909107010CC041FF5CC0019663
:10FDA00090930701809306010F5F1F4F02171307FF
:10FDB00038F540910C0240FFF0CF0E94BD7F0E94B9
:10FDC0005D7C809106019091070101969093070157
:10FDD000809306012091080230910902E5CF0E942C
:10FDE0008F7C803209F0C5CE84E10E945D7C8EE17B
:10FDF0000E945D7C86E90E945D7C8AE00E945D7CB9
:10FE000080E10E945D7C8BCE83E00E94227D87CEC4
:10FE100082E00E94227D83CE81E00E94227D7FCEFF
:10FE200080E10E94227D7BCE0E948F7C0E948F7C8D
:10FE3000082F0E948F7C002309F497C0013009F439
:10FE400098C08AE00E94227D6ACE80910C02816077
:10FE500080930C0211CFFC0184910E945D7C209163
:10FE6000080230910902809106019091070197CF15
:10FE700080910C02816080930C0279CF20910C025A
:10FE8000226020930C0263CF80910701880F880BBA
:10FE9000817080930B028091060190910701880F79
:10FEA000991F90930701809306018091080280FFBB
:10FEB00009C080910802909109020196909309026D
:10FEC00080930802F894F999FECF1127E09106017A
:10FED000F0910701C8E0D1E08091080290910902F9
:10FEE000103091F40091570001700130D9F303E014
:10FEF00000935700E8950091570001700130D9F345
:10FF000001E100935700E89509901990009157007E
:10FF100001700130D9F301E000935700E895139583
:10FF2000103898F011270091570001700130D9F373
:10FF300005E000935700E8950091570001700130EB
:10FF4000D9F301E100935700E8953296029709F042
:10FF5000C7CF103011F00296E5CF112484E10E9442
:10FF60005D7C80E10E945D7CDACD8EE10E94227D85
:10FF7000D6CD86E90E94227DD2CDF999FECF92BDE1
:10FF800081BDF89A992780B50895262FF999FECF5B
:10FF90001FBA92BD81BD20BD0FB6F894FA9AF99AA6
:0AFFA0000FBE01960895F894FFCFFC
:02FFAA008000D5
:040000030000F80001
:00000001FF
