:020000021000EC
:10F000000C9446F80C9465F80C9465F80C9465F82B
:10F010000C9465F80C9465F80C9465F80C9465F8FC
:10F020000C9465F80C9465F80C9465F80C9465F8EC
:10F030000C9465F80C9465F80C9465F80C9465F8DC
:10F040000C9465F80C9465F80C9465F80C9465F8CC
:10F050000C9465F80C9465F80C9465F80C9465F8BC
:10F060000C9465F80C9465F80C9465F80C9465F8AC
:10F070000C9465F80C9465F80C9465F80C9465F89C
:10F080000C9465F80C9465F80C9465F811241FBE77
:10F09000CFEFD0E4DEBFCDBF11E0A0E0B1E0E8EDFE
:10F0A000F7EF01E00BBF02C007900D92A230B1074D
:10F0B000D9F712E0A2E0B1E001C01D92AD30B10776
:10F0C000E1F70E947EF90C94EAFB0C9400F8909111
:10F0D0000201913019F0923041F008959091C000F2
:10F0E00095FFFCCF8093C60008959091C80095FFCE
:10F0F000FCCF8093CE0008951F93982F95959595FA
:10F1000095959595905D182F1F701A304CF4105DF1
:10F11000892F0E9467F8812F0E9467F81F91089538
:10F12000195A892F0E9467F8812F0E9467F81F9152
:10F130000895EF92FF920F931F9380910201813007
:10F1400069F1823031F080E01F910F91FF90EF90D4
:10F150000895EE24FF2487018091C80087FD17C021
:10F160000894E11CF11C011D111D81E4E81682E4E4
:10F17000F8068FE0080780E0180770F3E0910401BB
:10F18000F091050109958091C80087FFE9CF809132
:10F19000CE001F910F91FF90EF900895EE24FF2471
:10F1A00087018091C00087FD17C00894E11CF11C05
:10F1B000011D111D81E4E81682E4F8068FE00807BE
:10F1C00080E0180770F3E0910401F09105010995C2
:10F1D0008091C00087FFE9CF8091C6001F910F91F9
:10F1E000FF90EF9008951F930E9499F8182F0E94A6
:10F1F00067F8113634F410330CF01053812F1F913F
:10F2000008951755812F1F9108951F930E94F3F8B9
:10F21000182F0E94F3F81295107F810F1F91089507
:10F2200020910201882339F0213031F0223061F041
:10F2300081508823C9F708959091C00097FFFCCFB3
:10F240009091C6008150F5CF9091C80097FFFCCFF8
:10F250009091CE008150EDCF1F93182F0E9499F806
:10F26000803281F0809103018F5F809303018530AC
:10F2700011F01F910895E0910401F09105010995A5
:10F280001F91089584E10E9467F8812F0E9467F81A
:10F2900080E10E9467F8EDCF0E9499F8803271F00A
:10F2A000809103018F5F80930301853009F00895F9
:10F2B000E0910401F09105010995089584E10E940F
:10F2C00067F880E10E9467F8089515C0289A2FEF2B
:10F2D00031EE44E0215030404040E1F700C00000F2
:10F2E00028982FEF31EE44E0215030404040E1F7C4
:10F2F00000C000008150882349F70895EF92FF92E3
:10F300000F931F93CF93DF93000081E0809302015E
:10F3100080E18093C4001092C5001092C00086E086
:10F320008093C20088E18093C100209A81E00E940E
:10F3300065F90E9499F88033B1F18133B9F18034D5
:10F3400009F454C0813409F45AC0823409F469C004
:10F35000853409F46CC0803531F1823521F1813575
:10F3600011F1853509F469C0863509F471C0843618
:10F3700009F47AC0843709F4E1C0853709F43FC144
:10F38000863709F44AC0809103018F5F809303019F
:10F39000853079F6E0910401F091050109950E940C
:10F3A00099F8803351F60E944CF9C3CF0E9499F826
:10F3B000803249F784E10E9467F881E40E9467F88F
:10F3C00086E50E9467F882E50E9467F880E20E9465
:10F3D00067F889E40E9467F883E50E9467F880E592
:10F3E0000E9467F880E10E9467F8A3CF0E9499F815
:10F3F0008638C8F20E9499F80E944CF99ACF0E9470
:10F4000099F8803809F414C1813809F415C182389B
:10F4100009F416C1883909F407C180E00E942CF96B
:10F4200088CF84E10E9410F90E944CF982CF85E0D8
:10F430000E9410F90E944CF97CCF0E9499F88093A9
:10F4400006010E9499F8809307010E944CF971CF40
:10F450000E9499F8803309F405C183E00E9410F9F5
:10F4600080E00E942CF965CF0E9499F880930902F0
:10F470000E9499F88093080280910C028E7F8093FD
:10F480000C020E9499F8853409F4FDC080910802AD
:10F49000909109020097A1F068E0E62E61E0F62E57
:10F4A00000E010E00E9499F8F70181937F010F5F5F
:10F4B0001F4F80910802909109020817190790F3D5
:10F4C0000E9499F8803209F05ECF80910C0280FF93
:10F4D000ECC08091060190910701880F991F9093CD
:10F4E000070180930601209108023091090221153D
:10F4F0003105E9F048E0E42E41E0F42E00E010E0B0
:10F50000F70161917F010E94DCFB809106019091DF
:10F510000701019690930701809306010F5F1F4F2B
:10F5200020910802309109020217130748F384E181
:10F530000E9467F880E10E9467F8FBCE0E9499F86C
:10F54000809309020E9499F8809308028091060135
:10F550009091070197FDA3C020910C022D7F20936D
:10F560000C02880F991F90930701809306010E9457
:10F5700099F8853409F48DC080910C028E7F8093B8
:10F580000C020E9499F8803209F0D3CE84E10E94E7
:10F5900067F88091080290910902009709F440C031
:10F5A00000E010E0809106019091070116C0FC0177
:10F5B00084910E9467F8809106019091070101965D
:10F5C00090930701809306010F5F1F4F209108025F
:10F5D000309109020217130718F520910C0220FD43
:10F5E00033C021FFE4CFA0E0B0E080509040AF4FA7
:10F5F000BF4FABBFFC0187910E9467F8DCCF0E9430
:10F6000099F8803209F0BFCE84E10E9467F88EE15C
:10F610000E9467F887E90E9467F885E00E9467F812
:10F6200080E10E9467F885CE83E00E942CF981CEAC
:10F6300082E00E942CF97DCE81E00E942CF979CEE7
:10F6400080E10E942CF975CE0E94D4FB0E9467F8DD
:10F650008091060190910701019690930701809394
:10F660000601B2CF0E9499F80E9499F8082F0E94D3
:10F6700099F8002309F48BC0013009F48CC085E0AF
:10F680000E942CF956CE80910C02816080930C026E
:10F69000FDCE80910C02816080930C0272CF20918C
:10F6A0000C02226020930C025CCF8091070187FD41
:10F6B00076C010920B0280E08BBF80910601909182
:10F6C0000701880F991F909307018093060180918D
:10F6D000080280FF09C080910802909109020196FA
:10F6E0009093090280930802F894F999FECF1127AC
:10F6F000E0910601F0910701C8E0D1E08091080295
:10F7000090910902103091F400915700017001307E
:10F71000D9F303E000935700E8950091570001707A
:10F720000130D9F301E100935700E8950990199051
:10F730000091570001700130D9F301E000935700A8
:10F74000E8951395103898F0112700915700017033
:10F750000130D9F305E000935700E8950091570078
:10F7600001700130D9F301E100935700E89532961A
:10F77000029709F0C7CF103011F00296E5CF11249F
:10F7800084E10E9467F880E10E9467F8D2CD8EE1A3
:10F790000E942CF9CECD87E90E942CF9CACDF1E068
:10F7A000F0930B0281E088CFF999FECF92BD81BD25
:10F7B000F89A992780B50895262FF999FECF1FBA98
:10F7C00092BD81BD20BD0FB6F894FA9AF99A0FBE8A
:08F7D00001960895F894FFCFA3
:02F7D8008000AF
:040000031000F000F9
:00000001FF
