:020000021000EC
:10F000004BC0000064C0000062C0000060C000008F
:10F010005EC000005CC000005AC0000058C0000084
:10F0200056C0000054C000006FC4000050C0000073
:10F030004EC000004CC000004AC0000048C00000A4
:10F0400046C0000044C0000042C0000040C00000B4
:10F050003EC000003CC000003AC0000038C00000C4
:10F0600036C0000034C0000032C0000030C00000D4
:10F070002EC000002CC000002AC0000028C00000E4
:10F0800026C0000024C0000022C0000020C00000F4
:10F090001EC000001CC0000011241FBECFEFD0E135
:10F0A000DEBFCDBF11E0A0E0B1E0E2E2FEEF02C0C2
:10F0B00005900D92AC38B107D9F711E0ACE8B1E09A
:10F0C00001C01D92AD39B107E1F7FCD2A8C698CFB7
:10F0D00084E08093E9000DC08091E8008B778093F5
:10F0E000E80003C08EB3882359F08091E80082FFC6
:10F0F000F9CF8091E80085FFEFCF8091F10008956E
:10F1000080E0089593E09093E9009091E80095FDE8
:10F110000DC09091E8009E779093E80003C09EB3E5
:10F12000992331F09091E80090FFF9CF8093F1009E
:10F13000089584B7877F84BF88E10FB6F8948093E1
:10F140006000109260000FBE90E080E80FB6F89467
:10F1500080936100909361000FBE81E085BF82E0E3
:10F1600085BFBCC382E061EC42E03ED383E061E84E
:10F1700042E13AD384E060E842E136C380919601EF
:10F180008032B1F0813239F580919501813A19F5DB
:10F190008091E800877F8093E80088E091E067E055
:10F1A00070E07BD58091E8008B778093E80008952C
:10F1B00080919501813279F48091E800877F809376
:10F1C000E80088E091E067E070E0C2D58091E80057
:10F1D0008E778093E80008952F923F924F925F922E
:10F1E0006F927F929F92AF92BF92CF92DF92EF92F7
:10F1F000FF920F931F93DF93CF930F92CDB7DEB79C
:10F2000084E08093E9008091E80082FF48C2109278
:10F210008C015EDF182F8C3409F4EEC1803509F4BF
:10F22000EBC1843529F0853429F410920F01E4C133
:10F230004FDFE2C1843711F484E448C0813611F411
:10F2400089E503C28134F1F443DF382F330F20E026
:10F2500079010027F7FC0095102FE0928F01F092C2
:10F260009001009391011093920132DF90E0880F9A
:10F27000991FAA2797FDA095BA2F8E299F29A02B09
:10F28000B12BB2C1803711F483E5DFC1833559F466
:10F2900000E011E0F80181918F0134DFF1E00730E7
:10F2A0001F07C1F7D3C1863521F481E32BDF80E34B
:10F2B000CCC1833731F482E825DF86E923DF8EE194
:10F2C000C4C1823631F489E51DDF81E01BDF80E0B7
:10F2D000BCC18536F9F480E090E0DC0133E025E044
:10F2E000FC0130935700E89507B600FCFDCF209352
:10F2F0005700E89507B600FCFDCF8F5F9E4FAF4FDC
:10F30000BF4F8F3E40EF940741E0A40740E0B407B1
:10F3100039F772C18C3651F4DBDE809599E0E1E07B
:10F32000F0E0082E90935700E89566C1823719F4F3
:10F33000E1E0F0E00EC0863419F4E0E0F0E009C04E
:10F340008E3419F4E3E0F0E004C0813539F4E2E0F2
:10F35000F0E089E080935700849177C1833471F4A1
:10F3600000918F0110919001B3DE90E021E0F8014F
:10F370000C0120935700E89511243EC1833679F49F
:10F3800000918F01109190010160A2DE90E021E0D8
:10F39000F8010C0120935700E89511241AC18D360D
:10F3A00061F4E0918F01F091900185E08093570026
:10F3B000E89507B600FCFDCF1FC1823419F08736EF
:10F3C00009F0E9C085DEE82E83DE082F81DEB82E45
:10F3D0008554823008F038C13E2D20E0202E3324A1
:10F3E000222A332A173609F054C081E1809357004E
:10F3F000E89510E001E048C0FB2DF63409F5E12F57
:10F40000F0E080918F0190919001E82BF92B84918D
:10F4100079DE112399F080918F0190919001A09154
:10F420009101B09192010296A11DB11D80938F01AF
:10F4300090939001A0939101B0939201102721C065
:10F4400080918F0190919001A0919101B0919201D2
:10F45000B695A79597958795CCD454DE80918F016A
:10F4600090919001A0919101B09192010296A11DFD
:10F47000B11D80938F0190939001A0939101B0935F
:10F4800092010894210831082114310409F0B4CF05
:10F49000DDC040908F01509090016090910170907C
:10F4A00092012B2D263409F061C083E0F201809394
:10F4B0005700E89507B600FCFDCF58C0FB2DF63489
:10F4C00061F5222331F1E0908F01F090900100DE90
:10F4D000D82ECC248A2D90E08C299D29F7010C018F
:10F4E00090925700E895112480918F01909190019E
:10F4F000A0919101B09192010296A11DB11D80933E
:10F500008F0190939001A0939101B093920120E01C
:10F5100029C0DEDDA82E21E025C0E0908F01F0900B
:10F520009001009191011091920116950795F79421
:10F53000E7942983CDDD682FC70163D480918F01C3
:10F5400090919001A0919101B09192010296A11D1C
:10F55000B11D80938F0190939001A0939101B0937E
:10F560009201298108942108310804C0AA2420E0CE
:10F57000992493942114310409F0A0CFFB2DF63483
:10F5800009F03AC085E0F20180935700E89507B68C
:10F5900000FCFDCF31C0823551F4E0918F01F09134
:10F5A000900105911491812FADDD802F4EC08434E0
:10F5B00029F5E0908F01F090900100919101109158
:10F5C000920116950795F794E79482DD682FC7019D
:10F5D00018D480918F0190919001A0919101B091E8
:10F5E00092010296A11DB11D80938F01909390010D
:10F5F000A0939101B09392018DE027C0843611F55C
:10F6000080918F0190919001A0919101B091920110
:10F61000B695A79597958795ECD374DD80918F016A
:10F6200090919001A0919101B09192010296A11D3B
:10F63000B11D80938F0190939001A0939101B0939D
:10F64000920104C08B3111F08FE35CDD83E0809385
:10F65000E9009091E8008091E8008E778093E800BF
:10F6600095FF04C010C08EB38823C9F08091E800D4
:10F6700080FFF9CF8091E8008E778093E80003C087
:10F680008EB3882361F08091E80080FFF9CF84E099
:10F690008093E9008091E8008B778093E8000F90D9
:10F6A000CF91DF911F910F91FF90EF90DF90CF905E
:10F6B000BF90AF909F907F906F905F904F903F90E2
:10F6C0002F900895EF92FF920F931F93DF93CF93A4
:10F6D0000F92CDB7DEB784B714BE909160009861E9
:10F6E000909360001092600010928C0190E0FC01F9
:10F6F000E270F07081FD0BC0859194912FEF8F3FE8
:10F70000920729F0E0918D01F0918E01099511DDAC
:10F710006F9A779A789481E010E000E0E0E0F0E002
:10F72000E590F49025C0898357DD51D30F5F89811F
:10F73000002311F4180F779A011709F477981F3FE7
:10F7400059F0112351F4813041F080918C018F5F89
:10F7500080938C0181E001C08FEF90918C019530F6
:10F7600038F09FEFE9169FEFF90611F010920F01A4
:10F7700090910F019923B9F68091E0008160809308
:10F78000E0002CE088E190E00FB6F894A895809313
:10F7900060000FBE20936000FFCF923049F093309D
:10F7A00061F09130C1F020E030E080E090E017C0DF
:10F7B0002EE330E082E291E012C0882331F4209100
:10F7C000600130E080E691E00AC02091640130E001
:10F7D00084E691E004C022E130E080E191E0FA01AA
:10F7E00091838083C90108958093E900EBEEF0E0F6
:10F7F000808181608083EDEEF0E010826093EC0008
:10F8000040838091EE00881F8827881F089580918B
:10F81000950187FF11C003C08EB38823B1F080919A
:10F82000E80082FFF9CF8091E8008B778093E800B1
:10F8300008958EB3882349F08091E80080FFF9CFC6
:10F840008091E8008E778093E800089550D057D0DB
:10F850008091D800982F9F779093D80080688093EC
:10F86000D80088E189BD89B5826089BD09B400FEF0
:10F87000FDCF8091D8008F7D8093D8008091D700F4
:10F8800080688093D7001EBA109293018091E000A7
:10F890008B7F8093E0008091D80081608093D800B6
:10F8A00080E060E042E0A0DF8091E1008E7F809305
:10F8B000E1008091E20081608093E2008091E200AB
:10F8C00088608093E2008091E0008E7F8093E0006A
:10F8D0008091D80080618093D8000895E7EDF0E032
:10F8E00080818160808381E080939401AFCFE8EDD7
:10F8F000F0E080818C7F80831092E2000895109266
:10F90000DA001092E10008951F920F920FB60F9245
:10F9100011242F933F934F935F936F937F938F9314
:10F920009F93AF93BF93EF93FF938091DA0080FF93
:10F9300013C08091D80080FF0FC08091DA008E7FC5
:10F940008093DA008091D90080FF04C081E08EBBF3
:10F95000A3D102C01EBAA0D18091E10080FF1CC0DB
:10F960008091E20080FF18C08091E1008E7F80933B
:10F97000E1008091E2008E7F8093E2008091E200BE
:10F9800080618093E2008091D80080628093D800EB
:10F9900019BC85E08EBB80D18091E10084FF2DC031
:10F9A0008091E20084FF29C088E189BD89B5826029
:10F9B00089BD09B400FEFDCF8091D8008F7D809372
:10F9C000D8008091E1008F7E8093E1008091E20079
:10F9D0008F7E8093E2008091E20081608093E2005C
:10F9E00080919301882321F48091E30087FF02C076
:10F9F00084E001C081E08EBB4FD18091E10083FFA4
:10FA000021C08091E20083FF1DC08091E100877FCB
:10FA10008093E10082E08EBB109293018091E1001F
:10FA20008E7F8093E1008091E2008E7F8093E200E0
:10FA30008091E20080618093E20080E060E042E03B
:10FA4000D3DE2AD18091E10082FF0AC08091E200DA
:10FA500082FF06C08091E1008B7F8093E1001CD182
:10FA6000FF91EF91BF91AF919F918F917F916F9196
:10FA70005F914F913F912F910F900FBE0F901F906C
:10FA800018950F931F93DF93CF9300D0CDB7DEB7B8
:10FA9000E5E9F1E08091F100819381E0ED39F8072B
:10FAA000C9F78091950190919601953009F46BC04A
:10FAB000963040F4913061F1913070F0933009F05C
:10FAC000D5C026C0983009F4A3C0993009F4B2C05B
:10FAD000963009F0CBC07CC0803809F4C8C08238A9
:10FAE00009F0C4C08091990187708093E9009091DA
:10FAF000EB001092E9008091E800877F8093E80096
:10FB000081E095FF80E08093F1001092F1008BC0BE
:10FB1000882319F0823009F0A9C08F71823009F072
:10FB2000A6C080919701882341F520919901277003
:10FB300009F49DC02093E9008091EB0080FF1DC077
:10FB400080919601833021F48091EB00806213C094
:10FB50008091EB0080618093EB0081E090E002C037
:10FB6000880F991F2A95E2F78093EA001092EA0025
:10FB70008091EB0088608093EB001092E900809107
:10FB8000E800877F53C0882309F070C01091970167
:10FB90001F770FB7F8948091E800877F8093E80083
:10FBA00036DE8091E80080FFFCCF112311F083E066
:10FBB00001C082E08EBB8091E3008078812B80932E
:10FBC000E3008091E30080688093E3000FBF4FC0A3
:10FBD0008058823008F04AC0809197019091980136
:10FBE00060919901AE014F5F5F4FD7DDBC01009777
:10FBF00009F43DC08091E800877F8093E800898107
:10FC00009A814BD08091E8008B778093E8002FC0D9
:10FC1000803861F58091E800877F8093E8008091CB
:10FC200093018093F1008091E8008E778093E80043
:10FC3000EEDD1DC08823D1F4909197019230B8F485
:10FC40008091E800877F8093E80090939301DFDD47
:10FC500080919301882321F48091E30087FF02C003
:10FC600084E001C081E08EBB7DDA01C087DA80913B
:10FC7000E80083FF0AC08091EB0080628093EB0074
:10FC80008091E800877F8093E8000F900F90CF91DC
:10FC9000DF911F910F9108950895282F392FF901B1
:10FCA00080919B0190919C018617970718F4BC01E5
:10FCB00020E035C061157105D9F78091E8008E7795
:10FCC0008093E800F5CF8EB38823F1F18530C1F140
:10FCD0008091E80083FD36C08091E80082FD2AC053
:10FCE0008091E80080FF1BC08091F2009091F300AA
:10FCF00006C021912093F10061507040019661157A
:10FD0000710519F088309105A0F321E08830910544
:10FD100009F020E08091E8008E778093E80061157B
:10FD2000710589F6222379F605C08EB3882361F028
:10FD3000853061F08091E80082FFF7CF80E0089580
:10FD400083E0089581E0089582E0089583E00895B6
:10FD50006115710529F51FC02EB32223A1F12530AD
:10FD600071F12091E80023FD2CC02091E80022FFD2
:10FD7000F3CFE82FF92F07C08091F1008193CF01D5
:10FD80006150704041F0CF012091F2003091F300BA
:10FD90002115310589F72091E8002B772093E800A1
:10FDA00061157105C9F605C08EB3882361F08530F1
:10FDB00061F08091E80080FFF7CF80E0089583E054
:10FDC000089581E0089582E0089583E008951F93E7
:10FDD0008EB3882361F01091E90017701092E9004A
:10FDE0008091E80083FF01C04CDE1093E9001F9171
:10FDF0000895F999FECF92BD81BDF89A992780B5F3
:10FE00000895262FF999FECF1FBA92BD81BD20BD5E
:10FE10000FB6F894FA9AF99A0FBE01960895F894DD
:02FE2000FFCF12
:10FE22004C554641434443000000000000000801D5
:10FE320012011001020000089A23010001000001D2
:10FE4200000109023E0002010080320904000001A3
:10FE52000202010005240010010424020405240604
:10FE620000010705820308000209040100020A00DA
:10FE720000000705040210000007058302100000BD
:10FE820004030904260341005600520020004300E7
:10FE920044004300200042006F006F0074006C00B9
:0CFEA2006F006100640065007200000049
:040000031000F000F9
:00000001FF
