:020000021000EC
:10F8000011241FBE8FEF90E49EBF8DBF01C32F92C6
:10F810003F924F925F926F927F928F929F92AF92A0
:10F82000BF92CF92DF92EF92FF920F931F93DF93DD
:10F83000CF93CDB7DEB7C252D1400FB6F894DEBF3A
:10F840000FBECDBF44245524DD24C25EDE4F188296
:10F85000CE51D1408824992454013AC20E9428FFF5
:10F86000282F133059F1143028F4113081F0123060
:10F8700000F507C0153081F1153030F1163071F701
:10F880003DC08B3159F711E05BE1D52EE7CF8130D8
:10F8900041F0C25EDE4F3881CE51D140831709F06E
:10F8A00019C2D226C25EDE4F2883CE51D14012E06B
:10F8B000D5CFF82EEE24D82613E0D0CF90E0E82A5A
:10F8C000F92AD22614E0CACF8E3009F003C2D82616
:10F8D00015E044245524C2CFE1E0F0E0EC0FFD1F19
:10F8E000E40DF51D80830894411C511CD8264E144C
:10F8F0005F0409F0B3CF720116E0B0CF8D1509F0A7
:10F90000E9C1EAC1CC2447C08D81803311F090E079
:10F910000AC08F81882311F49EE105C0813011F067
:10F9200095E001C097E91A821B828D818C838E81BC
:10F930008D839E831F8247E0E42EF12C88C11A82BA
:10F9400068E06B8383E58C8394E59D83EBE4EE8331
:10F9500085E38F8380E3888789878FE58A8782E3C1
:10F960008B873BE0E32EF12C72C18A81813941F013
:10F97000823941F0803911F48FE005C080E003C086
:10F9800082E001C08AE01A828B8323E0E22EF12C10
:10F990005EC1CC24C3941A8292E0E92EF12C58C1A6
:10F9A0008D81882311F48EE128C0813011F085E02B
:10F9B00024C087E922C01A8229E0E1E0F0E0209328
:10F9C000570084911BC08B81803589F48C818830ED
:10F9D00039F439E0E2E0F0E03093570084910DC053
:10F9E00069E0E0E0F0E060935700849106C099E0A0
:10F9F000E3E0F0E09093570084911A828B831C829D
:10FA000084E0E82EF12C23C18A8190E0A0E0B0E0F0
:10FA1000B82EAA24992488248B8190E0A0E0B0E03D
:10FA2000DC0199278827882A992AAA2ABB2A8D814E
:10FA300090E0A0E0B0E0882A992AAA2ABB2A8C810B
:10FA400090E0A0E0B0E0BA2FA92F982F8827882A4D
:10FA5000992AAA2ABB2A88C0EA81C05EDE4FE883C1
:10FA6000C052D140C15EDE4F1882CF51D1408B8150
:10FA7000A82FB0E0C15EDE4F28813981CF51D1403F
:10FA8000A22BB32B933109F042C075016401CC0C59
:10FA9000DD1CEE1CFF1C33E0F601E0925B003093AE
:10FAA0005700E89507B600FCFDCF8E01055F1F4F9C
:10FAB000F801808161810E5F1F4FA5019401220F23
:10FAC000331F441F551F362E222490E0822993298C
:10FAD00061E00C01F90140935B0060935700E895E9
:10FAE00011240894811C911CA11CB11C129701F7D0
:10FAF00085E0F601E0925B0080935700E89507B639
:10FB000000FCFDCF81E180935700E8952DC0FE01F8
:10FB10003B9620E030E040E050E011977D0100E0AE
:10FB200010E00894E11CF11C011D111D6081F99980
:10FB3000FECF1FBAC901880D991D92BD81BD60BD60
:10FB40000FB6F894FA9AF99A0FBE2F5F3F4F4F4FB6
:10FB50005F4F2E153F054007510711F03196E6CF54
:10FB6000820E931EA41EB51E1A826EC09A81CE5DAF
:10FB7000DE4F9883C252D140CF5DDE4F1882C15212
:10FB8000D1408B81C82EDD24CF5DDE4FE881F98125
:10FB9000C152D140CE2ADF2A1A8289818431E1F410
:10FBA0009601BE016D5F7F4FD501C401880F991F7B
:10FBB000AA1FBB1FABBFFC0187919691FB018083FD
:10FBC00091836E5F7F4F0894811C911CA11CB11C16
:10FBD0002250304049F72EC0BE016D5F7F4F20E0BC
:10FBE00030E040E050E00894C108D108760100E020
:10FBF00010E00894C11CD11C0894E11CF11C011DEB
:10FC0000111DF999FECFC901880D991D92BD81BDC5
:10FC1000F89A80B5FB018193BF012F5F3F4F4F4F93
:10FC20005F4F2E153F054007510759F7820E931E6F
:10FC3000A41EB51E23E0E22EF12CEC0CFD1CFB01F2
:10FC4000108205C080EC8A8392E0E92EF12CCC244E
:10FC50008BE10E94C7FEC25EDE4F8881CE51D1404B
:10FC60000E94C7FE8F2D0E94C7FE8E2D0E94C7FEE8
:10FC70008EE00E94C7FE85E1D82EC25EDE4FF8817D
:10FC8000CE51D140DF26DE24DF243E010894611CE2
:10FC9000711C0AC0F30111913F01812F0E94C7FE20
:10FCA000D1260894E108F108E114F10499F78D2DAB
:10FCB0000E94C7FECC2009F044C0C25EDE4FF8812E
:10FCC000CE51D140FF5FC25EDE4FF883CE51D140AE
:10FCD000EE24FF2410E0C2CD9981933109F4BCCE0B
:10FCE0009431B0F4933009F440CE943038F491302C
:10FCF00009F425CE923009F0A5CF04CE903109F455
:10FD000001CE913109F445CE963009F09BCF7CCEDF
:10FD1000983109F458CE993150F4953109F49CCEBC
:10FD2000953108F423CF963109F08CCF1FCF9B314A
:10FD300009F436CE9D3109F4E7CD9A3109F082CF2E
:10FD40003ACECE5DDE4F0FB6F894DEBF0FBECDBF0C
:10FD5000CF91DF911F910F91FF90EF90DF90CF90A7
:10FD6000BF90AF909F908F907F906F905F904F90DB
:10FD70003F902F9008958091C00087FFFCCF089599
:10FD80008091C00087FFFCCF8091C6000895982F16
:10FD90008091C00085FFFCCF9093C60008959B0121
:10FDA000AC0197FF11C08091C00082608093C000B9
:10FDB00050954095309521953F4F4F4F5F4F60E0F4
:10FDC00074E284EF90E009C08091C0008D7F809341
:10FDD000C00060E072E18AE790E00E9447FF2C5F7C
:10FDE0003F4F4F4F5F4F83E0569547953795279587
:10FDF0008A95D1F7215030403093C5002093C4003C
:10FE0000089518B817B81F921F921F920895FFCF38
:10FE100084B714BE90E083709070892B39F418B8C1
:10FE200017B81F921F921F920895FFCF88E1809309
:10FE3000C10060E07EE38EEF9FEF0E94CFFE0E9444
:10FE400007FC18B817B81F921F921F920895FFCF92
:10FE500020E030E040E050E013C02F5F3F4F4F4FB5
:10FE60005F4F21308AE6380788E1480780E058076D
:10FE700039F418B817B81F921F921F920895FFCF38
:10FE80008091C00087FFE9CF0E94C0FE0895A1E2E3
:10FE90001A2EAA1BBB1BFD010DC0AA1FBB1FEE1F04
:10FEA000FF1FA217B307E407F50720F0A21BB30B4F
:10FEB000E40BF50B661F771F881F991F1A9469F7CB
:10FEC00060957095809590959B01AC01BD01CF0127
:02FED000089593
:040000031000F800F1
:00000001FF
